{
  "contractName": "Buyback",
  "abi": [
    {
      "inputs": [
        {
          "internalType": "address",
          "name": "_initializer",
          "type": "address"
        },
        {
          "internalType": "address",
          "name": "_treasury",
          "type": "address"
        },
        {
          "internalType": "address",
          "name": "_weth",
          "type": "address"
        }
      ],
      "stateMutability": "nonpayable",
      "type": "constructor"
    },
    {
      "anonymous": false,
      "inputs": [
        {
          "indexed": false,
          "internalType": "uint256",
          "name": "_totalAmount",
          "type": "uint256"
        },
        {
          "indexed": false,
          "internalType": "uint256",
          "name": "_singleAmount",
          "type": "uint256"
        }
      ],
      "name": "BuybackInitialized",
      "type": "event"
    },
    {
      "anonymous": false,
      "inputs": [
        {
          "indexed": false,
          "internalType": "address",
          "name": "_sender",
          "type": "address"
        },
        {
          "indexed": false,
          "internalType": "uint256",
          "name": "_senderRewardAmount",
          "type": "uint256"
        },
        {
          "indexed": false,
          "internalType": "uint256",
          "name": "_buybackAmount",
          "type": "uint256"
        }
      ],
      "name": "SingleBuybackExecuted",
      "type": "event"
    },
    {
      "inputs": [],
      "name": "initializerAddress",
      "outputs": [
        {
          "internalType": "address",
          "name": "",
          "type": "address"
        }
      ],
      "stateMutability": "view",
      "type": "function",
      "constant": true
    },
    {
      "inputs": [],
      "name": "tokenAddress",
      "outputs": [
        {
          "internalType": "address",
          "name": "",
          "type": "address"
        }
      ],
      "stateMutability": "view",
      "type": "function",
      "constant": true
    },
    {
      "inputs": [],
      "name": "uniswapRouterAddress",
      "outputs": [
        {
          "internalType": "address",
          "name": "",
          "type": "address"
        }
      ],
      "stateMutability": "view",
      "type": "function",
      "constant": true
    },
    {
      "inputs": [],
      "name": "treasuryAddress",
      "outputs": [
        {
          "internalType": "address",
          "name": "",
          "type": "address"
        }
      ],
      "stateMutability": "view",
      "type": "function",
      "constant": true
    },
    {
      "inputs": [],
      "name": "wethAddress",
      "outputs": [
        {
          "internalType": "address",
          "name": "",
          "type": "address"
        }
      ],
      "stateMutability": "view",
      "type": "function",
      "constant": true
    },
    {
      "inputs": [],
      "name": "totalAmount",
      "outputs": [
        {
          "internalType": "uint256",
          "name": "",
          "type": "uint256"
        }
      ],
      "stateMutability": "view",
      "type": "function",
      "constant": true
    },
    {
      "inputs": [],
      "name": "singleAmount",
      "outputs": [
        {
          "internalType": "uint256",
          "name": "",
          "type": "uint256"
        }
      ],
      "stateMutability": "view",
      "type": "function",
      "constant": true
    },
    {
      "inputs": [],
      "name": "boughtBackAmount",
      "outputs": [
        {
          "internalType": "uint256",
          "name": "",
          "type": "uint256"
        }
      ],
      "stateMutability": "view",
      "type": "function",
      "constant": true
    },
    {
      "inputs": [],
      "name": "lastBuyback",
      "outputs": [
        {
          "internalType": "uint256",
          "name": "",
          "type": "uint256"
        }
      ],
      "stateMutability": "view",
      "type": "function",
      "constant": true
    },
    {
      "inputs": [],
      "name": "nextBuyback",
      "outputs": [
        {
          "internalType": "uint256",
          "name": "",
          "type": "uint256"
        }
      ],
      "stateMutability": "view",
      "type": "function",
      "constant": true
    },
    {
      "inputs": [],
      "name": "lastBuybackBlock",
      "outputs": [
        {
          "internalType": "uint256",
          "name": "",
          "type": "uint256"
        }
      ],
      "stateMutability": "view",
      "type": "function",
      "constant": true
    },
    {
      "inputs": [
        {
          "internalType": "address",
          "name": "_token",
          "type": "address"
        },
        {
          "internalType": "address",
          "name": "_uniswapRouter",
          "type": "address"
        }
      ],
      "name": "init",
      "outputs": [],
      "stateMutability": "payable",
      "type": "function",
      "payable": true
    },
    {
      "inputs": [],
      "name": "buyback",
      "outputs": [],
      "stateMutability": "nonpayable",
      "type": "function"
    }
  ],
  "bytecode": "0x608060405234801561001057600080fd5b506040516110eb3803806110eb8339818101604052606081101561003357600080fd5b8101908080519060200190929190805190602001909291908051906020019092919050505082600260006101000a81548173ffffffffffffffffffffffffffffffffffffffff021916908373ffffffffffffffffffffffffffffffffffffffff16021790555081600360006101000a81548173ffffffffffffffffffffffffffffffffffffffff021916908373ffffffffffffffffffffffffffffffffffffffff16021790555080600460006101000a81548173ffffffffffffffffffffffffffffffffffffffff021916908373ffffffffffffffffffffffffffffffffffffffff160217905550505050610fbe8061012d6000396000f3fe6080604052600436106100c25760003560e01c80639d76ea581161007f578063d6dc0b0d11610059578063d6dc0b0d146102a2578063f09a4016146102e3578063f23e7d6f14610347578063f8ec691114610372576100c2565b80639d76ea58146101f5578063b82d125214610236578063c5f956af14610261576100c2565b80630741dc4d146100c75780631a39d8ef146100f257806320ca3c7f1461011d5780633dd788a11461015e57806344629b4e146101895780634f0e0ef3146101b4575b600080fd5b3480156100d357600080fd5b506100dc610389565b6040518082815260200191505060405180910390f35b3480156100fe57600080fd5b50610107610393565b6040518082815260200191505060405180910390f35b34801561012957600080fd5b5061013261039d565b604051808273ffffffffffffffffffffffffffffffffffffffff16815260200191505060405180910390f35b34801561016a57600080fd5b506101736103c7565b6040518082815260200191505060405180910390f35b34801561019557600080fd5b5061019e6103d1565b6040518082815260200191505060405180910390f35b3480156101c057600080fd5b506101c96103db565b604051808273ffffffffffffffffffffffffffffffffffffffff16815260200191505060405180910390f35b34801561020157600080fd5b5061020a610405565b604051808273ffffffffffffffffffffffffffffffffffffffff16815260200191505060405180910390f35b34801561024257600080fd5b5061024b61042e565b6040518082815260200191505060405180910390f35b34801561026d57600080fd5b50610276610438565b604051808273ffffffffffffffffffffffffffffffffffffffff16815260200191505060405180910390f35b3480156102ae57600080fd5b506102b7610462565b604051808273ffffffffffffffffffffffffffffffffffffffff16815260200191505060405180910390f35b610345600480360360408110156102f957600080fd5b81019080803573ffffffffffffffffffffffffffffffffffffffff169060200190929190803573ffffffffffffffffffffffffffffffffffffffff16906020019092919050505061048c565b005b34801561035357600080fd5b5061035c6106de565b6040518082815260200191505060405180910390f35b34801561037e57600080fd5b506103876106e8565b005b6000600a54905090565b6000600554905090565b6000600160009054906101000a900473ffffffffffffffffffffffffffffffffffffffff16905090565b6000600854905090565b6000600954905090565b6000600460009054906101000a900473ffffffffffffffffffffffffffffffffffffffff16905090565b60008060019054906101000a900473ffffffffffffffffffffffffffffffffffffffff16905090565b6000600754905090565b6000600360009054906101000a900473ffffffffffffffffffffffffffffffffffffffff16905090565b6000600260009054906101000a900473ffffffffffffffffffffffffffffffffffffffff16905090565b60008054906101000a900460ff161561050d576040517f08c379a00000000000000000000000000000000000000000000000000000000081526004018080602001828103825260148152602001807f416c726561647920696e697469616c697a65642e00000000000000000000000081525060200191505060405180910390fd5b600260009054906101000a900473ffffffffffffffffffffffffffffffffffffffff1673ffffffffffffffffffffffffffffffffffffffff163373ffffffffffffffffffffffffffffffffffffffff16146105d0576040517f08c379a00000000000000000000000000000000000000000000000000000000081526004018080602001828103825260198152602001807f4f6e6c7920696e697469616c697a657220616c6c6f7765642e0000000000000081525060200191505060405180910390fd5b81600060016101000a81548173ffffffffffffffffffffffffffffffffffffffff021916908373ffffffffffffffffffffffffffffffffffffffff16021790555080600160006101000a81548173ffffffffffffffffffffffffffffffffffffffff021916908373ffffffffffffffffffffffffffffffffffffffff1602179055503460058190555061066f600a600554610c9b90919063ffffffff16565b60068190555061067d610ce5565b60016000806101000a81548160ff0219169083151502179055507f5ac902ec405187f754d8ae16f84f03776bd1542e941761a43087ce9922658168600554600654604051808381526020018281526020019250505060405180910390a15050565b6000600654905090565b600954421015610760576040517f08c379a00000000000000000000000000000000000000000000000000000000081526004018080602001828103825260128152602001807f4e6f74207363686564756c6564207965742e000000000000000000000000000081525060200191505060405180910390fd5b60008054906101000a900460ff166107e0576040517f08c379a00000000000000000000000000000000000000000000000000000000081526004018080602001828103825260108152602001807f4e6f7420696e697469616c697a65642e0000000000000000000000000000000081525060200191505060405180910390fd5b60006005541180156107f55750600754600554115b610867576040517f08c379a00000000000000000000000000000000000000000000000000000000081526004018080602001828103825260188152602001807f4e6f206d6f72652066756e647320617661696c61626c652e000000000000000081525060200191505060405180910390fd5b6000610880600754600554610d0f90919063ffffffff16565b9050600061089082600654610d59565b905060006108a8606483610c9b90919063ffffffff16565b90506108b2610d72565b73ffffffffffffffffffffffffffffffffffffffff166108fc829081150290604051600060405180830381858888f193505050501580156108f7573d6000803e3d6000fd5b50600061090d8284610d0f90919063ffffffff16565b90506060600267ffffffffffffffff8111801561092957600080fd5b506040519080825280602002602001820160405280156109585781602001602082028036833780820191505090505b509050600460009054906101000a900473ffffffffffffffffffffffffffffffffffffffff168160008151811061098b57fe5b602002602001019073ffffffffffffffffffffffffffffffffffffffff16908173ffffffffffffffffffffffffffffffffffffffff1681525050600060019054906101000a900473ffffffffffffffffffffffffffffffffffffffff16816001815181106109f557fe5b602002602001019073ffffffffffffffffffffffffffffffffffffffff16908173ffffffffffffffffffffffffffffffffffffffff1681525050600160009054906101000a900473ffffffffffffffffffffffffffffffffffffffff1673ffffffffffffffffffffffffffffffffffffffff16637ff36ab583600084600360009054906101000a900473ffffffffffffffffffffffffffffffffffffffff16426040518663ffffffff1660e01b815260040180858152602001806020018473ffffffffffffffffffffffffffffffffffffffff168152602001838152602001828103825285818151815260200191508051906020019060200280838360005b83811015610b0f578082015181840152602081019050610af4565b50505050905001955050505050506000604051808303818588803b158015610b3657600080fd5b505af1158015610b4a573d6000803e3d6000fd5b50505050506040513d6000823e3d601f19601f820116820180604052506020811015610b7557600080fd5b8101908080516040519392919084640100000000821115610b9557600080fd5b83820191506020820185811115610bab57600080fd5b8251866020820283011164010000000082111715610bc857600080fd5b8083526020830192505050908051906020019060200280838360005b83811015610bff578082015181840152602081019050610be4565b5050505090500160405250505050610c2284600754610d7a90919063ffffffff16565b60078190555043600a81905550610c37610ce5565b7f3ce90dfd1a27355e9b7ad2679108f739ff95a4408ebe636fa5b69fbda71d5382338484604051808473ffffffffffffffffffffffffffffffffffffffff168152602001838152602001828152602001935050505060405180910390a15050505050565b6000610cdd83836040518060400160405280601a81526020017f536166654d6174683a206469766973696f6e206279207a65726f000000000000815250610e02565b905092915050565b60095460088190555062015180600060095411610d025742610d06565b6009545b01600981905550565b6000610d5183836040518060400160405280601e81526020017f536166654d6174683a207375627472616374696f6e206f766572666c6f770000815250610ec8565b905092915050565b6000818310610d685781610d6a565b825b905092915050565b600033905090565b600080828401905083811015610df8576040517f08c379a000000000000000000000000000000000000000000000000000000000815260040180806020018281038252601b8152602001807f536166654d6174683a206164646974696f6e206f766572666c6f77000000000081525060200191505060405180910390fd5b8091505092915050565b60008083118290610eae576040517f08c379a00000000000000000000000000000000000000000000000000000000081526004018080602001828103825283818151815260200191508051906020019080838360005b83811015610e73578082015181840152602081019050610e58565b50505050905090810190601f168015610ea05780820380516001836020036101000a031916815260200191505b509250505060405180910390fd5b506000838581610eba57fe5b049050809150509392505050565b6000838311158290610f75576040517f08c379a00000000000000000000000000000000000000000000000000000000081526004018080602001828103825283818151815260200191508051906020019080838360005b83811015610f3a578082015181840152602081019050610f1f565b50505050905090810190601f168015610f675780820380516001836020036101000a031916815260200191505b509250505060405180910390fd5b506000838503905080915050939250505056fea2646970667358221220258a3419fc770f588f0801725bc83738af5071f19da0428c632a39e77167a60d64736f6c634300060c0033",
  "immutableReferences": {},
  "source": "// SPDX-License-Identifier: MIT\npragma solidity ^0.6.0;\n\nimport \"./interfaces/IBuyback.sol\";\nimport \"./interfaces/IUniswapV2Router02.sol\";\nimport \"@openzeppelin/contracts/math/SafeMath.sol\";\nimport \"@openzeppelin/contracts/math/Math.sol\";\nimport \"@openzeppelin/contracts/GSN/Context.sol\";\n\ncontract Buyback is Context, IBuyback {\n    event BuybackInitialized(uint256 _totalAmount, uint256 _singleAmount);\n    event SingleBuybackExecuted(address _sender, uint256 _senderRewardAmount, uint256 _buybackAmount);\n\n    using SafeMath for uint256;\n\n    bool private isInitialized;\n    address private token;\n    address private uniswapRouter;\n    address private initializer;\n    address private treasury;\n    address private weth;\n    uint256 private totalBuyback;\n    uint256 private singleBuyback;\n    uint256 private alreadyBoughtBack;\n    uint256 private lastBuybackTimestamp;\n    uint256 private nextBuybackTimestamp;\n    uint256 private lastBuybackBlockNumber;\n\n    constructor(\n        address _initializer,\n        address _treasury,\n        address _weth\n    ) public {\n        initializer = _initializer;\n        treasury = _treasury;\n        weth = _weth;\n    }\n\n    modifier onlyInitializer() {\n        require(msg.sender == initializer, \"Only initializer allowed.\");\n        _;\n    }\n\n    modifier initialized() {\n        require(isInitialized, \"Not initialized.\");\n        _;\n    }\n\n    modifier notInitialized() {\n        require(!isInitialized, \"Already initialized.\");\n        _;\n    }\n\n    modifier scheduled() {\n        require(block.timestamp >= nextBuybackTimestamp, \"Not scheduled yet.\");\n        _;\n    }\n\n    modifier available() {\n        require(totalBuyback > 0 && totalBuyback > alreadyBoughtBack, \"No more funds available.\");\n        _;\n    }\n\n    function initializerAddress() external view override returns (address) {\n        return initializer;\n    }\n\n    function tokenAddress() external view override returns (address) {\n        return token;\n    }\n\n    function uniswapRouterAddress() external view override returns (address) {\n        return uniswapRouter;\n    }\n\n    function treasuryAddress() external view override returns (address) {\n        return treasury;\n    }\n\n    function wethAddress() external view override returns (address) {\n        return weth;\n    }\n\n    function totalAmount() external view override returns (uint256) {\n        return totalBuyback;\n    }\n\n    function singleAmount() external view override returns (uint256) {\n        return singleBuyback;\n    }\n\n    function boughtBackAmount() external view override returns (uint256) {\n        return alreadyBoughtBack;\n    }\n\n    function lastBuyback() external view override returns (uint256) {\n        return lastBuybackTimestamp;\n    }\n\n    function nextBuyback() external view override returns (uint256) {\n        return nextBuybackTimestamp;\n    }\n\n    function lastBuybackBlock() external view override returns (uint256) {\n        return lastBuybackBlockNumber;\n    }\n\n    function init(address _token, address _uniswapRouter) external payable override notInitialized onlyInitializer {\n        token = _token;\n        uniswapRouter = _uniswapRouter;\n        totalBuyback = msg.value;\n        singleBuyback = totalBuyback.div(10);\n        updateBuybackTimestamps();\n\n        isInitialized = true;\n        emit BuybackInitialized(totalBuyback, singleBuyback);\n    }\n\n    function buyback() external override scheduled initialized available {\n        uint256 fundsLeft = totalBuyback.sub(alreadyBoughtBack);\n        uint256 actualBuyback = Math.min(fundsLeft, singleBuyback);\n\n        // send 1% to the sender as a reward for triggering the function\n        uint256 senderShare = actualBuyback.div(100);\n        _msgSender().transfer(senderShare);\n\n        // buy tokens with other 99% and send them to the treasury address\n        uint256 buyShare = actualBuyback.sub(senderShare);\n        address[] memory path = new address[](2);\n        path[0] = weth;\n        path[1] = token;\n        IUniswapV2Router02(uniswapRouter).swapExactETHForTokens{ value: buyShare }(0, path, treasury, block.timestamp);\n\n        alreadyBoughtBack = alreadyBoughtBack.add(actualBuyback);\n        lastBuybackBlockNumber = block.number;\n        updateBuybackTimestamps();\n\n        emit SingleBuybackExecuted(msg.sender, senderShare, buyShare);\n    }\n\n    function updateBuybackTimestamps() private {\n        lastBuybackTimestamp = nextBuybackTimestamp;\n        nextBuybackTimestamp = (nextBuybackTimestamp > 0 ? nextBuybackTimestamp : block.timestamp) + 1 days;\n    }\n}\n",
  "sourcePath": "/home/keso/projects/crypto/rollercoaster-token/contracts/Buyback.sol",
  "compiler": {
    "name": "solc",
    "version": "0.6.12+commit.27d51765.Emscripten.clang"
  },
  "schemaVersion": "3.3.3",
  "updatedAt": "2021-02-04T19:35:54.659Z",
  "networkType": "ethereum",
  "devdoc": {
    "kind": "dev",
    "methods": {},
    "version": 1
  },
  "userdoc": {
    "kind": "user",
    "methods": {},
    "version": 1
  }
}