{
  "contractName": "BuybackInitializerMock",
  "abi": [
    {
      "inputs": [
        {
          "internalType": "uint256",
          "name": "_msgValue",
          "type": "uint256"
        },
        {
          "internalType": "address",
          "name": "_token",
          "type": "address"
        },
        {
          "internalType": "address",
          "name": "_uniswapRouter",
          "type": "address"
        }
      ],
      "name": "initShouldBeCalledWith",
      "outputs": [],
      "stateMutability": "view",
      "type": "function"
    },
    {
      "inputs": [
        {
          "internalType": "address",
          "name": "_token",
          "type": "address"
        },
        {
          "internalType": "address",
          "name": "_uniswapRouter",
          "type": "address"
        }
      ],
      "name": "init",
      "outputs": [],
      "stateMutability": "payable",
      "type": "function"
    }
  ],
  "bytecode": "0x608060405234801561001057600080fd5b506103d8806100206000396000f3fe6080604052600436106100295760003560e01c80630d73fe321461002e578063f09a4016146100a9575b600080fd5b34801561003a57600080fd5b506100a76004803603606081101561005157600080fd5b8101908080359060200190929190803573ffffffffffffffffffffffffffffffffffffffff169060200190929190803573ffffffffffffffffffffffffffffffffffffffff16906020019092919050505061010d565b005b61010b600480360360408110156100bf57600080fd5b81019080803573ffffffffffffffffffffffffffffffffffffffff169060200190929190803573ffffffffffffffffffffffffffffffffffffffff1690602001909291905050506102f2565b005b8260005414610184576040517f08c379a000000000000000000000000000000000000000000000000000000000815260040180806020018281038252601e8152602001807f6d73672e76616c756520706172616d65746572206d6973736d617463682e000081525060200191505060405180910390fd5b8173ffffffffffffffffffffffffffffffffffffffff16600160009054906101000a900473ffffffffffffffffffffffffffffffffffffffff1673ffffffffffffffffffffffffffffffffffffffff1614610247576040517f08c379a000000000000000000000000000000000000000000000000000000000815260040180806020018281038252601b8152602001807f5f746f6b656e20706172616d65746572206d6973736d617463682e000000000081525060200191505060405180910390fd5b8073ffffffffffffffffffffffffffffffffffffffff16600260009054906101000a900473ffffffffffffffffffffffffffffffffffffffff1673ffffffffffffffffffffffffffffffffffffffff16146102ed576040517f08c379a00000000000000000000000000000000000000000000000000000000081526004018080602001828103825260238152602001806103806023913960400191505060405180910390fd5b505050565b3460008190555081600160006101000a81548173ffffffffffffffffffffffffffffffffffffffff021916908373ffffffffffffffffffffffffffffffffffffffff16021790555080600260006101000a81548173ffffffffffffffffffffffffffffffffffffffff021916908373ffffffffffffffffffffffffffffffffffffffff160217905550505056fe5f756e6973776170526f7574657220706172616d65746572206d6973736d617463682ea2646970667358221220a5abe0e323b8795276fcad16f37782ba8c92302d260e3d2c4983933bf51a65f464736f6c634300060c0033",
  "immutableReferences": {},
  "source": "// SPDX-License-Identifier: MIT\npragma solidity >=0.4.22 <0.9.0;\n\nimport \"../interfaces/IBuybackInitializer.sol\";\n\ncontract BuybackInitializerMock is IBuybackInitializer {\n    uint256 private msgValue;\n    address private token;\n    address private uniswapRouter;\n\n    function initShouldBeCalledWith(\n        uint256 _msgValue,\n        address _token,\n        address _uniswapRouter\n    ) external view {\n        require(msgValue == _msgValue, \"msg.value parameter missmatch.\");\n        require(token == _token, \"_token parameter missmatch.\");\n        require(uniswapRouter == _uniswapRouter, \"_uniswapRouter parameter missmatch.\");\n    }\n\n    function init(address _token, address _uniswapRouter) external payable override {\n        msgValue = msg.value;\n        token = _token;\n        uniswapRouter = _uniswapRouter;\n    }\n}\n",
  "sourcePath": "/home/keso/projects/crypto/rollercoaster-token/contracts/mocks/BuybackInitializerMock.sol",
  "compiler": {
    "name": "solc",
    "version": "0.6.12+commit.27d51765.Emscripten.clang"
  },
  "schemaVersion": "3.3.3",
  "updatedAt": "2021-02-05T15:13:37.270Z",
  "devdoc": {
    "kind": "dev",
    "methods": {},
    "version": 1
  },
  "userdoc": {
    "kind": "user",
    "methods": {},
    "version": 1
  }
}