{
  "contractName": "Buyback",
  "abi": [
    {
      "inputs": [
        {
          "internalType": "address",
          "name": "_treasury",
          "type": "address"
        },
        {
          "internalType": "address",
          "name": "_weth",
          "type": "address"
        }
      ],
      "stateMutability": "nonpayable",
      "type": "constructor"
    },
    {
      "anonymous": false,
      "inputs": [
        {
          "indexed": false,
          "internalType": "uint256",
          "name": "_totalAmount",
          "type": "uint256"
        },
        {
          "indexed": false,
          "internalType": "uint256",
          "name": "_singleAmount",
          "type": "uint256"
        }
      ],
      "name": "BuybackInitialized",
      "type": "event"
    },
    {
      "anonymous": false,
      "inputs": [
        {
          "indexed": false,
          "internalType": "address",
          "name": "_sender",
          "type": "address"
        },
        {
          "indexed": false,
          "internalType": "uint256",
          "name": "_senderRewardAmount",
          "type": "uint256"
        },
        {
          "indexed": false,
          "internalType": "uint256",
          "name": "_buybackAmount",
          "type": "uint256"
        }
      ],
      "name": "SingleBuybackExecuted",
      "type": "event"
    },
    {
      "inputs": [],
      "name": "tokenAddress",
      "outputs": [
        {
          "internalType": "address",
          "name": "",
          "type": "address"
        }
      ],
      "stateMutability": "view",
      "type": "function",
      "constant": true
    },
    {
      "inputs": [],
      "name": "uniswapRouterAddress",
      "outputs": [
        {
          "internalType": "address",
          "name": "",
          "type": "address"
        }
      ],
      "stateMutability": "view",
      "type": "function",
      "constant": true
    },
    {
      "inputs": [],
      "name": "treasuryAddress",
      "outputs": [
        {
          "internalType": "address",
          "name": "",
          "type": "address"
        }
      ],
      "stateMutability": "view",
      "type": "function",
      "constant": true
    },
    {
      "inputs": [],
      "name": "wethAddress",
      "outputs": [
        {
          "internalType": "address",
          "name": "",
          "type": "address"
        }
      ],
      "stateMutability": "view",
      "type": "function",
      "constant": true
    },
    {
      "inputs": [],
      "name": "totalAmount",
      "outputs": [
        {
          "internalType": "uint256",
          "name": "",
          "type": "uint256"
        }
      ],
      "stateMutability": "view",
      "type": "function",
      "constant": true
    },
    {
      "inputs": [],
      "name": "singleAmount",
      "outputs": [
        {
          "internalType": "uint256",
          "name": "",
          "type": "uint256"
        }
      ],
      "stateMutability": "view",
      "type": "function",
      "constant": true
    },
    {
      "inputs": [],
      "name": "boughtBackAmount",
      "outputs": [
        {
          "internalType": "uint256",
          "name": "",
          "type": "uint256"
        }
      ],
      "stateMutability": "view",
      "type": "function",
      "constant": true
    },
    {
      "inputs": [],
      "name": "lastBuyback",
      "outputs": [
        {
          "internalType": "uint256",
          "name": "",
          "type": "uint256"
        }
      ],
      "stateMutability": "view",
      "type": "function",
      "constant": true
    },
    {
      "inputs": [],
      "name": "nextBuyback",
      "outputs": [
        {
          "internalType": "uint256",
          "name": "",
          "type": "uint256"
        }
      ],
      "stateMutability": "view",
      "type": "function",
      "constant": true
    },
    {
      "inputs": [],
      "name": "lastBlockNumber",
      "outputs": [
        {
          "internalType": "uint256",
          "name": "",
          "type": "uint256"
        }
      ],
      "stateMutability": "view",
      "type": "function",
      "constant": true
    },
    {
      "inputs": [
        {
          "internalType": "address",
          "name": "_token",
          "type": "address"
        },
        {
          "internalType": "address",
          "name": "_uniswapRouter",
          "type": "address"
        }
      ],
      "name": "init",
      "outputs": [],
      "stateMutability": "payable",
      "type": "function",
      "payable": true
    },
    {
      "inputs": [],
      "name": "buyback",
      "outputs": [],
      "stateMutability": "nonpayable",
      "type": "function"
    }
  ],
  "bytecode": "0x608060405234801561001057600080fd5b50604051610e38380380610e388339818101604052604081101561003357600080fd5b81019080805190602001909291908051906020019092919050505081600260006101000a81548173ffffffffffffffffffffffffffffffffffffffff021916908373ffffffffffffffffffffffffffffffffffffffff16021790555080600360006101000a81548173ffffffffffffffffffffffffffffffffffffffff021916908373ffffffffffffffffffffffffffffffffffffffff1602179055505050610d57806100e16000396000f3fe6080604052600436106100a75760003560e01c80639d76ea58116100645780639d76ea58146101da578063b82d12521461021b578063c5f956af14610246578063f09a401614610287578063f23e7d6f146102eb578063f8ec691114610316576100a7565b80631a39d8ef146100ac57806320ca3c7f146100d75780632552317c146101185780633dd788a11461014357806344629b4e1461016e5780634f0e0ef314610199575b600080fd5b3480156100b857600080fd5b506100c161032d565b6040518082815260200191505060405180910390f35b3480156100e357600080fd5b506100ec610337565b604051808273ffffffffffffffffffffffffffffffffffffffff16815260200191505060405180910390f35b34801561012457600080fd5b5061012d610361565b6040518082815260200191505060405180910390f35b34801561014f57600080fd5b5061015861036b565b6040518082815260200191505060405180910390f35b34801561017a57600080fd5b50610183610375565b6040518082815260200191505060405180910390f35b3480156101a557600080fd5b506101ae61037f565b604051808273ffffffffffffffffffffffffffffffffffffffff16815260200191505060405180910390f35b3480156101e657600080fd5b506101ef6103a9565b604051808273ffffffffffffffffffffffffffffffffffffffff16815260200191505060405180910390f35b34801561022757600080fd5b506102306103d2565b6040518082815260200191505060405180910390f35b34801561025257600080fd5b5061025b6103dc565b604051808273ffffffffffffffffffffffffffffffffffffffff16815260200191505060405180910390f35b6102e96004803603604081101561029d57600080fd5b81019080803573ffffffffffffffffffffffffffffffffffffffff169060200190929190803573ffffffffffffffffffffffffffffffffffffffff169060200190929190505050610406565b005b3480156102f757600080fd5b506103006104f9565b6040518082815260200191505060405180910390f35b34801561032257600080fd5b5061032b610503565b005b6000600454905090565b6000600160009054906101000a900473ffffffffffffffffffffffffffffffffffffffff16905090565b6000600954905090565b6000600754905090565b6000600854905090565b6000600360009054906101000a900473ffffffffffffffffffffffffffffffffffffffff16905090565b60008060009054906101000a900473ffffffffffffffffffffffffffffffffffffffff16905090565b6000600654905090565b6000600260009054906101000a900473ffffffffffffffffffffffffffffffffffffffff16905090565b816000806101000a81548173ffffffffffffffffffffffffffffffffffffffff021916908373ffffffffffffffffffffffffffffffffffffffff16021790555080600160006101000a81548173ffffffffffffffffffffffffffffffffffffffff021916908373ffffffffffffffffffffffffffffffffffffffff160217905550346004819055506104a4600a600454610a3490919063ffffffff16565b6005819055506104b2610a7e565b7f5ac902ec405187f754d8ae16f84f03776bd1542e941761a43087ce9922658168600454600554604051808381526020018281526020019250505060405180910390a15050565b6000600554905090565b600854421015801561051757506000600854115b610589576040517f08c379a00000000000000000000000000000000000000000000000000000000081526004018080602001828103825260128152602001807f4e6f74207363686564756c6564207965742e000000000000000000000000000081525060200191505060405180910390fd5b60065460045411610602576040517f08c379a00000000000000000000000000000000000000000000000000000000081526004018080602001828103825260188152602001807f4e6f206d6f72652066756e647320617661696c61626c652e000000000000000081525060200191505060405180910390fd5b600061061b600654600454610aa890919063ffffffff16565b9050600061062b82600554610af2565b90506000610643606483610a3490919063ffffffff16565b905061064d610b0b565b73ffffffffffffffffffffffffffffffffffffffff166108fc829081150290604051600060405180830381858888f19350505050158015610692573d6000803e3d6000fd5b5060006106a88284610aa890919063ffffffff16565b90506060600267ffffffffffffffff811180156106c457600080fd5b506040519080825280602002602001820160405280156106f35781602001602082028036833780820191505090505b509050600360009054906101000a900473ffffffffffffffffffffffffffffffffffffffff168160008151811061072657fe5b602002602001019073ffffffffffffffffffffffffffffffffffffffff16908173ffffffffffffffffffffffffffffffffffffffff168152505060008054906101000a900473ffffffffffffffffffffffffffffffffffffffff168160018151811061078e57fe5b602002602001019073ffffffffffffffffffffffffffffffffffffffff16908173ffffffffffffffffffffffffffffffffffffffff1681525050600160009054906101000a900473ffffffffffffffffffffffffffffffffffffffff1673ffffffffffffffffffffffffffffffffffffffff16637ff36ab583600084600260009054906101000a900473ffffffffffffffffffffffffffffffffffffffff16426040518663ffffffff1660e01b815260040180858152602001806020018473ffffffffffffffffffffffffffffffffffffffff168152602001838152602001828103825285818151815260200191508051906020019060200280838360005b838110156108a857808201518184015260208101905061088d565b50505050905001955050505050506000604051808303818588803b1580156108cf57600080fd5b505af11580156108e3573d6000803e3d6000fd5b50505050506040513d6000823e3d601f19601f82011682018060405250602081101561090e57600080fd5b810190808051604051939291908464010000000082111561092e57600080fd5b8382019150602082018581111561094457600080fd5b825186602082028301116401000000008211171561096157600080fd5b8083526020830192505050908051906020019060200280838360005b8381101561099857808201518184015260208101905061097d565b50505050905001604052505050506109bb84600654610b1390919063ffffffff16565b600681905550436009819055506109d0610a7e565b7f3ce90dfd1a27355e9b7ad2679108f739ff95a4408ebe636fa5b69fbda71d5382338484604051808473ffffffffffffffffffffffffffffffffffffffff168152602001838152602001828152602001935050505060405180910390a15050505050565b6000610a7683836040518060400160405280601a81526020017f536166654d6174683a206469766973696f6e206279207a65726f000000000000815250610b9b565b905092915050565b60085460078190555062015180600060085411610a9b5742610a9f565b6008545b01600881905550565b6000610aea83836040518060400160405280601e81526020017f536166654d6174683a207375627472616374696f6e206f766572666c6f770000815250610c61565b905092915050565b6000818310610b015781610b03565b825b905092915050565b600033905090565b600080828401905083811015610b91576040517f08c379a000000000000000000000000000000000000000000000000000000000815260040180806020018281038252601b8152602001807f536166654d6174683a206164646974696f6e206f766572666c6f77000000000081525060200191505060405180910390fd5b8091505092915050565b60008083118290610c47576040517f08c379a00000000000000000000000000000000000000000000000000000000081526004018080602001828103825283818151815260200191508051906020019080838360005b83811015610c0c578082015181840152602081019050610bf1565b50505050905090810190601f168015610c395780820380516001836020036101000a031916815260200191505b509250505060405180910390fd5b506000838581610c5357fe5b049050809150509392505050565b6000838311158290610d0e576040517f08c379a00000000000000000000000000000000000000000000000000000000081526004018080602001828103825283818151815260200191508051906020019080838360005b83811015610cd3578082015181840152602081019050610cb8565b50505050905090810190601f168015610d005780820380516001836020036101000a031916815260200191505b509250505060405180910390fd5b506000838503905080915050939250505056fea2646970667358221220c3b45b4173fe5468158b7295e1ab0a3c5a4e62b3fe35d0f24f1a2ed19131447c64736f6c634300060c0033",
  "immutableReferences": {},
  "source": "// SPDX-License-Identifier: MIT\npragma solidity ^0.6.0;\n\nimport \"./interfaces/IBuyback.sol\";\nimport \"./interfaces/IUniswapV2Router02.sol\";\nimport \"@openzeppelin/contracts/math/SafeMath.sol\";\nimport \"@openzeppelin/contracts/math/Math.sol\";\nimport \"@openzeppelin/contracts/GSN/Context.sol\";\n\ncontract Buyback is Context, IBuyback {\n    event BuybackInitialized(uint256 _totalAmount, uint256 _singleAmount);\n    event SingleBuybackExecuted(address _sender, uint256 _senderRewardAmount, uint256 _buybackAmount);\n\n    using SafeMath for uint256;\n\n    address private token;\n    address private uniswapRouter;\n    address private treasury;\n    address private weth;\n    uint256 private totalBuyback;\n    uint256 private singleBuyback;\n    uint256 private alreadyBoughtBack;\n    uint256 private lastBuybackTimestamp;\n    uint256 private nextBuybackTimestamp;\n    uint256 private lastBuybackBlockNumber;\n\n    constructor(address _treasury, address _weth) public {\n        treasury = _treasury;\n        weth = _weth;\n    }\n\n    modifier scheduled() {\n        require(block.timestamp >= nextBuybackTimestamp && nextBuybackTimestamp > 0, \"Not scheduled yet.\");\n        _;\n    }\n\n    modifier available() {\n        require(totalBuyback > alreadyBoughtBack, \"No more funds available.\");\n        _;\n    }\n\n    function tokenAddress() external view override returns (address) {\n        return token;\n    }\n\n    function uniswapRouterAddress() external view override returns (address) {\n        return uniswapRouter;\n    }\n\n    function treasuryAddress() external view override returns (address) {\n        return treasury;\n    }\n\n    function wethAddress() external view override returns (address) {\n        return weth;\n    }\n\n    function totalAmount() external view override returns (uint256) {\n        return totalBuyback;\n    }\n\n    function singleAmount() external view override returns (uint256) {\n        return singleBuyback;\n    }\n\n    function boughtBackAmount() external view override returns (uint256) {\n        return alreadyBoughtBack;\n    }\n\n    function lastBuyback() external view override returns (uint256) {\n        return lastBuybackTimestamp;\n    }\n\n    function nextBuyback() external view override returns (uint256) {\n        return nextBuybackTimestamp;\n    }\n\n    function lastBlockNumber() external view override returns (uint256) {\n        return lastBuybackBlockNumber;\n    }\n\n    function init(address _token, address _uniswapRouter) external payable override {\n        token = _token;\n        uniswapRouter = _uniswapRouter;\n        totalBuyback = msg.value;\n        singleBuyback = totalBuyback.div(10);\n        updateBuybackTimestamps();\n\n        emit BuybackInitialized(totalBuyback, singleBuyback);\n    }\n\n    function buyback() external override scheduled available {\n        uint256 fundsLeft = totalBuyback.sub(alreadyBoughtBack);\n        uint256 actualBuyback = Math.min(fundsLeft, singleBuyback);\n\n        // send 1% to the sender as a reward for triggering the function\n        uint256 senderShare = actualBuyback.div(100);\n        _msgSender().transfer(senderShare);\n\n        // buy tokens with other 99% and send them to the treasury address\n        uint256 buyShare = actualBuyback.sub(senderShare);\n        address[] memory path = new address[](2);\n        path[0] = weth;\n        path[1] = token;\n        IUniswapV2Router02(uniswapRouter).swapExactETHForTokens{ value: buyShare }(0, path, treasury, block.timestamp);\n\n        alreadyBoughtBack = alreadyBoughtBack.add(actualBuyback);\n        lastBuybackBlockNumber = block.number;\n        updateBuybackTimestamps();\n\n        emit SingleBuybackExecuted(msg.sender, senderShare, buyShare);\n    }\n\n    function updateBuybackTimestamps() private {\n        lastBuybackTimestamp = nextBuybackTimestamp;\n        nextBuybackTimestamp = (nextBuybackTimestamp > 0 ? nextBuybackTimestamp : block.timestamp) + 1 days;\n    }\n}\n",
  "sourcePath": "/home/keso/projects/crypto/rollercoaster-token/contracts/Buyback.sol",
  "compiler": {
    "name": "solc",
    "version": "0.6.12+commit.27d51765.Emscripten.clang"
  },
  "schemaVersion": "3.3.3",
  "updatedAt": "2021-02-03T01:03:19.106Z",
  "networkType": "ethereum",
  "devdoc": {
    "kind": "dev",
    "methods": {},
    "version": 1
  },
  "userdoc": {
    "kind": "user",
    "methods": {},
    "version": 1
  }
}