{
  "contractName": "Buyback",
  "abi": [
    {
      "inputs": [
        {
          "internalType": "address",
          "name": "_initializer",
          "type": "address"
        },
        {
          "internalType": "address",
          "name": "_treasury",
          "type": "address"
        },
        {
          "internalType": "address",
          "name": "_weth",
          "type": "address"
        }
      ],
      "stateMutability": "nonpayable",
      "type": "constructor"
    },
    {
      "anonymous": false,
      "inputs": [
        {
          "indexed": false,
          "internalType": "uint256",
          "name": "_totalAmount",
          "type": "uint256"
        },
        {
          "indexed": false,
          "internalType": "uint256",
          "name": "_singleAmount",
          "type": "uint256"
        }
      ],
      "name": "BuybackInitialized",
      "type": "event"
    },
    {
      "anonymous": false,
      "inputs": [
        {
          "indexed": false,
          "internalType": "address",
          "name": "_sender",
          "type": "address"
        },
        {
          "indexed": false,
          "internalType": "uint256",
          "name": "_senderRewardAmount",
          "type": "uint256"
        },
        {
          "indexed": false,
          "internalType": "uint256",
          "name": "_buybackAmount",
          "type": "uint256"
        }
      ],
      "name": "SingleBuybackExecuted",
      "type": "event"
    },
    {
      "inputs": [],
      "name": "initializerAddress",
      "outputs": [
        {
          "internalType": "address",
          "name": "",
          "type": "address"
        }
      ],
      "stateMutability": "view",
      "type": "function",
      "constant": true
    },
    {
      "inputs": [],
      "name": "tokenAddress",
      "outputs": [
        {
          "internalType": "address",
          "name": "",
          "type": "address"
        }
      ],
      "stateMutability": "view",
      "type": "function",
      "constant": true
    },
    {
      "inputs": [],
      "name": "uniswapRouterAddress",
      "outputs": [
        {
          "internalType": "address",
          "name": "",
          "type": "address"
        }
      ],
      "stateMutability": "view",
      "type": "function",
      "constant": true
    },
    {
      "inputs": [],
      "name": "treasuryAddress",
      "outputs": [
        {
          "internalType": "address",
          "name": "",
          "type": "address"
        }
      ],
      "stateMutability": "view",
      "type": "function",
      "constant": true
    },
    {
      "inputs": [],
      "name": "wethAddress",
      "outputs": [
        {
          "internalType": "address",
          "name": "",
          "type": "address"
        }
      ],
      "stateMutability": "view",
      "type": "function",
      "constant": true
    },
    {
      "inputs": [],
      "name": "totalAmount",
      "outputs": [
        {
          "internalType": "uint256",
          "name": "",
          "type": "uint256"
        }
      ],
      "stateMutability": "view",
      "type": "function",
      "constant": true
    },
    {
      "inputs": [],
      "name": "singleAmount",
      "outputs": [
        {
          "internalType": "uint256",
          "name": "",
          "type": "uint256"
        }
      ],
      "stateMutability": "view",
      "type": "function",
      "constant": true
    },
    {
      "inputs": [],
      "name": "boughtBackAmount",
      "outputs": [
        {
          "internalType": "uint256",
          "name": "",
          "type": "uint256"
        }
      ],
      "stateMutability": "view",
      "type": "function",
      "constant": true
    },
    {
      "inputs": [],
      "name": "lastBuyback",
      "outputs": [
        {
          "internalType": "uint256",
          "name": "",
          "type": "uint256"
        }
      ],
      "stateMutability": "view",
      "type": "function",
      "constant": true
    },
    {
      "inputs": [],
      "name": "nextBuyback",
      "outputs": [
        {
          "internalType": "uint256",
          "name": "",
          "type": "uint256"
        }
      ],
      "stateMutability": "view",
      "type": "function",
      "constant": true
    },
    {
      "inputs": [],
      "name": "getTransferLimitPerETH",
      "outputs": [
        {
          "internalType": "uint256",
          "name": "",
          "type": "uint256"
        }
      ],
      "stateMutability": "view",
      "type": "function",
      "constant": true
    },
    {
      "inputs": [
        {
          "internalType": "address",
          "name": "_token",
          "type": "address"
        },
        {
          "internalType": "address",
          "name": "_uniswapRouter",
          "type": "address"
        }
      ],
      "name": "init",
      "outputs": [],
      "stateMutability": "payable",
      "type": "function",
      "payable": true
    },
    {
      "inputs": [],
      "name": "buyback",
      "outputs": [],
      "stateMutability": "nonpayable",
      "type": "function"
    }
  ],
  "bytecode": "0x608060405234801561001057600080fd5b5060405161120e38038061120e8339818101604052606081101561003357600080fd5b8101908080519060200190929190805190602001909291908051906020019092919050505082600260006101000a81548173ffffffffffffffffffffffffffffffffffffffff021916908373ffffffffffffffffffffffffffffffffffffffff16021790555081600360006101000a81548173ffffffffffffffffffffffffffffffffffffffff021916908373ffffffffffffffffffffffffffffffffffffffff16021790555080600460006101000a81548173ffffffffffffffffffffffffffffffffffffffff021916908373ffffffffffffffffffffffffffffffffffffffff1602179055505050506110e18061012d6000396000f3fe6080604052600436106100c25760003560e01c80639d76ea581161007f578063d6dc0b0d11610059578063d6dc0b0d146102a2578063f09a4016146102e3578063f23e7d6f14610347578063f8ec691114610372576100c2565b80639d76ea58146101f5578063b82d125214610236578063c5f956af14610261576100c2565b8063197a03bc146100c75780631a39d8ef146100f257806320ca3c7f1461011d5780633dd788a11461015e57806344629b4e146101895780634f0e0ef3146101b4575b600080fd5b3480156100d357600080fd5b506100dc610389565b6040518082815260200191505060405180910390f35b3480156100fe57600080fd5b506101076103f0565b6040518082815260200191505060405180910390f35b34801561012957600080fd5b506101326103fa565b604051808273ffffffffffffffffffffffffffffffffffffffff16815260200191505060405180910390f35b34801561016a57600080fd5b50610173610424565b6040518082815260200191505060405180910390f35b34801561019557600080fd5b5061019e61042e565b6040518082815260200191505060405180910390f35b3480156101c057600080fd5b506101c9610438565b604051808273ffffffffffffffffffffffffffffffffffffffff16815260200191505060405180910390f35b34801561020157600080fd5b5061020a610462565b604051808273ffffffffffffffffffffffffffffffffffffffff16815260200191505060405180910390f35b34801561024257600080fd5b5061024b61048b565b6040518082815260200191505060405180910390f35b34801561026d57600080fd5b50610276610495565b604051808273ffffffffffffffffffffffffffffffffffffffff16815260200191505060405180910390f35b3480156102ae57600080fd5b506102b76104bf565b604051808273ffffffffffffffffffffffffffffffffffffffff16815260200191505060405180910390f35b610345600480360360408110156102f957600080fd5b81019080803573ffffffffffffffffffffffffffffffffffffffff169060200190929190803573ffffffffffffffffffffffffffffffffffffffff1690602001909291905050506104e9565b005b34801561035357600080fd5b5061035c61073d565b6040518082815260200191505060405180910390f35b34801561037e57600080fd5b50610387610747565b005b6000600a544314158061039e57506000600b54145b806103ab57506000600654145b156103b957600090506103ed565b6103ea6006546103dc670de0b6b3a7640000600b54610d1090919063ffffffff16565b610d9690919063ffffffff16565b90505b90565b6000600554905090565b6000600160009054906101000a900473ffffffffffffffffffffffffffffffffffffffff16905090565b6000600854905090565b6000600954905090565b6000600460009054906101000a900473ffffffffffffffffffffffffffffffffffffffff16905090565b60008060019054906101000a900473ffffffffffffffffffffffffffffffffffffffff16905090565b6000600754905090565b6000600360009054906101000a900473ffffffffffffffffffffffffffffffffffffffff16905090565b6000600260009054906101000a900473ffffffffffffffffffffffffffffffffffffffff16905090565b60008054906101000a900460ff161561056a576040517f08c379a00000000000000000000000000000000000000000000000000000000081526004018080602001828103825260148152602001807f416c726561647920696e697469616c697a65642e00000000000000000000000081525060200191505060405180910390fd5b600260009054906101000a900473ffffffffffffffffffffffffffffffffffffffff1673ffffffffffffffffffffffffffffffffffffffff163373ffffffffffffffffffffffffffffffffffffffff161461062d576040517f08c379a00000000000000000000000000000000000000000000000000000000081526004018080602001828103825260198152602001807f4f6e6c7920696e697469616c697a657220616c6c6f7765642e0000000000000081525060200191505060405180910390fd5b81600060016101000a81548173ffffffffffffffffffffffffffffffffffffffff021916908373ffffffffffffffffffffffffffffffffffffffff16021790555080600160006101000a81548173ffffffffffffffffffffffffffffffffffffffff021916908373ffffffffffffffffffffffffffffffffffffffff160217905550346005819055506106cc600a600554610d9690919063ffffffff16565b6006819055506106dc6001610de0565b60016000806101000a81548160ff0219169083151502179055507f5ac902ec405187f754d8ae16f84f03776bd1542e941761a43087ce9922658168600554600654604051808381526020018281526020019250505060405180910390a15050565b6000600654905090565b6009544210156107bf576040517f08c379a00000000000000000000000000000000000000000000000000000000081526004018080602001828103825260128152602001807f4e6f74207363686564756c6564207965742e000000000000000000000000000081525060200191505060405180910390fd5b60008054906101000a900460ff1661083f576040517f08c379a00000000000000000000000000000000000000000000000000000000081526004018080602001828103825260108152602001807f4e6f7420696e697469616c697a65642e0000000000000000000000000000000081525060200191505060405180910390fd5b600754600554116108b8576040517f08c379a00000000000000000000000000000000000000000000000000000000081526004018080602001828103825260188152602001807f4e6f206d6f72652066756e647320617661696c61626c652e000000000000000081525060200191505060405180910390fd5b60006108d1600754600554610e1190919063ffffffff16565b905060006108e182600654610e5b565b905060006108f9606483610d9690919063ffffffff16565b9050610903610e74565b73ffffffffffffffffffffffffffffffffffffffff166108fc829081150290604051600060405180830381858888f19350505050158015610948573d6000803e3d6000fd5b50600061095e8284610e1190919063ffffffff16565b90506060600267ffffffffffffffff8111801561097a57600080fd5b506040519080825280602002602001820160405280156109a95781602001602082028036833780820191505090505b509050600460009054906101000a900473ffffffffffffffffffffffffffffffffffffffff16816000815181106109dc57fe5b602002602001019073ffffffffffffffffffffffffffffffffffffffff16908173ffffffffffffffffffffffffffffffffffffffff1681525050600060019054906101000a900473ffffffffffffffffffffffffffffffffffffffff1681600181518110610a4657fe5b602002602001019073ffffffffffffffffffffffffffffffffffffffff16908173ffffffffffffffffffffffffffffffffffffffff16815250506060600160009054906101000a900473ffffffffffffffffffffffffffffffffffffffff1673ffffffffffffffffffffffffffffffffffffffff16637ff36ab584600085600360009054906101000a900473ffffffffffffffffffffffffffffffffffffffff16426040518663ffffffff1660e01b815260040180858152602001806020018473ffffffffffffffffffffffffffffffffffffffff168152602001838152602001828103825285818151815260200191508051906020019060200280838360005b83811015610b62578082015181840152602081019050610b47565b50505050905001955050505050506000604051808303818588803b158015610b8957600080fd5b505af1158015610b9d573d6000803e3d6000fd5b50505050506040513d6000823e3d601f19601f820116820180604052506020811015610bc857600080fd5b8101908080516040519392919084640100000000821115610be857600080fd5b83820191506020820185811115610bfe57600080fd5b8251866020820283011164010000000082111715610c1b57600080fd5b8083526020830192505050908051906020019060200280838360005b83811015610c52578082015181840152602081019050610c37565b505050509050016040525050509050610c7685600754610e7c90919063ffffffff16565b60078190555043600a8190555080600182510381518110610c9357fe5b6020026020010151600b81905550610cab6000610de0565b7f3ce90dfd1a27355e9b7ad2679108f739ff95a4408ebe636fa5b69fbda71d5382338585604051808473ffffffffffffffffffffffffffffffffffffffff168152602001838152602001828152602001935050505060405180910390a1505050505050565b600080831415610d235760009050610d90565b6000828402905082848281610d3457fe5b0414610d8b576040517f08c379a000000000000000000000000000000000000000000000000000000000815260040180806020018281038252602181526020018061108b6021913960400191505060405180910390fd5b809150505b92915050565b6000610dd883836040518060400160405280601a81526020017f536166654d6174683a206469766973696f6e206279207a65726f000000000000815250610f04565b905092915050565b80610deb5742610dee565b60005b6008819055506201518081610e0557600954610e07565b425b0160098190555050565b6000610e5383836040518060400160405280601e81526020017f536166654d6174683a207375627472616374696f6e206f766572666c6f770000815250610fca565b905092915050565b6000818310610e6a5781610e6c565b825b905092915050565b600033905090565b600080828401905083811015610efa576040517f08c379a000000000000000000000000000000000000000000000000000000000815260040180806020018281038252601b8152602001807f536166654d6174683a206164646974696f6e206f766572666c6f77000000000081525060200191505060405180910390fd5b8091505092915050565b60008083118290610fb0576040517f08c379a00000000000000000000000000000000000000000000000000000000081526004018080602001828103825283818151815260200191508051906020019080838360005b83811015610f75578082015181840152602081019050610f5a565b50505050905090810190601f168015610fa25780820380516001836020036101000a031916815260200191505b509250505060405180910390fd5b506000838581610fbc57fe5b049050809150509392505050565b6000838311158290611077576040517f08c379a00000000000000000000000000000000000000000000000000000000081526004018080602001828103825283818151815260200191508051906020019080838360005b8381101561103c578082015181840152602081019050611021565b50505050905090810190601f1680156110695780820380516001836020036101000a031916815260200191505b509250505060405180910390fd5b506000838503905080915050939250505056fe536166654d6174683a206d756c7469706c69636174696f6e206f766572666c6f77a264697066735822122044feb76a0ec932b3a2d33ab975f67cf63b18777e8937ca2d73dd9e0e103cac0f64736f6c634300060c0033",
  "immutableReferences": {},
  "source": "// SPDX-License-Identifier: MIT\npragma solidity ^0.6.0;\n\nimport \"./interfaces/IBuyback.sol\";\nimport \"./interfaces/IBuybackInitializer.sol\";\nimport \"./interfaces/ITransferLimiter.sol\";\nimport \"./interfaces/IUniswapV2Router02.sol\";\nimport \"@openzeppelin/contracts/math/SafeMath.sol\";\nimport \"@openzeppelin/contracts/math/Math.sol\";\nimport \"@openzeppelin/contracts/GSN/Context.sol\";\n\ncontract Buyback is Context, IBuyback, IBuybackInitializer, ITransferLimiter {\n    event BuybackInitialized(uint256 _totalAmount, uint256 _singleAmount);\n    event SingleBuybackExecuted(address _sender, uint256 _senderRewardAmount, uint256 _buybackAmount);\n\n    using SafeMath for uint256;\n\n    bool private isInitialized;\n    address private token;\n    address private uniswapRouter;\n    address private initializer;\n    address private treasury;\n    address private weth;\n    uint256 private totalBuyback;\n    uint256 private singleBuyback;\n    uint256 private alreadyBoughtBack;\n    uint256 private lastBuybackTimestamp;\n    uint256 private nextBuybackTimestamp;\n    uint256 private lastBuybackBlockNumber;\n    uint256 private lastBuybackAmount;\n\n    constructor(\n        address _initializer,\n        address _treasury,\n        address _weth\n    ) public {\n        initializer = _initializer;\n        treasury = _treasury;\n        weth = _weth;\n    }\n\n    modifier onlyInitializer() {\n        require(msg.sender == initializer, \"Only initializer allowed.\");\n        _;\n    }\n\n    modifier initialized() {\n        require(isInitialized, \"Not initialized.\");\n        _;\n    }\n\n    modifier notInitialized() {\n        require(!isInitialized, \"Already initialized.\");\n        _;\n    }\n\n    modifier scheduled() {\n        require(block.timestamp >= nextBuybackTimestamp, \"Not scheduled yet.\");\n        _;\n    }\n\n    modifier available() {\n        require(totalBuyback > alreadyBoughtBack, \"No more funds available.\");\n        _;\n    }\n\n    function initializerAddress() external view override returns (address) {\n        return initializer;\n    }\n\n    function tokenAddress() external view override returns (address) {\n        return token;\n    }\n\n    function uniswapRouterAddress() external view override returns (address) {\n        return uniswapRouter;\n    }\n\n    function treasuryAddress() external view override returns (address) {\n        return treasury;\n    }\n\n    function wethAddress() external view override returns (address) {\n        return weth;\n    }\n\n    function totalAmount() external view override returns (uint256) {\n        return totalBuyback;\n    }\n\n    function singleAmount() external view override returns (uint256) {\n        return singleBuyback;\n    }\n\n    function boughtBackAmount() external view override returns (uint256) {\n        return alreadyBoughtBack;\n    }\n\n    function lastBuyback() external view override returns (uint256) {\n        return lastBuybackTimestamp;\n    }\n\n    function nextBuyback() external view override returns (uint256) {\n        return nextBuybackTimestamp;\n    }\n\n    function getTransferLimitPerETH() external view override returns (uint256) {\n        if (block.number != lastBuybackBlockNumber || lastBuybackAmount == 0 || singleBuyback == 0) {\n            return 0;\n        }\n        return lastBuybackAmount.mul(10**18).div(singleBuyback);\n    }\n\n    function init(address _token, address _uniswapRouter) external payable override notInitialized onlyInitializer {\n        token = _token;\n        uniswapRouter = _uniswapRouter;\n        totalBuyback = msg.value;\n        singleBuyback = totalBuyback.div(10);\n        updateBuybackTimestamps(true);\n\n        isInitialized = true;\n        emit BuybackInitialized(totalBuyback, singleBuyback);\n    }\n\n    function buyback() external override scheduled initialized available {\n        uint256 fundsLeft = totalBuyback.sub(alreadyBoughtBack);\n        uint256 actualBuyback = Math.min(fundsLeft, singleBuyback);\n\n        // send 1% to the sender as a reward for triggering the function\n        uint256 senderShare = actualBuyback.div(100);\n        _msgSender().transfer(senderShare);\n\n        // buy tokens with other 99% and send them to the treasury address\n        uint256 buyShare = actualBuyback.sub(senderShare);\n        address[] memory path = new address[](2);\n        path[0] = weth;\n        path[1] = token;\n        uint256[] memory amounts =\n            IUniswapV2Router02(uniswapRouter).swapExactETHForTokens{ value: buyShare }(\n                0,\n                path,\n                treasury,\n                block.timestamp\n            );\n\n        alreadyBoughtBack = alreadyBoughtBack.add(actualBuyback);\n        lastBuybackBlockNumber = block.number;\n        lastBuybackAmount = amounts[amounts.length - 1];\n        updateBuybackTimestamps(false);\n\n        emit SingleBuybackExecuted(msg.sender, senderShare, buyShare);\n    }\n\n    function updateBuybackTimestamps(bool _isInit) private {\n        lastBuybackTimestamp = _isInit ? 0 : block.timestamp;\n        nextBuybackTimestamp = (_isInit ? block.timestamp : nextBuybackTimestamp) + 1 days;\n    }\n}\n",
  "sourcePath": "/home/keso/projects/crypto/rollercoaster-token/contracts/Buyback.sol",
  "compiler": {
    "name": "solc",
    "version": "0.6.12+commit.27d51765.Emscripten.clang"
  },
  "schemaVersion": "3.3.3",
  "updatedAt": "2021-02-05T15:18:37.927Z",
  "networkType": "ethereum",
  "devdoc": {
    "kind": "dev",
    "methods": {},
    "version": 1
  },
  "userdoc": {
    "kind": "user",
    "methods": {},
    "version": 1
  }
}