{
  "contractName": "Buyback",
  "abi": [
    {
      "inputs": [
        {
          "internalType": "address",
          "name": "_treasury",
          "type": "address"
        },
        {
          "internalType": "address",
          "name": "_weth",
          "type": "address"
        }
      ],
      "stateMutability": "nonpayable",
      "type": "constructor"
    },
    {
      "inputs": [],
      "name": "tokenAddress",
      "outputs": [
        {
          "internalType": "address",
          "name": "",
          "type": "address"
        }
      ],
      "stateMutability": "view",
      "type": "function"
    },
    {
      "inputs": [],
      "name": "uniswapRouterAddress",
      "outputs": [
        {
          "internalType": "address",
          "name": "",
          "type": "address"
        }
      ],
      "stateMutability": "view",
      "type": "function"
    },
    {
      "inputs": [],
      "name": "treasuryAddress",
      "outputs": [
        {
          "internalType": "address",
          "name": "",
          "type": "address"
        }
      ],
      "stateMutability": "view",
      "type": "function"
    },
    {
      "inputs": [],
      "name": "wethAddress",
      "outputs": [
        {
          "internalType": "address",
          "name": "",
          "type": "address"
        }
      ],
      "stateMutability": "view",
      "type": "function"
    },
    {
      "inputs": [],
      "name": "totalAmount",
      "outputs": [
        {
          "internalType": "uint256",
          "name": "",
          "type": "uint256"
        }
      ],
      "stateMutability": "view",
      "type": "function"
    },
    {
      "inputs": [],
      "name": "singleAmount",
      "outputs": [
        {
          "internalType": "uint256",
          "name": "",
          "type": "uint256"
        }
      ],
      "stateMutability": "view",
      "type": "function"
    },
    {
      "inputs": [],
      "name": "boughtBackAmount",
      "outputs": [
        {
          "internalType": "uint256",
          "name": "",
          "type": "uint256"
        }
      ],
      "stateMutability": "view",
      "type": "function"
    },
    {
      "inputs": [],
      "name": "lastBuyback",
      "outputs": [
        {
          "internalType": "uint256",
          "name": "",
          "type": "uint256"
        }
      ],
      "stateMutability": "view",
      "type": "function"
    },
    {
      "inputs": [],
      "name": "nextBuyback",
      "outputs": [
        {
          "internalType": "uint256",
          "name": "",
          "type": "uint256"
        }
      ],
      "stateMutability": "view",
      "type": "function"
    },
    {
      "inputs": [
        {
          "internalType": "address",
          "name": "_token",
          "type": "address"
        },
        {
          "internalType": "address",
          "name": "_uniswapRouter",
          "type": "address"
        }
      ],
      "name": "init",
      "outputs": [],
      "stateMutability": "payable",
      "type": "function"
    },
    {
      "inputs": [],
      "name": "buyback",
      "outputs": [],
      "stateMutability": "nonpayable",
      "type": "function"
    }
  ],
  "bytecode": "0x608060405234801561001057600080fd5b50604051610d51380380610d518339818101604052604081101561003357600080fd5b81019080805190602001909291908051906020019092919050505081600260006101000a81548173ffffffffffffffffffffffffffffffffffffffff021916908373ffffffffffffffffffffffffffffffffffffffff16021790555080600360006101000a81548173ffffffffffffffffffffffffffffffffffffffff021916908373ffffffffffffffffffffffffffffffffffffffff1602179055505050610c70806100e16000396000f3fe60806040526004361061009c5760003560e01c80639d76ea58116100645780639d76ea58146101a4578063b82d1252146101e5578063c5f956af14610210578063f09a401614610251578063f23e7d6f146102b5578063f8ec6911146102e05761009c565b80631a39d8ef146100a157806320ca3c7f146100cc5780633dd788a11461010d57806344629b4e146101385780634f0e0ef314610163575b600080fd5b3480156100ad57600080fd5b506100b66102f7565b6040518082815260200191505060405180910390f35b3480156100d857600080fd5b506100e1610301565b604051808273ffffffffffffffffffffffffffffffffffffffff16815260200191505060405180910390f35b34801561011957600080fd5b5061012261032b565b6040518082815260200191505060405180910390f35b34801561014457600080fd5b5061014d610335565b6040518082815260200191505060405180910390f35b34801561016f57600080fd5b5061017861033f565b604051808273ffffffffffffffffffffffffffffffffffffffff16815260200191505060405180910390f35b3480156101b057600080fd5b506101b9610369565b604051808273ffffffffffffffffffffffffffffffffffffffff16815260200191505060405180910390f35b3480156101f157600080fd5b506101fa610392565b6040518082815260200191505060405180910390f35b34801561021c57600080fd5b5061022561039c565b604051808273ffffffffffffffffffffffffffffffffffffffff16815260200191505060405180910390f35b6102b36004803603604081101561026757600080fd5b81019080803573ffffffffffffffffffffffffffffffffffffffff169060200190929190803573ffffffffffffffffffffffffffffffffffffffff1690602001909291905050506103c6565b005b3480156102c157600080fd5b506102ca610476565b6040518082815260200191505060405180910390f35b3480156102ec57600080fd5b506102f5610480565b005b6000600454905090565b6000600160009054906101000a900473ffffffffffffffffffffffffffffffffffffffff16905090565b6000600754905090565b6000600854905090565b6000600360009054906101000a900473ffffffffffffffffffffffffffffffffffffffff16905090565b60008060009054906101000a900473ffffffffffffffffffffffffffffffffffffffff16905090565b6000600654905090565b6000600260009054906101000a900473ffffffffffffffffffffffffffffffffffffffff16905090565b816000806101000a81548173ffffffffffffffffffffffffffffffffffffffff021916908373ffffffffffffffffffffffffffffffffffffffff16021790555080600160006101000a81548173ffffffffffffffffffffffffffffffffffffffff021916908373ffffffffffffffffffffffffffffffffffffffff16021790555034600481905550610464600a60045461094d90919063ffffffff16565b600581905550610472610997565b5050565b6000600554905090565b600854421015801561049457506000600854115b610506576040517f08c379a00000000000000000000000000000000000000000000000000000000081526004018080602001828103825260128152602001807f4e6f74207363686564756c6564207965742e000000000000000000000000000081525060200191505060405180910390fd5b6006546004541161057f576040517f08c379a00000000000000000000000000000000000000000000000000000000081526004018080602001828103825260188152602001807f4e6f206d6f72652066756e647320617661696c61626c652e000000000000000081525060200191505060405180910390fd5b60006105986006546004546109c190919063ffffffff16565b905060006105a882600554610a0b565b905060006105c060648361094d90919063ffffffff16565b90506105ca610a24565b73ffffffffffffffffffffffffffffffffffffffff166108fc829081150290604051600060405180830381858888f1935050505015801561060f573d6000803e3d6000fd5b50600061062582846109c190919063ffffffff16565b90506060600267ffffffffffffffff8111801561064157600080fd5b506040519080825280602002602001820160405280156106705781602001602082028036833780820191505090505b509050600360009054906101000a900473ffffffffffffffffffffffffffffffffffffffff16816000815181106106a357fe5b602002602001019073ffffffffffffffffffffffffffffffffffffffff16908173ffffffffffffffffffffffffffffffffffffffff168152505060008054906101000a900473ffffffffffffffffffffffffffffffffffffffff168160018151811061070b57fe5b602002602001019073ffffffffffffffffffffffffffffffffffffffff16908173ffffffffffffffffffffffffffffffffffffffff1681525050600160009054906101000a900473ffffffffffffffffffffffffffffffffffffffff1673ffffffffffffffffffffffffffffffffffffffff16637ff36ab583600084600260009054906101000a900473ffffffffffffffffffffffffffffffffffffffff16426040518663ffffffff1660e01b815260040180858152602001806020018473ffffffffffffffffffffffffffffffffffffffff168152602001838152602001828103825285818151815260200191508051906020019060200280838360005b8381101561082557808201518184015260208101905061080a565b50505050905001955050505050506000604051808303818588803b15801561084c57600080fd5b505af1158015610860573d6000803e3d6000fd5b50505050506040513d6000823e3d601f19601f82011682018060405250602081101561088b57600080fd5b81019080805160405193929190846401000000008211156108ab57600080fd5b838201915060208201858111156108c157600080fd5b82518660208202830111640100000000821117156108de57600080fd5b8083526020830192505050908051906020019060200280838360005b838110156109155780820151818401526020810190506108fa565b505050509050016040525050505061093884600654610a2c90919063ffffffff16565b600681905550610946610997565b5050505050565b600061098f83836040518060400160405280601a81526020017f536166654d6174683a206469766973696f6e206279207a65726f000000000000815250610ab4565b905092915050565b600854600781905550620151806000600854116109b457426109b8565b6008545b01600881905550565b6000610a0383836040518060400160405280601e81526020017f536166654d6174683a207375627472616374696f6e206f766572666c6f770000815250610b7a565b905092915050565b6000818310610a1a5781610a1c565b825b905092915050565b600033905090565b600080828401905083811015610aaa576040517f08c379a000000000000000000000000000000000000000000000000000000000815260040180806020018281038252601b8152602001807f536166654d6174683a206164646974696f6e206f766572666c6f77000000000081525060200191505060405180910390fd5b8091505092915050565b60008083118290610b60576040517f08c379a00000000000000000000000000000000000000000000000000000000081526004018080602001828103825283818151815260200191508051906020019080838360005b83811015610b25578082015181840152602081019050610b0a565b50505050905090810190601f168015610b525780820380516001836020036101000a031916815260200191505b509250505060405180910390fd5b506000838581610b6c57fe5b049050809150509392505050565b6000838311158290610c27576040517f08c379a00000000000000000000000000000000000000000000000000000000081526004018080602001828103825283818151815260200191508051906020019080838360005b83811015610bec578082015181840152602081019050610bd1565b50505050905090810190601f168015610c195780820380516001836020036101000a031916815260200191505b509250505060405180910390fd5b506000838503905080915050939250505056fea264697066735822122074132edfe9b42c180e90d59122465c32c49faea4b357815b3e674082a28b12b264736f6c634300060c0033",
  "immutableReferences": {},
  "source": "// SPDX-License-Identifier: MIT\npragma solidity ^0.6.0;\n\nimport \"./interfaces/IBuyback.sol\";\nimport \"./interfaces/IUniswapV2Router02.sol\";\nimport \"@openzeppelin/contracts/math/SafeMath.sol\";\nimport \"@openzeppelin/contracts/math/Math.sol\";\nimport \"@openzeppelin/contracts/GSN/Context.sol\";\n\ncontract Buyback is Context, IBuyback {\n    using SafeMath for uint256;\n\n    address private token;\n    address private uniswapRouter;\n    address private treasury;\n    address private weth;\n    uint256 private totalBuyback;\n    uint256 private singleBuyback;\n    uint256 private alreadyBoughtBack;\n    uint256 private lastBuybackTimestamp;\n    uint256 private nextBuybackTimestamp;\n\n    constructor(address _treasury, address _weth) public {\n        treasury = _treasury;\n        weth = _weth;\n    }\n\n    modifier scheduled() {\n        require(block.timestamp >= nextBuybackTimestamp && nextBuybackTimestamp > 0, \"Not scheduled yet.\");\n        _;\n    }\n\n    modifier available() {\n        require(totalBuyback > alreadyBoughtBack, \"No more funds available.\");\n        _;\n    }\n\n    function tokenAddress() external view override returns (address) {\n        return token;\n    }\n\n    function uniswapRouterAddress() external view override returns (address) {\n        return uniswapRouter;\n    }\n\n    function treasuryAddress() external view override returns (address) {\n        return treasury;\n    }\n\n    function wethAddress() external view override returns (address) {\n        return weth;\n    }\n\n    function totalAmount() external view override returns (uint256) {\n        return totalBuyback;\n    }\n\n    function singleAmount() external view override returns (uint256) {\n        return singleBuyback;\n    }\n\n    function boughtBackAmount() external view override returns (uint256) {\n        return alreadyBoughtBack;\n    }\n\n    function lastBuyback() external view override returns (uint256) {\n        return lastBuybackTimestamp;\n    }\n\n    function nextBuyback() external view override returns (uint256) {\n        return nextBuybackTimestamp;\n    }\n\n    function init(address _token, address _uniswapRouter) external payable override {\n        token = _token;\n        uniswapRouter = _uniswapRouter;\n        totalBuyback = msg.value;\n        singleBuyback = totalBuyback.div(10);\n        updateBuybackTimestamps();\n    }\n\n    function buyback() external override scheduled available {\n        uint256 fundsLeft = totalBuyback.sub(alreadyBoughtBack);\n        uint256 actualBuyback = Math.min(fundsLeft, singleBuyback);\n\n        // send 1% to the sender as a reward for triggering the function\n        uint256 senderShare = actualBuyback.div(100);\n        _msgSender().transfer(senderShare);\n\n        // buy tokens with other 99% and send them to the treasury address\n        uint256 buyShare = actualBuyback.sub(senderShare);\n        address[] memory path = new address[](2);\n        path[0] = weth;\n        path[1] = token;\n        IUniswapV2Router02(uniswapRouter).swapExactETHForTokens{ value: buyShare }(0, path, treasury, block.timestamp);\n\n        alreadyBoughtBack = alreadyBoughtBack.add(actualBuyback);\n        updateBuybackTimestamps();\n    }\n\n    function updateBuybackTimestamps() private {\n        lastBuybackTimestamp = nextBuybackTimestamp;\n        nextBuybackTimestamp = (nextBuybackTimestamp > 0 ? nextBuybackTimestamp : block.timestamp) + 1 days;\n    }\n}\n",
  "sourcePath": "/home/keso/projects/crypto/rollercoaster-token/contracts/Buyback.sol",
  "compiler": {
    "name": "solc",
    "version": "0.6.12+commit.27d51765.Emscripten.clang"
  },
  "schemaVersion": "3.3.3",
  "updatedAt": "2021-02-03T00:10:48.894Z",
  "devdoc": {
    "kind": "dev",
    "methods": {},
    "version": 1
  },
  "userdoc": {
    "kind": "user",
    "methods": {},
    "version": 1
  }
}