{
  "contractName": "FarmActivatorMock",
  "abi": [
    {
      "inputs": [
        {
          "internalType": "address",
          "name": "_rewardToken",
          "type": "address"
        },
        {
          "internalType": "address",
          "name": "_farmToken",
          "type": "address"
        }
      ],
      "name": "startFarmingShouldBeCalledWith",
      "outputs": [],
      "stateMutability": "view",
      "type": "function"
    },
    {
      "inputs": [
        {
          "internalType": "address",
          "name": "_rewardToken",
          "type": "address"
        },
        {
          "internalType": "address",
          "name": "_farmToken",
          "type": "address"
        }
      ],
      "name": "startFarming",
      "outputs": [],
      "stateMutability": "nonpayable",
      "type": "function"
    }
  ],
  "bytecode": "0x608060405234801561001057600080fd5b5061032d806100206000396000f3fe608060405234801561001057600080fd5b50600436106100365760003560e01c8063224d5ab51461003b5780633851b8bb1461009f575b600080fd5b61009d6004803603604081101561005157600080fd5b81019080803573ffffffffffffffffffffffffffffffffffffffff169060200190929190803573ffffffffffffffffffffffffffffffffffffffff169060200190929190505050610103565b005b610101600480360360408110156100b557600080fd5b81019080803573ffffffffffffffffffffffffffffffffffffffff169060200190929190803573ffffffffffffffffffffffffffffffffffffffff169060200190929190505050610188565b005b816000806101000a81548173ffffffffffffffffffffffffffffffffffffffff021916908373ffffffffffffffffffffffffffffffffffffffff16021790555080600160006101000a81548173ffffffffffffffffffffffffffffffffffffffff021916908373ffffffffffffffffffffffffffffffffffffffff1602179055505050565b8173ffffffffffffffffffffffffffffffffffffffff1660008054906101000a900473ffffffffffffffffffffffffffffffffffffffff1673ffffffffffffffffffffffffffffffffffffffff161461022c576040517f08c379a00000000000000000000000000000000000000000000000000000000081526004018080602001828103825260218152602001806102d76021913960400191505060405180910390fd5b8073ffffffffffffffffffffffffffffffffffffffff16600160009054906101000a900473ffffffffffffffffffffffffffffffffffffffff1673ffffffffffffffffffffffffffffffffffffffff16146102d2576040517f08c379a00000000000000000000000000000000000000000000000000000000081526004018080602001828103825260218152602001806102d76021913960400191505060405180910390fd5b505056fe5f726577617264546f6b656e20706172616d65746572206d6973736d617463682ea2646970667358221220068cd515ca9c56df56633325fde223cfcca318e65242f47edb4081fa304830d864736f6c634300060c0033",
  "immutableReferences": {},
  "source": "// SPDX-License-Identifier: MIT\npragma solidity >=0.4.22 <0.9.0;\n\nimport \"../interfaces/IFarmActivator.sol\";\n\ncontract FarmActivatorMock is IFarmActivator {\n    address private rewardToken;\n    address private farmToken;\n\n    function startFarmingShouldBeCalledWith(address _rewardToken, address _farmToken) external view {\n        require(rewardToken == _rewardToken, \"_rewardToken parameter missmatch.\");\n        require(farmToken == _farmToken, \"_rewardToken parameter missmatch.\");\n    }\n\n    function startFarming(address _rewardToken, address _farmToken) external override {\n        rewardToken = _rewardToken;\n        farmToken = _farmToken;\n    }\n}\n",
  "sourcePath": "/home/keso/projects/crypto/rollercoaster-token/contracts/mocks/FarmActivatorMock.sol",
  "compiler": {
    "name": "solc",
    "version": "0.6.12+commit.27d51765.Emscripten.clang"
  },
  "schemaVersion": "3.3.3",
  "updatedAt": "2021-02-08T09:54:57.903Z",
  "devdoc": {
    "kind": "dev",
    "methods": {},
    "version": 1
  },
  "userdoc": {
    "kind": "user",
    "methods": {},
    "version": 1
  }
}