{
  "contractName": "Presale",
  "abi": [
    {
      "anonymous": false,
      "inputs": [
        {
          "indexed": true,
          "internalType": "address",
          "name": "previousOwner",
          "type": "address"
        },
        {
          "indexed": true,
          "internalType": "address",
          "name": "newOwner",
          "type": "address"
        }
      ],
      "name": "OwnershipTransferred",
      "type": "event"
    },
    {
      "inputs": [],
      "name": "LIQUIDITY_ALLOCATION_PERCENT",
      "outputs": [
        {
          "internalType": "uint256",
          "name": "",
          "type": "uint256"
        }
      ],
      "stateMutability": "view",
      "type": "function"
    },
    {
      "inputs": [],
      "name": "LIQUIDITY_MAX_SUPPLY",
      "outputs": [
        {
          "internalType": "uint256",
          "name": "",
          "type": "uint256"
        }
      ],
      "stateMutability": "view",
      "type": "function"
    },
    {
      "inputs": [],
      "name": "PRESALE_MAX_SUPPLY",
      "outputs": [
        {
          "internalType": "uint256",
          "name": "",
          "type": "uint256"
        }
      ],
      "stateMutability": "view",
      "type": "function"
    },
    {
      "inputs": [],
      "name": "RC_ETH_FARM_SUPPLY",
      "outputs": [
        {
          "internalType": "uint256",
          "name": "",
          "type": "uint256"
        }
      ],
      "stateMutability": "view",
      "type": "function"
    },
    {
      "inputs": [],
      "name": "RC_FARM_SUPPLY",
      "outputs": [
        {
          "internalType": "uint256",
          "name": "",
          "type": "uint256"
        }
      ],
      "stateMutability": "view",
      "type": "function"
    },
    {
      "inputs": [],
      "name": "owner",
      "outputs": [
        {
          "internalType": "address",
          "name": "",
          "type": "address"
        }
      ],
      "stateMutability": "view",
      "type": "function"
    },
    {
      "inputs": [],
      "name": "renounceOwnership",
      "outputs": [],
      "stateMutability": "nonpayable",
      "type": "function"
    },
    {
      "inputs": [
        {
          "internalType": "address",
          "name": "newOwner",
          "type": "address"
        }
      ],
      "name": "transferOwnership",
      "outputs": [],
      "stateMutability": "nonpayable",
      "type": "function"
    },
    {
      "stateMutability": "payable",
      "type": "receive"
    },
    {
      "inputs": [],
      "name": "tokenAddress",
      "outputs": [
        {
          "internalType": "address",
          "name": "",
          "type": "address"
        }
      ],
      "stateMutability": "view",
      "type": "function"
    },
    {
      "inputs": [],
      "name": "liquidityLockAddress",
      "outputs": [
        {
          "internalType": "address",
          "name": "",
          "type": "address"
        }
      ],
      "stateMutability": "view",
      "type": "function"
    },
    {
      "inputs": [],
      "name": "uniswapRouterAddress",
      "outputs": [
        {
          "internalType": "address",
          "name": "",
          "type": "address"
        }
      ],
      "stateMutability": "view",
      "type": "function"
    },
    {
      "inputs": [],
      "name": "rcFarmAddress",
      "outputs": [
        {
          "internalType": "address",
          "name": "",
          "type": "address"
        }
      ],
      "stateMutability": "view",
      "type": "function"
    },
    {
      "inputs": [],
      "name": "rcEthFarmAddress",
      "outputs": [
        {
          "internalType": "address",
          "name": "",
          "type": "address"
        }
      ],
      "stateMutability": "view",
      "type": "function"
    },
    {
      "inputs": [],
      "name": "collectedAmount",
      "outputs": [
        {
          "internalType": "uint256",
          "name": "",
          "type": "uint256"
        }
      ],
      "stateMutability": "view",
      "type": "function"
    },
    {
      "inputs": [],
      "name": "hardcapAmount",
      "outputs": [
        {
          "internalType": "uint256",
          "name": "",
          "type": "uint256"
        }
      ],
      "stateMutability": "view",
      "type": "function"
    },
    {
      "inputs": [],
      "name": "maxContributionAmount",
      "outputs": [
        {
          "internalType": "uint256",
          "name": "",
          "type": "uint256"
        }
      ],
      "stateMutability": "view",
      "type": "function"
    },
    {
      "inputs": [],
      "name": "isPresaleActive",
      "outputs": [
        {
          "internalType": "bool",
          "name": "",
          "type": "bool"
        }
      ],
      "stateMutability": "view",
      "type": "function"
    },
    {
      "inputs": [],
      "name": "isFcfsActive",
      "outputs": [
        {
          "internalType": "bool",
          "name": "",
          "type": "bool"
        }
      ],
      "stateMutability": "view",
      "type": "function"
    },
    {
      "inputs": [],
      "name": "wasPresaleEnded",
      "outputs": [
        {
          "internalType": "bool",
          "name": "",
          "type": "bool"
        }
      ],
      "stateMutability": "view",
      "type": "function"
    },
    {
      "inputs": [
        {
          "internalType": "address",
          "name": "_contributor",
          "type": "address"
        }
      ],
      "name": "isWhitelisted",
      "outputs": [
        {
          "internalType": "bool",
          "name": "",
          "type": "bool"
        }
      ],
      "stateMutability": "view",
      "type": "function"
    },
    {
      "inputs": [
        {
          "internalType": "address",
          "name": "_contributor",
          "type": "address"
        }
      ],
      "name": "contribution",
      "outputs": [
        {
          "internalType": "uint256",
          "name": "",
          "type": "uint256"
        }
      ],
      "stateMutability": "view",
      "type": "function"
    },
    {
      "inputs": [
        {
          "internalType": "address[]",
          "name": "_contributors",
          "type": "address[]"
        }
      ],
      "name": "addContributors",
      "outputs": [],
      "stateMutability": "nonpayable",
      "type": "function"
    },
    {
      "inputs": [
        {
          "internalType": "uint256",
          "name": "_hardcap",
          "type": "uint256"
        },
        {
          "internalType": "uint256",
          "name": "_maxContribution",
          "type": "uint256"
        },
        {
          "internalType": "address",
          "name": "_token",
          "type": "address"
        },
        {
          "internalType": "address",
          "name": "_liquidityLock",
          "type": "address"
        },
        {
          "internalType": "address",
          "name": "_uniswapRouter",
          "type": "address"
        },
        {
          "internalType": "address",
          "name": "_rcFarm",
          "type": "address"
        },
        {
          "internalType": "address",
          "name": "_rcEthFarm",
          "type": "address"
        },
        {
          "internalType": "address[]",
          "name": "_contributors",
          "type": "address[]"
        }
      ],
      "name": "start",
      "outputs": [],
      "stateMutability": "nonpayable",
      "type": "function"
    },
    {
      "inputs": [],
      "name": "activateFcfs",
      "outputs": [],
      "stateMutability": "nonpayable",
      "type": "function"
    },
    {
      "inputs": [
        {
          "internalType": "address payable",
          "name": "_team",
          "type": "address"
        }
      ],
      "name": "end",
      "outputs": [],
      "stateMutability": "nonpayable",
      "type": "function"
    }
  ],
  "bytecode": "0x608060405260006100146100b760201b60201c565b9050806000806101000a81548173ffffffffffffffffffffffffffffffffffffffff021916908373ffffffffffffffffffffffffffffffffffffffff1602179055508073ffffffffffffffffffffffffffffffffffffffff16600073ffffffffffffffffffffffffffffffffffffffff167f8be0079c531659141344cd1fd0a4f28419497f9722a3daafe3b4186f6b6457e060405160405180910390a3506100bf565b600033905090565b61288d806100ce6000396000f3fe60806040526004361061016a5760003560e01c806376042c0a116100d1578063b7768e4f1161008a578063e2dc431011610064578063e2dc431014610b9a578063e709ddbb14610bff578063f049071514610c2a578063f2fde38b14610cef576105ae565b8063b7768e4f14610a09578063b90c39e614610a34578063e1b6e09814610b6f576105ae565b806376042c0a14610859578063802c6ee5146108b05780638c4dd39d146108db5780638da5cb5b1461092c57806394e81571146109835780639d76ea58146109b2576105ae565b80633b692132116101235780633b692132146107375780634647df6f146107625780634ec351a4146107b957806360d938dc146107e457806362c8232514610813578063715018a614610842576105ae565b806316a3b3b1146105b357806319cc1ec4146105ca57806320ca3c7f146105f557806328007d761461064c5780632ea91f36146106a35780633af32abf146106ce576105ae565b366105ae57600c60149054906101000a900460ff166101f1576040517f08c379a00000000000000000000000000000000000000000000000000000000081526004018080602001828103825260168152602001807f50726573616c65206973206e6f74206163746976652e0000000000000000000081525060200191505060405180910390fd5b600c60159054906101000a900460ff16806102555750600d60003373ffffffffffffffffffffffffffffffffffffffff1673ffffffffffffffffffffffffffffffffffffffff16815260200190815260200160002060009054906101000a900460ff165b6102c7576040517f08c379a000000000000000000000000000000000000000000000000000000000815260040180806020018281038252601c8152602001807f4e6f7420656c696769626c6520746f2070617274696369706174652e0000000081525060200191505060405180910390fd5b60006102e7600254682086ac351052600000610d4090919063ffffffff16565b9050600061033f600e60003373ffffffffffffffffffffffffffffffffffffffff1673ffffffffffffffffffffffffffffffffffffffff16815260200190815260200160002054600354610d4090919063ffffffff16565b9050600061034d8383610d8a565b9050600061035b3483610d8a565b9050348110156103cc57600061037a8234610d4090919063ffffffff16565b9050610384610da3565b73ffffffffffffffffffffffffffffffffffffffff166108fc829081150290604051600060405180830381858888f193505050501580156103c9573d6000803e3d6000fd5b50505b60008114156103de57505050506105ac565b6103f381600254610dab90919063ffffffff16565b60028190555061044b81600e60003373ffffffffffffffffffffffffffffffffffffffff1673ffffffffffffffffffffffffffffffffffffffff16815260200190815260200160002054610dab90919063ffffffff16565b600e60003373ffffffffffffffffffffffffffffffffffffffff1673ffffffffffffffffffffffffffffffffffffffff1681526020019081526020016000208190555060006104bf670de0b6b3a76400006104b184600654610e3390919063ffffffff16565b610eb990919063ffffffff16565b9050600860009054906101000a900473ffffffffffffffffffffffffffffffffffffffff1673ffffffffffffffffffffffffffffffffffffffff1663a9059cbb33836040518363ffffffff1660e01b8152600401808373ffffffffffffffffffffffffffffffffffffffff1673ffffffffffffffffffffffffffffffffffffffff16815260200182815260200192505050602060405180830381600087803b15801561056a57600080fd5b505af115801561057e573d6000803e3d6000fd5b505050506040513d602081101561059457600080fd5b81019080805190602001909291905050505050505050505b005b600080fd5b3480156105bf57600080fd5b506105c8610f03565b005b3480156105d657600080fd5b506105df61106b565b6040518082815260200191505060405180910390f35b34801561060157600080fd5b5061060a611075565b604051808273ffffffffffffffffffffffffffffffffffffffff1673ffffffffffffffffffffffffffffffffffffffff16815260200191505060405180910390f35b34801561065857600080fd5b5061066161109f565b604051808273ffffffffffffffffffffffffffffffffffffffff1673ffffffffffffffffffffffffffffffffffffffff16815260200191505060405180910390f35b3480156106af57600080fd5b506106b86110c9565b6040518082815260200191505060405180910390f35b3480156106da57600080fd5b5061071d600480360360208110156106f157600080fd5b81019080803573ffffffffffffffffffffffffffffffffffffffff1690602001909291905050506110ce565b604051808215151515815260200191505060405180910390f35b34801561074357600080fd5b5061074c611124565b6040518082815260200191505060405180910390f35b34801561076e57600080fd5b50610777611131565b604051808273ffffffffffffffffffffffffffffffffffffffff1673ffffffffffffffffffffffffffffffffffffffff16815260200191505060405180910390f35b3480156107c557600080fd5b506107ce61115b565b6040518082815260200191505060405180910390f35b3480156107f057600080fd5b506107f9611168565b604051808215151515815260200191505060405180910390f35b34801561081f57600080fd5b5061082861117f565b604051808215151515815260200191505060405180910390f35b34801561084e57600080fd5b50610857611196565b005b34801561086557600080fd5b5061086e61131e565b604051808273ffffffffffffffffffffffffffffffffffffffff1673ffffffffffffffffffffffffffffffffffffffff16815260200191505060405180910390f35b3480156108bc57600080fd5b506108c5611348565b6040518082815260200191505060405180910390f35b3480156108e757600080fd5b5061092a600480360360208110156108fe57600080fd5b81019080803573ffffffffffffffffffffffffffffffffffffffff169060200190929190505050611352565b005b34801561093857600080fd5b50610941611b98565b604051808273ffffffffffffffffffffffffffffffffffffffff1673ffffffffffffffffffffffffffffffffffffffff16815260200191505060405180910390f35b34801561098f57600080fd5b50610998611bc1565b604051808215151515815260200191505060405180910390f35b3480156109be57600080fd5b506109c7611bd8565b604051808273ffffffffffffffffffffffffffffffffffffffff1673ffffffffffffffffffffffffffffffffffffffff16815260200191505060405180910390f35b348015610a1557600080fd5b50610a1e611c02565b6040518082815260200191505060405180910390f35b348015610a4057600080fd5b50610b6d6004803603610100811015610a5857600080fd5b810190808035906020019092919080359060200190929190803573ffffffffffffffffffffffffffffffffffffffff169060200190929190803573ffffffffffffffffffffffffffffffffffffffff169060200190929190803573ffffffffffffffffffffffffffffffffffffffff169060200190929190803573ffffffffffffffffffffffffffffffffffffffff169060200190929190803573ffffffffffffffffffffffffffffffffffffffff16906020019092919080359060200190640100000000811115610b2957600080fd5b820183602082011115610b3b57600080fd5b80359060200191846020830284011164010000000083111715610b5d57600080fd5b9091929391929390505050611c0f565b005b348015610b7b57600080fd5b50610b846121cf565b6040518082815260200191505060405180910390f35b348015610ba657600080fd5b50610be960048036036020811015610bbd57600080fd5b81019080803573ffffffffffffffffffffffffffffffffffffffff1690602001909291905050506121dc565b6040518082815260200191505060405180910390f35b348015610c0b57600080fd5b50610c14612225565b6040518082815260200191505060405180910390f35b348015610c3657600080fd5b50610ced60048036036020811015610c4d57600080fd5b8101908080359060200190640100000000811115610c6a57600080fd5b820183602082011115610c7c57600080fd5b80359060200191846020830284011164010000000083111715610c9e57600080fd5b919080806020026020016040519081016040528093929190818152602001838360200280828437600081840152601f19601f82011690508083019250505050505050919291929050505061222f565b005b348015610cfb57600080fd5b50610d3e60048036036020811015610d1257600080fd5b81019080803573ffffffffffffffffffffffffffffffffffffffff16906020019092919050505061247d565b005b6000610d8283836040518060400160405280601e81526020017f536166654d6174683a207375627472616374696f6e206f766572666c6f77000081525061268a565b905092915050565b6000818310610d995781610d9b565b825b905092915050565b600033905090565b600080828401905083811015610e29576040517f08c379a000000000000000000000000000000000000000000000000000000000815260040180806020018281038252601b8152602001807f536166654d6174683a206164646974696f6e206f766572666c6f77000000000081525060200191505060405180910390fd5b8091505092915050565b600080831415610e465760009050610eb3565b6000828402905082848281610e5757fe5b0414610eae576040517f08c379a00000000000000000000000000000000000000000000000000000000081526004018080602001828103825260218152602001806128376021913960400191505060405180910390fd5b809150505b92915050565b6000610efb83836040518060400160405280601a81526020017f536166654d6174683a206469766973696f6e206279207a65726f00000000000081525061274a565b905092915050565b610f0b610da3565b73ffffffffffffffffffffffffffffffffffffffff166000809054906101000a900473ffffffffffffffffffffffffffffffffffffffff1673ffffffffffffffffffffffffffffffffffffffff1614610fcc576040517f08c379a00000000000000000000000000000000000000000000000000000000081526004018080602001828103825260208152602001807f4f776e61626c653a2063616c6c6572206973206e6f7420746865206f776e657281525060200191505060405180910390fd5b600c60149054906101000a900460ff1661104e576040517f08c379a00000000000000000000000000000000000000000000000000000000081526004018080602001828103825260168152602001807f50726573616c65206973206e6f74206163746976652e0000000000000000000081525060200191505060405180910390fd5b6001600c60156101000a81548160ff021916908315150217905550565b6000600354905090565b6000600a60009054906101000a900473ffffffffffffffffffffffffffffffffffffffff16905090565b6000600b60009054906101000a900473ffffffffffffffffffffffffffffffffffffffff16905090565b603c81565b6000600d60008373ffffffffffffffffffffffffffffffffffffffff1673ffffffffffffffffffffffffffffffffffffffff16815260200190815260200160002060009054906101000a900460ff169050919050565b683635c9adc5dea0000081565b6000600c60009054906101000a900473ffffffffffffffffffffffffffffffffffffffff16905090565b6856bc75e2d63100000081565b6000600c60149054906101000a900460ff16905090565b6000600c60169054906101000a900460ff16905090565b61119e610da3565b73ffffffffffffffffffffffffffffffffffffffff166000809054906101000a900473ffffffffffffffffffffffffffffffffffffffff1673ffffffffffffffffffffffffffffffffffffffff161461125f576040517f08c379a00000000000000000000000000000000000000000000000000000000081526004018080602001828103825260208152602001807f4f776e61626c653a2063616c6c6572206973206e6f7420746865206f776e657281525060200191505060405180910390fd5b600073ffffffffffffffffffffffffffffffffffffffff166000809054906101000a900473ffffffffffffffffffffffffffffffffffffffff1673ffffffffffffffffffffffffffffffffffffffff167f8be0079c531659141344cd1fd0a4f28419497f9722a3daafe3b4186f6b6457e060405160405180910390a360008060006101000a81548173ffffffffffffffffffffffffffffffffffffffff021916908373ffffffffffffffffffffffffffffffffffffffff160217905550565b6000600960009054906101000a900473ffffffffffffffffffffffffffffffffffffffff16905090565b6000600254905090565b61135a610da3565b73ffffffffffffffffffffffffffffffffffffffff166000809054906101000a900473ffffffffffffffffffffffffffffffffffffffff1673ffffffffffffffffffffffffffffffffffffffff161461141b576040517f08c379a00000000000000000000000000000000000000000000000000000000081526004018080602001828103825260208152602001807f4f776e61626c653a2063616c6c6572206973206e6f7420746865206f776e657281525060200191505060405180910390fd5b600c60149054906101000a900460ff1661149d576040517f08c379a00000000000000000000000000000000000000000000000000000000081526004018080602001828103825260168152602001807f50726573616c65206973206e6f74206163746976652e0000000000000000000081525060200191505060405180910390fd5b6000600860009054906101000a900473ffffffffffffffffffffffffffffffffffffffff169050600047905060006114f260646114e4603c85610e3390919063ffffffff16565b610eb990919063ffffffff16565b90506000611525670de0b6b3a764000061151785600754610e3390919063ffffffff16565b610eb990919063ffffffff16565b90508373ffffffffffffffffffffffffffffffffffffffff1663095ea7b3600a60009054906101000a900473ffffffffffffffffffffffffffffffffffffffff16836040518363ffffffff1660e01b8152600401808373ffffffffffffffffffffffffffffffffffffffff1673ffffffffffffffffffffffffffffffffffffffff16815260200182815260200192505050602060405180830381600087803b1580156115d057600080fd5b505af11580156115e4573d6000803e3d6000fd5b505050506040513d60208110156115fa57600080fd5b810190808051906020019092919050505050600a60009054906101000a900473ffffffffffffffffffffffffffffffffffffffff1673ffffffffffffffffffffffffffffffffffffffff1663f305d71983600860009054906101000a900473ffffffffffffffffffffffffffffffffffffffff16848587600960009054906101000a900473ffffffffffffffffffffffffffffffffffffffff16426040518863ffffffff1660e01b8152600401808773ffffffffffffffffffffffffffffffffffffffff1673ffffffffffffffffffffffffffffffffffffffff1681526020018681526020018581526020018481526020018373ffffffffffffffffffffffffffffffffffffffff1673ffffffffffffffffffffffffffffffffffffffff16815260200182815260200196505050505050506060604051808303818588803b15801561174557600080fd5b505af1158015611759573d6000803e3d6000fd5b50505050506040513d606081101561177057600080fd5b8101908080519060200190929190805190602001909291908051906020019092919050505050505060006117ad8385610d4090919063ffffffff16565b90508573ffffffffffffffffffffffffffffffffffffffff166108fc829081150290604051600060405180830381858888f193505050501580156117f5573d6000803e3d6000fd5b508473ffffffffffffffffffffffffffffffffffffffff1663a9059cbb600b60009054906101000a900473ffffffffffffffffffffffffffffffffffffffff16683635c9adc5dea000006040518363ffffffff1660e01b8152600401808373ffffffffffffffffffffffffffffffffffffffff1673ffffffffffffffffffffffffffffffffffffffff16815260200182815260200192505050602060405180830381600087803b1580156118a857600080fd5b505af11580156118bc573d6000803e3d6000fd5b505050506040513d60208110156118d257600080fd5b8101908080519060200190929190505050508473ffffffffffffffffffffffffffffffffffffffff1663a9059cbb600c60009054906101000a900473ffffffffffffffffffffffffffffffffffffffff166856bc75e2d6310000006040518363ffffffff1660e01b8152600401808373ffffffffffffffffffffffffffffffffffffffff1673ffffffffffffffffffffffffffffffffffffffff16815260200182815260200192505050602060405180830381600087803b15801561199657600080fd5b505af11580156119aa573d6000803e3d6000fd5b505050506040513d60208110156119c057600080fd5b81019080805190602001909291905050505060008573ffffffffffffffffffffffffffffffffffffffff166370a08231306040518263ffffffff1660e01b8152600401808273ffffffffffffffffffffffffffffffffffffffff1673ffffffffffffffffffffffffffffffffffffffff16815260200191505060206040518083038186803b158015611a5157600080fd5b505afa158015611a65573d6000803e3d6000fd5b505050506040513d6020811015611a7b57600080fd5b810190808051906020019092919050505090508573ffffffffffffffffffffffffffffffffffffffff166342966c68826040518263ffffffff1660e01b815260040180828152602001915050600060405180830381600087803b158015611ae157600080fd5b505af1158015611af5573d6000803e3d6000fd5b505050508573ffffffffffffffffffffffffffffffffffffffff1663a69df4b56040518163ffffffff1660e01b8152600401600060405180830381600087803b158015611b4157600080fd5b505af1158015611b55573d6000803e3d6000fd5b505050506000600c60146101000a81548160ff0219169083151502179055506001600c60166101000a81548160ff02191690831515021790555050505050505050565b60008060009054906101000a900473ffffffffffffffffffffffffffffffffffffffff16905090565b6000600c60159054906101000a900460ff16905090565b6000600860009054906101000a900473ffffffffffffffffffffffffffffffffffffffff16905090565b6808c8339dafed48000081565b611c17610da3565b73ffffffffffffffffffffffffffffffffffffffff166000809054906101000a900473ffffffffffffffffffffffffffffffffffffffff1673ffffffffffffffffffffffffffffffffffffffff1614611cd8576040517f08c379a00000000000000000000000000000000000000000000000000000000081526004018080602001828103825260208152602001807f4f776e61626c653a2063616c6c6572206973206e6f7420746865206f776e657281525060200191505060405180910390fd5b600c60149054906101000a900460ff1615611d5b576040517f08c379a00000000000000000000000000000000000000000000000000000000081526004018080602001828103825260128152602001807f50726573616c65206973206163746976652e000000000000000000000000000081525060200191505060405180910390fd5b600c60169054906101000a900460ff1615611dde576040517f08c379a00000000000000000000000000000000000000000000000000000000081526004018080602001828103825260128152602001807f50726573616c652077617320656e6465642e000000000000000000000000000081525060200191505060405180910390fd5b8660008173ffffffffffffffffffffffffffffffffffffffff166370a08231306040518263ffffffff1660e01b8152600401808273ffffffffffffffffffffffffffffffffffffffff1673ffffffffffffffffffffffffffffffffffffffff16815260200191505060206040518083038186803b158015611e5e57600080fd5b505afa158015611e72573d6000803e3d6000fd5b505050506040513d6020811015611e8857600080fd5b810190808051906020019092919050505090506000611ef86856bc75e2d631000000611eea683635c9adc5dea00000611edc6808c8339dafed480000682086ac351052600000610dab90919063ffffffff16565b610dab90919063ffffffff16565b610dab90919063ffffffff16565b905080821015611f70576040517f08c379a00000000000000000000000000000000000000000000000000000000081526004018080602001828103825260148152602001807f496e73756666696369656e7420737570706c792e00000000000000000000000081525060200191505060405180910390fd5b6001600c60146101000a81548160ff0219169083151502179055508b6001819055508a600381905550611fb0600354600154610eb990919063ffffffff16565b600481905550611fee600154611fe0670de0b6b3a7640000682086ac351052600000610e3390919063ffffffff16565b610eb990919063ffffffff16565b60068190555061202c60015461201e670de0b6b3a76400006808c8339dafed480000610e3390919063ffffffff16565b610eb990919063ffffffff16565b60078190555089600860006101000a81548173ffffffffffffffffffffffffffffffffffffffff021916908373ffffffffffffffffffffffffffffffffffffffff16021790555088600960006101000a81548173ffffffffffffffffffffffffffffffffffffffff021916908373ffffffffffffffffffffffffffffffffffffffff16021790555087600a60006101000a81548173ffffffffffffffffffffffffffffffffffffffff021916908373ffffffffffffffffffffffffffffffffffffffff16021790555086600b60006101000a81548173ffffffffffffffffffffffffffffffffffffffff021916908373ffffffffffffffffffffffffffffffffffffffff16021790555085600c60006101000a81548173ffffffffffffffffffffffffffffffffffffffff021916908373ffffffffffffffffffffffffffffffffffffffff1602179055506121c1858580806020026020016040519081016040528093929190818152602001838360200280828437600081840152601f19601f8201169050808301925050505050505061222f565b505050505050505050505050565b682086ac35105260000081565b6000600e60008373ffffffffffffffffffffffffffffffffffffffff1673ffffffffffffffffffffffffffffffffffffffff168152602001908152602001600020549050919050565b6000600154905090565b612237610da3565b73ffffffffffffffffffffffffffffffffffffffff166000809054906101000a900473ffffffffffffffffffffffffffffffffffffffff1673ffffffffffffffffffffffffffffffffffffffff16146122f8576040517f08c379a00000000000000000000000000000000000000000000000000000000081526004018080602001828103825260208152602001807f4f776e61626c653a2063616c6c6572206973206e6f7420746865206f776e657281525060200191505060405180910390fd5b60005b8151811015612479576000600d600084848151811061231657fe5b602002602001015173ffffffffffffffffffffffffffffffffffffffff1673ffffffffffffffffffffffffffffffffffffffff16815260200190815260200160002060009054906101000a900460ff1690508015612374575061246c565b600454600554106123ed576040517f08c379a00000000000000000000000000000000000000000000000000000000081526004018080602001828103825260198152602001807f4d617820636f6e7472696275746f727320726561636865642e0000000000000081525060200191505060405180910390fd5b6005600081548092919060010191905055506001600d600085858151811061241157fe5b602002602001015173ffffffffffffffffffffffffffffffffffffffff1673ffffffffffffffffffffffffffffffffffffffff16815260200190815260200160002060006101000a81548160ff021916908315150217905550505b80806001019150506122fb565b5050565b612485610da3565b73ffffffffffffffffffffffffffffffffffffffff166000809054906101000a900473ffffffffffffffffffffffffffffffffffffffff1673ffffffffffffffffffffffffffffffffffffffff1614612546576040517f08c379a00000000000000000000000000000000000000000000000000000000081526004018080602001828103825260208152602001807f4f776e61626c653a2063616c6c6572206973206e6f7420746865206f776e657281525060200191505060405180910390fd5b600073ffffffffffffffffffffffffffffffffffffffff168173ffffffffffffffffffffffffffffffffffffffff1614156125cc576040517f08c379a00000000000000000000000000000000000000000000000000000000081526004018080602001828103825260268152602001806128116026913960400191505060405180910390fd5b8073ffffffffffffffffffffffffffffffffffffffff166000809054906101000a900473ffffffffffffffffffffffffffffffffffffffff1673ffffffffffffffffffffffffffffffffffffffff167f8be0079c531659141344cd1fd0a4f28419497f9722a3daafe3b4186f6b6457e060405160405180910390a3806000806101000a81548173ffffffffffffffffffffffffffffffffffffffff021916908373ffffffffffffffffffffffffffffffffffffffff16021790555050565b6000838311158290612737576040517f08c379a00000000000000000000000000000000000000000000000000000000081526004018080602001828103825283818151815260200191508051906020019080838360005b838110156126fc5780820151818401526020810190506126e1565b50505050905090810190601f1680156127295780820380516001836020036101000a031916815260200191505b509250505060405180910390fd5b5060008385039050809150509392505050565b600080831182906127f6576040517f08c379a00000000000000000000000000000000000000000000000000000000081526004018080602001828103825283818151815260200191508051906020019080838360005b838110156127bb5780820151818401526020810190506127a0565b50505050905090810190601f1680156127e85780820380516001836020036101000a031916815260200191505b509250505060405180910390fd5b50600083858161280257fe5b04905080915050939250505056fe4f776e61626c653a206e6577206f776e657220697320746865207a65726f2061646472657373536166654d6174683a206d756c7469706c69636174696f6e206f766572666c6f77a2646970667358221220a8f288d8cd2cc809c480a7fd1a8135cf43cb57042fe30085deb2d43b7933084464736f6c63430006060033",
  "immutableReferences": {},
  "source": "// SPDX-License-Identifier: MIT\npragma solidity >=0.4.22 <0.9.0;\n\nimport \"./interfaces/IPresale.sol\";\nimport \"./interfaces/IToken.sol\";\nimport \"@openzeppelin/contracts/access/Ownable.sol\";\nimport \"@openzeppelin/contracts/token/ERC20/IERC20.sol\";\nimport \"@openzeppelin/contracts/math/SafeMath.sol\";\nimport \"@openzeppelin/contracts/math/Math.sol\";\nimport \"@uniswap/v2-periphery/contracts/interfaces/IUniswapV2Router02.sol\";\n\ncontract Presale is Ownable, IPresale {\n    using SafeMath for uint256;\n\n    uint256 public constant LIQUIDITY_ALLOCATION_PERCENT = 60;\n    uint256 public constant PRESALE_MAX_SUPPLY = 600 * 10**18; // if 600 eth collected, otherwise leftover burned\n    uint256 public constant LIQUIDITY_MAX_SUPPLY = 162 * 10**18; // if 600 eth collected (360 eth for liquidity), otherwise leftover burned\n    uint256 public constant RC_FARM_SUPPLY = 1000 * 10**18;\n    uint256 public constant RC_ETH_FARM_SUPPLY = 1600 * 10**18;\n\n    uint256 private hardcap;\n    uint256 private collected;\n    uint256 private maxContribution;\n    uint256 private maxContributorsCount;\n    uint256 private contributorsCount;\n    uint256 private contributorTokensPerCollectedEth;\n    uint256 private liquidityTokensPerCollectedEth;\n    address private token;\n    address private liquidityLock;\n    address private uniswapRouter;\n    address private rcFarm;\n    address private rcEthFarm;\n    bool private isPresaleActiveFlag;\n    bool private isFcfsActiveFlag;\n    bool private wasPresaleEndedFlag;\n    mapping(address => bool) private contributors;\n    mapping(address => uint256) private contributions;\n\n    modifier presaleActive() {\n        require(isPresaleActiveFlag, \"Presale is not active.\");\n        _;\n    }\n\n    modifier presaleNotActive() {\n        require(!isPresaleActiveFlag, \"Presale is active.\");\n        _;\n    }\n\n    modifier presaleNotEnded() {\n        require(!wasPresaleEndedFlag, \"Presale was ended.\");\n        _;\n    }\n\n    modifier sufficientSupply(address _token) {\n        uint256 supply = IERC20(_token).balanceOf(address(this));\n        uint256 minSupply = PRESALE_MAX_SUPPLY.add(LIQUIDITY_MAX_SUPPLY).add(RC_FARM_SUPPLY).add(RC_ETH_FARM_SUPPLY);\n        require(supply >= minSupply, \"Insufficient supply.\");\n        _;\n    }\n\n    modifier senderEligibleToContribute() {\n        require(isFcfsActiveFlag || contributors[msg.sender], \"Not eligible to participate.\");\n        _;\n    }\n\n    function tokenAddress() external view override returns (address) {\n        return token;\n    }\n\n    function liquidityLockAddress() external view override returns (address) {\n        return liquidityLock;\n    }\n\n    function uniswapRouterAddress() external view override returns (address) {\n        return uniswapRouter;\n    }\n\n    function rcFarmAddress() external view override returns (address) {\n        return rcFarm;\n    }\n\n    function rcEthFarmAddress() external view override returns (address) {\n        return rcEthFarm;\n    }\n\n    function collectedAmount() external view override returns (uint256) {\n        return collected;\n    }\n\n    function hardcapAmount() external view override returns (uint256) {\n        return hardcap;\n    }\n\n    function maxContributionAmount() external view override returns (uint256) {\n        return maxContribution;\n    }\n\n    function isPresaleActive() external view override returns (bool) {\n        return isPresaleActiveFlag;\n    }\n\n    function isFcfsActive() external view override returns (bool) {\n        return isFcfsActiveFlag;\n    }\n\n    function wasPresaleEnded() external view override returns (bool) {\n        return wasPresaleEndedFlag;\n    }\n\n    function isWhitelisted(address _contributor) external view override returns (bool) {\n        return contributors[_contributor];\n    }\n\n    function contribution(address _contributor) external view override returns (uint256) {\n        return contributions[_contributor];\n    }\n\n    function addContributors(address[] memory _contributors) public override onlyOwner {\n        for (uint256 i; i < _contributors.length; i++) {\n            bool isAlreadyAdded = contributors[_contributors[i]];\n            if (isAlreadyAdded) {\n                continue;\n            }\n            require(contributorsCount < maxContributorsCount, \"Max contributors reached.\");\n            contributorsCount++;\n            contributors[_contributors[i]] = true;\n        }\n    }\n\n    function start(\n        uint256 _hardcap,\n        uint256 _maxContribution,\n        address _token,\n        address _liquidityLock,\n        address _uniswapRouter,\n        address _rcFarm,\n        address _rcEthFarm,\n        address[] calldata _contributors\n    ) external override onlyOwner presaleNotActive presaleNotEnded sufficientSupply(_token) {\n        isPresaleActiveFlag = true;\n        hardcap = _hardcap;\n        maxContribution = _maxContribution;\n        maxContributorsCount = hardcap.div(maxContribution);\n        contributorTokensPerCollectedEth = PRESALE_MAX_SUPPLY.mul(10**18).div(hardcap);\n        liquidityTokensPerCollectedEth = LIQUIDITY_MAX_SUPPLY.mul(10**18).div(hardcap);\n        token = _token;\n        liquidityLock = _liquidityLock;\n        uniswapRouter = _uniswapRouter;\n        rcFarm = _rcFarm;\n        rcEthFarm = _rcEthFarm;\n        addContributors(_contributors);\n    }\n\n    function activateFcfs() external override onlyOwner presaleActive {\n        isFcfsActiveFlag = true;\n    }\n\n    function end(address payable _team) external override onlyOwner presaleActive {\n        IToken rollerCoaster = IToken(token);\n\n        // calculate liquidity share\n        uint256 totalCollected = address(this).balance;\n        uint256 liquidityEths = totalCollected.mul(LIQUIDITY_ALLOCATION_PERCENT).div(100);\n        uint256 liquidityTokens = liquidityTokensPerCollectedEth.mul(totalCollected).div(10**18);\n\n        // approve router and add liquidity\n        rollerCoaster.approve(uniswapRouter, liquidityTokens);\n        IUniswapV2Router02(uniswapRouter).addLiquidityETH{ value: liquidityEths }(\n            token,\n            liquidityTokens,\n            liquidityTokens,\n            liquidityEths,\n            liquidityLock,\n            block.timestamp\n        );\n\n        // transfer team share\n        uint256 teamEths = totalCollected.sub(liquidityEths);\n        _team.transfer(teamEths);\n\n        // transfer farm shares\n        rollerCoaster.transfer(rcFarm, RC_FARM_SUPPLY);\n        rollerCoaster.transfer(rcEthFarm, RC_ETH_FARM_SUPPLY);\n\n        // burn the remaining balance and unlock token\n        uint256 remainingBalance = rollerCoaster.balanceOf(address(this));\n        rollerCoaster.burn(remainingBalance);\n        rollerCoaster.unlock();\n\n        // end presale\n        isPresaleActiveFlag = false;\n        wasPresaleEndedFlag = true;\n    }\n\n    receive() external payable presaleActive senderEligibleToContribute {\n        uint256 totalContributionLeft = PRESALE_MAX_SUPPLY.sub(collected);\n        uint256 senderContributionLeft = maxContribution.sub(contributions[msg.sender]);\n        uint256 contributionLeft = Math.min(totalContributionLeft, senderContributionLeft);\n\n        uint256 valueToAccept = Math.min(msg.value, contributionLeft);\n        if (valueToAccept < msg.value) {\n            uint256 valueToReturn = msg.value.sub(valueToAccept);\n            _msgSender().transfer(valueToReturn);\n        }\n\n        if (valueToAccept == 0) {\n            return;\n        }\n\n        collected = collected.add(valueToAccept);\n        contributions[msg.sender] = contributions[msg.sender].add(valueToAccept);\n\n        uint256 tokensToTransfer = contributorTokensPerCollectedEth.mul(valueToAccept).div(10**18);\n        IERC20(token).transfer(msg.sender, tokensToTransfer);\n    }\n}\n",
  "sourcePath": "/home/keso/projects/crypto/rollercoaster-token/contracts/Presale.sol",
  "compiler": {
    "name": "solc",
    "version": "0.6.6+commit.6c089d02.Emscripten.clang"
  },
  "schemaVersion": "3.3.3",
  "updatedAt": "2021-01-31T21:57:32.079Z",
  "devdoc": {
    "methods": {
      "owner()": {
        "details": "Returns the address of the current owner."
      },
      "renounceOwnership()": {
        "details": "Leaves the contract without owner. It will not be possible to call `onlyOwner` functions anymore. Can only be called by the current owner.     * NOTE: Renouncing ownership will leave the contract without an owner, thereby removing any functionality that is only available to the owner."
      },
      "transferOwnership(address)": {
        "details": "Transfers ownership of the contract to a new account (`newOwner`). Can only be called by the current owner."
      }
    }
  },
  "userdoc": {
    "methods": {}
  }
}