{
  "contractName": "Presale",
  "abi": [
    {
      "anonymous": false,
      "inputs": [
        {
          "indexed": true,
          "internalType": "address",
          "name": "_contributor",
          "type": "address"
        },
        {
          "indexed": false,
          "internalType": "uint256",
          "name": "_contribution",
          "type": "uint256"
        },
        {
          "indexed": false,
          "internalType": "uint256",
          "name": "_receivedTokens",
          "type": "uint256"
        }
      ],
      "name": "ContributionAccepted",
      "type": "event"
    },
    {
      "anonymous": false,
      "inputs": [
        {
          "indexed": true,
          "internalType": "address",
          "name": "_contributor",
          "type": "address"
        },
        {
          "indexed": false,
          "internalType": "uint256",
          "name": "_contribution",
          "type": "uint256"
        }
      ],
      "name": "ContributionRefunded",
      "type": "event"
    },
    {
      "anonymous": false,
      "inputs": [],
      "name": "FcfsActivated",
      "type": "event"
    },
    {
      "anonymous": false,
      "inputs": [
        {
          "indexed": true,
          "internalType": "address",
          "name": "previousOwner",
          "type": "address"
        },
        {
          "indexed": true,
          "internalType": "address",
          "name": "newOwner",
          "type": "address"
        }
      ],
      "name": "OwnershipTransferred",
      "type": "event"
    },
    {
      "anonymous": false,
      "inputs": [],
      "name": "PresaleEnded",
      "type": "event"
    },
    {
      "anonymous": false,
      "inputs": [],
      "name": "PresaleStarted",
      "type": "event"
    },
    {
      "inputs": [],
      "name": "BUYBACK_ALLOCATION_PERCENT",
      "outputs": [
        {
          "internalType": "uint256",
          "name": "",
          "type": "uint256"
        }
      ],
      "stateMutability": "view",
      "type": "function",
      "constant": true
    },
    {
      "inputs": [],
      "name": "LIQUIDITY_ALLOCATION_PERCENT",
      "outputs": [
        {
          "internalType": "uint256",
          "name": "",
          "type": "uint256"
        }
      ],
      "stateMutability": "view",
      "type": "function",
      "constant": true
    },
    {
      "inputs": [],
      "name": "LIQUIDITY_MAX_SUPPLY",
      "outputs": [
        {
          "internalType": "uint256",
          "name": "",
          "type": "uint256"
        }
      ],
      "stateMutability": "view",
      "type": "function",
      "constant": true
    },
    {
      "inputs": [],
      "name": "PRESALE_MAX_SUPPLY",
      "outputs": [
        {
          "internalType": "uint256",
          "name": "",
          "type": "uint256"
        }
      ],
      "stateMutability": "view",
      "type": "function",
      "constant": true
    },
    {
      "inputs": [],
      "name": "RC_ETH_FARM_SUPPLY",
      "outputs": [
        {
          "internalType": "uint256",
          "name": "",
          "type": "uint256"
        }
      ],
      "stateMutability": "view",
      "type": "function",
      "constant": true
    },
    {
      "inputs": [],
      "name": "RC_FARM_SUPPLY",
      "outputs": [
        {
          "internalType": "uint256",
          "name": "",
          "type": "uint256"
        }
      ],
      "stateMutability": "view",
      "type": "function",
      "constant": true
    },
    {
      "inputs": [],
      "name": "owner",
      "outputs": [
        {
          "internalType": "address",
          "name": "",
          "type": "address"
        }
      ],
      "stateMutability": "view",
      "type": "function",
      "constant": true
    },
    {
      "inputs": [],
      "name": "renounceOwnership",
      "outputs": [],
      "stateMutability": "nonpayable",
      "type": "function"
    },
    {
      "inputs": [
        {
          "internalType": "address",
          "name": "newOwner",
          "type": "address"
        }
      ],
      "name": "transferOwnership",
      "outputs": [],
      "stateMutability": "nonpayable",
      "type": "function"
    },
    {
      "stateMutability": "payable",
      "type": "receive",
      "payable": true
    },
    {
      "inputs": [],
      "name": "tokenAddress",
      "outputs": [
        {
          "internalType": "address",
          "name": "",
          "type": "address"
        }
      ],
      "stateMutability": "view",
      "type": "function",
      "constant": true
    },
    {
      "inputs": [],
      "name": "buybackAddress",
      "outputs": [
        {
          "internalType": "address",
          "name": "",
          "type": "address"
        }
      ],
      "stateMutability": "view",
      "type": "function",
      "constant": true
    },
    {
      "inputs": [],
      "name": "liquidityLockAddress",
      "outputs": [
        {
          "internalType": "address",
          "name": "",
          "type": "address"
        }
      ],
      "stateMutability": "view",
      "type": "function",
      "constant": true
    },
    {
      "inputs": [],
      "name": "uniswapRouterAddress",
      "outputs": [
        {
          "internalType": "address",
          "name": "",
          "type": "address"
        }
      ],
      "stateMutability": "view",
      "type": "function",
      "constant": true
    },
    {
      "inputs": [],
      "name": "rcFarmAddress",
      "outputs": [
        {
          "internalType": "address",
          "name": "",
          "type": "address"
        }
      ],
      "stateMutability": "view",
      "type": "function",
      "constant": true
    },
    {
      "inputs": [],
      "name": "rcEthFarmAddress",
      "outputs": [
        {
          "internalType": "address",
          "name": "",
          "type": "address"
        }
      ],
      "stateMutability": "view",
      "type": "function",
      "constant": true
    },
    {
      "inputs": [],
      "name": "collectedAmount",
      "outputs": [
        {
          "internalType": "uint256",
          "name": "",
          "type": "uint256"
        }
      ],
      "stateMutability": "view",
      "type": "function",
      "constant": true
    },
    {
      "inputs": [],
      "name": "hardcapAmount",
      "outputs": [
        {
          "internalType": "uint256",
          "name": "",
          "type": "uint256"
        }
      ],
      "stateMutability": "view",
      "type": "function",
      "constant": true
    },
    {
      "inputs": [],
      "name": "maxContributionAmount",
      "outputs": [
        {
          "internalType": "uint256",
          "name": "",
          "type": "uint256"
        }
      ],
      "stateMutability": "view",
      "type": "function",
      "constant": true
    },
    {
      "inputs": [],
      "name": "isPresaleActive",
      "outputs": [
        {
          "internalType": "bool",
          "name": "",
          "type": "bool"
        }
      ],
      "stateMutability": "view",
      "type": "function",
      "constant": true
    },
    {
      "inputs": [],
      "name": "isFcfsActive",
      "outputs": [
        {
          "internalType": "bool",
          "name": "",
          "type": "bool"
        }
      ],
      "stateMutability": "view",
      "type": "function",
      "constant": true
    },
    {
      "inputs": [],
      "name": "wasPresaleEnded",
      "outputs": [
        {
          "internalType": "bool",
          "name": "",
          "type": "bool"
        }
      ],
      "stateMutability": "view",
      "type": "function",
      "constant": true
    },
    {
      "inputs": [
        {
          "internalType": "address",
          "name": "_contributor",
          "type": "address"
        }
      ],
      "name": "isWhitelisted",
      "outputs": [
        {
          "internalType": "bool",
          "name": "",
          "type": "bool"
        }
      ],
      "stateMutability": "view",
      "type": "function",
      "constant": true
    },
    {
      "inputs": [
        {
          "internalType": "address",
          "name": "_contributor",
          "type": "address"
        }
      ],
      "name": "contribution",
      "outputs": [
        {
          "internalType": "uint256",
          "name": "",
          "type": "uint256"
        }
      ],
      "stateMutability": "view",
      "type": "function",
      "constant": true
    },
    {
      "inputs": [
        {
          "internalType": "address[]",
          "name": "_contributors",
          "type": "address[]"
        }
      ],
      "name": "addContributors",
      "outputs": [],
      "stateMutability": "nonpayable",
      "type": "function"
    },
    {
      "inputs": [
        {
          "internalType": "uint256",
          "name": "_hardcap",
          "type": "uint256"
        },
        {
          "internalType": "uint256",
          "name": "_maxContribution",
          "type": "uint256"
        },
        {
          "internalType": "address",
          "name": "_token",
          "type": "address"
        },
        {
          "internalType": "address",
          "name": "_buyback",
          "type": "address"
        },
        {
          "internalType": "address",
          "name": "_liquidityLock",
          "type": "address"
        },
        {
          "internalType": "address",
          "name": "_uniswapRouter",
          "type": "address"
        },
        {
          "internalType": "address",
          "name": "_rcFarm",
          "type": "address"
        },
        {
          "internalType": "address",
          "name": "_rcEthFarm",
          "type": "address"
        },
        {
          "internalType": "address[]",
          "name": "_contributors",
          "type": "address[]"
        }
      ],
      "name": "start",
      "outputs": [],
      "stateMutability": "nonpayable",
      "type": "function"
    },
    {
      "inputs": [],
      "name": "activateFcfs",
      "outputs": [],
      "stateMutability": "nonpayable",
      "type": "function"
    },
    {
      "inputs": [
        {
          "internalType": "address payable",
          "name": "_team",
          "type": "address"
        }
      ],
      "name": "end",
      "outputs": [],
      "stateMutability": "nonpayable",
      "type": "function"
    }
  ],
  "bytecode": "0x608060405234801561001057600080fd5b5060006100216100c460201b60201c565b9050806000806101000a81548173ffffffffffffffffffffffffffffffffffffffff021916908373ffffffffffffffffffffffffffffffffffffffff1602179055508073ffffffffffffffffffffffffffffffffffffffff16600073ffffffffffffffffffffffffffffffffffffffff167f8be0079c531659141344cd1fd0a4f28419497f9722a3daafe3b4186f6b6457e060405160405180910390a3506100cc565b600033905090565b612a6b806100db6000396000f3fe6080604052600436106101a05760003560e01c806376042c0a116100ec578063b7768e4f1161008a578063e2dc431011610064578063e2dc431014610c56578063e709ddbb14610cbb578063f049071514610ce6578063f2fde38b14610dab5761066a565b8063b7768e4f14610bbf578063cc2fbd6614610bea578063e1b6e09814610c2b5761066a565b80638da5cb5b116100c65780638da5cb5b146109b557806394e81571146109f65780639d76ea5814610a23578063a408c2eb14610a645761066a565b806376042c0a146108f8578063802c6ee5146109395780638c4dd39d146109645761066a565b80633b6921321161015957806360d938dc1161013357806360d938dc1461085c57806362c823251461088957806364f57758146108b6578063715018a6146108e15761066a565b80633b692132146107c55780634647df6f146107f05780634ec351a4146108315761066a565b806316a3b3b11461066f57806319cc1ec41461068657806320ca3c7f146106b157806328007d76146106f25780632ea91f36146107335780633af32abf1461075e5761066a565b3661066a57600d60149054906101000a900460ff16610227576040517f08c379a00000000000000000000000000000000000000000000000000000000081526004018080602001828103825260168152602001807f50726573616c65206973206e6f74206163746976652e0000000000000000000081525060200191505060405180910390fd5b600d60159054906101000a900460ff168061028b5750600e60003373ffffffffffffffffffffffffffffffffffffffff1673ffffffffffffffffffffffffffffffffffffffff16815260200190815260200160002060009054906101000a900460ff165b6102fd576040517f08c379a000000000000000000000000000000000000000000000000000000000815260040180806020018281038252601c8152602001807f4e6f7420656c696769626c6520746f2070617274696369706174652e0000000081525060200191505060405180910390fd5b600061031d600254682086ac351052600000610dfc90919063ffffffff16565b90506000610375600f60003373ffffffffffffffffffffffffffffffffffffffff1673ffffffffffffffffffffffffffffffffffffffff16815260200190815260200160002054600354610dfc90919063ffffffff16565b905060006103838383610e46565b905060006103913483610e46565b905060008111156105a6576103b181600254610e5f90919063ffffffff16565b60028190555061040981600f60003373ffffffffffffffffffffffffffffffffffffffff1673ffffffffffffffffffffffffffffffffffffffff16815260200190815260200160002054610e5f90919063ffffffff16565b600f60003373ffffffffffffffffffffffffffffffffffffffff1673ffffffffffffffffffffffffffffffffffffffff16815260200190815260200160002081905550600061047d670de0b6b3a764000061046f84600654610ee790919063ffffffff16565b610f6d90919063ffffffff16565b9050600860009054906101000a900473ffffffffffffffffffffffffffffffffffffffff1673ffffffffffffffffffffffffffffffffffffffff1663a9059cbb33836040518363ffffffff1660e01b8152600401808373ffffffffffffffffffffffffffffffffffffffff16815260200182815260200192505050602060405180830381600087803b15801561051257600080fd5b505af1158015610526573d6000803e3d6000fd5b505050506040513d602081101561053c57600080fd5b8101908080519060200190929190505050503373ffffffffffffffffffffffffffffffffffffffff167fc82bd2657a86085d10f487c20f5c22d24b8031e8d43be961bfec4ee100df27ba8383604051808381526020018281526020019250505060405180910390a2505b60006105bb8234610dfc90919063ffffffff16565b90506000811115610663576105ce610fb7565b73ffffffffffffffffffffffffffffffffffffffff166108fc829081150290604051600060405180830381858888f19350505050158015610613573d6000803e3d6000fd5b503373ffffffffffffffffffffffffffffffffffffffff167f2ef47cadc7e07ee6cea296446c8ca85ff6955693411d8868f7a04b6850034f08826040518082815260200191505060405180910390a25b5050505050005b600080fd5b34801561067b57600080fd5b50610684610fbf565b005b34801561069257600080fd5b5061069b61116d565b6040518082815260200191505060405180910390f35b3480156106bd57600080fd5b506106c6611177565b604051808273ffffffffffffffffffffffffffffffffffffffff16815260200191505060405180910390f35b3480156106fe57600080fd5b506107076111a1565b604051808273ffffffffffffffffffffffffffffffffffffffff16815260200191505060405180910390f35b34801561073f57600080fd5b506107486111cb565b6040518082815260200191505060405180910390f35b34801561076a57600080fd5b506107ad6004803603602081101561078157600080fd5b81019080803573ffffffffffffffffffffffffffffffffffffffff1690602001909291905050506111d0565b60405180821515815260200191505060405180910390f35b3480156107d157600080fd5b506107da611226565b6040518082815260200191505060405180910390f35b3480156107fc57600080fd5b50610805611233565b604051808273ffffffffffffffffffffffffffffffffffffffff16815260200191505060405180910390f35b34801561083d57600080fd5b5061084661125d565b6040518082815260200191505060405180910390f35b34801561086857600080fd5b5061087161126a565b60405180821515815260200191505060405180910390f35b34801561089557600080fd5b5061089e611281565b60405180821515815260200191505060405180910390f35b3480156108c257600080fd5b506108cb611298565b6040518082815260200191505060405180910390f35b3480156108ed57600080fd5b506108f661129d565b005b34801561090457600080fd5b5061090d611423565b604051808273ffffffffffffffffffffffffffffffffffffffff16815260200191505060405180910390f35b34801561094557600080fd5b5061094e61144d565b6040518082815260200191505060405180910390f35b34801561097057600080fd5b506109b36004803603602081101561098757600080fd5b81019080803573ffffffffffffffffffffffffffffffffffffffff169060200190929190505050611457565b005b3480156109c157600080fd5b506109ca611c76565b604051808273ffffffffffffffffffffffffffffffffffffffff16815260200191505060405180910390f35b348015610a0257600080fd5b50610a0b611c9f565b60405180821515815260200191505060405180910390f35b348015610a2f57600080fd5b50610a38611cb6565b604051808273ffffffffffffffffffffffffffffffffffffffff16815260200191505060405180910390f35b348015610a7057600080fd5b50610bbd6004803603610120811015610a8857600080fd5b810190808035906020019092919080359060200190929190803573ffffffffffffffffffffffffffffffffffffffff169060200190929190803573ffffffffffffffffffffffffffffffffffffffff169060200190929190803573ffffffffffffffffffffffffffffffffffffffff169060200190929190803573ffffffffffffffffffffffffffffffffffffffff169060200190929190803573ffffffffffffffffffffffffffffffffffffffff169060200190929190803573ffffffffffffffffffffffffffffffffffffffff16906020019092919080359060200190640100000000811115610b7957600080fd5b820183602082011115610b8b57600080fd5b80359060200191846020830284011164010000000083111715610bad57600080fd5b9091929391929390505050611ce0565b005b348015610bcb57600080fd5b50610bd46122f7565b6040518082815260200191505060405180910390f35b348015610bf657600080fd5b50610bff612304565b604051808273ffffffffffffffffffffffffffffffffffffffff16815260200191505060405180910390f35b348015610c3757600080fd5b50610c4061232e565b6040518082815260200191505060405180910390f35b348015610c6257600080fd5b50610ca560048036036020811015610c7957600080fd5b81019080803573ffffffffffffffffffffffffffffffffffffffff16906020019092919050505061233b565b6040518082815260200191505060405180910390f35b348015610cc757600080fd5b50610cd0612384565b6040518082815260200191505060405180910390f35b348015610cf257600080fd5b50610da960048036036020811015610d0957600080fd5b8101908080359060200190640100000000811115610d2657600080fd5b820183602082011115610d3857600080fd5b80359060200191846020830284011164010000000083111715610d5a57600080fd5b919080806020026020016040519081016040528093929190818152602001838360200280828437600081840152601f19601f82011690508083019250505050505050919291929050505061238e565b005b348015610db757600080fd5b50610dfa60048036036020811015610dce57600080fd5b81019080803573ffffffffffffffffffffffffffffffffffffffff16906020019092919050505061265d565b005b6000610e3e83836040518060400160405280601e81526020017f536166654d6174683a207375627472616374696f6e206f766572666c6f770000815250612868565b905092915050565b6000818310610e555781610e57565b825b905092915050565b600080828401905083811015610edd576040517f08c379a000000000000000000000000000000000000000000000000000000000815260040180806020018281038252601b8152602001807f536166654d6174683a206164646974696f6e206f766572666c6f77000000000081525060200191505060405180910390fd5b8091505092915050565b600080831415610efa5760009050610f67565b6000828402905082848281610f0b57fe5b0414610f62576040517f08c379a0000000000000000000000000000000000000000000000000000000008152600401808060200182810382526021815260200180612a156021913960400191505060405180910390fd5b809150505b92915050565b6000610faf83836040518060400160405280601a81526020017f536166654d6174683a206469766973696f6e206279207a65726f000000000000815250612928565b905092915050565b600033905090565b610fc7610fb7565b73ffffffffffffffffffffffffffffffffffffffff1660008054906101000a900473ffffffffffffffffffffffffffffffffffffffff1673ffffffffffffffffffffffffffffffffffffffff1614611087576040517f08c379a00000000000000000000000000000000000000000000000000000000081526004018080602001828103825260208152602001807f4f776e61626c653a2063616c6c6572206973206e6f7420746865206f776e657281525060200191505060405180910390fd5b600d60149054906101000a900460ff16611109576040517f08c379a00000000000000000000000000000000000000000000000000000000081526004018080602001828103825260168152602001807f50726573616c65206973206e6f74206163746976652e0000000000000000000081525060200191505060405180910390fd5b600d60159054906101000a900460ff16156111235761116b565b6001600d60156101000a81548160ff0219169083151502179055507fdfaff554968db66063477800c978b0271d5c136d3ae02d666a135c37bde6441b60405160405180910390a15b565b6000600354905090565b6000600b60009054906101000a900473ffffffffffffffffffffffffffffffffffffffff16905090565b6000600c60009054906101000a900473ffffffffffffffffffffffffffffffffffffffff16905090565b600a81565b6000600e60008373ffffffffffffffffffffffffffffffffffffffff1673ffffffffffffffffffffffffffffffffffffffff16815260200190815260200160002060009054906101000a900460ff169050919050565b683635c9adc5dea0000081565b6000600d60009054906101000a900473ffffffffffffffffffffffffffffffffffffffff16905090565b6856bc75e2d63100000081565b6000600d60149054906101000a900460ff16905090565b6000600d60169054906101000a900460ff16905090565b603281565b6112a5610fb7565b73ffffffffffffffffffffffffffffffffffffffff1660008054906101000a900473ffffffffffffffffffffffffffffffffffffffff1673ffffffffffffffffffffffffffffffffffffffff1614611365576040517f08c379a00000000000000000000000000000000000000000000000000000000081526004018080602001828103825260208152602001807f4f776e61626c653a2063616c6c6572206973206e6f7420746865206f776e657281525060200191505060405180910390fd5b600073ffffffffffffffffffffffffffffffffffffffff1660008054906101000a900473ffffffffffffffffffffffffffffffffffffffff1673ffffffffffffffffffffffffffffffffffffffff167f8be0079c531659141344cd1fd0a4f28419497f9722a3daafe3b4186f6b6457e060405160405180910390a360008060006101000a81548173ffffffffffffffffffffffffffffffffffffffff021916908373ffffffffffffffffffffffffffffffffffffffff160217905550565b6000600a60009054906101000a900473ffffffffffffffffffffffffffffffffffffffff16905090565b6000600254905090565b61145f610fb7565b73ffffffffffffffffffffffffffffffffffffffff1660008054906101000a900473ffffffffffffffffffffffffffffffffffffffff1673ffffffffffffffffffffffffffffffffffffffff161461151f576040517f08c379a00000000000000000000000000000000000000000000000000000000081526004018080602001828103825260208152602001807f4f776e61626c653a2063616c6c6572206973206e6f7420746865206f776e657281525060200191505060405180910390fd5b600d60149054906101000a900460ff166115a1576040517f08c379a00000000000000000000000000000000000000000000000000000000081526004018080602001828103825260168152602001807f50726573616c65206973206e6f74206163746976652e0000000000000000000081525060200191505060405180910390fd5b6000600860009054906101000a900473ffffffffffffffffffffffffffffffffffffffff169050600047905060006115f660646115e8603285610ee790919063ffffffff16565b610f6d90919063ffffffff16565b9050600960009054906101000a900473ffffffffffffffffffffffffffffffffffffffff1673ffffffffffffffffffffffffffffffffffffffff1663f09a401682600860009054906101000a900473ffffffffffffffffffffffffffffffffffffffff16600b60009054906101000a900473ffffffffffffffffffffffffffffffffffffffff166040518463ffffffff1660e01b8152600401808373ffffffffffffffffffffffffffffffffffffffff1681526020018273ffffffffffffffffffffffffffffffffffffffff168152602001925050506000604051808303818588803b1580156116e557600080fd5b505af11580156116f9573d6000803e3d6000fd5b505050505060006117276064611719600a86610ee790919063ffffffff16565b610f6d90919063ffffffff16565b9050600061175a670de0b6b3a764000061174c86600754610ee790919063ffffffff16565b610f6d90919063ffffffff16565b90508473ffffffffffffffffffffffffffffffffffffffff1663095ea7b3600b60009054906101000a900473ffffffffffffffffffffffffffffffffffffffff16836040518363ffffffff1660e01b8152600401808373ffffffffffffffffffffffffffffffffffffffff16815260200182815260200192505050602060405180830381600087803b1580156117ef57600080fd5b505af1158015611803573d6000803e3d6000fd5b505050506040513d602081101561181957600080fd5b810190808051906020019092919050505050600b60009054906101000a900473ffffffffffffffffffffffffffffffffffffffff1673ffffffffffffffffffffffffffffffffffffffff1663f305d71983600860009054906101000a900473ffffffffffffffffffffffffffffffffffffffff16848587600a60009054906101000a900473ffffffffffffffffffffffffffffffffffffffff16426040518863ffffffff1660e01b8152600401808773ffffffffffffffffffffffffffffffffffffffff1681526020018681526020018581526020018481526020018373ffffffffffffffffffffffffffffffffffffffff16815260200182815260200196505050505050506060604051808303818588803b15801561193857600080fd5b505af115801561194c573d6000803e3d6000fd5b50505050506040513d606081101561196357600080fd5b8101908080519060200190929190805190602001909291908051906020019092919050505050505060006119b2846119a48588610dfc90919063ffffffff16565b610dfc90919063ffffffff16565b90508673ffffffffffffffffffffffffffffffffffffffff166108fc829081150290604051600060405180830381858888f193505050501580156119fa573d6000803e3d6000fd5b508573ffffffffffffffffffffffffffffffffffffffff1663a9059cbb600c60009054906101000a900473ffffffffffffffffffffffffffffffffffffffff16683635c9adc5dea000006040518363ffffffff1660e01b8152600401808373ffffffffffffffffffffffffffffffffffffffff16815260200182815260200192505050602060405180830381600087803b158015611a9757600080fd5b505af1158015611aab573d6000803e3d6000fd5b505050506040513d6020811015611ac157600080fd5b8101908080519060200190929190505050508573ffffffffffffffffffffffffffffffffffffffff1663a9059cbb600d60009054906101000a900473ffffffffffffffffffffffffffffffffffffffff166856bc75e2d6310000006040518363ffffffff1660e01b8152600401808373ffffffffffffffffffffffffffffffffffffffff16815260200182815260200192505050602060405180830381600087803b158015611b6f57600080fd5b505af1158015611b83573d6000803e3d6000fd5b505050506040513d6020811015611b9957600080fd5b8101908080519060200190929190505050508573ffffffffffffffffffffffffffffffffffffffff1663aa2d9f0b6040518163ffffffff1660e01b8152600401600060405180830381600087803b158015611bf357600080fd5b505af1158015611c07573d6000803e3d6000fd5b505050506000600d60146101000a81548160ff0219169083151502179055506001600d60166101000a81548160ff0219169083151502179055507f1eb1561f8507eb9bc6988331f66f369e75710f2b4b678ad5b4a52454b6636f5f60405160405180910390a150505050505050565b60008060009054906101000a900473ffffffffffffffffffffffffffffffffffffffff16905090565b6000600d60159054906101000a900460ff16905090565b6000600860009054906101000a900473ffffffffffffffffffffffffffffffffffffffff16905090565b611ce8610fb7565b73ffffffffffffffffffffffffffffffffffffffff1660008054906101000a900473ffffffffffffffffffffffffffffffffffffffff1673ffffffffffffffffffffffffffffffffffffffff1614611da8576040517f08c379a00000000000000000000000000000000000000000000000000000000081526004018080602001828103825260208152602001807f4f776e61626c653a2063616c6c6572206973206e6f7420746865206f776e657281525060200191505060405180910390fd5b600d60149054906101000a900460ff1615611e2b576040517f08c379a00000000000000000000000000000000000000000000000000000000081526004018080602001828103825260128152602001807f50726573616c65206973206163746976652e000000000000000000000000000081525060200191505060405180910390fd5b600d60169054906101000a900460ff1615611eae576040517f08c379a00000000000000000000000000000000000000000000000000000000081526004018080602001828103825260128152602001807f50726573616c652077617320656e6465642e000000000000000000000000000081525060200191505060405180910390fd5b8760008173ffffffffffffffffffffffffffffffffffffffff166370a08231306040518263ffffffff1660e01b8152600401808273ffffffffffffffffffffffffffffffffffffffff16815260200191505060206040518083038186803b158015611f1857600080fd5b505afa158015611f2c573d6000803e3d6000fd5b505050506040513d6020811015611f4257600080fd5b810190808051906020019092919050505090506000611fb26856bc75e2d631000000611fa4683635c9adc5dea00000611f96680176b344f2a78c0000682086ac351052600000610e5f90919063ffffffff16565b610e5f90919063ffffffff16565b610e5f90919063ffffffff16565b90508082101561202a576040517f08c379a00000000000000000000000000000000000000000000000000000000081526004018080602001828103825260148152602001807f496e73756666696369656e7420737570706c792e00000000000000000000000081525060200191505060405180910390fd5b6001600d60146101000a81548160ff0219169083151502179055508c6001819055508b60038190555061206a600354600154610f6d90919063ffffffff16565b6004819055506120a860015461209a670de0b6b3a7640000682086ac351052600000610ee790919063ffffffff16565b610f6d90919063ffffffff16565b6006819055506120e66001546120d8670de0b6b3a7640000680176b344f2a78c0000610ee790919063ffffffff16565b610f6d90919063ffffffff16565b6007819055508a600860006101000a81548173ffffffffffffffffffffffffffffffffffffffff021916908373ffffffffffffffffffffffffffffffffffffffff16021790555089600960006101000a81548173ffffffffffffffffffffffffffffffffffffffff021916908373ffffffffffffffffffffffffffffffffffffffff16021790555088600a60006101000a81548173ffffffffffffffffffffffffffffffffffffffff021916908373ffffffffffffffffffffffffffffffffffffffff16021790555087600b60006101000a81548173ffffffffffffffffffffffffffffffffffffffff021916908373ffffffffffffffffffffffffffffffffffffffff16021790555086600c60006101000a81548173ffffffffffffffffffffffffffffffffffffffff021916908373ffffffffffffffffffffffffffffffffffffffff16021790555085600d60006101000a81548173ffffffffffffffffffffffffffffffffffffffff021916908373ffffffffffffffffffffffffffffffffffffffff1602179055506122bc858580806020026020016040519081016040528093929190818152602001838360200280828437600081840152601f19601f8201169050808301925050505050505061238e565b7f17c3338141363aab2512c08f8a7764328ca95979f7057663eb93f7e250139b4c60405160405180910390a150505050505050505050505050565b680176b344f2a78c000081565b6000600960009054906101000a900473ffffffffffffffffffffffffffffffffffffffff16905090565b682086ac35105260000081565b6000600f60008373ffffffffffffffffffffffffffffffffffffffff1673ffffffffffffffffffffffffffffffffffffffff168152602001908152602001600020549050919050565b6000600154905090565b612396610fb7565b73ffffffffffffffffffffffffffffffffffffffff1660008054906101000a900473ffffffffffffffffffffffffffffffffffffffff1673ffffffffffffffffffffffffffffffffffffffff1614612456576040517f08c379a00000000000000000000000000000000000000000000000000000000081526004018080602001828103825260208152602001807f4f776e61626c653a2063616c6c6572206973206e6f7420746865206f776e657281525060200191505060405180910390fd5b600d60149054906101000a900460ff166124d8576040517f08c379a00000000000000000000000000000000000000000000000000000000081526004018080602001828103825260168152602001807f50726573616c65206973206e6f74206163746976652e0000000000000000000081525060200191505060405180910390fd5b60005b8151811015612659576000600e60008484815181106124f657fe5b602002602001015173ffffffffffffffffffffffffffffffffffffffff1673ffffffffffffffffffffffffffffffffffffffff16815260200190815260200160002060009054906101000a900460ff1690508015612554575061264c565b600454600554106125cd576040517f08c379a00000000000000000000000000000000000000000000000000000000081526004018080602001828103825260198152602001807f4d617820636f6e7472696275746f727320726561636865642e0000000000000081525060200191505060405180910390fd5b6005600081548092919060010191905055506001600e60008585815181106125f157fe5b602002602001015173ffffffffffffffffffffffffffffffffffffffff1673ffffffffffffffffffffffffffffffffffffffff16815260200190815260200160002060006101000a81548160ff021916908315150217905550505b80806001019150506124db565b5050565b612665610fb7565b73ffffffffffffffffffffffffffffffffffffffff1660008054906101000a900473ffffffffffffffffffffffffffffffffffffffff1673ffffffffffffffffffffffffffffffffffffffff1614612725576040517f08c379a00000000000000000000000000000000000000000000000000000000081526004018080602001828103825260208152602001807f4f776e61626c653a2063616c6c6572206973206e6f7420746865206f776e657281525060200191505060405180910390fd5b600073ffffffffffffffffffffffffffffffffffffffff168173ffffffffffffffffffffffffffffffffffffffff1614156127ab576040517f08c379a00000000000000000000000000000000000000000000000000000000081526004018080602001828103825260268152602001806129ef6026913960400191505060405180910390fd5b8073ffffffffffffffffffffffffffffffffffffffff1660008054906101000a900473ffffffffffffffffffffffffffffffffffffffff1673ffffffffffffffffffffffffffffffffffffffff167f8be0079c531659141344cd1fd0a4f28419497f9722a3daafe3b4186f6b6457e060405160405180910390a3806000806101000a81548173ffffffffffffffffffffffffffffffffffffffff021916908373ffffffffffffffffffffffffffffffffffffffff16021790555050565b6000838311158290612915576040517f08c379a00000000000000000000000000000000000000000000000000000000081526004018080602001828103825283818151815260200191508051906020019080838360005b838110156128da5780820151818401526020810190506128bf565b50505050905090810190601f1680156129075780820380516001836020036101000a031916815260200191505b509250505060405180910390fd5b5060008385039050809150509392505050565b600080831182906129d4576040517f08c379a00000000000000000000000000000000000000000000000000000000081526004018080602001828103825283818151815260200191508051906020019080838360005b8381101561299957808201518184015260208101905061297e565b50505050905090810190601f1680156129c65780820380516001836020036101000a031916815260200191505b509250505060405180910390fd5b5060008385816129e057fe5b04905080915050939250505056fe4f776e61626c653a206e6577206f776e657220697320746865207a65726f2061646472657373536166654d6174683a206d756c7469706c69636174696f6e206f766572666c6f77a2646970667358221220658ecd63139da88d18a0abe7589e11b1caf55021c39a6a50d2ab95b444e0c03a64736f6c634300060c0033",
  "immutableReferences": {},
  "source": "// SPDX-License-Identifier: MIT\npragma solidity >=0.4.22 <0.9.0;\n\nimport \"./interfaces/IBuyback.sol\";\nimport \"./interfaces/IPresale.sol\";\nimport \"./interfaces/IToken.sol\";\nimport \"./interfaces/IUniswapV2Router02.sol\";\nimport \"@openzeppelin/contracts/access/Ownable.sol\";\nimport \"@openzeppelin/contracts/token/ERC20/IERC20.sol\";\nimport \"@openzeppelin/contracts/math/SafeMath.sol\";\nimport \"@openzeppelin/contracts/math/Math.sol\";\n\ncontract Presale is Ownable, IPresale {\n    event PresaleStarted();\n    event FcfsActivated();\n    event PresaleEnded();\n    event ContributionAccepted(address indexed _contributor, uint256 _contribution, uint256 _receivedTokens);\n    event ContributionRefunded(address indexed _contributor, uint256 _contribution);\n\n    using SafeMath for uint256;\n\n    uint256 public constant BUYBACK_ALLOCATION_PERCENT = 50;\n    uint256 public constant LIQUIDITY_ALLOCATION_PERCENT = 10;\n    uint256 public constant PRESALE_MAX_SUPPLY = 600 * 10**18; // if 600 eth collected, otherwise leftover burned\n    uint256 public constant LIQUIDITY_MAX_SUPPLY = 27 * 10**18; // if 600 eth collected (360 eth for liquidity), otherwise leftover burned\n    uint256 public constant RC_FARM_SUPPLY = 1000 * 10**18;\n    uint256 public constant RC_ETH_FARM_SUPPLY = 1600 * 10**18;\n\n    uint256 private hardcap;\n    uint256 private collected;\n    uint256 private maxContribution;\n    uint256 private maxContributorsCount;\n    uint256 private contributorsCount;\n    uint256 private contributorTokensPerCollectedEth;\n    uint256 private liquidityTokensPerCollectedEth;\n    address private token;\n    address private buyback;\n    address private liquidityLock;\n    address private uniswapRouter;\n    address private rcFarm;\n    address private rcEthFarm;\n    bool private isPresaleActiveFlag;\n    bool private isFcfsActiveFlag;\n    bool private wasPresaleEndedFlag;\n    mapping(address => bool) private contributors;\n    mapping(address => uint256) private contributions;\n\n    modifier presaleActive() {\n        require(isPresaleActiveFlag, \"Presale is not active.\");\n        _;\n    }\n\n    modifier presaleNotActive() {\n        require(!isPresaleActiveFlag, \"Presale is active.\");\n        _;\n    }\n\n    modifier presaleNotEnded() {\n        require(!wasPresaleEndedFlag, \"Presale was ended.\");\n        _;\n    }\n\n    modifier sufficientSupply(address _token) {\n        uint256 supply = IERC20(_token).balanceOf(address(this));\n        uint256 minSupply = PRESALE_MAX_SUPPLY.add(LIQUIDITY_MAX_SUPPLY).add(RC_FARM_SUPPLY).add(RC_ETH_FARM_SUPPLY);\n        require(supply >= minSupply, \"Insufficient supply.\");\n        _;\n    }\n\n    modifier senderEligibleToContribute() {\n        require(isFcfsActiveFlag || contributors[msg.sender], \"Not eligible to participate.\");\n        _;\n    }\n\n    function tokenAddress() external view override returns (address) {\n        return token;\n    }\n\n    function buybackAddress() external view override returns (address) {\n        return buyback;\n    }\n\n    function liquidityLockAddress() external view override returns (address) {\n        return liquidityLock;\n    }\n\n    function uniswapRouterAddress() external view override returns (address) {\n        return uniswapRouter;\n    }\n\n    function rcFarmAddress() external view override returns (address) {\n        return rcFarm;\n    }\n\n    function rcEthFarmAddress() external view override returns (address) {\n        return rcEthFarm;\n    }\n\n    function collectedAmount() external view override returns (uint256) {\n        return collected;\n    }\n\n    function hardcapAmount() external view override returns (uint256) {\n        return hardcap;\n    }\n\n    function maxContributionAmount() external view override returns (uint256) {\n        return maxContribution;\n    }\n\n    function isPresaleActive() external view override returns (bool) {\n        return isPresaleActiveFlag;\n    }\n\n    function isFcfsActive() external view override returns (bool) {\n        return isFcfsActiveFlag;\n    }\n\n    function wasPresaleEnded() external view override returns (bool) {\n        return wasPresaleEndedFlag;\n    }\n\n    function isWhitelisted(address _contributor) external view override returns (bool) {\n        return contributors[_contributor];\n    }\n\n    function contribution(address _contributor) external view override returns (uint256) {\n        return contributions[_contributor];\n    }\n\n    function addContributors(address[] memory _contributors) public override onlyOwner presaleActive {\n        for (uint256 i; i < _contributors.length; i++) {\n            bool isAlreadyAdded = contributors[_contributors[i]];\n            if (isAlreadyAdded) {\n                continue;\n            }\n            require(contributorsCount < maxContributorsCount, \"Max contributors reached.\");\n            contributorsCount++;\n            contributors[_contributors[i]] = true;\n        }\n    }\n\n    function start(\n        uint256 _hardcap,\n        uint256 _maxContribution,\n        address _token,\n        address _buyback,\n        address _liquidityLock,\n        address _uniswapRouter,\n        address _rcFarm,\n        address _rcEthFarm,\n        address[] calldata _contributors\n    ) external override onlyOwner presaleNotActive presaleNotEnded sufficientSupply(_token) {\n        isPresaleActiveFlag = true;\n        hardcap = _hardcap;\n        maxContribution = _maxContribution;\n        maxContributorsCount = hardcap.div(maxContribution);\n        contributorTokensPerCollectedEth = PRESALE_MAX_SUPPLY.mul(10**18).div(hardcap);\n        liquidityTokensPerCollectedEth = LIQUIDITY_MAX_SUPPLY.mul(10**18).div(hardcap);\n        token = _token;\n        buyback = _buyback;\n        liquidityLock = _liquidityLock;\n        uniswapRouter = _uniswapRouter;\n        rcFarm = _rcFarm;\n        rcEthFarm = _rcEthFarm;\n        addContributors(_contributors);\n        emit PresaleStarted();\n    }\n\n    function activateFcfs() external override onlyOwner presaleActive {\n        if (isFcfsActiveFlag) {\n            return;\n        }\n        isFcfsActiveFlag = true;\n        emit FcfsActivated();\n    }\n\n    function end(address payable _team) external override onlyOwner presaleActive {\n        IToken rollerCoaster = IToken(token);\n        uint256 totalCollected = address(this).balance;\n\n        // calculate buyback and execute it\n        uint256 buybackEths = totalCollected.mul(BUYBACK_ALLOCATION_PERCENT).div(100);\n        IBuyback(buyback).init{ value: buybackEths }(token, uniswapRouter);\n    \n        // calculate liquidity share\n        uint256 liquidityEths = totalCollected.mul(LIQUIDITY_ALLOCATION_PERCENT).div(100);\n        uint256 liquidityTokens = liquidityTokensPerCollectedEth.mul(totalCollected).div(10**18);\n\n        // approve router and add liquidity\n        rollerCoaster.approve(uniswapRouter, liquidityTokens);\n        IUniswapV2Router02(uniswapRouter).addLiquidityETH{ value: liquidityEths }(\n            token,\n            liquidityTokens,\n            liquidityTokens,\n            liquidityEths,\n            liquidityLock,\n            block.timestamp\n        );\n\n        // transfer team share\n        uint256 teamEths = totalCollected.sub(liquidityEths).sub(buybackEths);\n        _team.transfer(teamEths);\n\n        // transfer farm shares\n        rollerCoaster.transfer(rcFarm, RC_FARM_SUPPLY);\n        rollerCoaster.transfer(rcEthFarm, RC_ETH_FARM_SUPPLY);\n\n        // burn the remaining balance and unlock token\n        rollerCoaster.burnDistributorTokensAndUnlock();\n\n        // end presale\n        isPresaleActiveFlag = false;\n        wasPresaleEndedFlag = true;\n        emit PresaleEnded();\n    }\n\n    receive() external payable presaleActive senderEligibleToContribute {\n        uint256 totalContributionLeft = PRESALE_MAX_SUPPLY.sub(collected);\n        uint256 senderContributionLeft = maxContribution.sub(contributions[msg.sender]);\n        uint256 contributionLeft = Math.min(totalContributionLeft, senderContributionLeft);\n\n        uint256 valueToAccept = Math.min(msg.value, contributionLeft);\n        if (valueToAccept > 0) {\n            collected = collected.add(valueToAccept);\n            contributions[msg.sender] = contributions[msg.sender].add(valueToAccept);\n\n            uint256 tokensToTransfer = contributorTokensPerCollectedEth.mul(valueToAccept).div(10**18);\n            IERC20(token).transfer(msg.sender, tokensToTransfer);\n\n            emit ContributionAccepted(msg.sender, valueToAccept, tokensToTransfer);\n        }\n\n        uint256 valueToRefund = msg.value.sub(valueToAccept);\n        if (valueToRefund > 0) {\n            _msgSender().transfer(valueToRefund);\n\n            emit ContributionRefunded(msg.sender, valueToRefund);\n        }\n    }\n}\n",
  "sourcePath": "/home/keso/projects/crypto/rollercoaster-token/contracts/Presale.sol",
  "compiler": {
    "name": "solc",
    "version": "0.6.12+commit.27d51765.Emscripten.clang"
  },
  "schemaVersion": "3.3.3",
  "updatedAt": "2021-02-03T01:03:17.200Z",
  "networkType": "ethereum",
  "devdoc": {
    "kind": "dev",
    "methods": {
      "owner()": {
        "details": "Returns the address of the current owner."
      },
      "renounceOwnership()": {
        "details": "Leaves the contract without owner. It will not be possible to call `onlyOwner` functions anymore. Can only be called by the current owner. NOTE: Renouncing ownership will leave the contract without an owner, thereby removing any functionality that is only available to the owner."
      },
      "transferOwnership(address)": {
        "details": "Transfers ownership of the contract to a new account (`newOwner`). Can only be called by the current owner."
      }
    },
    "version": 1
  },
  "userdoc": {
    "kind": "user",
    "methods": {},
    "version": 1
  }
}