{
  "contractName": "Presale",
  "abi": [
    {
      "anonymous": false,
      "inputs": [
        {
          "indexed": true,
          "internalType": "address",
          "name": "previousOwner",
          "type": "address"
        },
        {
          "indexed": true,
          "internalType": "address",
          "name": "newOwner",
          "type": "address"
        }
      ],
      "name": "OwnershipTransferred",
      "type": "event"
    },
    {
      "inputs": [],
      "name": "LIQUIDITY_ALLOCATION_PERCENT",
      "outputs": [
        {
          "internalType": "uint256",
          "name": "",
          "type": "uint256"
        }
      ],
      "stateMutability": "view",
      "type": "function"
    },
    {
      "inputs": [],
      "name": "LIQUIDITY_MAX_SUPPLY",
      "outputs": [
        {
          "internalType": "uint256",
          "name": "",
          "type": "uint256"
        }
      ],
      "stateMutability": "view",
      "type": "function"
    },
    {
      "inputs": [],
      "name": "PRESALE_MAX_SUPPLY",
      "outputs": [
        {
          "internalType": "uint256",
          "name": "",
          "type": "uint256"
        }
      ],
      "stateMutability": "view",
      "type": "function"
    },
    {
      "inputs": [],
      "name": "RC_ETH_FARM_SUPPLY",
      "outputs": [
        {
          "internalType": "uint256",
          "name": "",
          "type": "uint256"
        }
      ],
      "stateMutability": "view",
      "type": "function"
    },
    {
      "inputs": [],
      "name": "RC_FARM_SUPPLY",
      "outputs": [
        {
          "internalType": "uint256",
          "name": "",
          "type": "uint256"
        }
      ],
      "stateMutability": "view",
      "type": "function"
    },
    {
      "inputs": [],
      "name": "owner",
      "outputs": [
        {
          "internalType": "address",
          "name": "",
          "type": "address"
        }
      ],
      "stateMutability": "view",
      "type": "function"
    },
    {
      "inputs": [],
      "name": "renounceOwnership",
      "outputs": [],
      "stateMutability": "nonpayable",
      "type": "function"
    },
    {
      "inputs": [
        {
          "internalType": "address",
          "name": "newOwner",
          "type": "address"
        }
      ],
      "name": "transferOwnership",
      "outputs": [],
      "stateMutability": "nonpayable",
      "type": "function"
    },
    {
      "stateMutability": "payable",
      "type": "receive"
    },
    {
      "inputs": [],
      "name": "tokenAddress",
      "outputs": [
        {
          "internalType": "address",
          "name": "",
          "type": "address"
        }
      ],
      "stateMutability": "view",
      "type": "function"
    },
    {
      "inputs": [],
      "name": "liquidityLockAddress",
      "outputs": [
        {
          "internalType": "address",
          "name": "",
          "type": "address"
        }
      ],
      "stateMutability": "view",
      "type": "function"
    },
    {
      "inputs": [],
      "name": "uniswapRouterAddress",
      "outputs": [
        {
          "internalType": "address",
          "name": "",
          "type": "address"
        }
      ],
      "stateMutability": "view",
      "type": "function"
    },
    {
      "inputs": [],
      "name": "rcFarmAddress",
      "outputs": [
        {
          "internalType": "address",
          "name": "",
          "type": "address"
        }
      ],
      "stateMutability": "view",
      "type": "function"
    },
    {
      "inputs": [],
      "name": "rcEthFarmAddress",
      "outputs": [
        {
          "internalType": "address",
          "name": "",
          "type": "address"
        }
      ],
      "stateMutability": "view",
      "type": "function"
    },
    {
      "inputs": [],
      "name": "collectedAmount",
      "outputs": [
        {
          "internalType": "uint256",
          "name": "",
          "type": "uint256"
        }
      ],
      "stateMutability": "view",
      "type": "function"
    },
    {
      "inputs": [],
      "name": "hardcapAmount",
      "outputs": [
        {
          "internalType": "uint256",
          "name": "",
          "type": "uint256"
        }
      ],
      "stateMutability": "view",
      "type": "function"
    },
    {
      "inputs": [],
      "name": "maxContributionAmount",
      "outputs": [
        {
          "internalType": "uint256",
          "name": "",
          "type": "uint256"
        }
      ],
      "stateMutability": "view",
      "type": "function"
    },
    {
      "inputs": [],
      "name": "isPresaleActive",
      "outputs": [
        {
          "internalType": "bool",
          "name": "",
          "type": "bool"
        }
      ],
      "stateMutability": "view",
      "type": "function"
    },
    {
      "inputs": [],
      "name": "isFcfsActive",
      "outputs": [
        {
          "internalType": "bool",
          "name": "",
          "type": "bool"
        }
      ],
      "stateMutability": "view",
      "type": "function"
    },
    {
      "inputs": [],
      "name": "wasPresaleEnded",
      "outputs": [
        {
          "internalType": "bool",
          "name": "",
          "type": "bool"
        }
      ],
      "stateMutability": "view",
      "type": "function"
    },
    {
      "inputs": [
        {
          "internalType": "address",
          "name": "_contributor",
          "type": "address"
        }
      ],
      "name": "isWhitelisted",
      "outputs": [
        {
          "internalType": "bool",
          "name": "",
          "type": "bool"
        }
      ],
      "stateMutability": "view",
      "type": "function"
    },
    {
      "inputs": [
        {
          "internalType": "address",
          "name": "_contributor",
          "type": "address"
        }
      ],
      "name": "contribution",
      "outputs": [
        {
          "internalType": "uint256",
          "name": "",
          "type": "uint256"
        }
      ],
      "stateMutability": "view",
      "type": "function"
    },
    {
      "inputs": [
        {
          "internalType": "address[]",
          "name": "_contributors",
          "type": "address[]"
        }
      ],
      "name": "addContributors",
      "outputs": [],
      "stateMutability": "nonpayable",
      "type": "function"
    },
    {
      "inputs": [
        {
          "internalType": "uint256",
          "name": "_hardcap",
          "type": "uint256"
        },
        {
          "internalType": "uint256",
          "name": "_maxContribution",
          "type": "uint256"
        },
        {
          "internalType": "address",
          "name": "_token",
          "type": "address"
        },
        {
          "internalType": "address",
          "name": "_liquidityLock",
          "type": "address"
        },
        {
          "internalType": "address",
          "name": "_uniswapRouter",
          "type": "address"
        },
        {
          "internalType": "address",
          "name": "_rcFarm",
          "type": "address"
        },
        {
          "internalType": "address",
          "name": "_rcEthFarm",
          "type": "address"
        },
        {
          "internalType": "address[]",
          "name": "_contributors",
          "type": "address[]"
        }
      ],
      "name": "start",
      "outputs": [],
      "stateMutability": "nonpayable",
      "type": "function"
    },
    {
      "inputs": [],
      "name": "activateFcfs",
      "outputs": [],
      "stateMutability": "nonpayable",
      "type": "function"
    },
    {
      "inputs": [
        {
          "internalType": "address payable",
          "name": "_team",
          "type": "address"
        }
      ],
      "name": "end",
      "outputs": [],
      "stateMutability": "nonpayable",
      "type": "function"
    }
  ],
  "bytecode": "0x608060405234801561001057600080fd5b5060006100216100c460201b60201c565b9050806000806101000a81548173ffffffffffffffffffffffffffffffffffffffff021916908373ffffffffffffffffffffffffffffffffffffffff1602179055508073ffffffffffffffffffffffffffffffffffffffff16600073ffffffffffffffffffffffffffffffffffffffff167f8be0079c531659141344cd1fd0a4f28419497f9722a3daafe3b4186f6b6457e060405160405180910390a3506100cc565b600033905090565b6126b9806100db6000396000f3fe60806040526004361061016a5760003560e01c806376042c0a116100d1578063b7768e4f1161008a578063e2dc431011610064578063e2dc431014610af8578063e709ddbb14610b5d578063f049071514610b88578063f2fde38b14610c4d57610598565b8063b7768e4f14610967578063b90c39e614610992578063e1b6e09814610acd57610598565b806376042c0a146107fb578063802c6ee51461083c5780638c4dd39d146108675780638da5cb5b146108b857806394e81571146108f95780639d76ea581461092657610598565b80633b692132116101235780633b692132146106f35780634647df6f1461071e5780634ec351a41461075f57806360d938dc1461078a57806362c82325146107b7578063715018a6146107e457610598565b806316a3b3b11461059d57806319cc1ec4146105b457806320ca3c7f146105df57806328007d76146106205780632ea91f36146106615780633af32abf1461068c57610598565b3661059857600c60149054906101000a900460ff166101f1576040517f08c379a00000000000000000000000000000000000000000000000000000000081526004018080602001828103825260168152602001807f50726573616c65206973206e6f74206163746976652e0000000000000000000081525060200191505060405180910390fd5b600c60159054906101000a900460ff16806102555750600d60003373ffffffffffffffffffffffffffffffffffffffff1673ffffffffffffffffffffffffffffffffffffffff16815260200190815260200160002060009054906101000a900460ff165b6102c7576040517f08c379a000000000000000000000000000000000000000000000000000000000815260040180806020018281038252601c8152602001807f4e6f7420656c696769626c6520746f2070617274696369706174652e0000000081525060200191505060405180910390fd5b60006102e7600254682086ac351052600000610c9e90919063ffffffff16565b9050600061033f600e60003373ffffffffffffffffffffffffffffffffffffffff1673ffffffffffffffffffffffffffffffffffffffff16815260200190815260200160002054600354610c9e90919063ffffffff16565b9050600061034d8383610ce8565b9050600061035b3483610ce8565b9050348110156103cc57600061037a8234610c9e90919063ffffffff16565b9050610384610d01565b73ffffffffffffffffffffffffffffffffffffffff166108fc829081150290604051600060405180830381858888f193505050501580156103c9573d6000803e3d6000fd5b50505b60008114156103de5750505050610596565b6103f381600254610d0990919063ffffffff16565b60028190555061044b81600e60003373ffffffffffffffffffffffffffffffffffffffff1673ffffffffffffffffffffffffffffffffffffffff16815260200190815260200160002054610d0990919063ffffffff16565b600e60003373ffffffffffffffffffffffffffffffffffffffff1673ffffffffffffffffffffffffffffffffffffffff1681526020019081526020016000208190555060006104bf670de0b6b3a76400006104b184600654610d9190919063ffffffff16565b610e1790919063ffffffff16565b9050600860009054906101000a900473ffffffffffffffffffffffffffffffffffffffff1673ffffffffffffffffffffffffffffffffffffffff1663a9059cbb33836040518363ffffffff1660e01b8152600401808373ffffffffffffffffffffffffffffffffffffffff16815260200182815260200192505050602060405180830381600087803b15801561055457600080fd5b505af1158015610568573d6000803e3d6000fd5b505050506040513d602081101561057e57600080fd5b81019080805190602001909291905050505050505050505b005b600080fd5b3480156105a957600080fd5b506105b2610e61565b005b3480156105c057600080fd5b506105c9610fc8565b6040518082815260200191505060405180910390f35b3480156105eb57600080fd5b506105f4610fd2565b604051808273ffffffffffffffffffffffffffffffffffffffff16815260200191505060405180910390f35b34801561062c57600080fd5b50610635610ffc565b604051808273ffffffffffffffffffffffffffffffffffffffff16815260200191505060405180910390f35b34801561066d57600080fd5b50610676611026565b6040518082815260200191505060405180910390f35b34801561069857600080fd5b506106db600480360360208110156106af57600080fd5b81019080803573ffffffffffffffffffffffffffffffffffffffff16906020019092919050505061102b565b60405180821515815260200191505060405180910390f35b3480156106ff57600080fd5b50610708611081565b6040518082815260200191505060405180910390f35b34801561072a57600080fd5b5061073361108e565b604051808273ffffffffffffffffffffffffffffffffffffffff16815260200191505060405180910390f35b34801561076b57600080fd5b506107746110b8565b6040518082815260200191505060405180910390f35b34801561079657600080fd5b5061079f6110c5565b60405180821515815260200191505060405180910390f35b3480156107c357600080fd5b506107cc6110dc565b60405180821515815260200191505060405180910390f35b3480156107f057600080fd5b506107f96110f3565b005b34801561080757600080fd5b50610810611279565b604051808273ffffffffffffffffffffffffffffffffffffffff16815260200191505060405180910390f35b34801561084857600080fd5b506108516112a3565b6040518082815260200191505060405180910390f35b34801561087357600080fd5b506108b66004803603602081101561088a57600080fd5b81019080803573ffffffffffffffffffffffffffffffffffffffff1690602001909291905050506112ad565b005b3480156108c457600080fd5b506108cd61195c565b604051808273ffffffffffffffffffffffffffffffffffffffff16815260200191505060405180910390f35b34801561090557600080fd5b5061090e611985565b60405180821515815260200191505060405180910390f35b34801561093257600080fd5b5061093b61199c565b604051808273ffffffffffffffffffffffffffffffffffffffff16815260200191505060405180910390f35b34801561097357600080fd5b5061097c6119c6565b6040518082815260200191505060405180910390f35b34801561099e57600080fd5b50610acb60048036036101008110156109b657600080fd5b810190808035906020019092919080359060200190929190803573ffffffffffffffffffffffffffffffffffffffff169060200190929190803573ffffffffffffffffffffffffffffffffffffffff169060200190929190803573ffffffffffffffffffffffffffffffffffffffff169060200190929190803573ffffffffffffffffffffffffffffffffffffffff169060200190929190803573ffffffffffffffffffffffffffffffffffffffff16906020019092919080359060200190640100000000811115610a8757600080fd5b820183602082011115610a9957600080fd5b80359060200191846020830284011164010000000083111715610abb57600080fd5b90919293919293905050506119d3565b005b348015610ad957600080fd5b50610ae2611f7c565b6040518082815260200191505060405180910390f35b348015610b0457600080fd5b50610b4760048036036020811015610b1b57600080fd5b81019080803573ffffffffffffffffffffffffffffffffffffffff169060200190929190505050611f89565b6040518082815260200191505060405180910390f35b348015610b6957600080fd5b50610b72611fd2565b6040518082815260200191505060405180910390f35b348015610b9457600080fd5b50610c4b60048036036020811015610bab57600080fd5b8101908080359060200190640100000000811115610bc857600080fd5b820183602082011115610bda57600080fd5b80359060200191846020830284011164010000000083111715610bfc57600080fd5b919080806020026020016040519081016040528093929190818152602001838360200280828437600081840152601f19601f820116905080830192505050505050509192919290505050611fdc565b005b348015610c5957600080fd5b50610c9c60048036036020811015610c7057600080fd5b81019080803573ffffffffffffffffffffffffffffffffffffffff1690602001909291905050506122ab565b005b6000610ce083836040518060400160405280601e81526020017f536166654d6174683a207375627472616374696f6e206f766572666c6f7700008152506124b6565b905092915050565b6000818310610cf75781610cf9565b825b905092915050565b600033905090565b600080828401905083811015610d87576040517f08c379a000000000000000000000000000000000000000000000000000000000815260040180806020018281038252601b8152602001807f536166654d6174683a206164646974696f6e206f766572666c6f77000000000081525060200191505060405180910390fd5b8091505092915050565b600080831415610da45760009050610e11565b6000828402905082848281610db557fe5b0414610e0c576040517f08c379a00000000000000000000000000000000000000000000000000000000081526004018080602001828103825260218152602001806126636021913960400191505060405180910390fd5b809150505b92915050565b6000610e5983836040518060400160405280601a81526020017f536166654d6174683a206469766973696f6e206279207a65726f000000000000815250612576565b905092915050565b610e69610d01565b73ffffffffffffffffffffffffffffffffffffffff1660008054906101000a900473ffffffffffffffffffffffffffffffffffffffff1673ffffffffffffffffffffffffffffffffffffffff1614610f29576040517f08c379a00000000000000000000000000000000000000000000000000000000081526004018080602001828103825260208152602001807f4f776e61626c653a2063616c6c6572206973206e6f7420746865206f776e657281525060200191505060405180910390fd5b600c60149054906101000a900460ff16610fab576040517f08c379a00000000000000000000000000000000000000000000000000000000081526004018080602001828103825260168152602001807f50726573616c65206973206e6f74206163746976652e0000000000000000000081525060200191505060405180910390fd5b6001600c60156101000a81548160ff021916908315150217905550565b6000600354905090565b6000600a60009054906101000a900473ffffffffffffffffffffffffffffffffffffffff16905090565b6000600b60009054906101000a900473ffffffffffffffffffffffffffffffffffffffff16905090565b603c81565b6000600d60008373ffffffffffffffffffffffffffffffffffffffff1673ffffffffffffffffffffffffffffffffffffffff16815260200190815260200160002060009054906101000a900460ff169050919050565b683635c9adc5dea0000081565b6000600c60009054906101000a900473ffffffffffffffffffffffffffffffffffffffff16905090565b6856bc75e2d63100000081565b6000600c60149054906101000a900460ff16905090565b6000600c60169054906101000a900460ff16905090565b6110fb610d01565b73ffffffffffffffffffffffffffffffffffffffff1660008054906101000a900473ffffffffffffffffffffffffffffffffffffffff1673ffffffffffffffffffffffffffffffffffffffff16146111bb576040517f08c379a00000000000000000000000000000000000000000000000000000000081526004018080602001828103825260208152602001807f4f776e61626c653a2063616c6c6572206973206e6f7420746865206f776e657281525060200191505060405180910390fd5b600073ffffffffffffffffffffffffffffffffffffffff1660008054906101000a900473ffffffffffffffffffffffffffffffffffffffff1673ffffffffffffffffffffffffffffffffffffffff167f8be0079c531659141344cd1fd0a4f28419497f9722a3daafe3b4186f6b6457e060405160405180910390a360008060006101000a81548173ffffffffffffffffffffffffffffffffffffffff021916908373ffffffffffffffffffffffffffffffffffffffff160217905550565b6000600960009054906101000a900473ffffffffffffffffffffffffffffffffffffffff16905090565b6000600254905090565b6112b5610d01565b73ffffffffffffffffffffffffffffffffffffffff1660008054906101000a900473ffffffffffffffffffffffffffffffffffffffff1673ffffffffffffffffffffffffffffffffffffffff1614611375576040517f08c379a00000000000000000000000000000000000000000000000000000000081526004018080602001828103825260208152602001807f4f776e61626c653a2063616c6c6572206973206e6f7420746865206f776e657281525060200191505060405180910390fd5b600c60149054906101000a900460ff166113f7576040517f08c379a00000000000000000000000000000000000000000000000000000000081526004018080602001828103825260168152602001807f50726573616c65206973206e6f74206163746976652e0000000000000000000081525060200191505060405180910390fd5b6000600860009054906101000a900473ffffffffffffffffffffffffffffffffffffffff1690506000479050600061144c606461143e603c85610d9190919063ffffffff16565b610e1790919063ffffffff16565b9050600061147f670de0b6b3a764000061147185600754610d9190919063ffffffff16565b610e1790919063ffffffff16565b90508373ffffffffffffffffffffffffffffffffffffffff1663095ea7b3600a60009054906101000a900473ffffffffffffffffffffffffffffffffffffffff16836040518363ffffffff1660e01b8152600401808373ffffffffffffffffffffffffffffffffffffffff16815260200182815260200192505050602060405180830381600087803b15801561151457600080fd5b505af1158015611528573d6000803e3d6000fd5b505050506040513d602081101561153e57600080fd5b810190808051906020019092919050505050600a60009054906101000a900473ffffffffffffffffffffffffffffffffffffffff1673ffffffffffffffffffffffffffffffffffffffff1663f305d71983600860009054906101000a900473ffffffffffffffffffffffffffffffffffffffff16848587600960009054906101000a900473ffffffffffffffffffffffffffffffffffffffff16426040518863ffffffff1660e01b8152600401808773ffffffffffffffffffffffffffffffffffffffff1681526020018681526020018581526020018481526020018373ffffffffffffffffffffffffffffffffffffffff16815260200182815260200196505050505050506060604051808303818588803b15801561165d57600080fd5b505af1158015611671573d6000803e3d6000fd5b50505050506040513d606081101561168857600080fd5b8101908080519060200190929190805190602001909291908051906020019092919050505050505060006116c58385610c9e90919063ffffffff16565b90508573ffffffffffffffffffffffffffffffffffffffff166108fc829081150290604051600060405180830381858888f1935050505015801561170d573d6000803e3d6000fd5b508473ffffffffffffffffffffffffffffffffffffffff1663a9059cbb600b60009054906101000a900473ffffffffffffffffffffffffffffffffffffffff16683635c9adc5dea000006040518363ffffffff1660e01b8152600401808373ffffffffffffffffffffffffffffffffffffffff16815260200182815260200192505050602060405180830381600087803b1580156117aa57600080fd5b505af11580156117be573d6000803e3d6000fd5b505050506040513d60208110156117d457600080fd5b8101908080519060200190929190505050508473ffffffffffffffffffffffffffffffffffffffff1663a9059cbb600c60009054906101000a900473ffffffffffffffffffffffffffffffffffffffff166856bc75e2d6310000006040518363ffffffff1660e01b8152600401808373ffffffffffffffffffffffffffffffffffffffff16815260200182815260200192505050602060405180830381600087803b15801561188257600080fd5b505af1158015611896573d6000803e3d6000fd5b505050506040513d60208110156118ac57600080fd5b8101908080519060200190929190505050508473ffffffffffffffffffffffffffffffffffffffff1663aa2d9f0b6040518163ffffffff1660e01b8152600401600060405180830381600087803b15801561190657600080fd5b505af115801561191a573d6000803e3d6000fd5b505050506000600c60146101000a81548160ff0219169083151502179055506001600c60166101000a81548160ff021916908315150217905550505050505050565b60008060009054906101000a900473ffffffffffffffffffffffffffffffffffffffff16905090565b6000600c60159054906101000a900460ff16905090565b6000600860009054906101000a900473ffffffffffffffffffffffffffffffffffffffff16905090565b6808c8339dafed48000081565b6119db610d01565b73ffffffffffffffffffffffffffffffffffffffff1660008054906101000a900473ffffffffffffffffffffffffffffffffffffffff1673ffffffffffffffffffffffffffffffffffffffff1614611a9b576040517f08c379a00000000000000000000000000000000000000000000000000000000081526004018080602001828103825260208152602001807f4f776e61626c653a2063616c6c6572206973206e6f7420746865206f776e657281525060200191505060405180910390fd5b600c60149054906101000a900460ff1615611b1e576040517f08c379a00000000000000000000000000000000000000000000000000000000081526004018080602001828103825260128152602001807f50726573616c65206973206163746976652e000000000000000000000000000081525060200191505060405180910390fd5b600c60169054906101000a900460ff1615611ba1576040517f08c379a00000000000000000000000000000000000000000000000000000000081526004018080602001828103825260128152602001807f50726573616c652077617320656e6465642e000000000000000000000000000081525060200191505060405180910390fd5b8660008173ffffffffffffffffffffffffffffffffffffffff166370a08231306040518263ffffffff1660e01b8152600401808273ffffffffffffffffffffffffffffffffffffffff16815260200191505060206040518083038186803b158015611c0b57600080fd5b505afa158015611c1f573d6000803e3d6000fd5b505050506040513d6020811015611c3557600080fd5b810190808051906020019092919050505090506000611ca56856bc75e2d631000000611c97683635c9adc5dea00000611c896808c8339dafed480000682086ac351052600000610d0990919063ffffffff16565b610d0990919063ffffffff16565b610d0990919063ffffffff16565b905080821015611d1d576040517f08c379a00000000000000000000000000000000000000000000000000000000081526004018080602001828103825260148152602001807f496e73756666696369656e7420737570706c792e00000000000000000000000081525060200191505060405180910390fd5b6001600c60146101000a81548160ff0219169083151502179055508b6001819055508a600381905550611d5d600354600154610e1790919063ffffffff16565b600481905550611d9b600154611d8d670de0b6b3a7640000682086ac351052600000610d9190919063ffffffff16565b610e1790919063ffffffff16565b600681905550611dd9600154611dcb670de0b6b3a76400006808c8339dafed480000610d9190919063ffffffff16565b610e1790919063ffffffff16565b60078190555089600860006101000a81548173ffffffffffffffffffffffffffffffffffffffff021916908373ffffffffffffffffffffffffffffffffffffffff16021790555088600960006101000a81548173ffffffffffffffffffffffffffffffffffffffff021916908373ffffffffffffffffffffffffffffffffffffffff16021790555087600a60006101000a81548173ffffffffffffffffffffffffffffffffffffffff021916908373ffffffffffffffffffffffffffffffffffffffff16021790555086600b60006101000a81548173ffffffffffffffffffffffffffffffffffffffff021916908373ffffffffffffffffffffffffffffffffffffffff16021790555085600c60006101000a81548173ffffffffffffffffffffffffffffffffffffffff021916908373ffffffffffffffffffffffffffffffffffffffff160217905550611f6e858580806020026020016040519081016040528093929190818152602001838360200280828437600081840152601f19601f82011690508083019250505050505050611fdc565b505050505050505050505050565b682086ac35105260000081565b6000600e60008373ffffffffffffffffffffffffffffffffffffffff1673ffffffffffffffffffffffffffffffffffffffff168152602001908152602001600020549050919050565b6000600154905090565b611fe4610d01565b73ffffffffffffffffffffffffffffffffffffffff1660008054906101000a900473ffffffffffffffffffffffffffffffffffffffff1673ffffffffffffffffffffffffffffffffffffffff16146120a4576040517f08c379a00000000000000000000000000000000000000000000000000000000081526004018080602001828103825260208152602001807f4f776e61626c653a2063616c6c6572206973206e6f7420746865206f776e657281525060200191505060405180910390fd5b600c60149054906101000a900460ff16612126576040517f08c379a00000000000000000000000000000000000000000000000000000000081526004018080602001828103825260168152602001807f50726573616c65206973206e6f74206163746976652e0000000000000000000081525060200191505060405180910390fd5b60005b81518110156122a7576000600d600084848151811061214457fe5b602002602001015173ffffffffffffffffffffffffffffffffffffffff1673ffffffffffffffffffffffffffffffffffffffff16815260200190815260200160002060009054906101000a900460ff16905080156121a2575061229a565b6004546005541061221b576040517f08c379a00000000000000000000000000000000000000000000000000000000081526004018080602001828103825260198152602001807f4d617820636f6e7472696275746f727320726561636865642e0000000000000081525060200191505060405180910390fd5b6005600081548092919060010191905055506001600d600085858151811061223f57fe5b602002602001015173ffffffffffffffffffffffffffffffffffffffff1673ffffffffffffffffffffffffffffffffffffffff16815260200190815260200160002060006101000a81548160ff021916908315150217905550505b8080600101915050612129565b5050565b6122b3610d01565b73ffffffffffffffffffffffffffffffffffffffff1660008054906101000a900473ffffffffffffffffffffffffffffffffffffffff1673ffffffffffffffffffffffffffffffffffffffff1614612373576040517f08c379a00000000000000000000000000000000000000000000000000000000081526004018080602001828103825260208152602001807f4f776e61626c653a2063616c6c6572206973206e6f7420746865206f776e657281525060200191505060405180910390fd5b600073ffffffffffffffffffffffffffffffffffffffff168173ffffffffffffffffffffffffffffffffffffffff1614156123f9576040517f08c379a000000000000000000000000000000000000000000000000000000000815260040180806020018281038252602681526020018061263d6026913960400191505060405180910390fd5b8073ffffffffffffffffffffffffffffffffffffffff1660008054906101000a900473ffffffffffffffffffffffffffffffffffffffff1673ffffffffffffffffffffffffffffffffffffffff167f8be0079c531659141344cd1fd0a4f28419497f9722a3daafe3b4186f6b6457e060405160405180910390a3806000806101000a81548173ffffffffffffffffffffffffffffffffffffffff021916908373ffffffffffffffffffffffffffffffffffffffff16021790555050565b6000838311158290612563576040517f08c379a00000000000000000000000000000000000000000000000000000000081526004018080602001828103825283818151815260200191508051906020019080838360005b8381101561252857808201518184015260208101905061250d565b50505050905090810190601f1680156125555780820380516001836020036101000a031916815260200191505b509250505060405180910390fd5b5060008385039050809150509392505050565b60008083118290612622576040517f08c379a00000000000000000000000000000000000000000000000000000000081526004018080602001828103825283818151815260200191508051906020019080838360005b838110156125e75780820151818401526020810190506125cc565b50505050905090810190601f1680156126145780820380516001836020036101000a031916815260200191505b509250505060405180910390fd5b50600083858161262e57fe5b04905080915050939250505056fe4f776e61626c653a206e6577206f776e657220697320746865207a65726f2061646472657373536166654d6174683a206d756c7469706c69636174696f6e206f766572666c6f77a2646970667358221220ce580d8eecca65b76cf5d26685ec79b07cf0b737a47ba470f50e670cc88a7f4464736f6c634300060c0033",
  "immutableReferences": {},
  "source": "// SPDX-License-Identifier: MIT\npragma solidity >=0.4.22 <0.9.0;\n\nimport \"./interfaces/IPresale.sol\";\nimport \"./interfaces/IToken.sol\";\nimport \"./interfaces/IUniswapV2Router02.sol\";\nimport \"@openzeppelin/contracts/access/Ownable.sol\";\nimport \"@openzeppelin/contracts/token/ERC20/IERC20.sol\";\nimport \"@openzeppelin/contracts/math/SafeMath.sol\";\nimport \"@openzeppelin/contracts/math/Math.sol\";\n\ncontract Presale is Ownable, IPresale {\n    using SafeMath for uint256;\n\n    uint256 public constant LIQUIDITY_ALLOCATION_PERCENT = 60;\n    uint256 public constant PRESALE_MAX_SUPPLY = 600 * 10**18; // if 600 eth collected, otherwise leftover burned\n    uint256 public constant LIQUIDITY_MAX_SUPPLY = 162 * 10**18; // if 600 eth collected (360 eth for liquidity), otherwise leftover burned\n    uint256 public constant RC_FARM_SUPPLY = 1000 * 10**18;\n    uint256 public constant RC_ETH_FARM_SUPPLY = 1600 * 10**18;\n\n    uint256 private hardcap;\n    uint256 private collected;\n    uint256 private maxContribution;\n    uint256 private maxContributorsCount;\n    uint256 private contributorsCount;\n    uint256 private contributorTokensPerCollectedEth;\n    uint256 private liquidityTokensPerCollectedEth;\n    address private token;\n    address private liquidityLock;\n    address private uniswapRouter;\n    address private rcFarm;\n    address private rcEthFarm;\n    bool private isPresaleActiveFlag;\n    bool private isFcfsActiveFlag;\n    bool private wasPresaleEndedFlag;\n    mapping(address => bool) private contributors;\n    mapping(address => uint256) private contributions;\n\n    modifier presaleActive() {\n        require(isPresaleActiveFlag, \"Presale is not active.\");\n        _;\n    }\n\n    modifier presaleNotActive() {\n        require(!isPresaleActiveFlag, \"Presale is active.\");\n        _;\n    }\n\n    modifier presaleNotEnded() {\n        require(!wasPresaleEndedFlag, \"Presale was ended.\");\n        _;\n    }\n\n    modifier sufficientSupply(address _token) {\n        uint256 supply = IERC20(_token).balanceOf(address(this));\n        uint256 minSupply = PRESALE_MAX_SUPPLY.add(LIQUIDITY_MAX_SUPPLY).add(RC_FARM_SUPPLY).add(RC_ETH_FARM_SUPPLY);\n        require(supply >= minSupply, \"Insufficient supply.\");\n        _;\n    }\n\n    modifier senderEligibleToContribute() {\n        require(isFcfsActiveFlag || contributors[msg.sender], \"Not eligible to participate.\");\n        _;\n    }\n\n    function tokenAddress() external view override returns (address) {\n        return token;\n    }\n\n    function liquidityLockAddress() external view override returns (address) {\n        return liquidityLock;\n    }\n\n    function uniswapRouterAddress() external view override returns (address) {\n        return uniswapRouter;\n    }\n\n    function rcFarmAddress() external view override returns (address) {\n        return rcFarm;\n    }\n\n    function rcEthFarmAddress() external view override returns (address) {\n        return rcEthFarm;\n    }\n\n    function collectedAmount() external view override returns (uint256) {\n        return collected;\n    }\n\n    function hardcapAmount() external view override returns (uint256) {\n        return hardcap;\n    }\n\n    function maxContributionAmount() external view override returns (uint256) {\n        return maxContribution;\n    }\n\n    function isPresaleActive() external view override returns (bool) {\n        return isPresaleActiveFlag;\n    }\n\n    function isFcfsActive() external view override returns (bool) {\n        return isFcfsActiveFlag;\n    }\n\n    function wasPresaleEnded() external view override returns (bool) {\n        return wasPresaleEndedFlag;\n    }\n\n    function isWhitelisted(address _contributor) external view override returns (bool) {\n        return contributors[_contributor];\n    }\n\n    function contribution(address _contributor) external view override returns (uint256) {\n        return contributions[_contributor];\n    }\n\n    function addContributors(address[] memory _contributors) public override onlyOwner presaleActive {\n        for (uint256 i; i < _contributors.length; i++) {\n            bool isAlreadyAdded = contributors[_contributors[i]];\n            if (isAlreadyAdded) {\n                continue;\n            }\n            require(contributorsCount < maxContributorsCount, \"Max contributors reached.\");\n            contributorsCount++;\n            contributors[_contributors[i]] = true;\n        }\n    }\n\n    function start(\n        uint256 _hardcap,\n        uint256 _maxContribution,\n        address _token,\n        address _liquidityLock,\n        address _uniswapRouter,\n        address _rcFarm,\n        address _rcEthFarm,\n        address[] calldata _contributors\n    ) external override onlyOwner presaleNotActive presaleNotEnded sufficientSupply(_token) {\n        isPresaleActiveFlag = true;\n        hardcap = _hardcap;\n        maxContribution = _maxContribution;\n        maxContributorsCount = hardcap.div(maxContribution);\n        contributorTokensPerCollectedEth = PRESALE_MAX_SUPPLY.mul(10**18).div(hardcap);\n        liquidityTokensPerCollectedEth = LIQUIDITY_MAX_SUPPLY.mul(10**18).div(hardcap);\n        token = _token;\n        liquidityLock = _liquidityLock;\n        uniswapRouter = _uniswapRouter;\n        rcFarm = _rcFarm;\n        rcEthFarm = _rcEthFarm;\n        addContributors(_contributors);\n    }\n\n    function activateFcfs() external override onlyOwner presaleActive {\n        isFcfsActiveFlag = true;\n    }\n\n    function end(address payable _team) external override onlyOwner presaleActive {\n        IToken rollerCoaster = IToken(token);\n\n        // calculate liquidity share\n        uint256 totalCollected = address(this).balance;\n        uint256 liquidityEths = totalCollected.mul(LIQUIDITY_ALLOCATION_PERCENT).div(100);\n        uint256 liquidityTokens = liquidityTokensPerCollectedEth.mul(totalCollected).div(10**18);\n\n        // approve router and add liquidity\n        rollerCoaster.approve(uniswapRouter, liquidityTokens);\n        IUniswapV2Router02(uniswapRouter).addLiquidityETH{ value: liquidityEths }(\n            token,\n            liquidityTokens,\n            liquidityTokens,\n            liquidityEths,\n            liquidityLock,\n            block.timestamp\n        );\n\n        // transfer team share\n        uint256 teamEths = totalCollected.sub(liquidityEths);\n        _team.transfer(teamEths);\n\n        // transfer farm shares\n        rollerCoaster.transfer(rcFarm, RC_FARM_SUPPLY);\n        rollerCoaster.transfer(rcEthFarm, RC_ETH_FARM_SUPPLY);\n\n        // burn the remaining balance and unlock token\n        rollerCoaster.burnDistributorTokensAndUnlock();\n\n        // end presale\n        isPresaleActiveFlag = false;\n        wasPresaleEndedFlag = true;\n    }\n\n    receive() external payable presaleActive senderEligibleToContribute {\n        uint256 totalContributionLeft = PRESALE_MAX_SUPPLY.sub(collected);\n        uint256 senderContributionLeft = maxContribution.sub(contributions[msg.sender]);\n        uint256 contributionLeft = Math.min(totalContributionLeft, senderContributionLeft);\n\n        uint256 valueToAccept = Math.min(msg.value, contributionLeft);\n        if (valueToAccept < msg.value) {\n            uint256 valueToReturn = msg.value.sub(valueToAccept);\n            _msgSender().transfer(valueToReturn);\n        }\n\n        if (valueToAccept == 0) {\n            return;\n        }\n\n        collected = collected.add(valueToAccept);\n        contributions[msg.sender] = contributions[msg.sender].add(valueToAccept);\n\n        uint256 tokensToTransfer = contributorTokensPerCollectedEth.mul(valueToAccept).div(10**18);\n        IERC20(token).transfer(msg.sender, tokensToTransfer);\n    }\n}\n",
  "sourcePath": "/home/keso/projects/crypto/rollercoaster-token/contracts/Presale.sol",
  "compiler": {
    "name": "solc",
    "version": "0.6.12+commit.27d51765.Emscripten.clang"
  },
  "schemaVersion": "3.3.3",
  "updatedAt": "2021-02-01T23:09:13.943Z",
  "devdoc": {
    "kind": "dev",
    "methods": {
      "owner()": {
        "details": "Returns the address of the current owner."
      },
      "renounceOwnership()": {
        "details": "Leaves the contract without owner. It will not be possible to call `onlyOwner` functions anymore. Can only be called by the current owner. NOTE: Renouncing ownership will leave the contract without an owner, thereby removing any functionality that is only available to the owner."
      },
      "transferOwnership(address)": {
        "details": "Transfers ownership of the contract to a new account (`newOwner`). Can only be called by the current owner."
      }
    },
    "version": 1
  },
  "userdoc": {
    "kind": "user",
    "methods": {},
    "version": 1
  }
}