{
  "contractName": "Presale",
  "abi": [
    {
      "anonymous": false,
      "inputs": [
        {
          "indexed": true,
          "internalType": "address",
          "name": "_contributor",
          "type": "address"
        },
        {
          "indexed": false,
          "internalType": "uint256",
          "name": "_contribution",
          "type": "uint256"
        },
        {
          "indexed": false,
          "internalType": "uint256",
          "name": "_receivedTokens",
          "type": "uint256"
        },
        {
          "indexed": false,
          "internalType": "uint256",
          "name": "_contributions",
          "type": "uint256"
        }
      ],
      "name": "ContributionAccepted",
      "type": "event"
    },
    {
      "anonymous": false,
      "inputs": [
        {
          "indexed": true,
          "internalType": "address",
          "name": "_contributor",
          "type": "address"
        },
        {
          "indexed": false,
          "internalType": "uint256",
          "name": "_contribution",
          "type": "uint256"
        }
      ],
      "name": "ContributionRefunded",
      "type": "event"
    },
    {
      "anonymous": false,
      "inputs": [],
      "name": "FcfsActivated",
      "type": "event"
    },
    {
      "anonymous": false,
      "inputs": [
        {
          "indexed": true,
          "internalType": "address",
          "name": "previousOwner",
          "type": "address"
        },
        {
          "indexed": true,
          "internalType": "address",
          "name": "newOwner",
          "type": "address"
        }
      ],
      "name": "OwnershipTransferred",
      "type": "event"
    },
    {
      "anonymous": false,
      "inputs": [],
      "name": "PresaleEnded",
      "type": "event"
    },
    {
      "anonymous": false,
      "inputs": [],
      "name": "PresaleStarted",
      "type": "event"
    },
    {
      "inputs": [],
      "name": "BUYBACK_ALLOCATION_PERCENT",
      "outputs": [
        {
          "internalType": "uint256",
          "name": "",
          "type": "uint256"
        }
      ],
      "stateMutability": "view",
      "type": "function",
      "constant": true
    },
    {
      "inputs": [],
      "name": "LIQUIDITY_ALLOCATION_PERCENT",
      "outputs": [
        {
          "internalType": "uint256",
          "name": "",
          "type": "uint256"
        }
      ],
      "stateMutability": "view",
      "type": "function",
      "constant": true
    },
    {
      "inputs": [],
      "name": "LIQUIDITY_MAX_SUPPLY",
      "outputs": [
        {
          "internalType": "uint256",
          "name": "",
          "type": "uint256"
        }
      ],
      "stateMutability": "view",
      "type": "function",
      "constant": true
    },
    {
      "inputs": [],
      "name": "PRESALE_MAX_SUPPLY",
      "outputs": [
        {
          "internalType": "uint256",
          "name": "",
          "type": "uint256"
        }
      ],
      "stateMutability": "view",
      "type": "function",
      "constant": true
    },
    {
      "inputs": [],
      "name": "RC_ETH_FARM_SUPPLY",
      "outputs": [
        {
          "internalType": "uint256",
          "name": "",
          "type": "uint256"
        }
      ],
      "stateMutability": "view",
      "type": "function",
      "constant": true
    },
    {
      "inputs": [],
      "name": "RC_FARM_SUPPLY",
      "outputs": [
        {
          "internalType": "uint256",
          "name": "",
          "type": "uint256"
        }
      ],
      "stateMutability": "view",
      "type": "function",
      "constant": true
    },
    {
      "inputs": [],
      "name": "owner",
      "outputs": [
        {
          "internalType": "address",
          "name": "",
          "type": "address"
        }
      ],
      "stateMutability": "view",
      "type": "function",
      "constant": true
    },
    {
      "inputs": [],
      "name": "renounceOwnership",
      "outputs": [],
      "stateMutability": "nonpayable",
      "type": "function"
    },
    {
      "inputs": [
        {
          "internalType": "address",
          "name": "newOwner",
          "type": "address"
        }
      ],
      "name": "transferOwnership",
      "outputs": [],
      "stateMutability": "nonpayable",
      "type": "function"
    },
    {
      "stateMutability": "payable",
      "type": "receive",
      "payable": true
    },
    {
      "inputs": [],
      "name": "getMaxSupply",
      "outputs": [
        {
          "internalType": "uint256",
          "name": "",
          "type": "uint256"
        }
      ],
      "stateMutability": "view",
      "type": "function",
      "constant": true
    },
    {
      "inputs": [],
      "name": "tokenAddress",
      "outputs": [
        {
          "internalType": "address",
          "name": "",
          "type": "address"
        }
      ],
      "stateMutability": "view",
      "type": "function",
      "constant": true
    },
    {
      "inputs": [],
      "name": "buybackAddress",
      "outputs": [
        {
          "internalType": "address",
          "name": "",
          "type": "address"
        }
      ],
      "stateMutability": "view",
      "type": "function",
      "constant": true
    },
    {
      "inputs": [],
      "name": "liquidityLockAddress",
      "outputs": [
        {
          "internalType": "address",
          "name": "",
          "type": "address"
        }
      ],
      "stateMutability": "view",
      "type": "function",
      "constant": true
    },
    {
      "inputs": [],
      "name": "uniswapRouterAddress",
      "outputs": [
        {
          "internalType": "address",
          "name": "",
          "type": "address"
        }
      ],
      "stateMutability": "view",
      "type": "function",
      "constant": true
    },
    {
      "inputs": [],
      "name": "rcFarmAddress",
      "outputs": [
        {
          "internalType": "address",
          "name": "",
          "type": "address"
        }
      ],
      "stateMutability": "view",
      "type": "function",
      "constant": true
    },
    {
      "inputs": [],
      "name": "rcEthFarmAddress",
      "outputs": [
        {
          "internalType": "address",
          "name": "",
          "type": "address"
        }
      ],
      "stateMutability": "view",
      "type": "function",
      "constant": true
    },
    {
      "inputs": [],
      "name": "collectedAmount",
      "outputs": [
        {
          "internalType": "uint256",
          "name": "",
          "type": "uint256"
        }
      ],
      "stateMutability": "view",
      "type": "function",
      "constant": true
    },
    {
      "inputs": [],
      "name": "hardcapAmount",
      "outputs": [
        {
          "internalType": "uint256",
          "name": "",
          "type": "uint256"
        }
      ],
      "stateMutability": "view",
      "type": "function",
      "constant": true
    },
    {
      "inputs": [],
      "name": "maxContributionAmount",
      "outputs": [
        {
          "internalType": "uint256",
          "name": "",
          "type": "uint256"
        }
      ],
      "stateMutability": "view",
      "type": "function",
      "constant": true
    },
    {
      "inputs": [],
      "name": "isPresaleActive",
      "outputs": [
        {
          "internalType": "bool",
          "name": "",
          "type": "bool"
        }
      ],
      "stateMutability": "view",
      "type": "function",
      "constant": true
    },
    {
      "inputs": [],
      "name": "isFcfsActive",
      "outputs": [
        {
          "internalType": "bool",
          "name": "",
          "type": "bool"
        }
      ],
      "stateMutability": "view",
      "type": "function",
      "constant": true
    },
    {
      "inputs": [],
      "name": "wasPresaleEnded",
      "outputs": [
        {
          "internalType": "bool",
          "name": "",
          "type": "bool"
        }
      ],
      "stateMutability": "view",
      "type": "function",
      "constant": true
    },
    {
      "inputs": [
        {
          "internalType": "address",
          "name": "_contributor",
          "type": "address"
        }
      ],
      "name": "isWhitelisted",
      "outputs": [
        {
          "internalType": "bool",
          "name": "",
          "type": "bool"
        }
      ],
      "stateMutability": "view",
      "type": "function",
      "constant": true
    },
    {
      "inputs": [
        {
          "internalType": "address",
          "name": "_contributor",
          "type": "address"
        }
      ],
      "name": "contribution",
      "outputs": [
        {
          "internalType": "uint256",
          "name": "",
          "type": "uint256"
        }
      ],
      "stateMutability": "view",
      "type": "function",
      "constant": true
    },
    {
      "inputs": [
        {
          "internalType": "address[]",
          "name": "_contributors",
          "type": "address[]"
        }
      ],
      "name": "addContributors",
      "outputs": [],
      "stateMutability": "nonpayable",
      "type": "function"
    },
    {
      "inputs": [
        {
          "internalType": "uint256",
          "name": "_hardcap",
          "type": "uint256"
        },
        {
          "internalType": "uint256",
          "name": "_maxContribution",
          "type": "uint256"
        },
        {
          "internalType": "address",
          "name": "_token",
          "type": "address"
        },
        {
          "internalType": "address",
          "name": "_buyback",
          "type": "address"
        },
        {
          "internalType": "address",
          "name": "_liquidityLock",
          "type": "address"
        },
        {
          "internalType": "address",
          "name": "_uniswapRouter",
          "type": "address"
        },
        {
          "internalType": "address",
          "name": "_rcFarm",
          "type": "address"
        },
        {
          "internalType": "address",
          "name": "_rcEthFarm",
          "type": "address"
        },
        {
          "internalType": "address[]",
          "name": "_contributors",
          "type": "address[]"
        }
      ],
      "name": "start",
      "outputs": [],
      "stateMutability": "nonpayable",
      "type": "function"
    },
    {
      "inputs": [],
      "name": "activateFcfs",
      "outputs": [],
      "stateMutability": "nonpayable",
      "type": "function"
    },
    {
      "inputs": [
        {
          "internalType": "address payable",
          "name": "_team",
          "type": "address"
        }
      ],
      "name": "end",
      "outputs": [],
      "stateMutability": "nonpayable",
      "type": "function"
    }
  ],
  "bytecode": "0x608060405234801561001057600080fd5b5060006100216100c460201b60201c565b9050806000806101000a81548173ffffffffffffffffffffffffffffffffffffffff021916908373ffffffffffffffffffffffffffffffffffffffff1602179055508073ffffffffffffffffffffffffffffffffffffffff16600073ffffffffffffffffffffffffffffffffffffffff167f8be0079c531659141344cd1fd0a4f28419497f9722a3daafe3b4186f6b6457e060405160405180910390a3506100cc565b600033905090565b612b3f80620000dc6000396000f3fe6080604052600436106101bb5760003560e01c806376042c0a116100ec578063b7768e4f1161008a578063e2dc431011610064578063e2dc431014610ca6578063e709ddbb14610d0b578063f049071514610d36578063f2fde38b14610dfb5761068f565b8063b7768e4f14610c0f578063cc2fbd6614610c3a578063e1b6e09814610c7b5761068f565b80638da5cb5b116100c65780638da5cb5b14610a0557806394e8157114610a465780639d76ea5814610a73578063a408c2eb14610ab45761068f565b806376042c0a14610948578063802c6ee5146109895780638c4dd39d146109b45761068f565b80634647df6f1161015957806360d938dc1161013357806360d938dc146108ac57806362c82325146108d957806364f5775814610906578063715018a6146109315761068f565b80634647df6f146108155780634c0f38c2146108565780634ec351a4146108815761068f565b806328007d761161019557806328007d76146107175780632ea91f36146107585780633af32abf146107835780633b692132146107ea5761068f565b806316a3b3b11461069457806319cc1ec4146106ab57806320ca3c7f146106d65761068f565b3661068f57600d60149054906101000a900460ff16610242576040517f08c379a00000000000000000000000000000000000000000000000000000000081526004018080602001828103825260168152602001807f50726573616c65206973206e6f74206163746976652e0000000000000000000081525060200191505060405180910390fd5b600d60159054906101000a900460ff16806102a65750600e60003373ffffffffffffffffffffffffffffffffffffffff1673ffffffffffffffffffffffffffffffffffffffff16815260200190815260200160002060009054906101000a900460ff165b610318576040517f08c379a000000000000000000000000000000000000000000000000000000000815260040180806020018281038252601c8152602001807f4e6f7420656c696769626c6520746f2070617274696369706174652e0000000081525060200191505060405180910390fd5b6000610338600254682086ac351052600000610e4c90919063ffffffff16565b90506000610390600f60003373ffffffffffffffffffffffffffffffffffffffff1673ffffffffffffffffffffffffffffffffffffffff16815260200190815260200160002054600354610e4c90919063ffffffff16565b9050600061039e8383610e96565b905060006103ac3483610e96565b905060008111156105cb576103cc81600254610eaf90919063ffffffff16565b60028190555061042481600f60003373ffffffffffffffffffffffffffffffffffffffff1673ffffffffffffffffffffffffffffffffffffffff16815260200190815260200160002054610eaf90919063ffffffff16565b600f60003373ffffffffffffffffffffffffffffffffffffffff1673ffffffffffffffffffffffffffffffffffffffff168152602001908152602001600020819055506000610498670de0b6b3a764000061048a84600654610f3790919063ffffffff16565b610fbd90919063ffffffff16565b9050600860009054906101000a900473ffffffffffffffffffffffffffffffffffffffff1673ffffffffffffffffffffffffffffffffffffffff1663a9059cbb33836040518363ffffffff1660e01b8152600401808373ffffffffffffffffffffffffffffffffffffffff16815260200182815260200192505050602060405180830381600087803b15801561052d57600080fd5b505af1158015610541573d6000803e3d6000fd5b505050506040513d602081101561055757600080fd5b8101908080519060200190929190505050503373ffffffffffffffffffffffffffffffffffffffff167ff65bb6bccc57dcf3fb5a90611e819f010f9c68f51876409469094a09d2adf70c838360025460405180848152602001838152602001828152602001935050505060405180910390a2505b60006105e08234610e4c90919063ffffffff16565b90506000811115610688576105f3611007565b73ffffffffffffffffffffffffffffffffffffffff166108fc829081150290604051600060405180830381858888f19350505050158015610638573d6000803e3d6000fd5b503373ffffffffffffffffffffffffffffffffffffffff167f2ef47cadc7e07ee6cea296446c8ca85ff6955693411d8868f7a04b6850034f08826040518082815260200191505060405180910390a25b5050505050005b600080fd5b3480156106a057600080fd5b506106a961100f565b005b3480156106b757600080fd5b506106c06111bd565b6040518082815260200191505060405180910390f35b3480156106e257600080fd5b506106eb6111c7565b604051808273ffffffffffffffffffffffffffffffffffffffff16815260200191505060405180910390f35b34801561072357600080fd5b5061072c6111f1565b604051808273ffffffffffffffffffffffffffffffffffffffff16815260200191505060405180910390f35b34801561076457600080fd5b5061076d61121b565b6040518082815260200191505060405180910390f35b34801561078f57600080fd5b506107d2600480360360208110156107a657600080fd5b81019080803573ffffffffffffffffffffffffffffffffffffffff169060200190929190505050611220565b60405180821515815260200191505060405180910390f35b3480156107f657600080fd5b506107ff611276565b6040518082815260200191505060405180910390f35b34801561082157600080fd5b5061082a611283565b604051808273ffffffffffffffffffffffffffffffffffffffff16815260200191505060405180910390f35b34801561086257600080fd5b5061086b6112ad565b6040518082815260200191505060405180910390f35b34801561088d57600080fd5b5061089661130f565b6040518082815260200191505060405180910390f35b3480156108b857600080fd5b506108c161131c565b60405180821515815260200191505060405180910390f35b3480156108e557600080fd5b506108ee611333565b60405180821515815260200191505060405180910390f35b34801561091257600080fd5b5061091b61134a565b6040518082815260200191505060405180910390f35b34801561093d57600080fd5b5061094661134f565b005b34801561095457600080fd5b5061095d6114d5565b604051808273ffffffffffffffffffffffffffffffffffffffff16815260200191505060405180910390f35b34801561099557600080fd5b5061099e6114ff565b6040518082815260200191505060405180910390f35b3480156109c057600080fd5b50610a03600480360360208110156109d757600080fd5b81019080803573ffffffffffffffffffffffffffffffffffffffff169060200190929190505050611509565b005b348015610a1157600080fd5b50610a1a611d4a565b604051808273ffffffffffffffffffffffffffffffffffffffff16815260200191505060405180910390f35b348015610a5257600080fd5b50610a5b611d73565b60405180821515815260200191505060405180910390f35b348015610a7f57600080fd5b50610a88611d8a565b604051808273ffffffffffffffffffffffffffffffffffffffff16815260200191505060405180910390f35b348015610ac057600080fd5b50610c0d6004803603610120811015610ad857600080fd5b810190808035906020019092919080359060200190929190803573ffffffffffffffffffffffffffffffffffffffff169060200190929190803573ffffffffffffffffffffffffffffffffffffffff169060200190929190803573ffffffffffffffffffffffffffffffffffffffff169060200190929190803573ffffffffffffffffffffffffffffffffffffffff169060200190929190803573ffffffffffffffffffffffffffffffffffffffff169060200190929190803573ffffffffffffffffffffffffffffffffffffffff16906020019092919080359060200190640100000000811115610bc957600080fd5b820183602082011115610bdb57600080fd5b80359060200191846020830284011164010000000083111715610bfd57600080fd5b9091929391929390505050611db4565b005b348015610c1b57600080fd5b50610c246123cb565b6040518082815260200191505060405180910390f35b348015610c4657600080fd5b50610c4f6123d8565b604051808273ffffffffffffffffffffffffffffffffffffffff16815260200191505060405180910390f35b348015610c8757600080fd5b50610c90612402565b6040518082815260200191505060405180910390f35b348015610cb257600080fd5b50610cf560048036036020811015610cc957600080fd5b81019080803573ffffffffffffffffffffffffffffffffffffffff16906020019092919050505061240f565b6040518082815260200191505060405180910390f35b348015610d1757600080fd5b50610d20612458565b6040518082815260200191505060405180910390f35b348015610d4257600080fd5b50610df960048036036020811015610d5957600080fd5b8101908080359060200190640100000000811115610d7657600080fd5b820183602082011115610d8857600080fd5b80359060200191846020830284011164010000000083111715610daa57600080fd5b919080806020026020016040519081016040528093929190818152602001838360200280828437600081840152601f19601f820116905080830192505050505050509192919290505050612462565b005b348015610e0757600080fd5b50610e4a60048036036020811015610e1e57600080fd5b81019080803573ffffffffffffffffffffffffffffffffffffffff169060200190929190505050612731565b005b6000610e8e83836040518060400160405280601e81526020017f536166654d6174683a207375627472616374696f6e206f766572666c6f77000081525061293c565b905092915050565b6000818310610ea55781610ea7565b825b905092915050565b600080828401905083811015610f2d576040517f08c379a000000000000000000000000000000000000000000000000000000000815260040180806020018281038252601b8152602001807f536166654d6174683a206164646974696f6e206f766572666c6f77000000000081525060200191505060405180910390fd5b8091505092915050565b600080831415610f4a5760009050610fb7565b6000828402905082848281610f5b57fe5b0414610fb2576040517f08c379a0000000000000000000000000000000000000000000000000000000008152600401808060200182810382526021815260200180612ae96021913960400191505060405180910390fd5b809150505b92915050565b6000610fff83836040518060400160405280601a81526020017f536166654d6174683a206469766973696f6e206279207a65726f0000000000008152506129fc565b905092915050565b600033905090565b611017611007565b73ffffffffffffffffffffffffffffffffffffffff1660008054906101000a900473ffffffffffffffffffffffffffffffffffffffff1673ffffffffffffffffffffffffffffffffffffffff16146110d7576040517f08c379a00000000000000000000000000000000000000000000000000000000081526004018080602001828103825260208152602001807f4f776e61626c653a2063616c6c6572206973206e6f7420746865206f776e657281525060200191505060405180910390fd5b600d60149054906101000a900460ff16611159576040517f08c379a00000000000000000000000000000000000000000000000000000000081526004018080602001828103825260168152602001807f50726573616c65206973206e6f74206163746976652e0000000000000000000081525060200191505060405180910390fd5b600d60159054906101000a900460ff1615611173576111bb565b6001600d60156101000a81548160ff0219169083151502179055507fdfaff554968db66063477800c978b0271d5c136d3ae02d666a135c37bde6441b60405160405180910390a15b565b6000600354905090565b6000600b60009054906101000a900473ffffffffffffffffffffffffffffffffffffffff16905090565b6000600c60009054906101000a900473ffffffffffffffffffffffffffffffffffffffff16905090565b600a81565b6000600e60008373ffffffffffffffffffffffffffffffffffffffff1673ffffffffffffffffffffffffffffffffffffffff16815260200190815260200160002060009054906101000a900460ff169050919050565b683635c9adc5dea0000081565b6000600d60009054906101000a900473ffffffffffffffffffffffffffffffffffffffff16905090565b600061130a6856bc75e2d6310000006112fc683635c9adc5dea000006112ee680176b344f2a78c0000682086ac351052600000610eaf90919063ffffffff16565b610eaf90919063ffffffff16565b610eaf90919063ffffffff16565b905090565b6856bc75e2d63100000081565b6000600d60149054906101000a900460ff16905090565b6000600d60169054906101000a900460ff16905090565b603281565b611357611007565b73ffffffffffffffffffffffffffffffffffffffff1660008054906101000a900473ffffffffffffffffffffffffffffffffffffffff1673ffffffffffffffffffffffffffffffffffffffff1614611417576040517f08c379a00000000000000000000000000000000000000000000000000000000081526004018080602001828103825260208152602001807f4f776e61626c653a2063616c6c6572206973206e6f7420746865206f776e657281525060200191505060405180910390fd5b600073ffffffffffffffffffffffffffffffffffffffff1660008054906101000a900473ffffffffffffffffffffffffffffffffffffffff1673ffffffffffffffffffffffffffffffffffffffff167f8be0079c531659141344cd1fd0a4f28419497f9722a3daafe3b4186f6b6457e060405160405180910390a360008060006101000a81548173ffffffffffffffffffffffffffffffffffffffff021916908373ffffffffffffffffffffffffffffffffffffffff160217905550565b6000600a60009054906101000a900473ffffffffffffffffffffffffffffffffffffffff16905090565b6000600254905090565b611511611007565b73ffffffffffffffffffffffffffffffffffffffff1660008054906101000a900473ffffffffffffffffffffffffffffffffffffffff1673ffffffffffffffffffffffffffffffffffffffff16146115d1576040517f08c379a00000000000000000000000000000000000000000000000000000000081526004018080602001828103825260208152602001807f4f776e61626c653a2063616c6c6572206973206e6f7420746865206f776e657281525060200191505060405180910390fd5b600d60149054906101000a900460ff16611653576040517f08c379a00000000000000000000000000000000000000000000000000000000081526004018080602001828103825260168152602001807f50726573616c65206973206e6f74206163746976652e0000000000000000000081525060200191505060405180910390fd5b6000600860009054906101000a900473ffffffffffffffffffffffffffffffffffffffff169050600047905060006116a8606461169a603285610f3790919063ffffffff16565b610fbd90919063ffffffff16565b9050600960009054906101000a900473ffffffffffffffffffffffffffffffffffffffff1673ffffffffffffffffffffffffffffffffffffffff1663f09a401682600860009054906101000a900473ffffffffffffffffffffffffffffffffffffffff16600b60009054906101000a900473ffffffffffffffffffffffffffffffffffffffff166040518463ffffffff1660e01b8152600401808373ffffffffffffffffffffffffffffffffffffffff1681526020018273ffffffffffffffffffffffffffffffffffffffff168152602001925050506000604051808303818588803b15801561179757600080fd5b505af11580156117ab573d6000803e3d6000fd5b505050505060006117d960646117cb600a86610f3790919063ffffffff16565b610fbd90919063ffffffff16565b9050600061180c670de0b6b3a76400006117fe86600754610f3790919063ffffffff16565b610fbd90919063ffffffff16565b90508473ffffffffffffffffffffffffffffffffffffffff1663095ea7b3600b60009054906101000a900473ffffffffffffffffffffffffffffffffffffffff16836040518363ffffffff1660e01b8152600401808373ffffffffffffffffffffffffffffffffffffffff16815260200182815260200192505050602060405180830381600087803b1580156118a157600080fd5b505af11580156118b5573d6000803e3d6000fd5b505050506040513d60208110156118cb57600080fd5b810190808051906020019092919050505050600b60009054906101000a900473ffffffffffffffffffffffffffffffffffffffff1673ffffffffffffffffffffffffffffffffffffffff1663f305d71983600860009054906101000a900473ffffffffffffffffffffffffffffffffffffffff16848587600a60009054906101000a900473ffffffffffffffffffffffffffffffffffffffff16426040518863ffffffff1660e01b8152600401808773ffffffffffffffffffffffffffffffffffffffff1681526020018681526020018581526020018481526020018373ffffffffffffffffffffffffffffffffffffffff16815260200182815260200196505050505050506060604051808303818588803b1580156119ea57600080fd5b505af11580156119fe573d6000803e3d6000fd5b50505050506040513d6060811015611a1557600080fd5b810190808051906020019092919080519060200190929190805190602001909291905050505050506000611a6484611a568588610e4c90919063ffffffff16565b610e4c90919063ffffffff16565b90508673ffffffffffffffffffffffffffffffffffffffff166108fc829081150290604051600060405180830381858888f19350505050158015611aac573d6000803e3d6000fd5b508573ffffffffffffffffffffffffffffffffffffffff1663a9059cbb600c60009054906101000a900473ffffffffffffffffffffffffffffffffffffffff16683635c9adc5dea000006040518363ffffffff1660e01b8152600401808373ffffffffffffffffffffffffffffffffffffffff16815260200182815260200192505050602060405180830381600087803b158015611b4957600080fd5b505af1158015611b5d573d6000803e3d6000fd5b505050506040513d6020811015611b7357600080fd5b8101908080519060200190929190505050508573ffffffffffffffffffffffffffffffffffffffff1663a9059cbb600d60009054906101000a900473ffffffffffffffffffffffffffffffffffffffff166856bc75e2d6310000006040518363ffffffff1660e01b8152600401808373ffffffffffffffffffffffffffffffffffffffff16815260200182815260200192505050602060405180830381600087803b158015611c2157600080fd5b505af1158015611c35573d6000803e3d6000fd5b505050506040513d6020811015611c4b57600080fd5b810190808051906020019092919050505050600860009054906101000a900473ffffffffffffffffffffffffffffffffffffffff1673ffffffffffffffffffffffffffffffffffffffff1663aa2d9f0b6040518163ffffffff1660e01b8152600401600060405180830381600087803b158015611cc757600080fd5b505af1158015611cdb573d6000803e3d6000fd5b505050506000600d60146101000a81548160ff0219169083151502179055506001600d60166101000a81548160ff0219169083151502179055507f1eb1561f8507eb9bc6988331f66f369e75710f2b4b678ad5b4a52454b6636f5f60405160405180910390a150505050505050565b60008060009054906101000a900473ffffffffffffffffffffffffffffffffffffffff16905090565b6000600d60159054906101000a900460ff16905090565b6000600860009054906101000a900473ffffffffffffffffffffffffffffffffffffffff16905090565b611dbc611007565b73ffffffffffffffffffffffffffffffffffffffff1660008054906101000a900473ffffffffffffffffffffffffffffffffffffffff1673ffffffffffffffffffffffffffffffffffffffff1614611e7c576040517f08c379a00000000000000000000000000000000000000000000000000000000081526004018080602001828103825260208152602001807f4f776e61626c653a2063616c6c6572206973206e6f7420746865206f776e657281525060200191505060405180910390fd5b600d60149054906101000a900460ff1615611eff576040517f08c379a00000000000000000000000000000000000000000000000000000000081526004018080602001828103825260128152602001807f50726573616c65206973206163746976652e000000000000000000000000000081525060200191505060405180910390fd5b600d60169054906101000a900460ff1615611f82576040517f08c379a00000000000000000000000000000000000000000000000000000000081526004018080602001828103825260128152602001807f50726573616c652077617320656e6465642e000000000000000000000000000081525060200191505060405180910390fd5b8760008173ffffffffffffffffffffffffffffffffffffffff166370a08231306040518263ffffffff1660e01b8152600401808273ffffffffffffffffffffffffffffffffffffffff16815260200191505060206040518083038186803b158015611fec57600080fd5b505afa158015612000573d6000803e3d6000fd5b505050506040513d602081101561201657600080fd5b8101908080519060200190929190505050905060006120866856bc75e2d631000000612078683635c9adc5dea0000061206a680176b344f2a78c0000682086ac351052600000610eaf90919063ffffffff16565b610eaf90919063ffffffff16565b610eaf90919063ffffffff16565b9050808210156120fe576040517f08c379a00000000000000000000000000000000000000000000000000000000081526004018080602001828103825260148152602001807f496e73756666696369656e7420737570706c792e00000000000000000000000081525060200191505060405180910390fd5b6001600d60146101000a81548160ff0219169083151502179055508c6001819055508b60038190555061213e600354600154610fbd90919063ffffffff16565b60048190555061217c60015461216e670de0b6b3a7640000682086ac351052600000610f3790919063ffffffff16565b610fbd90919063ffffffff16565b6006819055506121ba6001546121ac670de0b6b3a7640000680176b344f2a78c0000610f3790919063ffffffff16565b610fbd90919063ffffffff16565b6007819055508a600860006101000a81548173ffffffffffffffffffffffffffffffffffffffff021916908373ffffffffffffffffffffffffffffffffffffffff16021790555089600960006101000a81548173ffffffffffffffffffffffffffffffffffffffff021916908373ffffffffffffffffffffffffffffffffffffffff16021790555088600a60006101000a81548173ffffffffffffffffffffffffffffffffffffffff021916908373ffffffffffffffffffffffffffffffffffffffff16021790555087600b60006101000a81548173ffffffffffffffffffffffffffffffffffffffff021916908373ffffffffffffffffffffffffffffffffffffffff16021790555086600c60006101000a81548173ffffffffffffffffffffffffffffffffffffffff021916908373ffffffffffffffffffffffffffffffffffffffff16021790555085600d60006101000a81548173ffffffffffffffffffffffffffffffffffffffff021916908373ffffffffffffffffffffffffffffffffffffffff160217905550612390858580806020026020016040519081016040528093929190818152602001838360200280828437600081840152601f19601f82011690508083019250505050505050612462565b7f17c3338141363aab2512c08f8a7764328ca95979f7057663eb93f7e250139b4c60405160405180910390a150505050505050505050505050565b680176b344f2a78c000081565b6000600960009054906101000a900473ffffffffffffffffffffffffffffffffffffffff16905090565b682086ac35105260000081565b6000600f60008373ffffffffffffffffffffffffffffffffffffffff1673ffffffffffffffffffffffffffffffffffffffff168152602001908152602001600020549050919050565b6000600154905090565b61246a611007565b73ffffffffffffffffffffffffffffffffffffffff1660008054906101000a900473ffffffffffffffffffffffffffffffffffffffff1673ffffffffffffffffffffffffffffffffffffffff161461252a576040517f08c379a00000000000000000000000000000000000000000000000000000000081526004018080602001828103825260208152602001807f4f776e61626c653a2063616c6c6572206973206e6f7420746865206f776e657281525060200191505060405180910390fd5b600d60149054906101000a900460ff166125ac576040517f08c379a00000000000000000000000000000000000000000000000000000000081526004018080602001828103825260168152602001807f50726573616c65206973206e6f74206163746976652e0000000000000000000081525060200191505060405180910390fd5b60005b815181101561272d576000600e60008484815181106125ca57fe5b602002602001015173ffffffffffffffffffffffffffffffffffffffff1673ffffffffffffffffffffffffffffffffffffffff16815260200190815260200160002060009054906101000a900460ff16905080156126285750612720565b600454600554106126a1576040517f08c379a00000000000000000000000000000000000000000000000000000000081526004018080602001828103825260198152602001807f4d617820636f6e7472696275746f727320726561636865642e0000000000000081525060200191505060405180910390fd5b6005600081548092919060010191905055506001600e60008585815181106126c557fe5b602002602001015173ffffffffffffffffffffffffffffffffffffffff1673ffffffffffffffffffffffffffffffffffffffff16815260200190815260200160002060006101000a81548160ff021916908315150217905550505b80806001019150506125af565b5050565b612739611007565b73ffffffffffffffffffffffffffffffffffffffff1660008054906101000a900473ffffffffffffffffffffffffffffffffffffffff1673ffffffffffffffffffffffffffffffffffffffff16146127f9576040517f08c379a00000000000000000000000000000000000000000000000000000000081526004018080602001828103825260208152602001807f4f776e61626c653a2063616c6c6572206973206e6f7420746865206f776e657281525060200191505060405180910390fd5b600073ffffffffffffffffffffffffffffffffffffffff168173ffffffffffffffffffffffffffffffffffffffff16141561287f576040517f08c379a0000000000000000000000000000000000000000000000000000000008152600401808060200182810382526026815260200180612ac36026913960400191505060405180910390fd5b8073ffffffffffffffffffffffffffffffffffffffff1660008054906101000a900473ffffffffffffffffffffffffffffffffffffffff1673ffffffffffffffffffffffffffffffffffffffff167f8be0079c531659141344cd1fd0a4f28419497f9722a3daafe3b4186f6b6457e060405160405180910390a3806000806101000a81548173ffffffffffffffffffffffffffffffffffffffff021916908373ffffffffffffffffffffffffffffffffffffffff16021790555050565b60008383111582906129e9576040517f08c379a00000000000000000000000000000000000000000000000000000000081526004018080602001828103825283818151815260200191508051906020019080838360005b838110156129ae578082015181840152602081019050612993565b50505050905090810190601f1680156129db5780820380516001836020036101000a031916815260200191505b509250505060405180910390fd5b5060008385039050809150509392505050565b60008083118290612aa8576040517f08c379a00000000000000000000000000000000000000000000000000000000081526004018080602001828103825283818151815260200191508051906020019080838360005b83811015612a6d578082015181840152602081019050612a52565b50505050905090810190601f168015612a9a5780820380516001836020036101000a031916815260200191505b509250505060405180910390fd5b506000838581612ab457fe5b04905080915050939250505056fe4f776e61626c653a206e6577206f776e657220697320746865207a65726f2061646472657373536166654d6174683a206d756c7469706c69636174696f6e206f766572666c6f77a2646970667358221220b2c8b3797e43ce3e9e92d81efdad82923bac3fe4e40a95605d666aab850daead64736f6c634300060c0033",
  "immutableReferences": {},
  "source": "// SPDX-License-Identifier: MIT\npragma solidity >=0.4.22 <0.9.0;\n\nimport \"./interfaces/IBuyback.sol\";\nimport \"./interfaces/IPresale.sol\";\nimport \"./interfaces/ITokenDistributor.sol\";\nimport \"./interfaces/IToken.sol\";\nimport \"./interfaces/IUniswapV2Router02.sol\";\nimport \"@openzeppelin/contracts/access/Ownable.sol\";\nimport \"@openzeppelin/contracts/token/ERC20/IERC20.sol\";\nimport \"@openzeppelin/contracts/math/SafeMath.sol\";\nimport \"@openzeppelin/contracts/math/Math.sol\";\n\ncontract Presale is Ownable, IPresale, ITokenDistributor {\n    event PresaleStarted();\n    event FcfsActivated();\n    event PresaleEnded();\n    event ContributionAccepted(\n        address indexed _contributor,\n        uint256 _contribution,\n        uint256 _receivedTokens,\n        uint256 _contributions\n    );\n    event ContributionRefunded(address indexed _contributor, uint256 _contribution);\n\n    using SafeMath for uint256;\n\n    uint256 public constant BUYBACK_ALLOCATION_PERCENT = 50;\n    uint256 public constant LIQUIDITY_ALLOCATION_PERCENT = 10;\n    uint256 public constant PRESALE_MAX_SUPPLY = 600 * 10**18; // if 600 eth collected, otherwise leftover burned\n    uint256 public constant LIQUIDITY_MAX_SUPPLY = 27 * 10**18; // if 600 eth collected (360 eth for liquidity), otherwise leftover burned\n    uint256 public constant RC_FARM_SUPPLY = 1000 * 10**18;\n    uint256 public constant RC_ETH_FARM_SUPPLY = 1600 * 10**18;\n\n    uint256 private hardcap;\n    uint256 private collected;\n    uint256 private maxContribution;\n    uint256 private maxContributorsCount;\n    uint256 private contributorsCount;\n    uint256 private contributorTokensPerCollectedEth;\n    uint256 private liquidityTokensPerCollectedEth;\n    address private token;\n    address private buyback;\n    address private liquidityLock;\n    address private uniswapRouter;\n    address private rcFarm;\n    address private rcEthFarm;\n    bool private isPresaleActiveFlag;\n    bool private isFcfsActiveFlag;\n    bool private wasPresaleEndedFlag;\n    mapping(address => bool) private contributors;\n    mapping(address => uint256) private contributions;\n\n    modifier presaleActive() {\n        require(isPresaleActiveFlag, \"Presale is not active.\");\n        _;\n    }\n\n    modifier presaleNotActive() {\n        require(!isPresaleActiveFlag, \"Presale is active.\");\n        _;\n    }\n\n    modifier presaleNotEnded() {\n        require(!wasPresaleEndedFlag, \"Presale was ended.\");\n        _;\n    }\n\n    modifier sufficientSupply(address _token) {\n        uint256 supply = IERC20(_token).balanceOf(address(this));\n        uint256 minSupply = PRESALE_MAX_SUPPLY.add(LIQUIDITY_MAX_SUPPLY).add(RC_FARM_SUPPLY).add(RC_ETH_FARM_SUPPLY);\n        require(supply >= minSupply, \"Insufficient supply.\");\n        _;\n    }\n\n    modifier senderEligibleToContribute() {\n        require(isFcfsActiveFlag || contributors[msg.sender], \"Not eligible to participate.\");\n        _;\n    }\n\n    function getMaxSupply() external view override returns (uint256) {\n        return PRESALE_MAX_SUPPLY.add(LIQUIDITY_MAX_SUPPLY).add(RC_FARM_SUPPLY).add(RC_ETH_FARM_SUPPLY);\n    }\n\n    function tokenAddress() external view override returns (address) {\n        return token;\n    }\n\n    function buybackAddress() external view override returns (address) {\n        return buyback;\n    }\n\n    function liquidityLockAddress() external view override returns (address) {\n        return liquidityLock;\n    }\n\n    function uniswapRouterAddress() external view override returns (address) {\n        return uniswapRouter;\n    }\n\n    function rcFarmAddress() external view override returns (address) {\n        return rcFarm;\n    }\n\n    function rcEthFarmAddress() external view override returns (address) {\n        return rcEthFarm;\n    }\n\n    function collectedAmount() external view override returns (uint256) {\n        return collected;\n    }\n\n    function hardcapAmount() external view override returns (uint256) {\n        return hardcap;\n    }\n\n    function maxContributionAmount() external view override returns (uint256) {\n        return maxContribution;\n    }\n\n    function isPresaleActive() external view override returns (bool) {\n        return isPresaleActiveFlag;\n    }\n\n    function isFcfsActive() external view override returns (bool) {\n        return isFcfsActiveFlag;\n    }\n\n    function wasPresaleEnded() external view override returns (bool) {\n        return wasPresaleEndedFlag;\n    }\n\n    function isWhitelisted(address _contributor) external view override returns (bool) {\n        return contributors[_contributor];\n    }\n\n    function contribution(address _contributor) external view override returns (uint256) {\n        return contributions[_contributor];\n    }\n\n    function addContributors(address[] memory _contributors) public override onlyOwner presaleActive {\n        for (uint256 i; i < _contributors.length; i++) {\n            bool isAlreadyAdded = contributors[_contributors[i]];\n            if (isAlreadyAdded) {\n                continue;\n            }\n            require(contributorsCount < maxContributorsCount, \"Max contributors reached.\");\n            contributorsCount++;\n            contributors[_contributors[i]] = true;\n        }\n    }\n\n    function start(\n        uint256 _hardcap,\n        uint256 _maxContribution,\n        address _token,\n        address _buyback,\n        address _liquidityLock,\n        address _uniswapRouter,\n        address _rcFarm,\n        address _rcEthFarm,\n        address[] calldata _contributors\n    ) external override onlyOwner presaleNotActive presaleNotEnded sufficientSupply(_token) {\n        isPresaleActiveFlag = true;\n        hardcap = _hardcap;\n        maxContribution = _maxContribution;\n        maxContributorsCount = hardcap.div(maxContribution);\n        contributorTokensPerCollectedEth = PRESALE_MAX_SUPPLY.mul(10**18).div(hardcap);\n        liquidityTokensPerCollectedEth = LIQUIDITY_MAX_SUPPLY.mul(10**18).div(hardcap);\n        token = _token;\n        buyback = _buyback;\n        liquidityLock = _liquidityLock;\n        uniswapRouter = _uniswapRouter;\n        rcFarm = _rcFarm;\n        rcEthFarm = _rcEthFarm;\n        addContributors(_contributors);\n        emit PresaleStarted();\n    }\n\n    function activateFcfs() external override onlyOwner presaleActive {\n        if (isFcfsActiveFlag) {\n            return;\n        }\n        isFcfsActiveFlag = true;\n        emit FcfsActivated();\n    }\n\n    function end(address payable _team) external override onlyOwner presaleActive {\n        IERC20 rollerCoaster = IERC20(token);\n        uint256 totalCollected = address(this).balance;\n\n        // calculate buyback and execute it\n        uint256 buybackEths = totalCollected.mul(BUYBACK_ALLOCATION_PERCENT).div(100);\n        IBuyback(buyback).init{ value: buybackEths }(token, uniswapRouter);\n\n        // calculate liquidity share\n        uint256 liquidityEths = totalCollected.mul(LIQUIDITY_ALLOCATION_PERCENT).div(100);\n        uint256 liquidityTokens = liquidityTokensPerCollectedEth.mul(totalCollected).div(10**18);\n\n        // approve router and add liquidity\n        rollerCoaster.approve(uniswapRouter, liquidityTokens);\n        IUniswapV2Router02(uniswapRouter).addLiquidityETH{ value: liquidityEths }(\n            token,\n            liquidityTokens,\n            liquidityTokens,\n            liquidityEths,\n            liquidityLock,\n            block.timestamp\n        );\n\n        // transfer team share\n        uint256 teamEths = totalCollected.sub(liquidityEths).sub(buybackEths);\n        _team.transfer(teamEths);\n\n        // transfer farm shares\n        rollerCoaster.transfer(rcFarm, RC_FARM_SUPPLY);\n        rollerCoaster.transfer(rcEthFarm, RC_ETH_FARM_SUPPLY);\n\n        // burn the remaining balance and unlock token\n        IToken(token).burnDistributorTokensAndUnlock();\n\n        // end presale\n        isPresaleActiveFlag = false;\n        wasPresaleEndedFlag = true;\n        emit PresaleEnded();\n    }\n\n    receive() external payable presaleActive senderEligibleToContribute {\n        uint256 totalContributionLeft = PRESALE_MAX_SUPPLY.sub(collected);\n        uint256 senderContributionLeft = maxContribution.sub(contributions[msg.sender]);\n        uint256 contributionLeft = Math.min(totalContributionLeft, senderContributionLeft);\n\n        uint256 valueToAccept = Math.min(msg.value, contributionLeft);\n        if (valueToAccept > 0) {\n            collected = collected.add(valueToAccept);\n            contributions[msg.sender] = contributions[msg.sender].add(valueToAccept);\n\n            uint256 tokensToTransfer = contributorTokensPerCollectedEth.mul(valueToAccept).div(10**18);\n            IERC20(token).transfer(msg.sender, tokensToTransfer);\n\n            emit ContributionAccepted(msg.sender, valueToAccept, tokensToTransfer, collected);\n        }\n\n        uint256 valueToRefund = msg.value.sub(valueToAccept);\n        if (valueToRefund > 0) {\n            _msgSender().transfer(valueToRefund);\n\n            emit ContributionRefunded(msg.sender, valueToRefund);\n        }\n    }\n}\n",
  "sourcePath": "/home/keso/projects/crypto/rollercoaster-token/contracts/Presale.sol",
  "compiler": {
    "name": "solc",
    "version": "0.6.12+commit.27d51765.Emscripten.clang"
  },
  "schemaVersion": "3.3.3",
  "updatedAt": "2021-02-04T19:35:54.640Z",
  "networkType": "ethereum",
  "devdoc": {
    "kind": "dev",
    "methods": {
      "owner()": {
        "details": "Returns the address of the current owner."
      },
      "renounceOwnership()": {
        "details": "Leaves the contract without owner. It will not be possible to call `onlyOwner` functions anymore. Can only be called by the current owner. NOTE: Renouncing ownership will leave the contract without an owner, thereby removing any functionality that is only available to the owner."
      },
      "transferOwnership(address)": {
        "details": "Transfers ownership of the contract to a new account (`newOwner`). Can only be called by the current owner."
      }
    },
    "version": 1
  },
  "userdoc": {
    "kind": "user",
    "methods": {},
    "version": 1
  }
}