{
  "contractName": "Presale",
  "abi": [
    {
      "anonymous": false,
      "inputs": [
        {
          "indexed": true,
          "internalType": "address",
          "name": "_contributor",
          "type": "address"
        },
        {
          "indexed": false,
          "internalType": "uint256",
          "name": "_contribution",
          "type": "uint256"
        },
        {
          "indexed": false,
          "internalType": "uint256",
          "name": "_receivedTokens",
          "type": "uint256"
        },
        {
          "indexed": false,
          "internalType": "uint256",
          "name": "_contributions",
          "type": "uint256"
        }
      ],
      "name": "ContributionAccepted",
      "type": "event"
    },
    {
      "anonymous": false,
      "inputs": [
        {
          "indexed": true,
          "internalType": "address",
          "name": "_contributor",
          "type": "address"
        },
        {
          "indexed": false,
          "internalType": "uint256",
          "name": "_contribution",
          "type": "uint256"
        }
      ],
      "name": "ContributionRefunded",
      "type": "event"
    },
    {
      "anonymous": false,
      "inputs": [],
      "name": "FcfsActivated",
      "type": "event"
    },
    {
      "anonymous": false,
      "inputs": [
        {
          "indexed": true,
          "internalType": "address",
          "name": "previousOwner",
          "type": "address"
        },
        {
          "indexed": true,
          "internalType": "address",
          "name": "newOwner",
          "type": "address"
        }
      ],
      "name": "OwnershipTransferred",
      "type": "event"
    },
    {
      "anonymous": false,
      "inputs": [],
      "name": "PresaleEnded",
      "type": "event"
    },
    {
      "anonymous": false,
      "inputs": [],
      "name": "PresaleStarted",
      "type": "event"
    },
    {
      "inputs": [],
      "name": "BUYBACK_ALLOCATION_PERCENT",
      "outputs": [
        {
          "internalType": "uint256",
          "name": "",
          "type": "uint256"
        }
      ],
      "stateMutability": "view",
      "type": "function"
    },
    {
      "inputs": [],
      "name": "LIQUIDITY_ALLOCATION_PERCENT",
      "outputs": [
        {
          "internalType": "uint256",
          "name": "",
          "type": "uint256"
        }
      ],
      "stateMutability": "view",
      "type": "function"
    },
    {
      "inputs": [],
      "name": "LIQUIDITY_MAX_SUPPLY",
      "outputs": [
        {
          "internalType": "uint256",
          "name": "",
          "type": "uint256"
        }
      ],
      "stateMutability": "view",
      "type": "function"
    },
    {
      "inputs": [],
      "name": "PRESALE_MAX_SUPPLY",
      "outputs": [
        {
          "internalType": "uint256",
          "name": "",
          "type": "uint256"
        }
      ],
      "stateMutability": "view",
      "type": "function"
    },
    {
      "inputs": [],
      "name": "RC_ETH_FARM_SUPPLY",
      "outputs": [
        {
          "internalType": "uint256",
          "name": "",
          "type": "uint256"
        }
      ],
      "stateMutability": "view",
      "type": "function"
    },
    {
      "inputs": [],
      "name": "RC_FARM_SUPPLY",
      "outputs": [
        {
          "internalType": "uint256",
          "name": "",
          "type": "uint256"
        }
      ],
      "stateMutability": "view",
      "type": "function"
    },
    {
      "inputs": [],
      "name": "owner",
      "outputs": [
        {
          "internalType": "address",
          "name": "",
          "type": "address"
        }
      ],
      "stateMutability": "view",
      "type": "function"
    },
    {
      "inputs": [],
      "name": "renounceOwnership",
      "outputs": [],
      "stateMutability": "nonpayable",
      "type": "function"
    },
    {
      "inputs": [
        {
          "internalType": "address",
          "name": "newOwner",
          "type": "address"
        }
      ],
      "name": "transferOwnership",
      "outputs": [],
      "stateMutability": "nonpayable",
      "type": "function"
    },
    {
      "stateMutability": "payable",
      "type": "receive"
    },
    {
      "inputs": [],
      "name": "tokenAddress",
      "outputs": [
        {
          "internalType": "address",
          "name": "",
          "type": "address"
        }
      ],
      "stateMutability": "view",
      "type": "function"
    },
    {
      "inputs": [],
      "name": "buybackAddress",
      "outputs": [
        {
          "internalType": "address",
          "name": "",
          "type": "address"
        }
      ],
      "stateMutability": "view",
      "type": "function"
    },
    {
      "inputs": [],
      "name": "liquidityLockAddress",
      "outputs": [
        {
          "internalType": "address",
          "name": "",
          "type": "address"
        }
      ],
      "stateMutability": "view",
      "type": "function"
    },
    {
      "inputs": [],
      "name": "uniswapRouterAddress",
      "outputs": [
        {
          "internalType": "address",
          "name": "",
          "type": "address"
        }
      ],
      "stateMutability": "view",
      "type": "function"
    },
    {
      "inputs": [],
      "name": "rcFarmAddress",
      "outputs": [
        {
          "internalType": "address",
          "name": "",
          "type": "address"
        }
      ],
      "stateMutability": "view",
      "type": "function"
    },
    {
      "inputs": [],
      "name": "rcEthFarmAddress",
      "outputs": [
        {
          "internalType": "address",
          "name": "",
          "type": "address"
        }
      ],
      "stateMutability": "view",
      "type": "function"
    },
    {
      "inputs": [],
      "name": "collectedAmount",
      "outputs": [
        {
          "internalType": "uint256",
          "name": "",
          "type": "uint256"
        }
      ],
      "stateMutability": "view",
      "type": "function"
    },
    {
      "inputs": [],
      "name": "hardcapAmount",
      "outputs": [
        {
          "internalType": "uint256",
          "name": "",
          "type": "uint256"
        }
      ],
      "stateMutability": "view",
      "type": "function"
    },
    {
      "inputs": [],
      "name": "maxContributionAmount",
      "outputs": [
        {
          "internalType": "uint256",
          "name": "",
          "type": "uint256"
        }
      ],
      "stateMutability": "view",
      "type": "function"
    },
    {
      "inputs": [],
      "name": "isPresaleActive",
      "outputs": [
        {
          "internalType": "bool",
          "name": "",
          "type": "bool"
        }
      ],
      "stateMutability": "view",
      "type": "function"
    },
    {
      "inputs": [],
      "name": "isFcfsActive",
      "outputs": [
        {
          "internalType": "bool",
          "name": "",
          "type": "bool"
        }
      ],
      "stateMutability": "view",
      "type": "function"
    },
    {
      "inputs": [],
      "name": "wasPresaleEnded",
      "outputs": [
        {
          "internalType": "bool",
          "name": "",
          "type": "bool"
        }
      ],
      "stateMutability": "view",
      "type": "function"
    },
    {
      "inputs": [
        {
          "internalType": "address",
          "name": "_contributor",
          "type": "address"
        }
      ],
      "name": "isWhitelisted",
      "outputs": [
        {
          "internalType": "bool",
          "name": "",
          "type": "bool"
        }
      ],
      "stateMutability": "view",
      "type": "function"
    },
    {
      "inputs": [
        {
          "internalType": "address",
          "name": "_contributor",
          "type": "address"
        }
      ],
      "name": "contribution",
      "outputs": [
        {
          "internalType": "uint256",
          "name": "",
          "type": "uint256"
        }
      ],
      "stateMutability": "view",
      "type": "function"
    },
    {
      "inputs": [
        {
          "internalType": "address[]",
          "name": "_contributors",
          "type": "address[]"
        }
      ],
      "name": "addContributors",
      "outputs": [],
      "stateMutability": "nonpayable",
      "type": "function"
    },
    {
      "inputs": [
        {
          "internalType": "uint256",
          "name": "_hardcap",
          "type": "uint256"
        },
        {
          "internalType": "uint256",
          "name": "_maxContribution",
          "type": "uint256"
        },
        {
          "internalType": "address",
          "name": "_token",
          "type": "address"
        },
        {
          "internalType": "address",
          "name": "_buyback",
          "type": "address"
        },
        {
          "internalType": "address",
          "name": "_liquidityLock",
          "type": "address"
        },
        {
          "internalType": "address",
          "name": "_uniswapRouter",
          "type": "address"
        },
        {
          "internalType": "address",
          "name": "_rcFarm",
          "type": "address"
        },
        {
          "internalType": "address",
          "name": "_rcEthFarm",
          "type": "address"
        },
        {
          "internalType": "address[]",
          "name": "_contributors",
          "type": "address[]"
        }
      ],
      "name": "start",
      "outputs": [],
      "stateMutability": "nonpayable",
      "type": "function"
    },
    {
      "inputs": [],
      "name": "activateFcfs",
      "outputs": [],
      "stateMutability": "nonpayable",
      "type": "function"
    },
    {
      "inputs": [
        {
          "internalType": "address payable",
          "name": "_team",
          "type": "address"
        }
      ],
      "name": "end",
      "outputs": [],
      "stateMutability": "nonpayable",
      "type": "function"
    }
  ],
  "bytecode": "0x608060405234801561001057600080fd5b5060006100216100c460201b60201c565b9050806000806101000a81548173ffffffffffffffffffffffffffffffffffffffff021916908373ffffffffffffffffffffffffffffffffffffffff1602179055508073ffffffffffffffffffffffffffffffffffffffff16600073ffffffffffffffffffffffffffffffffffffffff167f8be0079c531659141344cd1fd0a4f28419497f9722a3daafe3b4186f6b6457e060405160405180910390a3506100cc565b600033905090565b612a75806100db6000396000f3fe6080604052600436106101a05760003560e01c806376042c0a116100ec578063b7768e4f1161008a578063e2dc431011610064578063e2dc431014610c60578063e709ddbb14610cc5578063f049071514610cf0578063f2fde38b14610db557610674565b8063b7768e4f14610bc9578063cc2fbd6614610bf4578063e1b6e09814610c3557610674565b80638da5cb5b116100c65780638da5cb5b146109bf57806394e8157114610a005780639d76ea5814610a2d578063a408c2eb14610a6e57610674565b806376042c0a14610902578063802c6ee5146109435780638c4dd39d1461096e57610674565b80633b6921321161015957806360d938dc1161013357806360d938dc1461086657806362c823251461089357806364f57758146108c0578063715018a6146108eb57610674565b80633b692132146107cf5780634647df6f146107fa5780634ec351a41461083b57610674565b806316a3b3b11461067957806319cc1ec41461069057806320ca3c7f146106bb57806328007d76146106fc5780632ea91f361461073d5780633af32abf1461076857610674565b3661067457600d60149054906101000a900460ff16610227576040517f08c379a00000000000000000000000000000000000000000000000000000000081526004018080602001828103825260168152602001807f50726573616c65206973206e6f74206163746976652e0000000000000000000081525060200191505060405180910390fd5b600d60159054906101000a900460ff168061028b5750600e60003373ffffffffffffffffffffffffffffffffffffffff1673ffffffffffffffffffffffffffffffffffffffff16815260200190815260200160002060009054906101000a900460ff165b6102fd576040517f08c379a000000000000000000000000000000000000000000000000000000000815260040180806020018281038252601c8152602001807f4e6f7420656c696769626c6520746f2070617274696369706174652e0000000081525060200191505060405180910390fd5b600061031d600254682086ac351052600000610e0690919063ffffffff16565b90506000610375600f60003373ffffffffffffffffffffffffffffffffffffffff1673ffffffffffffffffffffffffffffffffffffffff16815260200190815260200160002054600354610e0690919063ffffffff16565b905060006103838383610e50565b905060006103913483610e50565b905060008111156105b0576103b181600254610e6990919063ffffffff16565b60028190555061040981600f60003373ffffffffffffffffffffffffffffffffffffffff1673ffffffffffffffffffffffffffffffffffffffff16815260200190815260200160002054610e6990919063ffffffff16565b600f60003373ffffffffffffffffffffffffffffffffffffffff1673ffffffffffffffffffffffffffffffffffffffff16815260200190815260200160002081905550600061047d670de0b6b3a764000061046f84600654610ef190919063ffffffff16565b610f7790919063ffffffff16565b9050600860009054906101000a900473ffffffffffffffffffffffffffffffffffffffff1673ffffffffffffffffffffffffffffffffffffffff1663a9059cbb33836040518363ffffffff1660e01b8152600401808373ffffffffffffffffffffffffffffffffffffffff16815260200182815260200192505050602060405180830381600087803b15801561051257600080fd5b505af1158015610526573d6000803e3d6000fd5b505050506040513d602081101561053c57600080fd5b8101908080519060200190929190505050503373ffffffffffffffffffffffffffffffffffffffff167ff65bb6bccc57dcf3fb5a90611e819f010f9c68f51876409469094a09d2adf70c838360025460405180848152602001838152602001828152602001935050505060405180910390a2505b60006105c58234610e0690919063ffffffff16565b9050600081111561066d576105d8610fc1565b73ffffffffffffffffffffffffffffffffffffffff166108fc829081150290604051600060405180830381858888f1935050505015801561061d573d6000803e3d6000fd5b503373ffffffffffffffffffffffffffffffffffffffff167f2ef47cadc7e07ee6cea296446c8ca85ff6955693411d8868f7a04b6850034f08826040518082815260200191505060405180910390a25b5050505050005b600080fd5b34801561068557600080fd5b5061068e610fc9565b005b34801561069c57600080fd5b506106a5611177565b6040518082815260200191505060405180910390f35b3480156106c757600080fd5b506106d0611181565b604051808273ffffffffffffffffffffffffffffffffffffffff16815260200191505060405180910390f35b34801561070857600080fd5b506107116111ab565b604051808273ffffffffffffffffffffffffffffffffffffffff16815260200191505060405180910390f35b34801561074957600080fd5b506107526111d5565b6040518082815260200191505060405180910390f35b34801561077457600080fd5b506107b76004803603602081101561078b57600080fd5b81019080803573ffffffffffffffffffffffffffffffffffffffff1690602001909291905050506111da565b60405180821515815260200191505060405180910390f35b3480156107db57600080fd5b506107e4611230565b6040518082815260200191505060405180910390f35b34801561080657600080fd5b5061080f61123d565b604051808273ffffffffffffffffffffffffffffffffffffffff16815260200191505060405180910390f35b34801561084757600080fd5b50610850611267565b6040518082815260200191505060405180910390f35b34801561087257600080fd5b5061087b611274565b60405180821515815260200191505060405180910390f35b34801561089f57600080fd5b506108a861128b565b60405180821515815260200191505060405180910390f35b3480156108cc57600080fd5b506108d56112a2565b6040518082815260200191505060405180910390f35b3480156108f757600080fd5b506109006112a7565b005b34801561090e57600080fd5b5061091761142d565b604051808273ffffffffffffffffffffffffffffffffffffffff16815260200191505060405180910390f35b34801561094f57600080fd5b50610958611457565b6040518082815260200191505060405180910390f35b34801561097a57600080fd5b506109bd6004803603602081101561099157600080fd5b81019080803573ffffffffffffffffffffffffffffffffffffffff169060200190929190505050611461565b005b3480156109cb57600080fd5b506109d4611c80565b604051808273ffffffffffffffffffffffffffffffffffffffff16815260200191505060405180910390f35b348015610a0c57600080fd5b50610a15611ca9565b60405180821515815260200191505060405180910390f35b348015610a3957600080fd5b50610a42611cc0565b604051808273ffffffffffffffffffffffffffffffffffffffff16815260200191505060405180910390f35b348015610a7a57600080fd5b50610bc76004803603610120811015610a9257600080fd5b810190808035906020019092919080359060200190929190803573ffffffffffffffffffffffffffffffffffffffff169060200190929190803573ffffffffffffffffffffffffffffffffffffffff169060200190929190803573ffffffffffffffffffffffffffffffffffffffff169060200190929190803573ffffffffffffffffffffffffffffffffffffffff169060200190929190803573ffffffffffffffffffffffffffffffffffffffff169060200190929190803573ffffffffffffffffffffffffffffffffffffffff16906020019092919080359060200190640100000000811115610b8357600080fd5b820183602082011115610b9557600080fd5b80359060200191846020830284011164010000000083111715610bb757600080fd5b9091929391929390505050611cea565b005b348015610bd557600080fd5b50610bde612301565b6040518082815260200191505060405180910390f35b348015610c0057600080fd5b50610c0961230e565b604051808273ffffffffffffffffffffffffffffffffffffffff16815260200191505060405180910390f35b348015610c4157600080fd5b50610c4a612338565b6040518082815260200191505060405180910390f35b348015610c6c57600080fd5b50610caf60048036036020811015610c8357600080fd5b81019080803573ffffffffffffffffffffffffffffffffffffffff169060200190929190505050612345565b6040518082815260200191505060405180910390f35b348015610cd157600080fd5b50610cda61238e565b6040518082815260200191505060405180910390f35b348015610cfc57600080fd5b50610db360048036036020811015610d1357600080fd5b8101908080359060200190640100000000811115610d3057600080fd5b820183602082011115610d4257600080fd5b80359060200191846020830284011164010000000083111715610d6457600080fd5b919080806020026020016040519081016040528093929190818152602001838360200280828437600081840152601f19601f820116905080830192505050505050509192919290505050612398565b005b348015610dc157600080fd5b50610e0460048036036020811015610dd857600080fd5b81019080803573ffffffffffffffffffffffffffffffffffffffff169060200190929190505050612667565b005b6000610e4883836040518060400160405280601e81526020017f536166654d6174683a207375627472616374696f6e206f766572666c6f770000815250612872565b905092915050565b6000818310610e5f5781610e61565b825b905092915050565b600080828401905083811015610ee7576040517f08c379a000000000000000000000000000000000000000000000000000000000815260040180806020018281038252601b8152602001807f536166654d6174683a206164646974696f6e206f766572666c6f77000000000081525060200191505060405180910390fd5b8091505092915050565b600080831415610f045760009050610f71565b6000828402905082848281610f1557fe5b0414610f6c576040517f08c379a0000000000000000000000000000000000000000000000000000000008152600401808060200182810382526021815260200180612a1f6021913960400191505060405180910390fd5b809150505b92915050565b6000610fb983836040518060400160405280601a81526020017f536166654d6174683a206469766973696f6e206279207a65726f000000000000815250612932565b905092915050565b600033905090565b610fd1610fc1565b73ffffffffffffffffffffffffffffffffffffffff1660008054906101000a900473ffffffffffffffffffffffffffffffffffffffff1673ffffffffffffffffffffffffffffffffffffffff1614611091576040517f08c379a00000000000000000000000000000000000000000000000000000000081526004018080602001828103825260208152602001807f4f776e61626c653a2063616c6c6572206973206e6f7420746865206f776e657281525060200191505060405180910390fd5b600d60149054906101000a900460ff16611113576040517f08c379a00000000000000000000000000000000000000000000000000000000081526004018080602001828103825260168152602001807f50726573616c65206973206e6f74206163746976652e0000000000000000000081525060200191505060405180910390fd5b600d60159054906101000a900460ff161561112d57611175565b6001600d60156101000a81548160ff0219169083151502179055507fdfaff554968db66063477800c978b0271d5c136d3ae02d666a135c37bde6441b60405160405180910390a15b565b6000600354905090565b6000600b60009054906101000a900473ffffffffffffffffffffffffffffffffffffffff16905090565b6000600c60009054906101000a900473ffffffffffffffffffffffffffffffffffffffff16905090565b600a81565b6000600e60008373ffffffffffffffffffffffffffffffffffffffff1673ffffffffffffffffffffffffffffffffffffffff16815260200190815260200160002060009054906101000a900460ff169050919050565b683635c9adc5dea0000081565b6000600d60009054906101000a900473ffffffffffffffffffffffffffffffffffffffff16905090565b6856bc75e2d63100000081565b6000600d60149054906101000a900460ff16905090565b6000600d60169054906101000a900460ff16905090565b603281565b6112af610fc1565b73ffffffffffffffffffffffffffffffffffffffff1660008054906101000a900473ffffffffffffffffffffffffffffffffffffffff1673ffffffffffffffffffffffffffffffffffffffff161461136f576040517f08c379a00000000000000000000000000000000000000000000000000000000081526004018080602001828103825260208152602001807f4f776e61626c653a2063616c6c6572206973206e6f7420746865206f776e657281525060200191505060405180910390fd5b600073ffffffffffffffffffffffffffffffffffffffff1660008054906101000a900473ffffffffffffffffffffffffffffffffffffffff1673ffffffffffffffffffffffffffffffffffffffff167f8be0079c531659141344cd1fd0a4f28419497f9722a3daafe3b4186f6b6457e060405160405180910390a360008060006101000a81548173ffffffffffffffffffffffffffffffffffffffff021916908373ffffffffffffffffffffffffffffffffffffffff160217905550565b6000600a60009054906101000a900473ffffffffffffffffffffffffffffffffffffffff16905090565b6000600254905090565b611469610fc1565b73ffffffffffffffffffffffffffffffffffffffff1660008054906101000a900473ffffffffffffffffffffffffffffffffffffffff1673ffffffffffffffffffffffffffffffffffffffff1614611529576040517f08c379a00000000000000000000000000000000000000000000000000000000081526004018080602001828103825260208152602001807f4f776e61626c653a2063616c6c6572206973206e6f7420746865206f776e657281525060200191505060405180910390fd5b600d60149054906101000a900460ff166115ab576040517f08c379a00000000000000000000000000000000000000000000000000000000081526004018080602001828103825260168152602001807f50726573616c65206973206e6f74206163746976652e0000000000000000000081525060200191505060405180910390fd5b6000600860009054906101000a900473ffffffffffffffffffffffffffffffffffffffff1690506000479050600061160060646115f2603285610ef190919063ffffffff16565b610f7790919063ffffffff16565b9050600960009054906101000a900473ffffffffffffffffffffffffffffffffffffffff1673ffffffffffffffffffffffffffffffffffffffff1663f09a401682600860009054906101000a900473ffffffffffffffffffffffffffffffffffffffff16600b60009054906101000a900473ffffffffffffffffffffffffffffffffffffffff166040518463ffffffff1660e01b8152600401808373ffffffffffffffffffffffffffffffffffffffff1681526020018273ffffffffffffffffffffffffffffffffffffffff168152602001925050506000604051808303818588803b1580156116ef57600080fd5b505af1158015611703573d6000803e3d6000fd5b505050505060006117316064611723600a86610ef190919063ffffffff16565b610f7790919063ffffffff16565b90506000611764670de0b6b3a764000061175686600754610ef190919063ffffffff16565b610f7790919063ffffffff16565b90508473ffffffffffffffffffffffffffffffffffffffff1663095ea7b3600b60009054906101000a900473ffffffffffffffffffffffffffffffffffffffff16836040518363ffffffff1660e01b8152600401808373ffffffffffffffffffffffffffffffffffffffff16815260200182815260200192505050602060405180830381600087803b1580156117f957600080fd5b505af115801561180d573d6000803e3d6000fd5b505050506040513d602081101561182357600080fd5b810190808051906020019092919050505050600b60009054906101000a900473ffffffffffffffffffffffffffffffffffffffff1673ffffffffffffffffffffffffffffffffffffffff1663f305d71983600860009054906101000a900473ffffffffffffffffffffffffffffffffffffffff16848587600a60009054906101000a900473ffffffffffffffffffffffffffffffffffffffff16426040518863ffffffff1660e01b8152600401808773ffffffffffffffffffffffffffffffffffffffff1681526020018681526020018581526020018481526020018373ffffffffffffffffffffffffffffffffffffffff16815260200182815260200196505050505050506060604051808303818588803b15801561194257600080fd5b505af1158015611956573d6000803e3d6000fd5b50505050506040513d606081101561196d57600080fd5b8101908080519060200190929190805190602001909291908051906020019092919050505050505060006119bc846119ae8588610e0690919063ffffffff16565b610e0690919063ffffffff16565b90508673ffffffffffffffffffffffffffffffffffffffff166108fc829081150290604051600060405180830381858888f19350505050158015611a04573d6000803e3d6000fd5b508573ffffffffffffffffffffffffffffffffffffffff1663a9059cbb600c60009054906101000a900473ffffffffffffffffffffffffffffffffffffffff16683635c9adc5dea000006040518363ffffffff1660e01b8152600401808373ffffffffffffffffffffffffffffffffffffffff16815260200182815260200192505050602060405180830381600087803b158015611aa157600080fd5b505af1158015611ab5573d6000803e3d6000fd5b505050506040513d6020811015611acb57600080fd5b8101908080519060200190929190505050508573ffffffffffffffffffffffffffffffffffffffff1663a9059cbb600d60009054906101000a900473ffffffffffffffffffffffffffffffffffffffff166856bc75e2d6310000006040518363ffffffff1660e01b8152600401808373ffffffffffffffffffffffffffffffffffffffff16815260200182815260200192505050602060405180830381600087803b158015611b7957600080fd5b505af1158015611b8d573d6000803e3d6000fd5b505050506040513d6020811015611ba357600080fd5b8101908080519060200190929190505050508573ffffffffffffffffffffffffffffffffffffffff1663aa2d9f0b6040518163ffffffff1660e01b8152600401600060405180830381600087803b158015611bfd57600080fd5b505af1158015611c11573d6000803e3d6000fd5b505050506000600d60146101000a81548160ff0219169083151502179055506001600d60166101000a81548160ff0219169083151502179055507f1eb1561f8507eb9bc6988331f66f369e75710f2b4b678ad5b4a52454b6636f5f60405160405180910390a150505050505050565b60008060009054906101000a900473ffffffffffffffffffffffffffffffffffffffff16905090565b6000600d60159054906101000a900460ff16905090565b6000600860009054906101000a900473ffffffffffffffffffffffffffffffffffffffff16905090565b611cf2610fc1565b73ffffffffffffffffffffffffffffffffffffffff1660008054906101000a900473ffffffffffffffffffffffffffffffffffffffff1673ffffffffffffffffffffffffffffffffffffffff1614611db2576040517f08c379a00000000000000000000000000000000000000000000000000000000081526004018080602001828103825260208152602001807f4f776e61626c653a2063616c6c6572206973206e6f7420746865206f776e657281525060200191505060405180910390fd5b600d60149054906101000a900460ff1615611e35576040517f08c379a00000000000000000000000000000000000000000000000000000000081526004018080602001828103825260128152602001807f50726573616c65206973206163746976652e000000000000000000000000000081525060200191505060405180910390fd5b600d60169054906101000a900460ff1615611eb8576040517f08c379a00000000000000000000000000000000000000000000000000000000081526004018080602001828103825260128152602001807f50726573616c652077617320656e6465642e000000000000000000000000000081525060200191505060405180910390fd5b8760008173ffffffffffffffffffffffffffffffffffffffff166370a08231306040518263ffffffff1660e01b8152600401808273ffffffffffffffffffffffffffffffffffffffff16815260200191505060206040518083038186803b158015611f2257600080fd5b505afa158015611f36573d6000803e3d6000fd5b505050506040513d6020811015611f4c57600080fd5b810190808051906020019092919050505090506000611fbc6856bc75e2d631000000611fae683635c9adc5dea00000611fa0680176b344f2a78c0000682086ac351052600000610e6990919063ffffffff16565b610e6990919063ffffffff16565b610e6990919063ffffffff16565b905080821015612034576040517f08c379a00000000000000000000000000000000000000000000000000000000081526004018080602001828103825260148152602001807f496e73756666696369656e7420737570706c792e00000000000000000000000081525060200191505060405180910390fd5b6001600d60146101000a81548160ff0219169083151502179055508c6001819055508b600381905550612074600354600154610f7790919063ffffffff16565b6004819055506120b26001546120a4670de0b6b3a7640000682086ac351052600000610ef190919063ffffffff16565b610f7790919063ffffffff16565b6006819055506120f06001546120e2670de0b6b3a7640000680176b344f2a78c0000610ef190919063ffffffff16565b610f7790919063ffffffff16565b6007819055508a600860006101000a81548173ffffffffffffffffffffffffffffffffffffffff021916908373ffffffffffffffffffffffffffffffffffffffff16021790555089600960006101000a81548173ffffffffffffffffffffffffffffffffffffffff021916908373ffffffffffffffffffffffffffffffffffffffff16021790555088600a60006101000a81548173ffffffffffffffffffffffffffffffffffffffff021916908373ffffffffffffffffffffffffffffffffffffffff16021790555087600b60006101000a81548173ffffffffffffffffffffffffffffffffffffffff021916908373ffffffffffffffffffffffffffffffffffffffff16021790555086600c60006101000a81548173ffffffffffffffffffffffffffffffffffffffff021916908373ffffffffffffffffffffffffffffffffffffffff16021790555085600d60006101000a81548173ffffffffffffffffffffffffffffffffffffffff021916908373ffffffffffffffffffffffffffffffffffffffff1602179055506122c6858580806020026020016040519081016040528093929190818152602001838360200280828437600081840152601f19601f82011690508083019250505050505050612398565b7f17c3338141363aab2512c08f8a7764328ca95979f7057663eb93f7e250139b4c60405160405180910390a150505050505050505050505050565b680176b344f2a78c000081565b6000600960009054906101000a900473ffffffffffffffffffffffffffffffffffffffff16905090565b682086ac35105260000081565b6000600f60008373ffffffffffffffffffffffffffffffffffffffff1673ffffffffffffffffffffffffffffffffffffffff168152602001908152602001600020549050919050565b6000600154905090565b6123a0610fc1565b73ffffffffffffffffffffffffffffffffffffffff1660008054906101000a900473ffffffffffffffffffffffffffffffffffffffff1673ffffffffffffffffffffffffffffffffffffffff1614612460576040517f08c379a00000000000000000000000000000000000000000000000000000000081526004018080602001828103825260208152602001807f4f776e61626c653a2063616c6c6572206973206e6f7420746865206f776e657281525060200191505060405180910390fd5b600d60149054906101000a900460ff166124e2576040517f08c379a00000000000000000000000000000000000000000000000000000000081526004018080602001828103825260168152602001807f50726573616c65206973206e6f74206163746976652e0000000000000000000081525060200191505060405180910390fd5b60005b8151811015612663576000600e600084848151811061250057fe5b602002602001015173ffffffffffffffffffffffffffffffffffffffff1673ffffffffffffffffffffffffffffffffffffffff16815260200190815260200160002060009054906101000a900460ff169050801561255e5750612656565b600454600554106125d7576040517f08c379a00000000000000000000000000000000000000000000000000000000081526004018080602001828103825260198152602001807f4d617820636f6e7472696275746f727320726561636865642e0000000000000081525060200191505060405180910390fd5b6005600081548092919060010191905055506001600e60008585815181106125fb57fe5b602002602001015173ffffffffffffffffffffffffffffffffffffffff1673ffffffffffffffffffffffffffffffffffffffff16815260200190815260200160002060006101000a81548160ff021916908315150217905550505b80806001019150506124e5565b5050565b61266f610fc1565b73ffffffffffffffffffffffffffffffffffffffff1660008054906101000a900473ffffffffffffffffffffffffffffffffffffffff1673ffffffffffffffffffffffffffffffffffffffff161461272f576040517f08c379a00000000000000000000000000000000000000000000000000000000081526004018080602001828103825260208152602001807f4f776e61626c653a2063616c6c6572206973206e6f7420746865206f776e657281525060200191505060405180910390fd5b600073ffffffffffffffffffffffffffffffffffffffff168173ffffffffffffffffffffffffffffffffffffffff1614156127b5576040517f08c379a00000000000000000000000000000000000000000000000000000000081526004018080602001828103825260268152602001806129f96026913960400191505060405180910390fd5b8073ffffffffffffffffffffffffffffffffffffffff1660008054906101000a900473ffffffffffffffffffffffffffffffffffffffff1673ffffffffffffffffffffffffffffffffffffffff167f8be0079c531659141344cd1fd0a4f28419497f9722a3daafe3b4186f6b6457e060405160405180910390a3806000806101000a81548173ffffffffffffffffffffffffffffffffffffffff021916908373ffffffffffffffffffffffffffffffffffffffff16021790555050565b600083831115829061291f576040517f08c379a00000000000000000000000000000000000000000000000000000000081526004018080602001828103825283818151815260200191508051906020019080838360005b838110156128e45780820151818401526020810190506128c9565b50505050905090810190601f1680156129115780820380516001836020036101000a031916815260200191505b509250505060405180910390fd5b5060008385039050809150509392505050565b600080831182906129de576040517f08c379a00000000000000000000000000000000000000000000000000000000081526004018080602001828103825283818151815260200191508051906020019080838360005b838110156129a3578082015181840152602081019050612988565b50505050905090810190601f1680156129d05780820380516001836020036101000a031916815260200191505b509250505060405180910390fd5b5060008385816129ea57fe5b04905080915050939250505056fe4f776e61626c653a206e6577206f776e657220697320746865207a65726f2061646472657373536166654d6174683a206d756c7469706c69636174696f6e206f766572666c6f77a264697066735822122021312b6a59a0c1425f8db47c71b43e7a0afa57f7ba104aa3b5adf3ef5b1f978f64736f6c634300060c0033",
  "immutableReferences": {},
  "source": "// SPDX-License-Identifier: MIT\npragma solidity >=0.4.22 <0.9.0;\n\nimport \"./interfaces/IBuyback.sol\";\nimport \"./interfaces/IPresale.sol\";\nimport \"./interfaces/IToken.sol\";\nimport \"./interfaces/IUniswapV2Router02.sol\";\nimport \"@openzeppelin/contracts/access/Ownable.sol\";\nimport \"@openzeppelin/contracts/token/ERC20/IERC20.sol\";\nimport \"@openzeppelin/contracts/math/SafeMath.sol\";\nimport \"@openzeppelin/contracts/math/Math.sol\";\n\ncontract Presale is Ownable, IPresale {\n    event PresaleStarted();\n    event FcfsActivated();\n    event PresaleEnded();\n    event ContributionAccepted(\n        address indexed _contributor,\n        uint256 _contribution,\n        uint256 _receivedTokens,\n        uint256 _contributions\n    );\n    event ContributionRefunded(address indexed _contributor, uint256 _contribution);\n\n    using SafeMath for uint256;\n\n    uint256 public constant BUYBACK_ALLOCATION_PERCENT = 50;\n    uint256 public constant LIQUIDITY_ALLOCATION_PERCENT = 10;\n    uint256 public constant PRESALE_MAX_SUPPLY = 600 * 10**18; // if 600 eth collected, otherwise leftover burned\n    uint256 public constant LIQUIDITY_MAX_SUPPLY = 27 * 10**18; // if 600 eth collected (360 eth for liquidity), otherwise leftover burned\n    uint256 public constant RC_FARM_SUPPLY = 1000 * 10**18;\n    uint256 public constant RC_ETH_FARM_SUPPLY = 1600 * 10**18;\n\n    uint256 private hardcap;\n    uint256 private collected;\n    uint256 private maxContribution;\n    uint256 private maxContributorsCount;\n    uint256 private contributorsCount;\n    uint256 private contributorTokensPerCollectedEth;\n    uint256 private liquidityTokensPerCollectedEth;\n    address private token;\n    address private buyback;\n    address private liquidityLock;\n    address private uniswapRouter;\n    address private rcFarm;\n    address private rcEthFarm;\n    bool private isPresaleActiveFlag;\n    bool private isFcfsActiveFlag;\n    bool private wasPresaleEndedFlag;\n    mapping(address => bool) private contributors;\n    mapping(address => uint256) private contributions;\n\n    modifier presaleActive() {\n        require(isPresaleActiveFlag, \"Presale is not active.\");\n        _;\n    }\n\n    modifier presaleNotActive() {\n        require(!isPresaleActiveFlag, \"Presale is active.\");\n        _;\n    }\n\n    modifier presaleNotEnded() {\n        require(!wasPresaleEndedFlag, \"Presale was ended.\");\n        _;\n    }\n\n    modifier sufficientSupply(address _token) {\n        uint256 supply = IERC20(_token).balanceOf(address(this));\n        uint256 minSupply = PRESALE_MAX_SUPPLY.add(LIQUIDITY_MAX_SUPPLY).add(RC_FARM_SUPPLY).add(RC_ETH_FARM_SUPPLY);\n        require(supply >= minSupply, \"Insufficient supply.\");\n        _;\n    }\n\n    modifier senderEligibleToContribute() {\n        require(isFcfsActiveFlag || contributors[msg.sender], \"Not eligible to participate.\");\n        _;\n    }\n\n    function tokenAddress() external view override returns (address) {\n        return token;\n    }\n\n    function buybackAddress() external view override returns (address) {\n        return buyback;\n    }\n\n    function liquidityLockAddress() external view override returns (address) {\n        return liquidityLock;\n    }\n\n    function uniswapRouterAddress() external view override returns (address) {\n        return uniswapRouter;\n    }\n\n    function rcFarmAddress() external view override returns (address) {\n        return rcFarm;\n    }\n\n    function rcEthFarmAddress() external view override returns (address) {\n        return rcEthFarm;\n    }\n\n    function collectedAmount() external view override returns (uint256) {\n        return collected;\n    }\n\n    function hardcapAmount() external view override returns (uint256) {\n        return hardcap;\n    }\n\n    function maxContributionAmount() external view override returns (uint256) {\n        return maxContribution;\n    }\n\n    function isPresaleActive() external view override returns (bool) {\n        return isPresaleActiveFlag;\n    }\n\n    function isFcfsActive() external view override returns (bool) {\n        return isFcfsActiveFlag;\n    }\n\n    function wasPresaleEnded() external view override returns (bool) {\n        return wasPresaleEndedFlag;\n    }\n\n    function isWhitelisted(address _contributor) external view override returns (bool) {\n        return contributors[_contributor];\n    }\n\n    function contribution(address _contributor) external view override returns (uint256) {\n        return contributions[_contributor];\n    }\n\n    function addContributors(address[] memory _contributors) public override onlyOwner presaleActive {\n        for (uint256 i; i < _contributors.length; i++) {\n            bool isAlreadyAdded = contributors[_contributors[i]];\n            if (isAlreadyAdded) {\n                continue;\n            }\n            require(contributorsCount < maxContributorsCount, \"Max contributors reached.\");\n            contributorsCount++;\n            contributors[_contributors[i]] = true;\n        }\n    }\n\n    function start(\n        uint256 _hardcap,\n        uint256 _maxContribution,\n        address _token,\n        address _buyback,\n        address _liquidityLock,\n        address _uniswapRouter,\n        address _rcFarm,\n        address _rcEthFarm,\n        address[] calldata _contributors\n    ) external override onlyOwner presaleNotActive presaleNotEnded sufficientSupply(_token) {\n        isPresaleActiveFlag = true;\n        hardcap = _hardcap;\n        maxContribution = _maxContribution;\n        maxContributorsCount = hardcap.div(maxContribution);\n        contributorTokensPerCollectedEth = PRESALE_MAX_SUPPLY.mul(10**18).div(hardcap);\n        liquidityTokensPerCollectedEth = LIQUIDITY_MAX_SUPPLY.mul(10**18).div(hardcap);\n        token = _token;\n        buyback = _buyback;\n        liquidityLock = _liquidityLock;\n        uniswapRouter = _uniswapRouter;\n        rcFarm = _rcFarm;\n        rcEthFarm = _rcEthFarm;\n        addContributors(_contributors);\n        emit PresaleStarted();\n    }\n\n    function activateFcfs() external override onlyOwner presaleActive {\n        if (isFcfsActiveFlag) {\n            return;\n        }\n        isFcfsActiveFlag = true;\n        emit FcfsActivated();\n    }\n\n    function end(address payable _team) external override onlyOwner presaleActive {\n        IToken rollerCoaster = IToken(token);\n        uint256 totalCollected = address(this).balance;\n\n        // calculate buyback and execute it\n        uint256 buybackEths = totalCollected.mul(BUYBACK_ALLOCATION_PERCENT).div(100);\n        IBuyback(buyback).init{ value: buybackEths }(token, uniswapRouter);\n\n        // calculate liquidity share\n        uint256 liquidityEths = totalCollected.mul(LIQUIDITY_ALLOCATION_PERCENT).div(100);\n        uint256 liquidityTokens = liquidityTokensPerCollectedEth.mul(totalCollected).div(10**18);\n\n        // approve router and add liquidity\n        rollerCoaster.approve(uniswapRouter, liquidityTokens);\n        IUniswapV2Router02(uniswapRouter).addLiquidityETH{ value: liquidityEths }(\n            token,\n            liquidityTokens,\n            liquidityTokens,\n            liquidityEths,\n            liquidityLock,\n            block.timestamp\n        );\n\n        // transfer team share\n        uint256 teamEths = totalCollected.sub(liquidityEths).sub(buybackEths);\n        _team.transfer(teamEths);\n\n        // transfer farm shares\n        rollerCoaster.transfer(rcFarm, RC_FARM_SUPPLY);\n        rollerCoaster.transfer(rcEthFarm, RC_ETH_FARM_SUPPLY);\n\n        // burn the remaining balance and unlock token\n        rollerCoaster.burnDistributorTokensAndUnlock();\n\n        // end presale\n        isPresaleActiveFlag = false;\n        wasPresaleEndedFlag = true;\n        emit PresaleEnded();\n    }\n\n    receive() external payable presaleActive senderEligibleToContribute {\n        uint256 totalContributionLeft = PRESALE_MAX_SUPPLY.sub(collected);\n        uint256 senderContributionLeft = maxContribution.sub(contributions[msg.sender]);\n        uint256 contributionLeft = Math.min(totalContributionLeft, senderContributionLeft);\n\n        uint256 valueToAccept = Math.min(msg.value, contributionLeft);\n        if (valueToAccept > 0) {\n            collected = collected.add(valueToAccept);\n            contributions[msg.sender] = contributions[msg.sender].add(valueToAccept);\n\n            uint256 tokensToTransfer = contributorTokensPerCollectedEth.mul(valueToAccept).div(10**18);\n            IERC20(token).transfer(msg.sender, tokensToTransfer);\n\n            emit ContributionAccepted(msg.sender, valueToAccept, tokensToTransfer, collected);\n        }\n\n        uint256 valueToRefund = msg.value.sub(valueToAccept);\n        if (valueToRefund > 0) {\n            _msgSender().transfer(valueToRefund);\n\n            emit ContributionRefunded(msg.sender, valueToRefund);\n        }\n    }\n}\n",
  "sourcePath": "/home/keso/projects/crypto/rollercoaster-token/contracts/Presale.sol",
  "compiler": {
    "name": "solc",
    "version": "0.6.12+commit.27d51765.Emscripten.clang"
  },
  "schemaVersion": "3.3.3",
  "updatedAt": "2021-02-03T15:07:35.239Z",
  "devdoc": {
    "kind": "dev",
    "methods": {
      "owner()": {
        "details": "Returns the address of the current owner."
      },
      "renounceOwnership()": {
        "details": "Leaves the contract without owner. It will not be possible to call `onlyOwner` functions anymore. Can only be called by the current owner. NOTE: Renouncing ownership will leave the contract without an owner, thereby removing any functionality that is only available to the owner."
      },
      "transferOwnership(address)": {
        "details": "Transfers ownership of the contract to a new account (`newOwner`). Can only be called by the current owner."
      }
    },
    "version": 1
  },
  "userdoc": {
    "kind": "user",
    "methods": {},
    "version": 1
  }
}