{
  "contractName": "RcEthFarm",
  "abi": [
    {
      "inputs": [],
      "name": "claim",
      "outputs": [],
      "stateMutability": "nonpayable",
      "type": "function"
    },
    {
      "inputs": [],
      "name": "farmTokenAddress",
      "outputs": [
        {
          "internalType": "address",
          "name": "",
          "type": "address"
        }
      ],
      "stateMutability": "view",
      "type": "function",
      "constant": true
    },
    {
      "inputs": [],
      "name": "harvest",
      "outputs": [],
      "stateMutability": "nonpayable",
      "type": "function"
    },
    {
      "inputs": [
        {
          "internalType": "address",
          "name": "_activator",
          "type": "address"
        }
      ],
      "name": "initialize",
      "outputs": [],
      "stateMutability": "nonpayable",
      "type": "function"
    },
    {
      "inputs": [],
      "name": "rewardTokenAddress",
      "outputs": [
        {
          "internalType": "address",
          "name": "",
          "type": "address"
        }
      ],
      "stateMutability": "view",
      "type": "function",
      "constant": true
    },
    {
      "inputs": [
        {
          "internalType": "uint256",
          "name": "_amount",
          "type": "uint256"
        }
      ],
      "name": "stake",
      "outputs": [],
      "stateMutability": "nonpayable",
      "type": "function"
    },
    {
      "inputs": [
        {
          "internalType": "address",
          "name": "_rewardToken",
          "type": "address"
        },
        {
          "internalType": "address",
          "name": "_farmToken",
          "type": "address"
        }
      ],
      "name": "startFarming",
      "outputs": [],
      "stateMutability": "nonpayable",
      "type": "function"
    },
    {
      "inputs": [],
      "name": "totalRewardSupply",
      "outputs": [
        {
          "internalType": "uint256",
          "name": "",
          "type": "uint256"
        }
      ],
      "stateMutability": "view",
      "type": "function",
      "constant": true
    },
    {
      "inputs": [
        {
          "internalType": "uint256",
          "name": "_amount",
          "type": "uint256"
        }
      ],
      "name": "withdraw",
      "outputs": [],
      "stateMutability": "nonpayable",
      "type": "function"
    }
  ],
  "bytecode": "0x608060405234801561001057600080fd5b50610a61806100206000396000f3fe608060405234801561001057600080fd5b50600436106100935760003560e01c80634e71d92d116100665780634e71d92d146101685780638a8a759e14610172578063a694fc3a14610190578063ba43b949146101be578063c4d66de8146101f257610093565b8063125f9e3314610098578063224d5ab5146100cc5780632e1a7d4d146101305780634641257d1461015e575b600080fd5b6100a0610236565b604051808273ffffffffffffffffffffffffffffffffffffffff16815260200191505060405180910390f35b61012e600480360360408110156100e257600080fd5b81019080803573ffffffffffffffffffffffffffffffffffffffff169060200190929190803573ffffffffffffffffffffffffffffffffffffffff169060200190929190505050610260565b005b61015c6004803603602081101561014657600080fd5b8101908080359060200190929190505050610630565b005b610166610633565b005b610170610635565b005b61017a610637565b6040518082815260200191505060405180910390f35b6101bc600480360360208110156101a657600080fd5b8101908080359060200190929190505050610641565b005b6101c6610644565b604051808273ffffffffffffffffffffffffffffffffffffffff16815260200191505060405180910390f35b6102346004803603602081101561020857600080fd5b81019080803573ffffffffffffffffffffffffffffffffffffffff16906020019092919050505061066e565b005b6000600360009054906101000a900473ffffffffffffffffffffffffffffffffffffffff16905090565b600260009054906101000a900473ffffffffffffffffffffffffffffffffffffffff1673ffffffffffffffffffffffffffffffffffffffff163373ffffffffffffffffffffffffffffffffffffffff1614610323576040517f08c379a00000000000000000000000000000000000000000000000000000000081526004018080602001828103825260178152602001807f4f6e6c7920616374697661746f7220616c6c6f7765642e00000000000000000081525060200191505060405180910390fd5b600460149054906101000a900460ff16156103a6576040517f08c379a000000000000000000000000000000000000000000000000000000000815260040180806020018281038252601c8152602001807f4661726d696e672077617320616c726561647920737461727465642e0000000081525060200191505060405180910390fd5b8160008173ffffffffffffffffffffffffffffffffffffffff166370a08231306040518263ffffffff1660e01b8152600401808273ffffffffffffffffffffffffffffffffffffffff16815260200191505060206040518083038186803b15801561041057600080fd5b505afa158015610424573d6000803e3d6000fd5b505050506040513d602081101561043a57600080fd5b81019080805190602001909291905050509050600081116104c3576040517f08c379a00000000000000000000000000000000000000000000000000000000081526004018080602001828103825260208152602001807f52657761726420746f6b656e7320617265206e6f74206465706f73697465642e81525060200191505060405180910390fd5b83600360006101000a81548173ffffffffffffffffffffffffffffffffffffffff021916908373ffffffffffffffffffffffffffffffffffffffff16021790555082600460006101000a81548173ffffffffffffffffffffffffffffffffffffffff021916908373ffffffffffffffffffffffffffffffffffffffff160217905550600360009054906101000a900473ffffffffffffffffffffffffffffffffffffffff1673ffffffffffffffffffffffffffffffffffffffff166370a08231306040518263ffffffff1660e01b8152600401808273ffffffffffffffffffffffffffffffffffffffff16815260200191505060206040518083038186803b1580156105ce57600080fd5b505afa1580156105e2573d6000803e3d6000fd5b505050506040513d60208110156105f857600080fd5b81019080805190602001909291905050506001819055506001600460146101000a81548160ff02191690831515021790555050505050565b50565b565b565b6000600154905090565b50565b6000600460009054906101000a900473ffffffffffffffffffffffffffffffffffffffff16905090565b600060019054906101000a900460ff168061068d575061068c610776565b5b806106a3575060008054906101000a900460ff16155b6106f8576040517f08c379a000000000000000000000000000000000000000000000000000000000815260040180806020018281038252602e8152602001806109fe602e913960400191505060405180910390fd5b60008060019054906101000a900460ff161590508015610748576001600060016101000a81548160ff02191690831515021790555060016000806101000a81548160ff0219169083151502179055505b61075182610787565b80156107725760008060016101000a81548160ff0219169083151502179055505b5050565b60006107813061088f565b15905090565b600060019054906101000a900460ff16806107a657506107a5610776565b5b806107bc575060008054906101000a900460ff16155b610811576040517f08c379a000000000000000000000000000000000000000000000000000000000815260040180806020018281038252602e8152602001806109fe602e913960400191505060405180910390fd5b60008060019054906101000a900460ff161590508015610861576001600060016101000a81548160ff02191690831515021790555060016000806101000a81548160ff0219169083151502179055505b61086a826108a2565b801561088b5760008060016101000a81548160ff0219169083151502179055505b5050565b600080823b905060008111915050919050565b600060019054906101000a900460ff16806108c157506108c0610776565b5b806108d7575060008054906101000a900460ff16155b61092c576040517f08c379a000000000000000000000000000000000000000000000000000000000815260040180806020018281038252602e8152602001806109fe602e913960400191505060405180910390fd5b60008060019054906101000a900460ff16159050801561097c576001600060016101000a81548160ff02191690831515021790555060016000806101000a81548160ff0219169083151502179055505b81600260006101000a81548173ffffffffffffffffffffffffffffffffffffffff021916908373ffffffffffffffffffffffffffffffffffffffff1602179055506000600460146101000a81548160ff02191690831515021790555080156109f95760008060016101000a81548160ff0219169083151502179055505b505056fe496e697469616c697a61626c653a20636f6e747261637420697320616c726561647920696e697469616c697a6564a26469706673582212200f7ba001df0fe7d8967a0a052076e96433d793aedfb561eab83e0f853ee334d764736f6c634300060c0033",
  "immutableReferences": {},
  "source": "// SPDX-License-Identifier: MIT\npragma solidity >=0.4.22 <0.9.0;\n\nimport \"./Farm.sol\";\n\ncontract RcEthFarm is Farm {}\n",
  "sourcePath": "/home/keso/projects/crypto/rollercoaster-token/contracts/RcEthFarm.sol",
  "compiler": {
    "name": "solc",
    "version": "0.6.12+commit.27d51765.Emscripten.clang"
  },
  "schemaVersion": "3.3.3",
  "updatedAt": "2021-02-08T09:55:21.830Z",
  "networkType": "ethereum",
  "devdoc": {
    "kind": "dev",
    "methods": {},
    "version": 1
  },
  "userdoc": {
    "kind": "user",
    "methods": {},
    "version": 1
  }
}