{
  "contractName": "TokenDistributorMock",
  "abi": [
    {
      "inputs": [
        {
          "internalType": "uint256",
          "name": "_maxSupply",
          "type": "uint256"
        }
      ],
      "stateMutability": "nonpayable",
      "type": "constructor"
    },
    {
      "inputs": [],
      "name": "getMaxSupply",
      "outputs": [
        {
          "internalType": "uint256",
          "name": "",
          "type": "uint256"
        }
      ],
      "stateMutability": "view",
      "type": "function"
    },
    {
      "inputs": [
        {
          "internalType": "address",
          "name": "_token",
          "type": "address"
        },
        {
          "internalType": "address",
          "name": "_to",
          "type": "address"
        },
        {
          "internalType": "uint256",
          "name": "_amount",
          "type": "uint256"
        }
      ],
      "name": "transfer",
      "outputs": [],
      "stateMutability": "nonpayable",
      "type": "function"
    },
    {
      "inputs": [
        {
          "internalType": "address",
          "name": "_token",
          "type": "address"
        }
      ],
      "name": "burnDistributorTokensAndUnlock",
      "outputs": [],
      "stateMutability": "nonpayable",
      "type": "function"
    }
  ],
  "bytecode": "0x608060405234801561001057600080fd5b506040516102c53803806102c58339818101604052602081101561003357600080fd5b8101908080519060200190929190505050806000819055505061026a8061005b6000396000f3fe608060405234801561001057600080fd5b50600436106100415760003560e01c80634c0f38c214610046578063879595f414610064578063beabacc8146100a8575b600080fd5b61004e610116565b6040518082815260200191505060405180910390f35b6100a66004803603602081101561007a57600080fd5b81019080803573ffffffffffffffffffffffffffffffffffffffff16906020019092919050505061011f565b005b610114600480360360608110156100be57600080fd5b81019080803573ffffffffffffffffffffffffffffffffffffffff169060200190929190803573ffffffffffffffffffffffffffffffffffffffff16906020019092919080359060200190929190505050610182565b005b60008054905090565b8073ffffffffffffffffffffffffffffffffffffffff1663aa2d9f0b6040518163ffffffff1660e01b8152600401600060405180830381600087803b15801561016757600080fd5b505af115801561017b573d6000803e3d6000fd5b5050505050565b8273ffffffffffffffffffffffffffffffffffffffff1663a9059cbb83836040518363ffffffff1660e01b8152600401808373ffffffffffffffffffffffffffffffffffffffff16815260200182815260200192505050602060405180830381600087803b1580156101f357600080fd5b505af1158015610207573d6000803e3d6000fd5b505050506040513d602081101561021d57600080fd5b81019080805190602001909291905050505050505056fea264697066735822122055433acb8d0815accae5849ea260d02eb31f6d8962723a3b78d4169a12a4964364736f6c634300060c0033",
  "immutableReferences": {},
  "source": "// SPDX-License-Identifier: MIT\npragma solidity >=0.4.22 <0.9.0;\n\nimport \"../interfaces/ITokenDistributor.sol\";\nimport \"../interfaces/IToken.sol\";\nimport \"@openzeppelin/contracts/token/ERC20/IERC20.sol\";\n\ncontract TokenDistributorMock is ITokenDistributor {\n    uint256 private maxSupply;\n\n    constructor(uint256 _maxSupply) public {\n        maxSupply = _maxSupply;\n    }\n\n    function getMaxSupply() external view override returns (uint256) {\n        return maxSupply;\n    }\n\n    function transfer(\n        address _token,\n        address _to,\n        uint256 _amount\n    ) external {\n        IERC20(_token).transfer(_to, _amount);\n    }\n\n    function burnDistributorTokensAndUnlock(address _token) external {\n        IToken(_token).burnDistributorTokensAndUnlock();\n    }\n}\n",
  "sourcePath": "/home/keso/projects/crypto/rollercoaster-token/contracts/mocks/TokenDistributorMock.sol",
  "compiler": {
    "name": "solc",
    "version": "0.6.12+commit.27d51765.Emscripten.clang"
  },
  "schemaVersion": "3.3.3",
  "updatedAt": "2021-02-08T09:54:57.958Z",
  "devdoc": {
    "kind": "dev",
    "methods": {},
    "version": 1
  },
  "userdoc": {
    "kind": "user",
    "methods": {},
    "version": 1
  }
}