{
  "contractName": "TransferLimiterMock",
  "abi": [
    {
      "inputs": [
        {
          "internalType": "uint256",
          "name": "_transferLimit",
          "type": "uint256"
        }
      ],
      "name": "setTransferLimitPerETH",
      "outputs": [],
      "stateMutability": "nonpayable",
      "type": "function"
    },
    {
      "inputs": [],
      "name": "getTransferLimitPerETH",
      "outputs": [
        {
          "internalType": "uint256",
          "name": "",
          "type": "uint256"
        }
      ],
      "stateMutability": "view",
      "type": "function"
    }
  ],
  "bytecode": "0x608060405234801561001057600080fd5b5060c78061001f6000396000f3fe6080604052348015600f57600080fd5b506004361060325760003560e01c8063197a03bc14603757806380ea6af2146053575b600080fd5b603d607e565b6040518082815260200191505060405180910390f35b607c60048036036020811015606757600080fd5b81019080803590602001909291905050506087565b005b60008054905090565b806000819055505056fea2646970667358221220fd13959e0e83b3dc862340be6a730690bc7cae6b466a1f74668f2b6632b382f764736f6c634300060c0033",
  "immutableReferences": {},
  "source": "// SPDX-License-Identifier: MIT\npragma solidity >=0.4.22 <0.9.0;\n\nimport \"../interfaces/ITransferLimiter.sol\";\n\ncontract TransferLimiterMock is ITransferLimiter {\n    uint256 private transferLimit;\n\n    function setTransferLimitPerETH(uint256 _transferLimit) external {\n        transferLimit = _transferLimit;\n    }\n\n    function getTransferLimitPerETH() external view override returns (uint256) {\n        return transferLimit;\n    }\n}\n",
  "sourcePath": "/home/keso/projects/crypto/rollercoaster-token/contracts/mocks/TransferLimitMock.sol",
  "compiler": {
    "name": "solc",
    "version": "0.6.12+commit.27d51765.Emscripten.clang"
  },
  "schemaVersion": "3.3.3",
  "updatedAt": "2021-02-08T09:54:57.994Z",
  "devdoc": {
    "kind": "dev",
    "methods": {},
    "version": 1
  },
  "userdoc": {
    "kind": "user",
    "methods": {},
    "version": 1
  }
}