{
  "contractName": "UniswapV2Router02Mock",
  "abi": [
    {
      "inputs": [
        {
          "internalType": "uint256",
          "name": "msgValue",
          "type": "uint256"
        },
        {
          "internalType": "address",
          "name": "token",
          "type": "address"
        },
        {
          "internalType": "uint256",
          "name": "amountTokenDesired",
          "type": "uint256"
        },
        {
          "internalType": "uint256",
          "name": "amountTokenMin",
          "type": "uint256"
        },
        {
          "internalType": "uint256",
          "name": "amountETHMin",
          "type": "uint256"
        },
        {
          "internalType": "address",
          "name": "to",
          "type": "address"
        }
      ],
      "name": "addLiquidityETHShouldBeCalledWith",
      "outputs": [],
      "stateMutability": "view",
      "type": "function"
    },
    {
      "inputs": [
        {
          "internalType": "address",
          "name": "token",
          "type": "address"
        },
        {
          "internalType": "uint256",
          "name": "amountTokenDesired",
          "type": "uint256"
        },
        {
          "internalType": "uint256",
          "name": "amountTokenMin",
          "type": "uint256"
        },
        {
          "internalType": "uint256",
          "name": "amountETHMin",
          "type": "uint256"
        },
        {
          "internalType": "address",
          "name": "to",
          "type": "address"
        },
        {
          "internalType": "uint256",
          "name": "deadline",
          "type": "uint256"
        }
      ],
      "name": "addLiquidityETH",
      "outputs": [
        {
          "internalType": "uint256",
          "name": "amountToken",
          "type": "uint256"
        },
        {
          "internalType": "uint256",
          "name": "amountETH",
          "type": "uint256"
        },
        {
          "internalType": "uint256",
          "name": "liquidity",
          "type": "uint256"
        }
      ],
      "stateMutability": "payable",
      "type": "function"
    }
  ],
  "bytecode": "0x608060405234801561001057600080fd5b506105e8806100206000396000f3fe6080604052600436106100295760003560e01c806381ef6d671461002e578063f305d719146100c7575b600080fd5b34801561003a57600080fd5b506100c5600480360360c081101561005157600080fd5b8101908080359060200190929190803573ffffffffffffffffffffffffffffffffffffffff169060200190929190803590602001909291908035906020019092919080359060200190929190803573ffffffffffffffffffffffffffffffffffffffff169060200190929190505050610175565b005b610151600480360360c08110156100dd57600080fd5b81019080803573ffffffffffffffffffffffffffffffffffffffff169060200190929190803590602001909291908035906020019092919080359060200190929190803573ffffffffffffffffffffffffffffffffffffffff16906020019092919080359060200190929190505050610488565b60405180848152602001838152602001828152602001935050505060405180910390f35b60005486146101ec576040517f08c379a000000000000000000000000000000000000000000000000000000000815260040180806020018281038252601e8152602001807f6d73672e76616c756520706172616d65746572206d6973736d617463682e000081525060200191505060405180910390fd5b600160009054906101000a900473ffffffffffffffffffffffffffffffffffffffff1673ffffffffffffffffffffffffffffffffffffffff168573ffffffffffffffffffffffffffffffffffffffff16146102af576040517f08c379a000000000000000000000000000000000000000000000000000000000815260040180806020018281038252601a8152602001807f746f6b656e20706172616d65746572206d6973736d617463682e00000000000081525060200191505060405180910390fd5b6002548414610309576040517f08c379a000000000000000000000000000000000000000000000000000000000815260040180806020018281038252602781526020018061058c6027913960400191505060405180910390fd5b6003548314610363576040517f08c379a00000000000000000000000000000000000000000000000000000000081526004018080602001828103825260238152602001806105486023913960400191505060405180910390fd5b60045482146103bd576040517f08c379a000000000000000000000000000000000000000000000000000000000815260040180806020018281038252602181526020018061056b6021913960400191505060405180910390fd5b600560009054906101000a900473ffffffffffffffffffffffffffffffffffffffff1673ffffffffffffffffffffffffffffffffffffffff168173ffffffffffffffffffffffffffffffffffffffff1614610480576040517f08c379a00000000000000000000000000000000000000000000000000000000081526004018080602001828103825260178152602001807f746f20706172616d65746572206d6973736d617463682e00000000000000000081525060200191505060405180910390fd5b505050505050565b60008060003460008190555088600160006101000a81548173ffffffffffffffffffffffffffffffffffffffff021916908373ffffffffffffffffffffffffffffffffffffffff16021790555087600281905550866003819055508560048190555084600560006101000a81548173ffffffffffffffffffffffffffffffffffffffff021916908373ffffffffffffffffffffffffffffffffffffffff160217905550600093506000925060009150600090509650965096935050505056fe616d6f756e74546f6b656e4d696e20706172616d65746572206d6973736d617463682e616d6f756e744554484d696e20706172616d65746572206d6973736d617463682e616d6f756e74546f6b656e4465736972656420706172616d65746572206d6973736d617463682ea26469706673582212206f8da7cb40e1b9157e0fe17a572b124590079ee114e6970bf596c2678e1bf3c264736f6c634300060c0033",
  "immutableReferences": {},
  "source": "// SPDX-License-Identifier: MIT\npragma solidity >=0.4.22 <0.9.0;\n\nimport \"../interfaces/IUniswapV2Router02.sol\";\n\ncontract UniswapV2Router02Mock is IUniswapV2Router02 {\n    uint256 private _msgValue;\n    address private _token;\n    uint256 private _amountTokenDesired;\n    uint256 private _amountTokenMin;\n    uint256 private _amountETHMin;\n    address private _to;\n\n    function addLiquidityETHShouldBeCalledWith(\n        uint256 msgValue,\n        address token,\n        uint256 amountTokenDesired,\n        uint256 amountTokenMin,\n        uint256 amountETHMin,\n        address to\n    ) external view {\n        require(msgValue == _msgValue, \"msg.value parameter missmatch.\");\n        require(token == _token, \"token parameter missmatch.\");\n        require(amountTokenDesired == _amountTokenDesired, \"amountTokenDesired parameter missmatch.\");\n        require(amountTokenMin == _amountTokenMin, \"amountTokenMin parameter missmatch.\");\n        require(amountETHMin == _amountETHMin, \"amountETHMin parameter missmatch.\");\n        require(to == _to, \"to parameter missmatch.\");\n    }\n\n    function addLiquidityETH(\n        address token,\n        uint256 amountTokenDesired,\n        uint256 amountTokenMin,\n        uint256 amountETHMin,\n        address to,\n        uint256 deadline\n    )\n        external\n        payable\n        virtual\n        override\n        returns (\n            uint256 amountToken,\n            uint256 amountETH,\n            uint256 liquidity\n        )\n    {\n        _msgValue = msg.value;\n        _token = token;\n        _amountTokenDesired = amountTokenDesired;\n        _amountTokenMin = amountTokenMin;\n        _amountETHMin = amountETHMin;\n        _to = to;\n\n        // to silence the warnings\n        deadline = 0;\n        amountToken = 0;\n        amountETH = 0;\n        liquidity = 0;\n    }\n}\n",
  "sourcePath": "/home/keso/projects/crypto/rollercoaster-token/contracts/mocks/UniswapV2Router02Mock.sol",
  "compiler": {
    "name": "solc",
    "version": "0.6.12+commit.27d51765.Emscripten.clang"
  },
  "schemaVersion": "3.3.3",
  "updatedAt": "2021-02-02T15:13:52.160Z",
  "devdoc": {
    "kind": "dev",
    "methods": {},
    "version": 1
  },
  "userdoc": {
    "kind": "user",
    "methods": {},
    "version": 1
  }
}