{
  "contractName": "UniswapV2Router02Mock",
  "abi": [
    {
      "inputs": [
        {
          "internalType": "uint256",
          "name": "msgValue",
          "type": "uint256"
        },
        {
          "internalType": "address",
          "name": "token",
          "type": "address"
        },
        {
          "internalType": "uint256",
          "name": "amountTokenDesired",
          "type": "uint256"
        },
        {
          "internalType": "uint256",
          "name": "amountTokenMin",
          "type": "uint256"
        },
        {
          "internalType": "uint256",
          "name": "amountETHMin",
          "type": "uint256"
        },
        {
          "internalType": "address",
          "name": "to",
          "type": "address"
        }
      ],
      "name": "addLiquidityETHShouldBeCalledWith",
      "outputs": [],
      "stateMutability": "view",
      "type": "function"
    },
    {
      "inputs": [
        {
          "internalType": "address",
          "name": "token",
          "type": "address"
        },
        {
          "internalType": "uint256",
          "name": "amountTokenDesired",
          "type": "uint256"
        },
        {
          "internalType": "uint256",
          "name": "amountTokenMin",
          "type": "uint256"
        },
        {
          "internalType": "uint256",
          "name": "amountETHMin",
          "type": "uint256"
        },
        {
          "internalType": "address",
          "name": "to",
          "type": "address"
        },
        {
          "internalType": "uint256",
          "name": "deadline",
          "type": "uint256"
        }
      ],
      "name": "addLiquidityETH",
      "outputs": [
        {
          "internalType": "uint256",
          "name": "amountToken",
          "type": "uint256"
        },
        {
          "internalType": "uint256",
          "name": "amountETH",
          "type": "uint256"
        },
        {
          "internalType": "uint256",
          "name": "liquidity",
          "type": "uint256"
        }
      ],
      "stateMutability": "payable",
      "type": "function"
    },
    {
      "inputs": [
        {
          "internalType": "uint256",
          "name": "msgValue",
          "type": "uint256"
        },
        {
          "internalType": "uint256",
          "name": "amountOutMin",
          "type": "uint256"
        },
        {
          "internalType": "address[]",
          "name": "path",
          "type": "address[]"
        },
        {
          "internalType": "address",
          "name": "to",
          "type": "address"
        }
      ],
      "name": "swapExactETHForTokensShouldBeCalledWith",
      "outputs": [],
      "stateMutability": "view",
      "type": "function"
    },
    {
      "inputs": [
        {
          "internalType": "uint256",
          "name": "amountOut",
          "type": "uint256"
        }
      ],
      "name": "setSwapExactETHForTokensAmountOut",
      "outputs": [],
      "stateMutability": "nonpayable",
      "type": "function"
    },
    {
      "inputs": [
        {
          "internalType": "uint256",
          "name": "amountOutMin",
          "type": "uint256"
        },
        {
          "internalType": "address[]",
          "name": "path",
          "type": "address[]"
        },
        {
          "internalType": "address",
          "name": "to",
          "type": "address"
        },
        {
          "internalType": "uint256",
          "name": "deadline",
          "type": "uint256"
        }
      ],
      "name": "swapExactETHForTokens",
      "outputs": [
        {
          "internalType": "uint256[]",
          "name": "amounts",
          "type": "uint256[]"
        }
      ],
      "stateMutability": "payable",
      "type": "function"
    }
  ],
  "bytecode": "0x608060405234801561001057600080fd5b50610d1c806100206000396000f3fe60806040526004361061004a5760003560e01c8063238f1d9b1461004f57806356be09cb146101095780637ff36ab51461014457806381ef6d6714610246578063f305d719146102df575b600080fd5b34801561005b57600080fd5b506101076004803603608081101561007257600080fd5b810190808035906020019092919080359060200190929190803590602001906401000000008111156100a357600080fd5b8201836020820111156100b557600080fd5b803590602001918460208302840111640100000000831117156100d757600080fd5b9091929391929390803573ffffffffffffffffffffffffffffffffffffffff16906020019092919050505061038d565b005b34801561011557600080fd5b506101426004803603602081101561012c57600080fd5b81019080803590602001909291905050506106a4565b005b6101ef6004803603608081101561015a57600080fd5b81019080803590602001909291908035906020019064010000000081111561018157600080fd5b82018360208201111561019357600080fd5b803590602001918460208302840111640100000000831117156101b557600080fd5b9091929391929390803573ffffffffffffffffffffffffffffffffffffffff169060200190929190803590602001909291905050506106ae565b6040518080602001828103825283818151815260200191508051906020019060200280838360005b83811015610232578082015181840152602081019050610217565b505050509050019250505060405180910390f35b34801561025257600080fd5b506102dd600480360360c081101561026957600080fd5b8101908080359060200190929190803573ffffffffffffffffffffffffffffffffffffffff169060200190929190803590602001909291908035906020019092919080359060200190929190803573ffffffffffffffffffffffffffffffffffffffff16906020019092919050505061078b565b005b610369600480360360c08110156102f557600080fd5b81019080803573ffffffffffffffffffffffffffffffffffffffff169060200190929190803590602001909291908035906020019092919080359060200190929190803573ffffffffffffffffffffffffffffffffffffffff16906020019092919080359060200190929190505050610a9e565b60405180848152602001838152602001828152602001935050505060405180910390f35b6006548514610404576040517f08c379a000000000000000000000000000000000000000000000000000000000815260040180806020018281038252601e8152602001807f6d73672e76616c756520706172616d65746572206d6973736d617463682e000081525060200191505060405180910390fd5b600754841461045e576040517f08c379a0000000000000000000000000000000000000000000000000000000008152600401808060200182810382526021815260200180610c396021913960400191505060405180910390fd5b60088054905083839050146104db576040517f08c379a00000000000000000000000000000000000000000000000000000000081526004018080602001828103825260208152602001807f7061746820706172616d65746572206c656e677468206d6973736d617463682e81525060200191505060405180910390fd5b60005b838390508110156105d957600881815481106104f657fe5b9060005260206000200160009054906101000a900473ffffffffffffffffffffffffffffffffffffffff1673ffffffffffffffffffffffffffffffffffffffff1684848381811061054357fe5b9050602002013573ffffffffffffffffffffffffffffffffffffffff1673ffffffffffffffffffffffffffffffffffffffff16146105cc576040517f08c379a0000000000000000000000000000000000000000000000000000000008152600401808060200182810382526022815260200180610c7d6022913960400191505060405180910390fd5b80806001019150506104de565b50600960009054906101000a900473ffffffffffffffffffffffffffffffffffffffff1673ffffffffffffffffffffffffffffffffffffffff168173ffffffffffffffffffffffffffffffffffffffff161461069d576040517f08c379a00000000000000000000000000000000000000000000000000000000081526004018080602001828103825260178152602001807f746f20706172616d65746572206d6973736d617463682e00000000000000000081525060200191505060405180910390fd5b5050505050565b80600a8190555050565b606034600681905550856007819055508484600891906106cf929190610b5d565b5082600960006101000a81548173ffffffffffffffffffffffffffffffffffffffff021916908373ffffffffffffffffffffffffffffffffffffffff160217905550600091508484905067ffffffffffffffff8111801561072f57600080fd5b5060405190808252806020026020018201604052801561075e5781602001602082028036833780820191505090505b509050600a5481600187879050038151811061077657fe5b60200260200101818152505095945050505050565b6000548614610802576040517f08c379a000000000000000000000000000000000000000000000000000000000815260040180806020018281038252601e8152602001807f6d73672e76616c756520706172616d65746572206d6973736d617463682e000081525060200191505060405180910390fd5b600160009054906101000a900473ffffffffffffffffffffffffffffffffffffffff1673ffffffffffffffffffffffffffffffffffffffff168573ffffffffffffffffffffffffffffffffffffffff16146108c5576040517f08c379a000000000000000000000000000000000000000000000000000000000815260040180806020018281038252601a8152602001807f746f6b656e20706172616d65746572206d6973736d617463682e00000000000081525060200191505060405180910390fd5b600254841461091f576040517f08c379a0000000000000000000000000000000000000000000000000000000008152600401808060200182810382526027815260200180610cc06027913960400191505060405180910390fd5b6003548314610979576040517f08c379a0000000000000000000000000000000000000000000000000000000008152600401808060200182810382526023815260200180610c5a6023913960400191505060405180910390fd5b60045482146109d3576040517f08c379a0000000000000000000000000000000000000000000000000000000008152600401808060200182810382526021815260200180610c9f6021913960400191505060405180910390fd5b600560009054906101000a900473ffffffffffffffffffffffffffffffffffffffff1673ffffffffffffffffffffffffffffffffffffffff168173ffffffffffffffffffffffffffffffffffffffff1614610a96576040517f08c379a00000000000000000000000000000000000000000000000000000000081526004018080602001828103825260178152602001807f746f20706172616d65746572206d6973736d617463682e00000000000000000081525060200191505060405180910390fd5b505050505050565b60008060003460008190555088600160006101000a81548173ffffffffffffffffffffffffffffffffffffffff021916908373ffffffffffffffffffffffffffffffffffffffff16021790555087600281905550866003819055508560048190555084600560006101000a81548173ffffffffffffffffffffffffffffffffffffffff021916908373ffffffffffffffffffffffffffffffffffffffff1602179055506000935060009250600091506000905096509650969350505050565b828054828255906000526020600020908101928215610bec579160200282015b82811115610beb57823573ffffffffffffffffffffffffffffffffffffffff168260006101000a81548173ffffffffffffffffffffffffffffffffffffffff021916908373ffffffffffffffffffffffffffffffffffffffff16021790555091602001919060010190610b7d565b5b509050610bf99190610bfd565b5090565b5b80821115610c3457600081816101000a81549073ffffffffffffffffffffffffffffffffffffffff021916905550600101610bfe565b509056fe616d6f756e744f75744d696e20706172616d65746572206d6973736d617463682e616d6f756e74546f6b656e4d696e20706172616d65746572206d6973736d617463682e7061746820706172616d6574657220656c656d656e7473206d6973736d617463682e616d6f756e744554484d696e20706172616d65746572206d6973736d617463682e616d6f756e74546f6b656e4465736972656420706172616d65746572206d6973736d617463682ea2646970667358221220f2b0732fe418eff4d40d46f3471d6d0d84d08f4e6e7f3969cc611f6dca4ff70764736f6c634300060c0033",
  "immutableReferences": {},
  "source": "// SPDX-License-Identifier: MIT\npragma solidity >=0.4.22 <0.9.0;\n\nimport \"../interfaces/IUniswapV2Router02.sol\";\n\ncontract UniswapV2Router02Mock is IUniswapV2Router02 {\n    uint256 private _msgValue;\n    address private _token;\n    uint256 private _amountTokenDesired;\n    uint256 private _amountTokenMin;\n    uint256 private _amountETHMin;\n    address private _to;\n\n    uint256 private _sMsgValue;\n    uint256 private _sAmountOutMin;\n    address[] private _sPath;\n    address private _sTo;\n    uint256 private _sAmountOut;\n\n    function addLiquidityETHShouldBeCalledWith(\n        uint256 msgValue,\n        address token,\n        uint256 amountTokenDesired,\n        uint256 amountTokenMin,\n        uint256 amountETHMin,\n        address to\n    ) external view {\n        require(msgValue == _msgValue, \"msg.value parameter missmatch.\");\n        require(token == _token, \"token parameter missmatch.\");\n        require(amountTokenDesired == _amountTokenDesired, \"amountTokenDesired parameter missmatch.\");\n        require(amountTokenMin == _amountTokenMin, \"amountTokenMin parameter missmatch.\");\n        require(amountETHMin == _amountETHMin, \"amountETHMin parameter missmatch.\");\n        require(to == _to, \"to parameter missmatch.\");\n    }\n\n    function addLiquidityETH(\n        address token,\n        uint256 amountTokenDesired,\n        uint256 amountTokenMin,\n        uint256 amountETHMin,\n        address to,\n        uint256 deadline\n    )\n        external\n        payable\n        virtual\n        override\n        returns (\n            uint256 amountToken,\n            uint256 amountETH,\n            uint256 liquidity\n        )\n    {\n        _msgValue = msg.value;\n        _token = token;\n        _amountTokenDesired = amountTokenDesired;\n        _amountTokenMin = amountTokenMin;\n        _amountETHMin = amountETHMin;\n        _to = to;\n\n        // to silence the warnings\n        deadline = 0;\n        amountToken = 0;\n        amountETH = 0;\n        liquidity = 0;\n    }\n\n    function swapExactETHForTokensShouldBeCalledWith(\n        uint256 msgValue,\n        uint256 amountOutMin,\n        address[] calldata path,\n        address to\n    ) external view {\n        require(msgValue == _sMsgValue, \"msg.value parameter missmatch.\");\n        require(amountOutMin == _sAmountOutMin, \"amountOutMin parameter missmatch.\");\n        require(path.length == _sPath.length, \"path parameter length missmatch.\");\n        for (uint256 i; i < path.length; i++) {\n            require(path[i] == _sPath[i], \"path parameter elements missmatch.\");\n        }\n        require(to == _sTo, \"to parameter missmatch.\");\n    }\n\n    function setSwapExactETHForTokensAmountOut(uint256 amountOut) external {\n        _sAmountOut = amountOut;\n    }\n\n    function swapExactETHForTokens(\n        uint256 amountOutMin,\n        address[] calldata path,\n        address to,\n        uint256 deadline\n    ) external payable override returns (uint256[] memory amounts) {\n        _sMsgValue = msg.value;\n        _sAmountOutMin = amountOutMin;\n        _sPath = path;\n        _sTo = to;\n\n        // to silence warnings\n        deadline = 0;\n        amounts = new uint256[](path.length);\n        amounts[path.length - 1] = _sAmountOut;\n    }\n}\n",
  "sourcePath": "/home/keso/projects/crypto/rollercoaster-token/contracts/mocks/UniswapV2Router02Mock.sol",
  "compiler": {
    "name": "solc",
    "version": "0.6.12+commit.27d51765.Emscripten.clang"
  },
  "schemaVersion": "3.3.3",
  "updatedAt": "2021-02-05T15:13:37.302Z",
  "devdoc": {
    "kind": "dev",
    "methods": {},
    "version": 1
  },
  "userdoc": {
    "kind": "user",
    "methods": {},
    "version": 1
  }
}