{
  "contractName": "UniswapV2Router02Mock",
  "abi": [
    {
      "inputs": [],
      "stateMutability": "nonpayable",
      "type": "constructor"
    },
    {
      "inputs": [],
      "name": "WETH",
      "outputs": [
        {
          "internalType": "address",
          "name": "",
          "type": "address"
        }
      ],
      "stateMutability": "view",
      "type": "function"
    },
    {
      "inputs": [
        {
          "internalType": "address",
          "name": "tokenA",
          "type": "address"
        },
        {
          "internalType": "address",
          "name": "tokenB",
          "type": "address"
        },
        {
          "internalType": "uint256",
          "name": "amountADesired",
          "type": "uint256"
        },
        {
          "internalType": "uint256",
          "name": "amountBDesired",
          "type": "uint256"
        },
        {
          "internalType": "uint256",
          "name": "amountAMin",
          "type": "uint256"
        },
        {
          "internalType": "uint256",
          "name": "amountBMin",
          "type": "uint256"
        },
        {
          "internalType": "address",
          "name": "to",
          "type": "address"
        },
        {
          "internalType": "uint256",
          "name": "deadline",
          "type": "uint256"
        }
      ],
      "name": "addLiquidity",
      "outputs": [
        {
          "internalType": "uint256",
          "name": "amountA",
          "type": "uint256"
        },
        {
          "internalType": "uint256",
          "name": "amountB",
          "type": "uint256"
        },
        {
          "internalType": "uint256",
          "name": "liquidity",
          "type": "uint256"
        }
      ],
      "stateMutability": "nonpayable",
      "type": "function"
    },
    {
      "inputs": [],
      "name": "factory",
      "outputs": [
        {
          "internalType": "address",
          "name": "",
          "type": "address"
        }
      ],
      "stateMutability": "view",
      "type": "function"
    },
    {
      "inputs": [
        {
          "internalType": "uint256",
          "name": "amountOut",
          "type": "uint256"
        },
        {
          "internalType": "uint256",
          "name": "reserveIn",
          "type": "uint256"
        },
        {
          "internalType": "uint256",
          "name": "reserveOut",
          "type": "uint256"
        }
      ],
      "name": "getAmountIn",
      "outputs": [
        {
          "internalType": "uint256",
          "name": "amountIn",
          "type": "uint256"
        }
      ],
      "stateMutability": "pure",
      "type": "function"
    },
    {
      "inputs": [
        {
          "internalType": "uint256",
          "name": "amountIn",
          "type": "uint256"
        },
        {
          "internalType": "uint256",
          "name": "reserveIn",
          "type": "uint256"
        },
        {
          "internalType": "uint256",
          "name": "reserveOut",
          "type": "uint256"
        }
      ],
      "name": "getAmountOut",
      "outputs": [
        {
          "internalType": "uint256",
          "name": "amountOut",
          "type": "uint256"
        }
      ],
      "stateMutability": "pure",
      "type": "function"
    },
    {
      "inputs": [
        {
          "internalType": "uint256",
          "name": "amountOut",
          "type": "uint256"
        },
        {
          "internalType": "address[]",
          "name": "path",
          "type": "address[]"
        }
      ],
      "name": "getAmountsIn",
      "outputs": [
        {
          "internalType": "uint256[]",
          "name": "amounts",
          "type": "uint256[]"
        }
      ],
      "stateMutability": "view",
      "type": "function"
    },
    {
      "inputs": [
        {
          "internalType": "uint256",
          "name": "amountIn",
          "type": "uint256"
        },
        {
          "internalType": "address[]",
          "name": "path",
          "type": "address[]"
        }
      ],
      "name": "getAmountsOut",
      "outputs": [
        {
          "internalType": "uint256[]",
          "name": "amounts",
          "type": "uint256[]"
        }
      ],
      "stateMutability": "view",
      "type": "function"
    },
    {
      "inputs": [
        {
          "internalType": "uint256",
          "name": "amountA",
          "type": "uint256"
        },
        {
          "internalType": "uint256",
          "name": "reserveA",
          "type": "uint256"
        },
        {
          "internalType": "uint256",
          "name": "reserveB",
          "type": "uint256"
        }
      ],
      "name": "quote",
      "outputs": [
        {
          "internalType": "uint256",
          "name": "amountB",
          "type": "uint256"
        }
      ],
      "stateMutability": "pure",
      "type": "function"
    },
    {
      "inputs": [
        {
          "internalType": "address",
          "name": "tokenA",
          "type": "address"
        },
        {
          "internalType": "address",
          "name": "tokenB",
          "type": "address"
        },
        {
          "internalType": "uint256",
          "name": "liquidity",
          "type": "uint256"
        },
        {
          "internalType": "uint256",
          "name": "amountAMin",
          "type": "uint256"
        },
        {
          "internalType": "uint256",
          "name": "amountBMin",
          "type": "uint256"
        },
        {
          "internalType": "address",
          "name": "to",
          "type": "address"
        },
        {
          "internalType": "uint256",
          "name": "deadline",
          "type": "uint256"
        }
      ],
      "name": "removeLiquidity",
      "outputs": [
        {
          "internalType": "uint256",
          "name": "amountA",
          "type": "uint256"
        },
        {
          "internalType": "uint256",
          "name": "amountB",
          "type": "uint256"
        }
      ],
      "stateMutability": "nonpayable",
      "type": "function"
    },
    {
      "inputs": [
        {
          "internalType": "address",
          "name": "token",
          "type": "address"
        },
        {
          "internalType": "uint256",
          "name": "liquidity",
          "type": "uint256"
        },
        {
          "internalType": "uint256",
          "name": "amountTokenMin",
          "type": "uint256"
        },
        {
          "internalType": "uint256",
          "name": "amountETHMin",
          "type": "uint256"
        },
        {
          "internalType": "address",
          "name": "to",
          "type": "address"
        },
        {
          "internalType": "uint256",
          "name": "deadline",
          "type": "uint256"
        }
      ],
      "name": "removeLiquidityETH",
      "outputs": [
        {
          "internalType": "uint256",
          "name": "amountToken",
          "type": "uint256"
        },
        {
          "internalType": "uint256",
          "name": "amountETH",
          "type": "uint256"
        }
      ],
      "stateMutability": "nonpayable",
      "type": "function"
    },
    {
      "inputs": [
        {
          "internalType": "address",
          "name": "token",
          "type": "address"
        },
        {
          "internalType": "uint256",
          "name": "liquidity",
          "type": "uint256"
        },
        {
          "internalType": "uint256",
          "name": "amountTokenMin",
          "type": "uint256"
        },
        {
          "internalType": "uint256",
          "name": "amountETHMin",
          "type": "uint256"
        },
        {
          "internalType": "address",
          "name": "to",
          "type": "address"
        },
        {
          "internalType": "uint256",
          "name": "deadline",
          "type": "uint256"
        }
      ],
      "name": "removeLiquidityETHSupportingFeeOnTransferTokens",
      "outputs": [
        {
          "internalType": "uint256",
          "name": "amountETH",
          "type": "uint256"
        }
      ],
      "stateMutability": "nonpayable",
      "type": "function"
    },
    {
      "inputs": [
        {
          "internalType": "address",
          "name": "token",
          "type": "address"
        },
        {
          "internalType": "uint256",
          "name": "liquidity",
          "type": "uint256"
        },
        {
          "internalType": "uint256",
          "name": "amountTokenMin",
          "type": "uint256"
        },
        {
          "internalType": "uint256",
          "name": "amountETHMin",
          "type": "uint256"
        },
        {
          "internalType": "address",
          "name": "to",
          "type": "address"
        },
        {
          "internalType": "uint256",
          "name": "deadline",
          "type": "uint256"
        },
        {
          "internalType": "bool",
          "name": "approveMax",
          "type": "bool"
        },
        {
          "internalType": "uint8",
          "name": "v",
          "type": "uint8"
        },
        {
          "internalType": "bytes32",
          "name": "r",
          "type": "bytes32"
        },
        {
          "internalType": "bytes32",
          "name": "s",
          "type": "bytes32"
        }
      ],
      "name": "removeLiquidityETHWithPermit",
      "outputs": [
        {
          "internalType": "uint256",
          "name": "amountToken",
          "type": "uint256"
        },
        {
          "internalType": "uint256",
          "name": "amountETH",
          "type": "uint256"
        }
      ],
      "stateMutability": "nonpayable",
      "type": "function"
    },
    {
      "inputs": [
        {
          "internalType": "address",
          "name": "token",
          "type": "address"
        },
        {
          "internalType": "uint256",
          "name": "liquidity",
          "type": "uint256"
        },
        {
          "internalType": "uint256",
          "name": "amountTokenMin",
          "type": "uint256"
        },
        {
          "internalType": "uint256",
          "name": "amountETHMin",
          "type": "uint256"
        },
        {
          "internalType": "address",
          "name": "to",
          "type": "address"
        },
        {
          "internalType": "uint256",
          "name": "deadline",
          "type": "uint256"
        },
        {
          "internalType": "bool",
          "name": "approveMax",
          "type": "bool"
        },
        {
          "internalType": "uint8",
          "name": "v",
          "type": "uint8"
        },
        {
          "internalType": "bytes32",
          "name": "r",
          "type": "bytes32"
        },
        {
          "internalType": "bytes32",
          "name": "s",
          "type": "bytes32"
        }
      ],
      "name": "removeLiquidityETHWithPermitSupportingFeeOnTransferTokens",
      "outputs": [
        {
          "internalType": "uint256",
          "name": "amountETH",
          "type": "uint256"
        }
      ],
      "stateMutability": "nonpayable",
      "type": "function"
    },
    {
      "inputs": [
        {
          "internalType": "address",
          "name": "tokenA",
          "type": "address"
        },
        {
          "internalType": "address",
          "name": "tokenB",
          "type": "address"
        },
        {
          "internalType": "uint256",
          "name": "liquidity",
          "type": "uint256"
        },
        {
          "internalType": "uint256",
          "name": "amountAMin",
          "type": "uint256"
        },
        {
          "internalType": "uint256",
          "name": "amountBMin",
          "type": "uint256"
        },
        {
          "internalType": "address",
          "name": "to",
          "type": "address"
        },
        {
          "internalType": "uint256",
          "name": "deadline",
          "type": "uint256"
        },
        {
          "internalType": "bool",
          "name": "approveMax",
          "type": "bool"
        },
        {
          "internalType": "uint8",
          "name": "v",
          "type": "uint8"
        },
        {
          "internalType": "bytes32",
          "name": "r",
          "type": "bytes32"
        },
        {
          "internalType": "bytes32",
          "name": "s",
          "type": "bytes32"
        }
      ],
      "name": "removeLiquidityWithPermit",
      "outputs": [
        {
          "internalType": "uint256",
          "name": "amountA",
          "type": "uint256"
        },
        {
          "internalType": "uint256",
          "name": "amountB",
          "type": "uint256"
        }
      ],
      "stateMutability": "nonpayable",
      "type": "function"
    },
    {
      "inputs": [
        {
          "internalType": "uint256",
          "name": "amountOut",
          "type": "uint256"
        },
        {
          "internalType": "address[]",
          "name": "path",
          "type": "address[]"
        },
        {
          "internalType": "address",
          "name": "to",
          "type": "address"
        },
        {
          "internalType": "uint256",
          "name": "deadline",
          "type": "uint256"
        }
      ],
      "name": "swapETHForExactTokens",
      "outputs": [
        {
          "internalType": "uint256[]",
          "name": "amounts",
          "type": "uint256[]"
        }
      ],
      "stateMutability": "payable",
      "type": "function"
    },
    {
      "inputs": [
        {
          "internalType": "uint256",
          "name": "amountOutMin",
          "type": "uint256"
        },
        {
          "internalType": "address[]",
          "name": "path",
          "type": "address[]"
        },
        {
          "internalType": "address",
          "name": "to",
          "type": "address"
        },
        {
          "internalType": "uint256",
          "name": "deadline",
          "type": "uint256"
        }
      ],
      "name": "swapExactETHForTokens",
      "outputs": [
        {
          "internalType": "uint256[]",
          "name": "amounts",
          "type": "uint256[]"
        }
      ],
      "stateMutability": "payable",
      "type": "function"
    },
    {
      "inputs": [
        {
          "internalType": "uint256",
          "name": "amountOutMin",
          "type": "uint256"
        },
        {
          "internalType": "address[]",
          "name": "path",
          "type": "address[]"
        },
        {
          "internalType": "address",
          "name": "to",
          "type": "address"
        },
        {
          "internalType": "uint256",
          "name": "deadline",
          "type": "uint256"
        }
      ],
      "name": "swapExactETHForTokensSupportingFeeOnTransferTokens",
      "outputs": [],
      "stateMutability": "payable",
      "type": "function"
    },
    {
      "inputs": [
        {
          "internalType": "uint256",
          "name": "amountIn",
          "type": "uint256"
        },
        {
          "internalType": "uint256",
          "name": "amountOutMin",
          "type": "uint256"
        },
        {
          "internalType": "address[]",
          "name": "path",
          "type": "address[]"
        },
        {
          "internalType": "address",
          "name": "to",
          "type": "address"
        },
        {
          "internalType": "uint256",
          "name": "deadline",
          "type": "uint256"
        }
      ],
      "name": "swapExactTokensForETH",
      "outputs": [
        {
          "internalType": "uint256[]",
          "name": "amounts",
          "type": "uint256[]"
        }
      ],
      "stateMutability": "nonpayable",
      "type": "function"
    },
    {
      "inputs": [
        {
          "internalType": "uint256",
          "name": "amountIn",
          "type": "uint256"
        },
        {
          "internalType": "uint256",
          "name": "amountOutMin",
          "type": "uint256"
        },
        {
          "internalType": "address[]",
          "name": "path",
          "type": "address[]"
        },
        {
          "internalType": "address",
          "name": "to",
          "type": "address"
        },
        {
          "internalType": "uint256",
          "name": "deadline",
          "type": "uint256"
        }
      ],
      "name": "swapExactTokensForETHSupportingFeeOnTransferTokens",
      "outputs": [],
      "stateMutability": "nonpayable",
      "type": "function"
    },
    {
      "inputs": [
        {
          "internalType": "uint256",
          "name": "amountIn",
          "type": "uint256"
        },
        {
          "internalType": "uint256",
          "name": "amountOutMin",
          "type": "uint256"
        },
        {
          "internalType": "address[]",
          "name": "path",
          "type": "address[]"
        },
        {
          "internalType": "address",
          "name": "to",
          "type": "address"
        },
        {
          "internalType": "uint256",
          "name": "deadline",
          "type": "uint256"
        }
      ],
      "name": "swapExactTokensForTokens",
      "outputs": [
        {
          "internalType": "uint256[]",
          "name": "amounts",
          "type": "uint256[]"
        }
      ],
      "stateMutability": "nonpayable",
      "type": "function"
    },
    {
      "inputs": [
        {
          "internalType": "uint256",
          "name": "amountIn",
          "type": "uint256"
        },
        {
          "internalType": "uint256",
          "name": "amountOutMin",
          "type": "uint256"
        },
        {
          "internalType": "address[]",
          "name": "path",
          "type": "address[]"
        },
        {
          "internalType": "address",
          "name": "to",
          "type": "address"
        },
        {
          "internalType": "uint256",
          "name": "deadline",
          "type": "uint256"
        }
      ],
      "name": "swapExactTokensForTokensSupportingFeeOnTransferTokens",
      "outputs": [],
      "stateMutability": "nonpayable",
      "type": "function"
    },
    {
      "inputs": [
        {
          "internalType": "uint256",
          "name": "amountOut",
          "type": "uint256"
        },
        {
          "internalType": "uint256",
          "name": "amountInMax",
          "type": "uint256"
        },
        {
          "internalType": "address[]",
          "name": "path",
          "type": "address[]"
        },
        {
          "internalType": "address",
          "name": "to",
          "type": "address"
        },
        {
          "internalType": "uint256",
          "name": "deadline",
          "type": "uint256"
        }
      ],
      "name": "swapTokensForExactETH",
      "outputs": [
        {
          "internalType": "uint256[]",
          "name": "amounts",
          "type": "uint256[]"
        }
      ],
      "stateMutability": "nonpayable",
      "type": "function"
    },
    {
      "inputs": [
        {
          "internalType": "uint256",
          "name": "amountOut",
          "type": "uint256"
        },
        {
          "internalType": "uint256",
          "name": "amountInMax",
          "type": "uint256"
        },
        {
          "internalType": "address[]",
          "name": "path",
          "type": "address[]"
        },
        {
          "internalType": "address",
          "name": "to",
          "type": "address"
        },
        {
          "internalType": "uint256",
          "name": "deadline",
          "type": "uint256"
        }
      ],
      "name": "swapTokensForExactTokens",
      "outputs": [
        {
          "internalType": "uint256[]",
          "name": "amounts",
          "type": "uint256[]"
        }
      ],
      "stateMutability": "nonpayable",
      "type": "function"
    },
    {
      "stateMutability": "payable",
      "type": "receive"
    },
    {
      "inputs": [
        {
          "internalType": "address",
          "name": "token",
          "type": "address"
        },
        {
          "internalType": "uint256",
          "name": "amountTokenDesired",
          "type": "uint256"
        },
        {
          "internalType": "uint256",
          "name": "amountTokenMin",
          "type": "uint256"
        },
        {
          "internalType": "uint256",
          "name": "amountETHMin",
          "type": "uint256"
        },
        {
          "internalType": "address",
          "name": "to",
          "type": "address"
        }
      ],
      "name": "addLiquidityETHShouldReceive",
      "outputs": [],
      "stateMutability": "nonpayable",
      "type": "function"
    },
    {
      "inputs": [
        {
          "internalType": "address",
          "name": "token",
          "type": "address"
        },
        {
          "internalType": "uint256",
          "name": "amountTokenDesired",
          "type": "uint256"
        },
        {
          "internalType": "uint256",
          "name": "amountTokenMin",
          "type": "uint256"
        },
        {
          "internalType": "uint256",
          "name": "amountETHMin",
          "type": "uint256"
        },
        {
          "internalType": "address",
          "name": "to",
          "type": "address"
        },
        {
          "internalType": "uint256",
          "name": "deadline",
          "type": "uint256"
        }
      ],
      "name": "addLiquidityETH",
      "outputs": [
        {
          "internalType": "uint256",
          "name": "amountToken",
          "type": "uint256"
        },
        {
          "internalType": "uint256",
          "name": "amountETH",
          "type": "uint256"
        },
        {
          "internalType": "uint256",
          "name": "liquidity",
          "type": "uint256"
        }
      ],
      "stateMutability": "payable",
      "type": "function"
    }
  ],
  "bytecode": "0x60c060405234801561001057600080fd5b506000808173ffffffffffffffffffffffffffffffffffffffff1660808173ffffffffffffffffffffffffffffffffffffffff1660601b815250508073ffffffffffffffffffffffffffffffffffffffff1660a08173ffffffffffffffffffffffffffffffffffffffff1660601b81525050505060805160601c60a05160601c616a18620001b260003980610171528061161e528061165c528061178c5280611a6a5280611fde52806122b9528061244c52806129ec5280612bd95280612d0c5280612e245280612fec528061308152806134d5528061358c528061367f52806137965280613885528061390652806140fd5280614748528061490d52806149a252508061187e528061198a5280611b3d5280611b755280611d6e5280611e7a52806120d052806121d9528061242a52806126665280612b0c5280612f1152806130c052806132e152806133ea52806139455280613d78528061407a52806140a352806140db528061430d528061483552806149e152806155e0528061562452806159995280615c0052806161f15280616319528061642f5250616a186000f3fe60806040526004361061016a5760003560e01c806385f8c259116100d1578063baa2abde1161008a578063ded9382a11610064578063ded9382a14611226578063e8e3370014611308578063f305d719146113ee578063fb3bdb411461149c576101c6565b8063baa2abde14610fd7578063c45a0155146110ab578063d06ca61f14611102576101c6565b806385f8c25914610c475780638803dbee14610caa578063ad5c464814610dc3578063ad615dec14610e1a578063af2979eb14610e7d578063b6f9de9514610f2a576101c6565b80634a25d94a116101235780634a25d94a1461073a5780635a055f20146108535780635b0d5984146108e25780635c11d795146109bd578063791ac94714610a815780637ff36ab514610b45576101c6565b806302751cec146101cb578063054d50d41461027f57806318cbafe5146102e25780631f00ca74146103fb5780632195995c1461051f57806338ed173914610621576101c6565b366101c6577f000000000000000000000000000000000000000000000000000000000000000073ffffffffffffffffffffffffffffffffffffffff163373ffffffffffffffffffffffffffffffffffffffff16146101c457fe5b005b600080fd5b3480156101d757600080fd5b50610262600480360360c08110156101ee57600080fd5b81019080803573ffffffffffffffffffffffffffffffffffffffff169060200190929190803590602001909291908035906020019092919080359060200190929190803573ffffffffffffffffffffffffffffffffffffffff1690602001909291908035906020019092919050505061159e565b604051808381526020018281526020019250505060405180910390f35b34801561028b57600080fd5b506102cc600480360360608110156102a257600080fd5b810190808035906020019092919080359060200190929190803590602001909291905050506116fb565b6040518082815260200191505060405180910390f35b3480156102ee57600080fd5b506103a4600480360360a081101561030557600080fd5b8101908080359060200190929190803590602001909291908035906020019064010000000081111561033657600080fd5b82018360208201111561034857600080fd5b8035906020019184602083028401116401000000008311171561036a57600080fd5b9091929391929390803573ffffffffffffffffffffffffffffffffffffffff16906020019092919080359060200190929190505050611711565b6040518080602001828103825283818151815260200191508051906020019060200280838360005b838110156103e75780820151818401526020810190506103cc565b505050509050019250505060405180910390f35b34801561040757600080fd5b506104c86004803603604081101561041e57600080fd5b81019080803590602001909291908035906020019064010000000081111561044557600080fd5b82018360208201111561045757600080fd5b8035906020019184602083028401116401000000008311171561047957600080fd5b919080806020026020016040519081016040528093929190818152602001838360200280828437600081840152601f19601f820116905080830192505050505050509192919290505050611b36565b6040518080602001828103825283818151815260200191508051906020019060200280838360005b8381101561050b5780820151818401526020810190506104f0565b505050509050019250505060405180910390f35b34801561052b57600080fd5b50610604600480360361016081101561054357600080fd5b81019080803573ffffffffffffffffffffffffffffffffffffffff169060200190929190803573ffffffffffffffffffffffffffffffffffffffff169060200190929190803590602001909291908035906020019092919080359060200190929190803573ffffffffffffffffffffffffffffffffffffffff16906020019092919080359060200190929190803515159060200190929190803560ff1690602001909291908035906020019092919080359060200190929190505050611b6b565b604051808381526020018281526020019250505060405180910390f35b34801561062d57600080fd5b506106e3600480360360a081101561064457600080fd5b8101908080359060200190929190803590602001909291908035906020019064010000000081111561067557600080fd5b82018360208201111561068757600080fd5b803590602001918460208302840111640100000000831117156106a957600080fd5b9091929391929390803573ffffffffffffffffffffffffffffffffffffffff16906020019092919080359060200190929190505050611cf0565b6040518080602001828103825283818151815260200191508051906020019060200280838360005b8381101561072657808201518184015260208101905061070b565b505050509050019250505060405180910390f35b34801561074657600080fd5b506107fc600480360360a081101561075d57600080fd5b8101908080359060200190929190803590602001909291908035906020019064010000000081111561078e57600080fd5b8201836020820111156107a057600080fd5b803590602001918460208302840111640100000000831117156107c257600080fd5b9091929391929390803573ffffffffffffffffffffffffffffffffffffffff16906020019092919080359060200190929190505050611f63565b6040518080602001828103825283818151815260200191508051906020019060200280838360005b8381101561083f578082015181840152602081019050610824565b505050509050019250505060405180910390f35b34801561085f57600080fd5b506108e0600480360360a081101561087657600080fd5b81019080803573ffffffffffffffffffffffffffffffffffffffff169060200190929190803590602001909291908035906020019092919080359060200190929190803573ffffffffffffffffffffffffffffffffffffffff169060200190929190505050612385565b005b3480156108ee57600080fd5b506109a7600480360361014081101561090657600080fd5b81019080803573ffffffffffffffffffffffffffffffffffffffff169060200190929190803590602001909291908035906020019092919080359060200190929190803573ffffffffffffffffffffffffffffffffffffffff16906020019092919080359060200190929190803515159060200190929190803560ff1690602001909291908035906020019092919080359060200190929190505050612422565b6040518082815260200191505060405180910390f35b3480156109c957600080fd5b50610a7f600480360360a08110156109e057600080fd5b81019080803590602001909291908035906020019092919080359060200190640100000000811115610a1157600080fd5b820183602082011115610a2357600080fd5b80359060200191846020830284011164010000000083111715610a4557600080fd5b9091929391929390803573ffffffffffffffffffffffffffffffffffffffff169060200190929190803590602001909291905050506125bc565b005b348015610a8d57600080fd5b50610b43600480360360a0811015610aa457600080fd5b81019080803590602001909291908035906020019092919080359060200190640100000000811115610ad557600080fd5b820183602082011115610ae757600080fd5b80359060200191846020830284011164010000000083111715610b0957600080fd5b9091929391929390803573ffffffffffffffffffffffffffffffffffffffff16906020019092919080359060200190929190505050612973565b005b610bf060048036036080811015610b5b57600080fd5b810190808035906020019092919080359060200190640100000000811115610b8257600080fd5b820183602082011115610b9457600080fd5b80359060200191846020830284011164010000000083111715610bb657600080fd5b9091929391929390803573ffffffffffffffffffffffffffffffffffffffff16906020019092919080359060200190929190505050612da9565b6040518080602001828103825283818151815260200191508051906020019060200280838360005b83811015610c33578082015181840152602081019050610c18565b505050509050019250505060405180910390f35b348015610c5357600080fd5b50610c9460048036036060811015610c6a57600080fd5b8101908080359060200190929190803590602001909291908035906020019092919050505061324d565b6040518082815260200191505060405180910390f35b348015610cb657600080fd5b50610d6c600480360360a0811015610ccd57600080fd5b81019080803590602001909291908035906020019092919080359060200190640100000000811115610cfe57600080fd5b820183602082011115610d1057600080fd5b80359060200191846020830284011164010000000083111715610d3257600080fd5b9091929391929390803573ffffffffffffffffffffffffffffffffffffffff16906020019092919080359060200190929190505050613263565b6040518080602001828103825283818151815260200191508051906020019060200280838360005b83811015610daf578082015181840152602081019050610d94565b505050509050019250505060405180910390f35b348015610dcf57600080fd5b50610dd86134d3565b604051808273ffffffffffffffffffffffffffffffffffffffff1673ffffffffffffffffffffffffffffffffffffffff16815260200191505060405180910390f35b348015610e2657600080fd5b50610e6760048036036060811015610e3d57600080fd5b810190808035906020019092919080359060200190929190803590602001909291905050506134f7565b6040518082815260200191505060405180910390f35b348015610e8957600080fd5b50610f14600480360360c0811015610ea057600080fd5b81019080803573ffffffffffffffffffffffffffffffffffffffff169060200190929190803590602001909291908035906020019092919080359060200190929190803573ffffffffffffffffffffffffffffffffffffffff1690602001909291908035906020019092919050505061350d565b6040518082815260200191505060405180910390f35b610fd560048036036080811015610f4057600080fd5b810190808035906020019092919080359060200190640100000000811115610f6757600080fd5b820183602082011115610f7957600080fd5b80359060200191846020830284011164010000000083111715610f9b57600080fd5b9091929391929390803573ffffffffffffffffffffffffffffffffffffffff1690602001909291908035906020019092919050505061371d565b005b348015610fe357600080fd5b5061108e600480360360e0811015610ffa57600080fd5b81019080803573ffffffffffffffffffffffffffffffffffffffff169060200190929190803573ffffffffffffffffffffffffffffffffffffffff169060200190929190803590602001909291908035906020019092919080359060200190929190803573ffffffffffffffffffffffffffffffffffffffff16906020019092919080359060200190929190505050613cf7565b604051808381526020018281526020019250505060405180910390f35b3480156110b757600080fd5b506110c0614078565b604051808273ffffffffffffffffffffffffffffffffffffffff1673ffffffffffffffffffffffffffffffffffffffff16815260200191505060405180910390f35b34801561110e57600080fd5b506111cf6004803603604081101561112557600080fd5b81019080803590602001909291908035906020019064010000000081111561114c57600080fd5b82018360208201111561115e57600080fd5b8035906020019184602083028401116401000000008311171561118057600080fd5b919080806020026020016040519081016040528093929190818152602001838360200280828437600081840152601f19601f82011690508083019250505050505050919291929050505061409c565b6040518080602001828103825283818151815260200191508051906020019060200280838360005b838110156112125780820151818401526020810190506111f7565b505050509050019250505060405180910390f35b34801561123257600080fd5b506112eb600480360361014081101561124a57600080fd5b81019080803573ffffffffffffffffffffffffffffffffffffffff169060200190929190803590602001909291908035906020019092919080359060200190929190803573ffffffffffffffffffffffffffffffffffffffff16906020019092919080359060200190929190803515159060200190929190803560ff16906020019092919080359060200190929190803590602001909291905050506140d1565b604051808381526020018281526020019250505060405180910390f35b34801561131457600080fd5b506113ca600480360361010081101561132c57600080fd5b81019080803573ffffffffffffffffffffffffffffffffffffffff169060200190929190803573ffffffffffffffffffffffffffffffffffffffff16906020019092919080359060200190929190803590602001909291908035906020019092919080359060200190929190803573ffffffffffffffffffffffffffffffffffffffff16906020019092919080359060200190929190505050614274565b60405180848152602001838152602001828152602001935050505060405180910390f35b611478600480360360c081101561140457600080fd5b81019080803573ffffffffffffffffffffffffffffffffffffffff169060200190929190803590602001909291908035906020019092919080359060200190929190803573ffffffffffffffffffffffffffffffffffffffff16906020019092919080359060200190929190505050614419565b60405180848152602001838152602001828152602001935050505060405180910390f35b611547600480360360808110156114b257600080fd5b8101908080359060200190929190803590602001906401000000008111156114d957600080fd5b8201836020820111156114eb57600080fd5b8035906020019184602083028401116401000000008311171561150d57600080fd5b9091929391929390803573ffffffffffffffffffffffffffffffffffffffff169060200190929190803590602001909291905050506146cd565b6040518080602001828103825283818151815260200191508051906020019060200280838360005b8381101561158a57808201518184015260208101905061156f565b505050509050019250505060405180910390f35b6000808242811015611618576040517f08c379a00000000000000000000000000000000000000000000000000000000081526004018080602001828103825260188152602001807f556e69737761705632526f757465723a2045585049524544000000000000000081525060200191505060405180910390fd5b611647897f00000000000000000000000000000000000000000000000000000000000000008a8a8a308a613cf7565b809350819450505061165a898685614bab565b7f000000000000000000000000000000000000000000000000000000000000000073ffffffffffffffffffffffffffffffffffffffff16632e1a7d4d836040518263ffffffff1660e01b815260040180828152602001915050600060405180830381600087803b1580156116cd57600080fd5b505af11580156116e1573d6000803e3d6000fd5b505050506116ef8583614da4565b50965096945050505050565b6000611708848484614f03565b90509392505050565b6060814281101561178a576040517f08c379a00000000000000000000000000000000000000000000000000000000081526004018080602001828103825260188152602001807f556e69737761705632526f757465723a2045585049524544000000000000000081525060200191505060405180910390fd5b7f000000000000000000000000000000000000000000000000000000000000000073ffffffffffffffffffffffffffffffffffffffff168686600189899050038181106117d357fe5b9050602002013573ffffffffffffffffffffffffffffffffffffffff1673ffffffffffffffffffffffffffffffffffffffff1614611879576040517f08c379a000000000000000000000000000000000000000000000000000000000815260040180806020018281038252601d8152602001807f556e69737761705632526f757465723a20494e56414c49445f5041544800000081525060200191505060405180910390fd5b6118e57f000000000000000000000000000000000000000000000000000000000000000089888880806020026020016040519081016040528093929190818152602001838360200280828437600081840152601f19601f82011690508083019250505050505050615033565b915086826001845103815181106118f857fe5b60200260200101511015611957576040517f08c379a000000000000000000000000000000000000000000000000000000000815260040180806020018281038252602b815260200180616942602b913960400191505060405180910390fd5b611a1c8686600081811061196757fe5b9050602002013573ffffffffffffffffffffffffffffffffffffffff1633611a027f00000000000000000000000000000000000000000000000000000000000000008a8a60008181106119b657fe5b9050602002013573ffffffffffffffffffffffffffffffffffffffff168b8b60018181106119e057fe5b9050602002013573ffffffffffffffffffffffffffffffffffffffff166151ab565b85600081518110611a0f57fe5b6020026020010151615306565b611a6882878780806020026020016040519081016040528093929190818152602001838360200280828437600081840152601f19601f8201169050808301925050505050505030615517565b7f000000000000000000000000000000000000000000000000000000000000000073ffffffffffffffffffffffffffffffffffffffff16632e1a7d4d83600185510381518110611ab457fe5b60200260200101516040518263ffffffff1660e01b815260040180828152602001915050600060405180830381600087803b158015611af257600080fd5b505af1158015611b06573d6000803e3d6000fd5b50505050611b2b8483600185510381518110611b1e57fe5b6020026020010151614da4565b509695505050505050565b6060611b637f000000000000000000000000000000000000000000000000000000000000000084846157c2565b905092915050565b6000806000611b9b7f00000000000000000000000000000000000000000000000000000000000000008f8f6151ab565b9050600087611baa578c611bcc565b7fffffffffffffffffffffffffffffffffffffffffffffffffffffffffffffffff5b90508173ffffffffffffffffffffffffffffffffffffffff1663d505accf3330848d8c8c8c6040518863ffffffff1660e01b8152600401808873ffffffffffffffffffffffffffffffffffffffff1673ffffffffffffffffffffffffffffffffffffffff1681526020018773ffffffffffffffffffffffffffffffffffffffff1673ffffffffffffffffffffffffffffffffffffffff1681526020018681526020018581526020018460ff1660ff168152602001838152602001828152602001975050505050505050600060405180830381600087803b158015611caf57600080fd5b505af1158015611cc3573d6000803e3d6000fd5b50505050611cd68f8f8f8f8f8f8f613cf7565b809450819550505050509b509b9950505050505050505050565b60608142811015611d69576040517f08c379a00000000000000000000000000000000000000000000000000000000081526004018080602001828103825260188152602001807f556e69737761705632526f757465723a2045585049524544000000000000000081525060200191505060405180910390fd5b611dd57f000000000000000000000000000000000000000000000000000000000000000089888880806020026020016040519081016040528093929190818152602001838360200280828437600081840152601f19601f82011690508083019250505050505050615033565b91508682600184510381518110611de857fe5b60200260200101511015611e47576040517f08c379a000000000000000000000000000000000000000000000000000000000815260040180806020018281038252602b815260200180616942602b913960400191505060405180910390fd5b611f0c86866000818110611e5757fe5b9050602002013573ffffffffffffffffffffffffffffffffffffffff1633611ef27f00000000000000000000000000000000000000000000000000000000000000008a8a6000818110611ea657fe5b9050602002013573ffffffffffffffffffffffffffffffffffffffff168b8b6001818110611ed057fe5b9050602002013573ffffffffffffffffffffffffffffffffffffffff166151ab565b85600081518110611eff57fe5b6020026020010151615306565b611f5882878780806020026020016040519081016040528093929190818152602001838360200280828437600081840152601f19601f8201169050808301925050505050505086615517565b509695505050505050565b60608142811015611fdc576040517f08c379a00000000000000000000000000000000000000000000000000000000081526004018080602001828103825260188152602001807f556e69737761705632526f757465723a2045585049524544000000000000000081525060200191505060405180910390fd5b7f000000000000000000000000000000000000000000000000000000000000000073ffffffffffffffffffffffffffffffffffffffff1686866001898990500381811061202557fe5b9050602002013573ffffffffffffffffffffffffffffffffffffffff1673ffffffffffffffffffffffffffffffffffffffff16146120cb576040517f08c379a000000000000000000000000000000000000000000000000000000000815260040180806020018281038252601d8152602001807f556e69737761705632526f757465723a20494e56414c49445f5041544800000081525060200191505060405180910390fd5b6121377f000000000000000000000000000000000000000000000000000000000000000089888880806020026020016040519081016040528093929190818152602001838360200280828437600081840152601f19601f820116905080830192505050505050506157c2565b9150868260008151811061214757fe5b602002602001015111156121a6576040517f08c379a00000000000000000000000000000000000000000000000000000000081526004018080602001828103825260278152602001806168b16027913960400191505060405180910390fd5b61226b868660008181106121b657fe5b9050602002013573ffffffffffffffffffffffffffffffffffffffff16336122517f00000000000000000000000000000000000000000000000000000000000000008a8a600081811061220557fe5b9050602002013573ffffffffffffffffffffffffffffffffffffffff168b8b600181811061222f57fe5b9050602002013573ffffffffffffffffffffffffffffffffffffffff166151ab565b8560008151811061225e57fe5b6020026020010151615306565b6122b782878780806020026020016040519081016040528093929190818152602001838360200280828437600081840152601f19601f8201169050808301925050505050505030615517565b7f000000000000000000000000000000000000000000000000000000000000000073ffffffffffffffffffffffffffffffffffffffff16632e1a7d4d8360018551038151811061230357fe5b60200260200101516040518263ffffffff1660e01b815260040180828152602001915050600060405180830381600087803b15801561234157600080fd5b505af1158015612355573d6000803e3d6000fd5b5050505061237a848360018551038151811061236d57fe5b6020026020010151614da4565b509695505050505050565b846000806101000a81548173ffffffffffffffffffffffffffffffffffffffff021916908373ffffffffffffffffffffffffffffffffffffffff16021790555083600181905550826002819055508160038190555080600460006101000a81548173ffffffffffffffffffffffffffffffffffffffff021916908373ffffffffffffffffffffffffffffffffffffffff1602179055505050505050565b6000806124707f00000000000000000000000000000000000000000000000000000000000000008d7f00000000000000000000000000000000000000000000000000000000000000006151ab565b905060008661247f578b6124a1565b7fffffffffffffffffffffffffffffffffffffffffffffffffffffffffffffffff5b90508173ffffffffffffffffffffffffffffffffffffffff1663d505accf3330848c8b8b8b6040518863ffffffff1660e01b8152600401808873ffffffffffffffffffffffffffffffffffffffff1673ffffffffffffffffffffffffffffffffffffffff1681526020018773ffffffffffffffffffffffffffffffffffffffff1673ffffffffffffffffffffffffffffffffffffffff1681526020018681526020018581526020018460ff1660ff168152602001838152602001828152602001975050505050505050600060405180830381600087803b15801561258457600080fd5b505af1158015612598573d6000803e3d6000fd5b505050506125aa8d8d8d8d8d8d61350d565b925050509a9950505050505050505050565b8042811015612633576040517f08c379a00000000000000000000000000000000000000000000000000000000081526004018080602001828103825260188152602001807f556e69737761705632526f757465723a2045585049524544000000000000000081525060200191505060405180910390fd5b6126e48585600081811061264357fe5b9050602002013573ffffffffffffffffffffffffffffffffffffffff16336126de7f00000000000000000000000000000000000000000000000000000000000000008989600081811061269257fe5b9050602002013573ffffffffffffffffffffffffffffffffffffffff168a8a60018181106126bc57fe5b9050602002013573ffffffffffffffffffffffffffffffffffffffff166151ab565b8a615306565b60008585600188889050038181106126f857fe5b9050602002013573ffffffffffffffffffffffffffffffffffffffff1673ffffffffffffffffffffffffffffffffffffffff166370a08231856040518263ffffffff1660e01b8152600401808273ffffffffffffffffffffffffffffffffffffffff1673ffffffffffffffffffffffffffffffffffffffff16815260200191505060206040518083038186803b15801561279157600080fd5b505afa1580156127a5573d6000803e3d6000fd5b505050506040513d60208110156127bb57600080fd5b81019080805190602001909291905050509050612819868680806020026020016040519081016040528093929190818152602001838360200280828437600081840152601f19601f8201169050808301925050505050505085615942565b8661291282888860018b8b90500381811061283057fe5b9050602002013573ffffffffffffffffffffffffffffffffffffffff1673ffffffffffffffffffffffffffffffffffffffff166370a08231886040518263ffffffff1660e01b8152600401808273ffffffffffffffffffffffffffffffffffffffff1673ffffffffffffffffffffffffffffffffffffffff16815260200191505060206040518083038186803b1580156128c957600080fd5b505afa1580156128dd573d6000803e3d6000fd5b505050506040513d60208110156128f357600080fd5b8101908080519060200190929190505050615db990919063ffffffff16565b1015612969576040517f08c379a000000000000000000000000000000000000000000000000000000000815260040180806020018281038252602b815260200180616942602b913960400191505060405180910390fd5b5050505050505050565b80428110156129ea576040517f08c379a00000000000000000000000000000000000000000000000000000000081526004018080602001828103825260188152602001807f556e69737761705632526f757465723a2045585049524544000000000000000081525060200191505060405180910390fd5b7f000000000000000000000000000000000000000000000000000000000000000073ffffffffffffffffffffffffffffffffffffffff16858560018888905003818110612a3357fe5b9050602002013573ffffffffffffffffffffffffffffffffffffffff1673ffffffffffffffffffffffffffffffffffffffff1614612ad9576040517f08c379a000000000000000000000000000000000000000000000000000000000815260040180806020018281038252601d8152602001807f556e69737761705632526f757465723a20494e56414c49445f5041544800000081525060200191505060405180910390fd5b612b8a85856000818110612ae957fe5b9050602002013573ffffffffffffffffffffffffffffffffffffffff1633612b847f000000000000000000000000000000000000000000000000000000000000000089896000818110612b3857fe5b9050602002013573ffffffffffffffffffffffffffffffffffffffff168a8a6001818110612b6257fe5b9050602002013573ffffffffffffffffffffffffffffffffffffffff166151ab565b8a615306565b612bd5858580806020026020016040519081016040528093929190818152602001838360200280828437600081840152601f19601f8201169050808301925050505050505030615942565b60007f000000000000000000000000000000000000000000000000000000000000000073ffffffffffffffffffffffffffffffffffffffff166370a08231306040518263ffffffff1660e01b8152600401808273ffffffffffffffffffffffffffffffffffffffff1673ffffffffffffffffffffffffffffffffffffffff16815260200191505060206040518083038186803b158015612c7457600080fd5b505afa158015612c88573d6000803e3d6000fd5b505050506040513d6020811015612c9e57600080fd5b8101908080519060200190929190505050905086811015612d0a576040517f08c379a000000000000000000000000000000000000000000000000000000000815260040180806020018281038252602b815260200180616942602b913960400191505060405180910390fd5b7f000000000000000000000000000000000000000000000000000000000000000073ffffffffffffffffffffffffffffffffffffffff16632e1a7d4d826040518263ffffffff1660e01b815260040180828152602001915050600060405180830381600087803b158015612d7d57600080fd5b505af1158015612d91573d6000803e3d6000fd5b50505050612d9f8482614da4565b5050505050505050565b60608142811015612e22576040517f08c379a00000000000000000000000000000000000000000000000000000000081526004018080602001828103825260188152602001807f556e69737761705632526f757465723a2045585049524544000000000000000081525060200191505060405180910390fd5b7f000000000000000000000000000000000000000000000000000000000000000073ffffffffffffffffffffffffffffffffffffffff1686866000818110612e6657fe5b9050602002013573ffffffffffffffffffffffffffffffffffffffff1673ffffffffffffffffffffffffffffffffffffffff1614612f0c576040517f08c379a000000000000000000000000000000000000000000000000000000000815260040180806020018281038252601d8152602001807f556e69737761705632526f757465723a20494e56414c49445f5041544800000081525060200191505060405180910390fd5b612f787f000000000000000000000000000000000000000000000000000000000000000034888880806020026020016040519081016040528093929190818152602001838360200280828437600081840152601f19601f82011690508083019250505050505050615033565b91508682600184510381518110612f8b57fe5b60200260200101511015612fea576040517f08c379a000000000000000000000000000000000000000000000000000000000815260040180806020018281038252602b815260200180616942602b913960400191505060405180910390fd5b7f000000000000000000000000000000000000000000000000000000000000000073ffffffffffffffffffffffffffffffffffffffff1663d0e30db08360008151811061303357fe5b60200260200101516040518263ffffffff1660e01b81526004016000604051808303818588803b15801561306657600080fd5b505af115801561307a573d6000803e3d6000fd5b50505050507f000000000000000000000000000000000000000000000000000000000000000073ffffffffffffffffffffffffffffffffffffffff1663a9059cbb6131387f0000000000000000000000000000000000000000000000000000000000000000898960008181106130ec57fe5b9050602002013573ffffffffffffffffffffffffffffffffffffffff168a8a600181811061311657fe5b9050602002013573ffffffffffffffffffffffffffffffffffffffff166151ab565b8460008151811061314557fe5b60200260200101516040518363ffffffff1660e01b8152600401808373ffffffffffffffffffffffffffffffffffffffff1673ffffffffffffffffffffffffffffffffffffffff16815260200182815260200192505050602060405180830381600087803b1580156131b657600080fd5b505af11580156131ca573d6000803e3d6000fd5b505050506040513d60208110156131e057600080fd5b81019080805190602001909291905050506131f757fe5b61324382878780806020026020016040519081016040528093929190818152602001838360200280828437600081840152601f19601f8201169050808301925050505050505086615517565b5095945050505050565b600061325a848484615e3c565b90509392505050565b606081428110156132dc576040517f08c379a00000000000000000000000000000000000000000000000000000000081526004018080602001828103825260188152602001807f556e69737761705632526f757465723a2045585049524544000000000000000081525060200191505060405180910390fd5b6133487f000000000000000000000000000000000000000000000000000000000000000089888880806020026020016040519081016040528093929190818152602001838360200280828437600081840152601f19601f820116905080830192505050505050506157c2565b9150868260008151811061335857fe5b602002602001015111156133b7576040517f08c379a00000000000000000000000000000000000000000000000000000000081526004018080602001828103825260278152602001806168b16027913960400191505060405180910390fd5b61347c868660008181106133c757fe5b9050602002013573ffffffffffffffffffffffffffffffffffffffff16336134627f00000000000000000000000000000000000000000000000000000000000000008a8a600081811061341657fe5b9050602002013573ffffffffffffffffffffffffffffffffffffffff168b8b600181811061344057fe5b9050602002013573ffffffffffffffffffffffffffffffffffffffff166151ab565b8560008151811061346f57fe5b6020026020010151615306565b6134c882878780806020026020016040519081016040528093929190818152602001838360200280828437600081840152601f19601f8201169050808301925050505050505086615517565b509695505050505050565b7f000000000000000000000000000000000000000000000000000000000000000081565b6000613504848484615f79565b90509392505050565b60008142811015613586576040517f08c379a00000000000000000000000000000000000000000000000000000000081526004018080602001828103825260188152602001807f556e69737761705632526f757465723a2045585049524544000000000000000081525060200191505060405180910390fd5b6135b5887f00000000000000000000000000000000000000000000000000000000000000008989893089613cf7565b90508092505061367d88858a73ffffffffffffffffffffffffffffffffffffffff166370a08231306040518263ffffffff1660e01b8152600401808273ffffffffffffffffffffffffffffffffffffffff1673ffffffffffffffffffffffffffffffffffffffff16815260200191505060206040518083038186803b15801561363d57600080fd5b505afa158015613651573d6000803e3d6000fd5b505050506040513d602081101561366757600080fd5b8101908080519060200190929190505050614bab565b7f000000000000000000000000000000000000000000000000000000000000000073ffffffffffffffffffffffffffffffffffffffff16632e1a7d4d836040518263ffffffff1660e01b815260040180828152602001915050600060405180830381600087803b1580156136f057600080fd5b505af1158015613704573d6000803e3d6000fd5b505050506137128483614da4565b509695505050505050565b8042811015613794576040517f08c379a00000000000000000000000000000000000000000000000000000000081526004018080602001828103825260188152602001807f556e69737761705632526f757465723a2045585049524544000000000000000081525060200191505060405180910390fd5b7f000000000000000000000000000000000000000000000000000000000000000073ffffffffffffffffffffffffffffffffffffffff16858560008181106137d857fe5b9050602002013573ffffffffffffffffffffffffffffffffffffffff1673ffffffffffffffffffffffffffffffffffffffff161461387e576040517f08c379a000000000000000000000000000000000000000000000000000000000815260040180806020018281038252601d8152602001807f556e69737761705632526f757465723a20494e56414c49445f5041544800000081525060200191505060405180910390fd5b60003490507f000000000000000000000000000000000000000000000000000000000000000073ffffffffffffffffffffffffffffffffffffffff1663d0e30db0826040518263ffffffff1660e01b81526004016000604051808303818588803b1580156138eb57600080fd5b505af11580156138ff573d6000803e3d6000fd5b50505050507f000000000000000000000000000000000000000000000000000000000000000073ffffffffffffffffffffffffffffffffffffffff1663a9059cbb6139bd7f00000000000000000000000000000000000000000000000000000000000000008989600081811061397157fe5b9050602002013573ffffffffffffffffffffffffffffffffffffffff168a8a600181811061399b57fe5b9050602002013573ffffffffffffffffffffffffffffffffffffffff166151ab565b836040518363ffffffff1660e01b8152600401808373ffffffffffffffffffffffffffffffffffffffff1673ffffffffffffffffffffffffffffffffffffffff16815260200182815260200192505050602060405180830381600087803b158015613a2757600080fd5b505af1158015613a3b573d6000803e3d6000fd5b505050506040513d6020811015613a5157600080fd5b8101908080519060200190929190505050613a6857fe5b6000868660018989905003818110613a7c57fe5b9050602002013573ffffffffffffffffffffffffffffffffffffffff1673ffffffffffffffffffffffffffffffffffffffff166370a08231866040518263ffffffff1660e01b8152600401808273ffffffffffffffffffffffffffffffffffffffff1673ffffffffffffffffffffffffffffffffffffffff16815260200191505060206040518083038186803b158015613b1557600080fd5b505afa158015613b29573d6000803e3d6000fd5b505050506040513d6020811015613b3f57600080fd5b81019080805190602001909291905050509050613b9d878780806020026020016040519081016040528093929190818152602001838360200280828437600081840152601f19601f8201169050808301925050505050505086615942565b87613c9682898960018c8c905003818110613bb457fe5b9050602002013573ffffffffffffffffffffffffffffffffffffffff1673ffffffffffffffffffffffffffffffffffffffff166370a08231896040518263ffffffff1660e01b8152600401808273ffffffffffffffffffffffffffffffffffffffff1673ffffffffffffffffffffffffffffffffffffffff16815260200191505060206040518083038186803b158015613c4d57600080fd5b505afa158015613c61573d6000803e3d6000fd5b505050506040513d6020811015613c7757600080fd5b8101908080519060200190929190505050615db990919063ffffffff16565b1015613ced576040517f08c379a000000000000000000000000000000000000000000000000000000000815260040180806020018281038252602b815260200180616942602b913960400191505060405180910390fd5b5050505050505050565b6000808242811015613d71576040517f08c379a00000000000000000000000000000000000000000000000000000000081526004018080602001828103825260188152602001807f556e69737761705632526f757465723a2045585049524544000000000000000081525060200191505060405180910390fd5b6000613d9e7f00000000000000000000000000000000000000000000000000000000000000008c8c6151ab565b90508073ffffffffffffffffffffffffffffffffffffffff166323b872dd33838c6040518463ffffffff1660e01b8152600401808473ffffffffffffffffffffffffffffffffffffffff1673ffffffffffffffffffffffffffffffffffffffff1681526020018373ffffffffffffffffffffffffffffffffffffffff1673ffffffffffffffffffffffffffffffffffffffff1681526020018281526020019350505050602060405180830381600087803b158015613e5b57600080fd5b505af1158015613e6f573d6000803e3d6000fd5b505050506040513d6020811015613e8557600080fd5b8101908080519060200190929190505050506000808273ffffffffffffffffffffffffffffffffffffffff166389afcb44896040518263ffffffff1660e01b8152600401808273ffffffffffffffffffffffffffffffffffffffff1673ffffffffffffffffffffffffffffffffffffffff1681526020019150506040805180830381600087803b158015613f1857600080fd5b505af1158015613f2c573d6000803e3d6000fd5b505050506040513d6040811015613f4257600080fd5b810190808051906020019092919080519060200190929190505050915091506000613f6d8e8e61605d565b5090508073ffffffffffffffffffffffffffffffffffffffff168e73ffffffffffffffffffffffffffffffffffffffff1614613faa578183613fad565b82825b80975081985050508a87101561400e576040517f08c379a00000000000000000000000000000000000000000000000000000000081526004018080602001828103825260268152602001806168f96026913960400191505060405180910390fd5b89861015614067576040517f08c379a000000000000000000000000000000000000000000000000000000000815260040180806020018281038252602681526020018061681b6026913960400191505060405180910390fd5b505050505097509795505050505050565b7f000000000000000000000000000000000000000000000000000000000000000081565b60606140c97f00000000000000000000000000000000000000000000000000000000000000008484615033565b905092915050565b60008060006141217f00000000000000000000000000000000000000000000000000000000000000008e7f00000000000000000000000000000000000000000000000000000000000000006151ab565b9050600087614130578c614152565b7fffffffffffffffffffffffffffffffffffffffffffffffffffffffffffffffff5b90508173ffffffffffffffffffffffffffffffffffffffff1663d505accf3330848d8c8c8c6040518863ffffffff1660e01b8152600401808873ffffffffffffffffffffffffffffffffffffffff1673ffffffffffffffffffffffffffffffffffffffff1681526020018773ffffffffffffffffffffffffffffffffffffffff1673ffffffffffffffffffffffffffffffffffffffff1681526020018681526020018581526020018460ff1660ff168152602001838152602001828152602001975050505050505050600060405180830381600087803b15801561423557600080fd5b505af1158015614249573d6000803e3d6000fd5b5050505061425b8e8e8e8e8e8e61159e565b809450819550505050509a509a98505050505050505050565b600080600083428110156142f0576040517f08c379a00000000000000000000000000000000000000000000000000000000081526004018080602001828103825260188152602001807f556e69737761705632526f757465723a2045585049524544000000000000000081525060200191505060405180910390fd5b6142fe8c8c8c8c8c8c6161d4565b809450819550505060006143337f00000000000000000000000000000000000000000000000000000000000000008e8e6151ab565b90506143418d338388615306565b61434d8c338387615306565b8073ffffffffffffffffffffffffffffffffffffffff16636a627842886040518263ffffffff1660e01b8152600401808273ffffffffffffffffffffffffffffffffffffffff1673ffffffffffffffffffffffffffffffffffffffff168152602001915050602060405180830381600087803b1580156143cc57600080fd5b505af11580156143e0573d6000803e3d6000fd5b505050506040513d60208110156143f657600080fd5b810190808051906020019092919050505092505050985098509895505050505050565b60008060008060009054906101000a900473ffffffffffffffffffffffffffffffffffffffff1673ffffffffffffffffffffffffffffffffffffffff168973ffffffffffffffffffffffffffffffffffffffff16146144e0576040517f08c379a000000000000000000000000000000000000000000000000000000000815260040180806020018281038252601a8152602001807f746f6b656e20706172616d65746572206d6973736d617463682e00000000000081525060200191505060405180910390fd5b600154881461453a576040517f08c379a00000000000000000000000000000000000000000000000000000000081526004018080602001828103825260278152602001806169916027913960400191505060405180910390fd5b6002548714614594576040517f08c379a00000000000000000000000000000000000000000000000000000000081526004018080602001828103825260238152602001806168696023913960400191505060405180910390fd5b60035486146145ee576040517f08c379a00000000000000000000000000000000000000000000000000000000081526004018080602001828103825260218152602001806168d86021913960400191505060405180910390fd5b600460009054906101000a900473ffffffffffffffffffffffffffffffffffffffff1673ffffffffffffffffffffffffffffffffffffffff168573ffffffffffffffffffffffffffffffffffffffff16146146b1576040517f08c379a00000000000000000000000000000000000000000000000000000000081526004018080602001828103825260178152602001807f746f20706172616d65746572206d6973736d617463682e00000000000000000081525060200191505060405180910390fd5b6000935060009250600091506000905096509650969350505050565b60608142811015614746576040517f08c379a00000000000000000000000000000000000000000000000000000000081526004018080602001828103825260188152602001807f556e69737761705632526f757465723a2045585049524544000000000000000081525060200191505060405180910390fd5b7f000000000000000000000000000000000000000000000000000000000000000073ffffffffffffffffffffffffffffffffffffffff168686600081811061478a57fe5b9050602002013573ffffffffffffffffffffffffffffffffffffffff1673ffffffffffffffffffffffffffffffffffffffff1614614830576040517f08c379a000000000000000000000000000000000000000000000000000000000815260040180806020018281038252601d8152602001807f556e69737761705632526f757465723a20494e56414c49445f5041544800000081525060200191505060405180910390fd5b61489c7f000000000000000000000000000000000000000000000000000000000000000088888880806020026020016040519081016040528093929190818152602001838360200280828437600081840152601f19601f820116905080830192505050505050506157c2565b915034826000815181106148ac57fe5b6020026020010151111561490b576040517f08c379a00000000000000000000000000000000000000000000000000000000081526004018080602001828103825260278152602001806168b16027913960400191505060405180910390fd5b7f000000000000000000000000000000000000000000000000000000000000000073ffffffffffffffffffffffffffffffffffffffff1663d0e30db08360008151811061495457fe5b60200260200101516040518263ffffffff1660e01b81526004016000604051808303818588803b15801561498757600080fd5b505af115801561499b573d6000803e3d6000fd5b50505050507f000000000000000000000000000000000000000000000000000000000000000073ffffffffffffffffffffffffffffffffffffffff1663a9059cbb614a597f000000000000000000000000000000000000000000000000000000000000000089896000818110614a0d57fe5b9050602002013573ffffffffffffffffffffffffffffffffffffffff168a8a6001818110614a3757fe5b9050602002013573ffffffffffffffffffffffffffffffffffffffff166151ab565b84600081518110614a6657fe5b60200260200101516040518363ffffffff1660e01b8152600401808373ffffffffffffffffffffffffffffffffffffffff1673ffffffffffffffffffffffffffffffffffffffff16815260200182815260200192505050602060405180830381600087803b158015614ad757600080fd5b505af1158015614aeb573d6000803e3d6000fd5b505050506040513d6020811015614b0157600080fd5b8101908080519060200190929190505050614b1857fe5b614b6482878780806020026020016040519081016040528093929190818152602001838360200280828437600081840152601f19601f8201169050808301925050505050505086615517565b81600081518110614b7157fe5b6020026020010151341115614ba157614ba03383600081518110614b9157fe5b60200260200101513403614da4565b5b5095945050505050565b600060608473ffffffffffffffffffffffffffffffffffffffff1663a9059cbb8585604051602401808373ffffffffffffffffffffffffffffffffffffffff1673ffffffffffffffffffffffffffffffffffffffff168152602001828152602001925050506040516020818303038152906040529060e01b6020820180517bffffffffffffffffffffffffffffffffffffffffffffffffffffffff83818316178352505050506040518082805190602001908083835b60208310614c845780518252602082019150602081019050602083039250614c61565b6001836020036101000a0380198251168184511680821785525050505050509050019150506000604051808303816000865af19150503d8060008114614ce6576040519150601f19603f3d011682016040523d82523d6000602084013e614ceb565b606091505b5091509150818015614d2b5750600081511480614d2a5750808060200190516020811015614d1857600080fd5b81019080805190602001909291905050505b5b614d9d576040517f08c379a000000000000000000000000000000000000000000000000000000000815260040180806020018281038252601f8152602001807f5472616e7366657248656c7065723a205452414e534645525f4641494c45440081525060200191505060405180910390fd5b5050505050565b60008273ffffffffffffffffffffffffffffffffffffffff1682600067ffffffffffffffff81118015614dd657600080fd5b506040519080825280601f01601f191660200182016040528015614e095781602001600182028036833780820191505090505b506040518082805190602001908083835b60208310614e3d5780518252602082019150602081019050602083039250614e1a565b6001836020036101000a03801982511681845116808217855250505050505090500191505060006040518083038185875af1925050503d8060008114614e9f576040519150601f19603f3d011682016040523d82523d6000602084013e614ea4565b606091505b5050905080614efe576040517f08c379a000000000000000000000000000000000000000000000000000000000815260040180806020018281038252602381526020018061691f6023913960400191505060405180910390fd5b505050565b6000808411614f5d576040517f08c379a000000000000000000000000000000000000000000000000000000000815260040180806020018281038252602b8152602001806169b8602b913960400191505060405180910390fd5b600083118015614f6d5750600082115b614fc2576040517f08c379a00000000000000000000000000000000000000000000000000000000081526004018080602001828103825260288152602001806168416028913960400191505060405180910390fd5b6000614fd96103e58661658890919063ffffffff16565b90506000614ff0848361658890919063ffffffff16565b9050600061501b8361500d6103e88961658890919063ffffffff16565b61661d90919063ffffffff16565b905080828161502657fe5b0493505050509392505050565b60606002825110156150ad576040517f08c379a000000000000000000000000000000000000000000000000000000000815260040180806020018281038252601e8152602001807f556e697377617056324c6962726172793a20494e56414c49445f50415448000081525060200191505060405180910390fd5b815167ffffffffffffffff811180156150c557600080fd5b506040519080825280602002602001820160405280156150f45781602001602082028036833780820191505090505b509050828160008151811061510557fe5b60200260200101818152505060005b60018351038110156151a3576000806151578786858151811061513357fe5b602002602001015187600187018151811061514a57fe5b60200260200101516166a0565b9150915061517984848151811061516a57fe5b60200260200101518383614f03565b84600185018151811061518857fe5b60200260200101818152505050508080600101915050615114565b509392505050565b60008060006151ba858561605d565b91509150858282604051602001808373ffffffffffffffffffffffffffffffffffffffff1673ffffffffffffffffffffffffffffffffffffffff1660601b81526014018273ffffffffffffffffffffffffffffffffffffffff1673ffffffffffffffffffffffffffffffffffffffff1660601b8152601401925050506040516020818303038152906040528051906020012060405160200180807fff000000000000000000000000000000000000000000000000000000000000008152506001018373ffffffffffffffffffffffffffffffffffffffff1673ffffffffffffffffffffffffffffffffffffffff1660601b8152601401828152602001807f96e8ac4277198ff8b6f785478aa9a39f403cb768dd02cbee326c3e7da348845f815250602001925050506040516020818303038152906040528051906020012060001c925050509392505050565b600060608573ffffffffffffffffffffffffffffffffffffffff166323b872dd868686604051602401808473ffffffffffffffffffffffffffffffffffffffff1673ffffffffffffffffffffffffffffffffffffffff1681526020018373ffffffffffffffffffffffffffffffffffffffff1673ffffffffffffffffffffffffffffffffffffffff16815260200182815260200193505050506040516020818303038152906040529060e01b6020820180517bffffffffffffffffffffffffffffffffffffffffffffffffffffffff83818316178352505050506040518082805190602001908083835b6020831061541357805182526020820191506020810190506020830392506153f0565b6001836020036101000a0380198251168184511680821785525050505050509050019150506000604051808303816000865af19150503d8060008114615475576040519150601f19603f3d011682016040523d82523d6000602084013e61547a565b606091505b50915091508180156154ba57506000815114806154b957508080602001905160208110156154a757600080fd5b81019080805190602001909291905050505b5b61550f576040517f08c379a000000000000000000000000000000000000000000000000000000000815260040180806020018281038252602481526020018061696d6024913960400191505060405180910390fd5b505050505050565b60005b60018351038110156157bc5760008084838151811061553557fe5b602002602001015185600185018151811061554c57fe5b6020026020010151915091506000615564838361605d565b509050600087600186018151811061557857fe5b602002602001015190506000808373ffffffffffffffffffffffffffffffffffffffff168673ffffffffffffffffffffffffffffffffffffffff16146155c0578260006155c4565b6000835b91509150600060028a510388106155db578861561d565b61561c7f0000000000000000000000000000000000000000000000000000000000000000878c60028c018151811061560f57fe5b60200260200101516151ab565b5b905061564a7f000000000000000000000000000000000000000000000000000000000000000088886151ab565b73ffffffffffffffffffffffffffffffffffffffff1663022c0d9f848484600067ffffffffffffffff8111801561568057600080fd5b506040519080825280601f01601f1916602001820160405280156156b35781602001600182028036833780820191505090505b506040518563ffffffff1660e01b8152600401808581526020018481526020018373ffffffffffffffffffffffffffffffffffffffff1673ffffffffffffffffffffffffffffffffffffffff16815260200180602001828103825283818151815260200191508051906020019080838360005b83811015615741578082015181840152602081019050615726565b50505050905090810190601f16801561576e5780820380516001836020036101000a031916815260200191505b5095505050505050600060405180830381600087803b15801561579057600080fd5b505af11580156157a4573d6000803e3d6000fd5b5050505050505050505050808060010191505061551a565b50505050565b606060028251101561583c576040517f08c379a000000000000000000000000000000000000000000000000000000000815260040180806020018281038252601e8152602001807f556e697377617056324c6962726172793a20494e56414c49445f50415448000081525060200191505060405180910390fd5b815167ffffffffffffffff8111801561585457600080fd5b506040519080825280602002602001820160405280156158835781602001602082028036833780820191505090505b509050828160018351038151811061589757fe5b6020026020010181815250506000600183510390505b600081111561593a576000806158ed878660018603815181106158cc57fe5b60200260200101518786815181106158e057fe5b60200260200101516166a0565b9150915061590f84848151811061590057fe5b60200260200101518383615e3c565b84600185038151811061591e57fe5b60200260200101818152505050508080600190039150506158ad565b509392505050565b60005b6001835103811015615db45760008084838151811061596057fe5b602002602001015185600185018151811061597757fe5b602002602001015191509150600061598f838361605d565b50905060006159bf7f000000000000000000000000000000000000000000000000000000000000000085856151ab565b90506000806000808473ffffffffffffffffffffffffffffffffffffffff16630902f1ac6040518163ffffffff1660e01b815260040160606040518083038186803b158015615a0d57600080fd5b505afa158015615a21573d6000803e3d6000fd5b505050506040513d6060811015615a3757600080fd5b81019080805190602001909291908051906020019092919080519060200190929190505050506dffffffffffffffffffffffffffff1691506dffffffffffffffffffffffffffff1691506000808773ffffffffffffffffffffffffffffffffffffffff168a73ffffffffffffffffffffffffffffffffffffffff1614615abe578284615ac1565b83835b91509150615b8f828b73ffffffffffffffffffffffffffffffffffffffff166370a082318a6040518263ffffffff1660e01b8152600401808273ffffffffffffffffffffffffffffffffffffffff1673ffffffffffffffffffffffffffffffffffffffff16815260200191505060206040518083038186803b158015615b4657600080fd5b505afa158015615b5a573d6000803e3d6000fd5b505050506040513d6020811015615b7057600080fd5b8101908080519060200190929190505050615db990919063ffffffff16565b9550615b9c868383614f03565b9450505050506000808573ffffffffffffffffffffffffffffffffffffffff168873ffffffffffffffffffffffffffffffffffffffff1614615be057826000615be4565b6000835b91509150600060028c51038a10615bfb578a615c3d565b615c3c7f0000000000000000000000000000000000000000000000000000000000000000898e60028e0181518110615c2f57fe5b60200260200101516151ab565b5b90508573ffffffffffffffffffffffffffffffffffffffff1663022c0d9f848484600067ffffffffffffffff81118015615c7657600080fd5b506040519080825280601f01601f191660200182016040528015615ca95781602001600182028036833780820191505090505b506040518563ffffffff1660e01b8152600401808581526020018481526020018373ffffffffffffffffffffffffffffffffffffffff1673ffffffffffffffffffffffffffffffffffffffff16815260200180602001828103825283818151815260200191508051906020019080838360005b83811015615d37578082015181840152602081019050615d1c565b50505050905090810190601f168015615d645780820380516001836020036101000a031916815260200191505b5095505050505050600060405180830381600087803b158015615d8657600080fd5b505af1158015615d9a573d6000803e3d6000fd5b505050505050505050505050508080600101915050615945565b505050565b6000828284039150811115615e36576040517f08c379a00000000000000000000000000000000000000000000000000000000081526004018080602001828103825260158152602001807f64732d6d6174682d7375622d756e646572666c6f77000000000000000000000081525060200191505060405180910390fd5b92915050565b6000808411615e96576040517f08c379a000000000000000000000000000000000000000000000000000000000815260040180806020018281038252602c8152602001806167ca602c913960400191505060405180910390fd5b600083118015615ea65750600082115b615efb576040517f08c379a00000000000000000000000000000000000000000000000000000000081526004018080602001828103825260288152602001806168416028913960400191505060405180910390fd5b6000615f246103e8615f16878761658890919063ffffffff16565b61658890919063ffffffff16565b90506000615f4f6103e5615f418887615db990919063ffffffff16565b61658890919063ffffffff16565b9050615f6e6001828481615f5f57fe5b0461661d90919063ffffffff16565b925050509392505050565b6000808411615fd3576040517f08c379a000000000000000000000000000000000000000000000000000000000815260040180806020018281038252602581526020018061688c6025913960400191505060405180910390fd5b600083118015615fe35750600082115b616038576040517f08c379a00000000000000000000000000000000000000000000000000000000081526004018080602001828103825260288152602001806168416028913960400191505060405180910390fd5b8261604c838661658890919063ffffffff16565b8161605357fe5b0490509392505050565b6000808273ffffffffffffffffffffffffffffffffffffffff168473ffffffffffffffffffffffffffffffffffffffff1614156160e5576040517f08c379a00000000000000000000000000000000000000000000000000000000081526004018080602001828103825260258152602001806167f66025913960400191505060405180910390fd5b8273ffffffffffffffffffffffffffffffffffffffff168473ffffffffffffffffffffffffffffffffffffffff161061611f578284616122565b83835b8092508193505050600073ffffffffffffffffffffffffffffffffffffffff168273ffffffffffffffffffffffffffffffffffffffff1614156161cd576040517f08c379a000000000000000000000000000000000000000000000000000000000815260040180806020018281038252601e8152602001807f556e697377617056324c6962726172793a205a45524f5f41444452455353000081525060200191505060405180910390fd5b9250929050565b600080600073ffffffffffffffffffffffffffffffffffffffff167f000000000000000000000000000000000000000000000000000000000000000073ffffffffffffffffffffffffffffffffffffffff1663e6a439058a8a6040518363ffffffff1660e01b8152600401808373ffffffffffffffffffffffffffffffffffffffff1673ffffffffffffffffffffffffffffffffffffffff1681526020018273ffffffffffffffffffffffffffffffffffffffff1673ffffffffffffffffffffffffffffffffffffffff1681526020019250505060206040518083038186803b1580156162c057600080fd5b505afa1580156162d4573d6000803e3d6000fd5b505050506040513d60208110156162ea57600080fd5b810190808051906020019092919050505073ffffffffffffffffffffffffffffffffffffffff161415616427577f000000000000000000000000000000000000000000000000000000000000000073ffffffffffffffffffffffffffffffffffffffff1663c9c6539689896040518363ffffffff1660e01b8152600401808373ffffffffffffffffffffffffffffffffffffffff1673ffffffffffffffffffffffffffffffffffffffff1681526020018273ffffffffffffffffffffffffffffffffffffffff1673ffffffffffffffffffffffffffffffffffffffff16815260200192505050602060405180830381600087803b1580156163ea57600080fd5b505af11580156163fe573d6000803e3d6000fd5b505050506040513d602081101561641457600080fd5b8101908080519060200190929190505050505b6000806164557f00000000000000000000000000000000000000000000000000000000000000008b8b6166a0565b915091506000821480156164695750600081145b1561647d578787809450819550505061657b565b600061648a898484615f79565b90508781116164fb57858110156164ec576040517f08c379a000000000000000000000000000000000000000000000000000000000815260040180806020018281038252602681526020018061681b6026913960400191505060405180910390fd5b88818095508196505050616579565b6000616508898486615f79565b90508981111561651457fe5b8781101561656d576040517f08c379a00000000000000000000000000000000000000000000000000000000081526004018080602001828103825260268152602001806168f96026913960400191505060405180910390fd5b80898096508197505050505b505b5050965096945050505050565b6000808214806165a557508282838502925082816165a257fe5b04145b616617576040517f08c379a00000000000000000000000000000000000000000000000000000000081526004018080602001828103825260148152602001807f64732d6d6174682d6d756c2d6f766572666c6f7700000000000000000000000081525060200191505060405180910390fd5b92915050565b600082828401915081101561669a576040517f08c379a00000000000000000000000000000000000000000000000000000000081526004018080602001828103825260148152602001807f64732d6d6174682d6164642d6f766572666c6f7700000000000000000000000081525060200191505060405180910390fd5b92915050565b60008060006166af858561605d565b5090506000806166c08888886151ab565b73ffffffffffffffffffffffffffffffffffffffff16630902f1ac6040518163ffffffff1660e01b815260040160606040518083038186803b15801561670557600080fd5b505afa158015616719573d6000803e3d6000fd5b505050506040513d606081101561672f57600080fd5b81019080805190602001909291908051906020019092919080519060200190929190505050506dffffffffffffffffffffffffffff1691506dffffffffffffffffffffffffffff1691508273ffffffffffffffffffffffffffffffffffffffff168773ffffffffffffffffffffffffffffffffffffffff16146167b35780826167b6565b81815b809550819650505050505093509391505056fe556e697377617056324c6962726172793a20494e53554646494349454e545f4f55545055545f414d4f554e54556e697377617056324c6962726172793a204944454e544943414c5f414444524553534553556e69737761705632526f757465723a20494e53554646494349454e545f425f414d4f554e54556e697377617056324c6962726172793a20494e53554646494349454e545f4c4951554944495459616d6f756e74546f6b656e4d696e20706172616d65746572206d6973736d617463682e556e697377617056324c6962726172793a20494e53554646494349454e545f414d4f554e54556e69737761705632526f757465723a204558434553534956455f494e5055545f414d4f554e54616d6f756e744554484d696e20706172616d65746572206d6973736d617463682e556e69737761705632526f757465723a20494e53554646494349454e545f415f414d4f554e545472616e7366657248656c7065723a204554485f5452414e534645525f4641494c4544556e69737761705632526f757465723a20494e53554646494349454e545f4f55545055545f414d4f554e545472616e7366657248656c7065723a205452414e534645525f46524f4d5f4641494c4544616d6f756e74546f6b656e4465736972656420706172616d65746572206d6973736d617463682e556e697377617056324c6962726172793a20494e53554646494349454e545f494e5055545f414d4f554e54a2646970667358221220acedcb070e788e154a82a39cf1db706a304686376f27d00683b9a89b2242720c64736f6c63430006060033",
  "immutableReferences": {
    "2531": [
      {
        "length": 32,
        "start": 6270
      },
      {
        "length": 32,
        "start": 6538
      },
      {
        "length": 32,
        "start": 6973
      },
      {
        "length": 32,
        "start": 7029
      },
      {
        "length": 32,
        "start": 7534
      },
      {
        "length": 32,
        "start": 7802
      },
      {
        "length": 32,
        "start": 8400
      },
      {
        "length": 32,
        "start": 8665
      },
      {
        "length": 32,
        "start": 9258
      },
      {
        "length": 32,
        "start": 9830
      },
      {
        "length": 32,
        "start": 11020
      },
      {
        "length": 32,
        "start": 12049
      },
      {
        "length": 32,
        "start": 12480
      },
      {
        "length": 32,
        "start": 13025
      },
      {
        "length": 32,
        "start": 13290
      },
      {
        "length": 32,
        "start": 14661
      },
      {
        "length": 32,
        "start": 15736
      },
      {
        "length": 32,
        "start": 16506
      },
      {
        "length": 32,
        "start": 16547
      },
      {
        "length": 32,
        "start": 16603
      },
      {
        "length": 32,
        "start": 17165
      },
      {
        "length": 32,
        "start": 18485
      },
      {
        "length": 32,
        "start": 18913
      },
      {
        "length": 32,
        "start": 21984
      },
      {
        "length": 32,
        "start": 22052
      },
      {
        "length": 32,
        "start": 22937
      },
      {
        "length": 32,
        "start": 23552
      },
      {
        "length": 32,
        "start": 25073
      },
      {
        "length": 32,
        "start": 25369
      },
      {
        "length": 32,
        "start": 25647
      }
    ],
    "2534": [
      {
        "length": 32,
        "start": 369
      },
      {
        "length": 32,
        "start": 5662
      },
      {
        "length": 32,
        "start": 5724
      },
      {
        "length": 32,
        "start": 6028
      },
      {
        "length": 32,
        "start": 6762
      },
      {
        "length": 32,
        "start": 8158
      },
      {
        "length": 32,
        "start": 8889
      },
      {
        "length": 32,
        "start": 9292
      },
      {
        "length": 32,
        "start": 10732
      },
      {
        "length": 32,
        "start": 11225
      },
      {
        "length": 32,
        "start": 11532
      },
      {
        "length": 32,
        "start": 11812
      },
      {
        "length": 32,
        "start": 12268
      },
      {
        "length": 32,
        "start": 12417
      },
      {
        "length": 32,
        "start": 13525
      },
      {
        "length": 32,
        "start": 13708
      },
      {
        "length": 32,
        "start": 13951
      },
      {
        "length": 32,
        "start": 14230
      },
      {
        "length": 32,
        "start": 14469
      },
      {
        "length": 32,
        "start": 14598
      },
      {
        "length": 32,
        "start": 16637
      },
      {
        "length": 32,
        "start": 18248
      },
      {
        "length": 32,
        "start": 18701
      },
      {
        "length": 32,
        "start": 18850
      }
    ]
  },
  "source": "// SPDX-License-Identifier: MIT\npragma solidity >=0.4.22 <0.9.0;\n\nimport \"@uniswap/v2-periphery/contracts/UniswapV2Router02.sol\";\n\ncontract UniswapV2Router02Mock is UniswapV2Router02 {\n    address private _token;\n    uint256 private _amountTokenDesired;\n    uint256 private _amountTokenMin;\n    uint256 private _amountETHMin;\n    address private _to;\n\n    constructor() public UniswapV2Router02(address(0), address(0)) {}\n\n    function addLiquidityETHShouldReceive(\n        address token,\n        uint256 amountTokenDesired,\n        uint256 amountTokenMin,\n        uint256 amountETHMin,\n        address to\n    ) external {\n        _token = token;\n        _amountTokenDesired = amountTokenDesired;\n        _amountTokenMin = amountTokenMin;\n        _amountETHMin = amountETHMin;\n        _to = to;\n    }\n\n    function addLiquidityETH(\n        address token,\n        uint256 amountTokenDesired,\n        uint256 amountTokenMin,\n        uint256 amountETHMin,\n        address to,\n        uint256 deadline\n    )\n        external\n        payable\n        virtual\n        override\n        returns (\n            uint256 amountToken,\n            uint256 amountETH,\n            uint256 liquidity\n        )\n    {\n        require(token == _token, \"token parameter missmatch.\");\n        require(amountTokenDesired == _amountTokenDesired, \"amountTokenDesired parameter missmatch.\");\n        require(amountTokenMin == _amountTokenMin, \"amountTokenMin parameter missmatch.\");\n        require(amountETHMin == _amountETHMin, \"amountETHMin parameter missmatch.\");\n        require(to == _to, \"to parameter missmatch.\");\n\n        // to silence the warnings\n        deadline = 0;\n        amountToken = 0;\n        amountETH = 0;\n        liquidity = 0;\n    }\n}\n",
  "sourcePath": "/home/keso/projects/crypto/rollercoaster-token/contracts/mocks/UniswapV2Router02Mock.sol",
  "compiler": {
    "name": "solc",
    "version": "0.6.6+commit.6c089d02.Emscripten.clang"
  },
  "schemaVersion": "3.3.3",
  "updatedAt": "2021-01-31T21:57:32.096Z",
  "devdoc": {
    "methods": {}
  },
  "userdoc": {
    "methods": {}
  }
}