{
  "contractName": "UniswapV2Router02Mock",
  "abi": [
    {
      "inputs": [
        {
          "internalType": "uint256",
          "name": "msgValue",
          "type": "uint256"
        },
        {
          "internalType": "address",
          "name": "token",
          "type": "address"
        },
        {
          "internalType": "uint256",
          "name": "amountTokenDesired",
          "type": "uint256"
        },
        {
          "internalType": "uint256",
          "name": "amountTokenMin",
          "type": "uint256"
        },
        {
          "internalType": "uint256",
          "name": "amountETHMin",
          "type": "uint256"
        },
        {
          "internalType": "address",
          "name": "to",
          "type": "address"
        }
      ],
      "name": "addLiquidityETHShouldBeCalledWith",
      "outputs": [],
      "stateMutability": "view",
      "type": "function"
    },
    {
      "inputs": [
        {
          "internalType": "address",
          "name": "token",
          "type": "address"
        },
        {
          "internalType": "uint256",
          "name": "amountTokenDesired",
          "type": "uint256"
        },
        {
          "internalType": "uint256",
          "name": "amountTokenMin",
          "type": "uint256"
        },
        {
          "internalType": "uint256",
          "name": "amountETHMin",
          "type": "uint256"
        },
        {
          "internalType": "address",
          "name": "to",
          "type": "address"
        },
        {
          "internalType": "uint256",
          "name": "deadline",
          "type": "uint256"
        }
      ],
      "name": "addLiquidityETH",
      "outputs": [
        {
          "internalType": "uint256",
          "name": "amountToken",
          "type": "uint256"
        },
        {
          "internalType": "uint256",
          "name": "amountETH",
          "type": "uint256"
        },
        {
          "internalType": "uint256",
          "name": "liquidity",
          "type": "uint256"
        }
      ],
      "stateMutability": "payable",
      "type": "function"
    },
    {
      "inputs": [
        {
          "internalType": "uint256",
          "name": "msgValue",
          "type": "uint256"
        },
        {
          "internalType": "uint256",
          "name": "amountOutMin",
          "type": "uint256"
        },
        {
          "internalType": "address[]",
          "name": "path",
          "type": "address[]"
        },
        {
          "internalType": "address",
          "name": "to",
          "type": "address"
        }
      ],
      "name": "swapExactETHForTokensShouldBeCalledWith",
      "outputs": [],
      "stateMutability": "view",
      "type": "function"
    },
    {
      "inputs": [
        {
          "internalType": "uint256",
          "name": "amountOutMin",
          "type": "uint256"
        },
        {
          "internalType": "address[]",
          "name": "path",
          "type": "address[]"
        },
        {
          "internalType": "address",
          "name": "to",
          "type": "address"
        },
        {
          "internalType": "uint256",
          "name": "deadline",
          "type": "uint256"
        }
      ],
      "name": "swapExactETHForTokens",
      "outputs": [
        {
          "internalType": "uint256[]",
          "name": "amounts",
          "type": "uint256[]"
        }
      ],
      "stateMutability": "payable",
      "type": "function"
    }
  ],
  "bytecode": "0x608060405234801561001057600080fd5b50610cab806100206000396000f3fe60806040526004361061003f5760003560e01c8063238f1d9b146100445780637ff36ab5146100fe57806381ef6d6714610200578063f305d71914610299575b600080fd5b34801561005057600080fd5b506100fc6004803603608081101561006757600080fd5b8101908080359060200190929190803590602001909291908035906020019064010000000081111561009857600080fd5b8201836020820111156100aa57600080fd5b803590602001918460208302840111640100000000831117156100cc57600080fd5b9091929391929390803573ffffffffffffffffffffffffffffffffffffffff169060200190929190505050610347565b005b6101a96004803603608081101561011457600080fd5b81019080803590602001909291908035906020019064010000000081111561013b57600080fd5b82018360208201111561014d57600080fd5b8035906020019184602083028401116401000000008311171561016f57600080fd5b9091929391929390803573ffffffffffffffffffffffffffffffffffffffff1690602001909291908035906020019092919050505061065e565b6040518080602001828103825283818151815260200191508051906020019060200280838360005b838110156101ec5780820151818401526020810190506101d1565b505050509050019250505060405180910390f35b34801561020c57600080fd5b50610297600480360360c081101561022357600080fd5b8101908080359060200190929190803573ffffffffffffffffffffffffffffffffffffffff169060200190929190803590602001909291908035906020019092919080359060200190929190803573ffffffffffffffffffffffffffffffffffffffff16906020019092919050505061071a565b005b610323600480360360c08110156102af57600080fd5b81019080803573ffffffffffffffffffffffffffffffffffffffff169060200190929190803590602001909291908035906020019092919080359060200190929190803573ffffffffffffffffffffffffffffffffffffffff16906020019092919080359060200190929190505050610a2d565b60405180848152602001838152602001828152602001935050505060405180910390f35b60065485146103be576040517f08c379a000000000000000000000000000000000000000000000000000000000815260040180806020018281038252601e8152602001807f6d73672e76616c756520706172616d65746572206d6973736d617463682e000081525060200191505060405180910390fd5b6007548414610418576040517f08c379a0000000000000000000000000000000000000000000000000000000008152600401808060200182810382526021815260200180610bc86021913960400191505060405180910390fd5b6008805490508383905014610495576040517f08c379a00000000000000000000000000000000000000000000000000000000081526004018080602001828103825260208152602001807f7061746820706172616d65746572206c656e677468206d6973736d617463682e81525060200191505060405180910390fd5b60005b8383905081101561059357600881815481106104b057fe5b9060005260206000200160009054906101000a900473ffffffffffffffffffffffffffffffffffffffff1673ffffffffffffffffffffffffffffffffffffffff168484838181106104fd57fe5b9050602002013573ffffffffffffffffffffffffffffffffffffffff1673ffffffffffffffffffffffffffffffffffffffff1614610586576040517f08c379a0000000000000000000000000000000000000000000000000000000008152600401808060200182810382526022815260200180610c0c6022913960400191505060405180910390fd5b8080600101915050610498565b50600560009054906101000a900473ffffffffffffffffffffffffffffffffffffffff1673ffffffffffffffffffffffffffffffffffffffff168173ffffffffffffffffffffffffffffffffffffffff1614610657576040517f08c379a00000000000000000000000000000000000000000000000000000000081526004018080602001828103825260178152602001807f746f20706172616d65746572206d6973736d617463682e00000000000000000081525060200191505060405180910390fd5b5050505050565b6060346006819055508560078190555084846008919061067f929190610aec565b5082600960006101000a81548173ffffffffffffffffffffffffffffffffffffffff021916908373ffffffffffffffffffffffffffffffffffffffff160217905550600091508484905067ffffffffffffffff811180156106df57600080fd5b5060405190808252806020026020018201604052801561070e5781602001602082028036833780820191505090505b50905095945050505050565b6000548614610791576040517f08c379a000000000000000000000000000000000000000000000000000000000815260040180806020018281038252601e8152602001807f6d73672e76616c756520706172616d65746572206d6973736d617463682e000081525060200191505060405180910390fd5b600160009054906101000a900473ffffffffffffffffffffffffffffffffffffffff1673ffffffffffffffffffffffffffffffffffffffff168573ffffffffffffffffffffffffffffffffffffffff1614610854576040517f08c379a000000000000000000000000000000000000000000000000000000000815260040180806020018281038252601a8152602001807f746f6b656e20706172616d65746572206d6973736d617463682e00000000000081525060200191505060405180910390fd5b60025484146108ae576040517f08c379a0000000000000000000000000000000000000000000000000000000008152600401808060200182810382526027815260200180610c4f6027913960400191505060405180910390fd5b6003548314610908576040517f08c379a0000000000000000000000000000000000000000000000000000000008152600401808060200182810382526023815260200180610be96023913960400191505060405180910390fd5b6004548214610962576040517f08c379a0000000000000000000000000000000000000000000000000000000008152600401808060200182810382526021815260200180610c2e6021913960400191505060405180910390fd5b600560009054906101000a900473ffffffffffffffffffffffffffffffffffffffff1673ffffffffffffffffffffffffffffffffffffffff168173ffffffffffffffffffffffffffffffffffffffff1614610a25576040517f08c379a00000000000000000000000000000000000000000000000000000000081526004018080602001828103825260178152602001807f746f20706172616d65746572206d6973736d617463682e00000000000000000081525060200191505060405180910390fd5b505050505050565b60008060003460008190555088600160006101000a81548173ffffffffffffffffffffffffffffffffffffffff021916908373ffffffffffffffffffffffffffffffffffffffff16021790555087600281905550866003819055508560048190555084600560006101000a81548173ffffffffffffffffffffffffffffffffffffffff021916908373ffffffffffffffffffffffffffffffffffffffff1602179055506000935060009250600091506000905096509650969350505050565b828054828255906000526020600020908101928215610b7b579160200282015b82811115610b7a57823573ffffffffffffffffffffffffffffffffffffffff168260006101000a81548173ffffffffffffffffffffffffffffffffffffffff021916908373ffffffffffffffffffffffffffffffffffffffff16021790555091602001919060010190610b0c565b5b509050610b889190610b8c565b5090565b5b80821115610bc357600081816101000a81549073ffffffffffffffffffffffffffffffffffffffff021916905550600101610b8d565b509056fe616d6f756e744f75744d696e20706172616d65746572206d6973736d617463682e616d6f756e74546f6b656e4d696e20706172616d65746572206d6973736d617463682e7061746820706172616d6574657220656c656d656e7473206d6973736d617463682e616d6f756e744554484d696e20706172616d65746572206d6973736d617463682e616d6f756e74546f6b656e4465736972656420706172616d65746572206d6973736d617463682ea26469706673582212205935cbcea560ac888d9fe9c7e8d7522346c15916b3e5cfc98880e94c2e864d1164736f6c634300060c0033",
  "immutableReferences": {},
  "source": "// SPDX-License-Identifier: MIT\npragma solidity >=0.4.22 <0.9.0;\n\nimport \"../interfaces/IUniswapV2Router02.sol\";\n\ncontract UniswapV2Router02Mock is IUniswapV2Router02 {\n    uint256 private _msgValue;\n    address private _token;\n    uint256 private _amountTokenDesired;\n    uint256 private _amountTokenMin;\n    uint256 private _amountETHMin;\n    address private _to;\n\n    uint256 private _sMsgValue;\n    uint256 private _sAmountOutMin;\n    address[] private _sPath;\n    address private _sTo;\n\n    function addLiquidityETHShouldBeCalledWith(\n        uint256 msgValue,\n        address token,\n        uint256 amountTokenDesired,\n        uint256 amountTokenMin,\n        uint256 amountETHMin,\n        address to\n    ) external view {\n        require(msgValue == _msgValue, \"msg.value parameter missmatch.\");\n        require(token == _token, \"token parameter missmatch.\");\n        require(amountTokenDesired == _amountTokenDesired, \"amountTokenDesired parameter missmatch.\");\n        require(amountTokenMin == _amountTokenMin, \"amountTokenMin parameter missmatch.\");\n        require(amountETHMin == _amountETHMin, \"amountETHMin parameter missmatch.\");\n        require(to == _to, \"to parameter missmatch.\");\n    }\n\n    function addLiquidityETH(\n        address token,\n        uint256 amountTokenDesired,\n        uint256 amountTokenMin,\n        uint256 amountETHMin,\n        address to,\n        uint256 deadline\n    )\n        external\n        payable\n        virtual\n        override\n        returns (\n            uint256 amountToken,\n            uint256 amountETH,\n            uint256 liquidity\n        )\n    {\n        _msgValue = msg.value;\n        _token = token;\n        _amountTokenDesired = amountTokenDesired;\n        _amountTokenMin = amountTokenMin;\n        _amountETHMin = amountETHMin;\n        _to = to;\n\n        // to silence the warnings\n        deadline = 0;\n        amountToken = 0;\n        amountETH = 0;\n        liquidity = 0;\n    }\n\n    function swapExactETHForTokensShouldBeCalledWith(\n        uint256 msgValue,\n        uint256 amountOutMin,\n        address[] calldata path,\n        address to\n    ) external view {\n        require(msgValue == _sMsgValue, \"msg.value parameter missmatch.\");\n        require(amountOutMin == _sAmountOutMin, \"amountOutMin parameter missmatch.\");\n        require(path.length == _sPath.length, \"path parameter length missmatch.\");\n        for (uint256 i; i < path.length; i++) {\n            require(path[i] == _sPath[i], \"path parameter elements missmatch.\");\n        }\n        require(to == _to, \"to parameter missmatch.\");\n    }\n\n    function swapExactETHForTokens(\n        uint256 amountOutMin,\n        address[] calldata path,\n        address to,\n        uint256 deadline\n    ) external payable override returns (uint256[] memory amounts) {\n        _sMsgValue = msg.value;\n        _sAmountOutMin = amountOutMin;\n        _sPath = path;\n        _sTo = to;\n\n        // to silence warnings\n        deadline = 0;\n        amounts = new uint256[](path.length);\n    }\n}\n",
  "sourcePath": "/home/keso/projects/crypto/rollercoaster-token/contracts/mocks/UniswapV2Router02Mock.sol",
  "compiler": {
    "name": "solc",
    "version": "0.6.12+commit.27d51765.Emscripten.clang"
  },
  "schemaVersion": "3.3.3",
  "updatedAt": "2021-02-03T01:03:01.302Z",
  "devdoc": {
    "kind": "dev",
    "methods": {},
    "version": 1
  },
  "userdoc": {
    "kind": "user",
    "methods": {},
    "version": 1
  }
}